{
	"contracts/RSPGame.sol": {
		"RPSGame": {
			"abi": [
				{
					"anonymous": false,
					"inputs": [
						{
							"indexed": false,
							"internalType": "address",
							"name": "_player1",
							"type": "address"
						},
						{
							"indexed": false,
							"internalType": "address",
							"name": "_player2",
							"type": "address"
						},
						{
							"indexed": false,
							"internalType": "uint256",
							"name": "_deadline",
							"type": "uint256"
						}
					],
					"name": "GameStart",
					"type": "event"
				},
				{
					"anonymous": false,
					"inputs": [
						{
							"indexed": false,
							"internalType": "address",
							"name": "_player",
							"type": "address"
						},
						{
							"indexed": false,
							"internalType": "bytes32",
							"name": "_hashedVote",
							"type": "bytes32"
						}
					],
					"name": "HiddenVote",
					"type": "event"
				},
				{
					"anonymous": false,
					"inputs": [
						{
							"indexed": false,
							"internalType": "address",
							"name": "_player",
							"type": "address"
						},
						{
							"indexed": false,
							"internalType": "string",
							"name": "_vote",
							"type": "string"
						}
					],
					"name": "RevealedVote",
					"type": "event"
				},
				{
					"anonymous": false,
					"inputs": [
						{
							"indexed": false,
							"internalType": "address",
							"name": "_winner",
							"type": "address"
						},
						{
							"indexed": false,
							"internalType": "uint256",
							"name": "_amount",
							"type": "uint256"
						}
					],
					"name": "Withdraw",
					"type": "event"
				},
				{
					"inputs": [
						{
							"internalType": "string",
							"name": "a",
							"type": "string"
						},
						{
							"internalType": "string",
							"name": "b",
							"type": "string"
						}
					],
					"name": "compareStrings",
					"outputs": [
						{
							"internalType": "bool",
							"name": "",
							"type": "bool"
						}
					],
					"stateMutability": "pure",
					"type": "function"
				},
				{
					"inputs": [
						{
							"internalType": "string",
							"name": "_vote1",
							"type": "string"
						},
						{
							"internalType": "string",
							"name": "_vote2",
							"type": "string"
						}
					],
					"name": "isWinner",
					"outputs": [
						{
							"internalType": "bool",
							"name": "",
							"type": "bool"
						}
					],
					"stateMutability": "pure",
					"type": "function"
				},
				{
					"inputs": [],
					"name": "minStake",
					"outputs": [
						{
							"internalType": "uint256",
							"name": "",
							"type": "uint256"
						}
					],
					"stateMutability": "view",
					"type": "function"
				},
				{
					"inputs": [
						{
							"internalType": "bytes32",
							"name": "_hashedVote",
							"type": "bytes32"
						}
					],
					"name": "play",
					"outputs": [],
					"stateMutability": "payable",
					"type": "function"
				},
				{
					"inputs": [
						{
							"internalType": "uint256",
							"name": "",
							"type": "uint256"
						}
					],
					"name": "playerQueue",
					"outputs": [
						{
							"internalType": "address",
							"name": "",
							"type": "address"
						}
					],
					"stateMutability": "view",
					"type": "function"
				},
				{
					"inputs": [
						{
							"internalType": "address",
							"name": "",
							"type": "address"
						}
					],
					"name": "players",
					"outputs": [
						{
							"internalType": "string",
							"name": "vote",
							"type": "string"
						},
						{
							"internalType": "bytes32",
							"name": "hashedVote",
							"type": "bytes32"
						},
						{
							"internalType": "bool",
							"name": "revealed",
							"type": "bool"
						},
						{
							"internalType": "address",
							"name": "opponent",
							"type": "address"
						},
						{
							"internalType": "uint256",
							"name": "stake",
							"type": "uint256"
						},
						{
							"internalType": "uint256",
							"name": "deadline",
							"type": "uint256"
						}
					],
					"stateMutability": "view",
					"type": "function"
				},
				{
					"inputs": [
						{
							"internalType": "string",
							"name": "_vote",
							"type": "string"
						},
						{
							"internalType": "string",
							"name": "_salt",
							"type": "string"
						}
					],
					"name": "reveal",
					"outputs": [],
					"stateMutability": "nonpayable",
					"type": "function"
				},
				{
					"inputs": [],
					"name": "revealTime",
					"outputs": [
						{
							"internalType": "uint256",
							"name": "",
							"type": "uint256"
						}
					],
					"stateMutability": "view",
					"type": "function"
				},
				{
					"inputs": [],
					"name": "withdraw",
					"outputs": [],
					"stateMutability": "payable",
					"type": "function"
				}
			],
			"devdoc": {
				"author": "Johan F. Wilvang",
				"details": "The contract handles player registration, vote submission, vote revealing, and stake withdrawal.",
				"kind": "dev",
				"methods": {
					"compareStrings(string,string)": {
						"details": "Compares two strings for equality.",
						"params": {
							"a": "The first string.",
							"b": "The second string."
						},
						"returns": {
							"_0": "True if the strings are equal, false otherwise."
						}
					},
					"isWinner(string,string)": {
						"details": "Determines if the first vote is the winner.",
						"params": {
							"_vote1": "The first vote.",
							"_vote2": "The second vote."
						},
						"returns": {
							"_0": "True if the first vote is the winner, false otherwise."
						}
					},
					"play(bytes32)": {
						"details": "Allows a player to join the game with a hashed vote.",
						"params": {
							"_hashedVote": "The hashed vote of the player."
						}
					},
					"reveal(string,string)": {
						"details": "Allows a player to reveal their vote.      The vote will be converted to uppercase if      it was originally in lowercase.",
						"params": {
							"_salt": "The salt used to hash the vote.",
							"_vote": "The vote of the player."
						}
					},
					"withdraw()": {
						"details": "Allows a player to withdraw their stake if conditions are met."
					}
				},
				"title": "Rock-Paper-Scissors Game Contract",
				"version": 1
			},
			"evm": {
				"assembly": "    /* \"contracts/RSPGame.sol\":578:10182  contract RPSGame {... */\n  mstore(0x40, 0x80)\n    /* \"contracts/RSPGame.sol\":1638:1649  0.001 ether */\n  0x038d7ea4c68000\n    /* \"contracts/RSPGame.sol\":1615:1649  uint public minStake = 0.001 ether */\n  0x02\n  sstore\n    /* \"contracts/RSPGame.sol\":1711:1714  480 */\n  0x01e0\n    /* \"contracts/RSPGame.sol\":1686:1714  uint public revealTime = 480 */\n  0x03\n  sstore\n    /* \"contracts/RSPGame.sol\":578:10182  contract RPSGame {... */\n  callvalue\n  dup1\n  iszero\n  tag_1\n  jumpi\n  0x00\n  dup1\n  revert\ntag_1:\n  pop\n  dataSize(sub_0)\n  dup1\n  dataOffset(sub_0)\n  0x00\n  codecopy\n  0x00\n  return\nstop\n\nsub_0: assembly {\n        /* \"contracts/RSPGame.sol\":578:10182  contract RPSGame {... */\n      mstore(0x40, 0x80)\n      jumpi(tag_1, lt(calldatasize, 0x04))\n      shr(0xe0, calldataload(0x00))\n      dup1\n      0xba829d71\n      gt\n      tag_11\n      jumpi\n      dup1\n      0xba829d71\n      eq\n      tag_6\n      jumpi\n      dup1\n      0xbed34bba\n      eq\n      tag_7\n      jumpi\n      dup1\n      0xc7a1865b\n      eq\n      tag_8\n      jumpi\n      dup1\n      0xe2eb41ff\n      eq\n      tag_9\n      jumpi\n      dup1\n      0xe71a0706\n      eq\n      tag_10\n      jumpi\n      jump(tag_1)\n    tag_11:\n      dup1\n      0x375b3c0a\n      eq\n      tag_2\n      jumpi\n      dup1\n      0x3ccfd60b\n      eq\n      tag_3\n      jumpi\n      dup1\n      0x5ba1b2c7\n      eq\n      tag_4\n      jumpi\n      dup1\n      0x943e0a04\n      eq\n      tag_5\n      jumpi\n    tag_1:\n      0x00\n      dup1\n      revert\n        /* \"contracts/RSPGame.sol\":1615:1649  uint public minStake = 0.001 ether */\n    tag_2:\n      callvalue\n      dup1\n      iszero\n      tag_12\n      jumpi\n      0x00\n      dup1\n      revert\n    tag_12:\n      pop\n      tag_13\n      tag_14\n      jump\t// in\n    tag_13:\n      mload(0x40)\n      tag_15\n      swap2\n      swap1\n      tag_16\n      jump\t// in\n    tag_15:\n      mload(0x40)\n      dup1\n      swap2\n      sub\n      swap1\n      return\n        /* \"contracts/RSPGame.sol\":5156:6582  function withdraw() public payable canWithdraw {... */\n    tag_3:\n      tag_17\n      tag_18\n      jump\t// in\n    tag_17:\n      stop\n        /* \"contracts/RSPGame.sol\":4339:4977  function reveal(string calldata _vote, string calldata _salt) public hasOpponent validVote(_vote, _salt) {... */\n    tag_4:\n      callvalue\n      dup1\n      iszero\n      tag_19\n      jumpi\n      0x00\n      dup1\n      revert\n    tag_19:\n      pop\n      tag_20\n      0x04\n      dup1\n      calldatasize\n      sub\n      dup2\n      add\n      swap1\n      tag_21\n      swap2\n      swap1\n      tag_22\n      jump\t// in\n    tag_21:\n      tag_23\n      jump\t// in\n    tag_20:\n      stop\n        /* \"contracts/RSPGame.sol\":9511:10180  function isWinner(string memory _vote1, string memory _vote2) public pure validChoice(_vote1) returns(bool) {... */\n    tag_5:\n      callvalue\n      dup1\n      iszero\n      tag_24\n      jumpi\n      0x00\n      dup1\n      revert\n    tag_24:\n      pop\n      tag_25\n      0x04\n      dup1\n      calldatasize\n      sub\n      dup2\n      add\n      swap1\n      tag_26\n      swap2\n      swap1\n      tag_27\n      jump\t// in\n    tag_26:\n      tag_28\n      jump\t// in\n    tag_25:\n      mload(0x40)\n      tag_29\n      swap2\n      swap1\n      tag_30\n      jump\t// in\n    tag_29:\n      mload(0x40)\n      dup1\n      swap2\n      sub\n      swap1\n      return\n        /* \"contracts/RSPGame.sol\":1686:1714  uint public revealTime = 480 */\n    tag_6:\n      callvalue\n      dup1\n      iszero\n      tag_31\n      jumpi\n      0x00\n      dup1\n      revert\n    tag_31:\n      pop\n      tag_32\n      tag_33\n      jump\t// in\n    tag_32:\n      mload(0x40)\n      tag_34\n      swap2\n      swap1\n      tag_16\n      jump\t// in\n    tag_34:\n      mload(0x40)\n      dup1\n      swap2\n      sub\n      swap1\n      return\n        /* \"contracts/RSPGame.sol\":6783:7014  function compareStrings(string memory a, string memory b) public pure returns (bool) {... */\n    tag_7:\n      callvalue\n      dup1\n      iszero\n      tag_35\n      jumpi\n      0x00\n      dup1\n      revert\n    tag_35:\n      pop\n      tag_36\n      0x04\n      dup1\n      calldatasize\n      sub\n      dup2\n      add\n      swap1\n      tag_37\n      swap2\n      swap1\n      tag_27\n      jump\t// in\n    tag_37:\n      tag_38\n      jump\t// in\n    tag_36:\n      mload(0x40)\n      tag_39\n      swap2\n      swap1\n      tag_30\n      jump\t// in\n    tag_39:\n      mload(0x40)\n      dup1\n      swap2\n      sub\n      swap1\n      return\n        /* \"contracts/RSPGame.sol\":2133:3954  function play(bytes32 _hashedVote) public payable isNewPlayer costs(minStake) {... */\n    tag_8:\n      tag_40\n      0x04\n      dup1\n      calldatasize\n      sub\n      dup2\n      add\n      swap1\n      tag_41\n      swap2\n      swap1\n      tag_42\n      jump\t// in\n    tag_41:\n      tag_43\n      jump\t// in\n    tag_40:\n      stop\n        /* \"contracts/RSPGame.sol\":1480:1521  mapping(address => Player) public players */\n    tag_9:\n      callvalue\n      dup1\n      iszero\n      tag_44\n      jumpi\n      0x00\n      dup1\n      revert\n    tag_44:\n      pop\n      tag_45\n      0x04\n      dup1\n      calldatasize\n      sub\n      dup2\n      add\n      swap1\n      tag_46\n      swap2\n      swap1\n      tag_47\n      jump\t// in\n    tag_46:\n      tag_48\n      jump\t// in\n    tag_45:\n      mload(0x40)\n      tag_49\n      swap7\n      swap6\n      swap5\n      swap4\n      swap3\n      swap2\n      swap1\n      tag_50\n      jump\t// in\n    tag_49:\n      mload(0x40)\n      dup1\n      swap2\n      sub\n      swap1\n      return\n        /* \"contracts/RSPGame.sol\":1528:1556  address[] public playerQueue */\n    tag_10:\n      callvalue\n      dup1\n      iszero\n      tag_51\n      jumpi\n      0x00\n      dup1\n      revert\n    tag_51:\n      pop\n      tag_52\n      0x04\n      dup1\n      calldatasize\n      sub\n      dup2\n      add\n      swap1\n      tag_53\n      swap2\n      swap1\n      tag_54\n      jump\t// in\n    tag_53:\n      tag_55\n      jump\t// in\n    tag_52:\n      mload(0x40)\n      tag_56\n      swap2\n      swap1\n      tag_57\n      jump\t// in\n    tag_56:\n      mload(0x40)\n      dup1\n      swap2\n      sub\n      swap1\n      return\n        /* \"contracts/RSPGame.sol\":1615:1649  uint public minStake = 0.001 ether */\n    tag_14:\n      sload(0x02)\n      dup2\n      jump\t// out\n        /* \"contracts/RSPGame.sol\":5156:6582  function withdraw() public payable canWithdraw {... */\n    tag_18:\n        /* \"contracts/RSPGame.sol\":8039:8046  players */\n      0x00\n        /* \"contracts/RSPGame.sol\":8039:8058  players[msg.sender] */\n      dup1\n        /* \"contracts/RSPGame.sol\":8047:8057  msg.sender */\n      caller\n        /* \"contracts/RSPGame.sol\":8039:8058  players[msg.sender] */\n      0xffffffffffffffffffffffffffffffffffffffff\n      and\n      0xffffffffffffffffffffffffffffffffffffffff\n      and\n      dup2\n      mstore\n      0x20\n      add\n      swap1\n      dup2\n      mstore\n      0x20\n      add\n      0x00\n      keccak256\n        /* \"contracts/RSPGame.sol\":8039:8067  players[msg.sender].revealed */\n      0x02\n      add\n      0x00\n      swap1\n      sload\n      swap1\n      0x0100\n      exp\n      swap1\n      div\n      0xff\n      and\n        /* \"contracts/RSPGame.sol\":8031:8115  require(players[msg.sender].revealed, \"You must reveal your vote before withdrawal\") */\n      tag_59\n      jumpi\n      mload(0x40)\n      0x08c379a000000000000000000000000000000000000000000000000000000000\n      dup2\n      mstore\n      0x04\n      add\n      tag_60\n      swap1\n      tag_61\n      jump\t// in\n    tag_60:\n      mload(0x40)\n      dup1\n      swap2\n      sub\n      swap1\n      revert\n    tag_59:\n        /* \"contracts/RSPGame.sol\":8267:8274  players */\n      0x00\n        /* \"contracts/RSPGame.sol\":8267:8286  players[msg.sender] */\n      dup1\n        /* \"contracts/RSPGame.sol\":8275:8285  msg.sender */\n      caller\n        /* \"contracts/RSPGame.sol\":8267:8286  players[msg.sender] */\n      0xffffffffffffffffffffffffffffffffffffffff\n      and\n      0xffffffffffffffffffffffffffffffffffffffff\n      and\n      dup2\n      mstore\n      0x20\n      add\n      swap1\n      dup2\n      mstore\n      0x20\n      add\n      0x00\n      keccak256\n        /* \"contracts/RSPGame.sol\":8267:8295  players[msg.sender].deadline */\n      0x04\n      add\n      sload\n        /* \"contracts/RSPGame.sol\":8248:8263  block.timestamp */\n      timestamp\n        /* \"contracts/RSPGame.sol\":8248:8295  block.timestamp >= players[msg.sender].deadline */\n      lt\n      iszero\n        /* \"contracts/RSPGame.sol\":8248:8357  block.timestamp >= players[msg.sender].deadline ||... */\n      dup1\n      tag_62\n      jumpi\n      pop\n        /* \"contracts/RSPGame.sol\":8311:8318  players */\n      0x00\n        /* \"contracts/RSPGame.sol\":8311:8348  players[players[msg.sender].opponent] */\n      dup1\n        /* \"contracts/RSPGame.sol\":8319:8326  players */\n      dup1\n        /* \"contracts/RSPGame.sol\":8319:8338  players[msg.sender] */\n      0x00\n        /* \"contracts/RSPGame.sol\":8327:8337  msg.sender */\n      caller\n        /* \"contracts/RSPGame.sol\":8319:8338  players[msg.sender] */\n      0xffffffffffffffffffffffffffffffffffffffff\n      and\n      0xffffffffffffffffffffffffffffffffffffffff\n      and\n      dup2\n      mstore\n      0x20\n      add\n      swap1\n      dup2\n      mstore\n      0x20\n      add\n      0x00\n      keccak256\n        /* \"contracts/RSPGame.sol\":8319:8347  players[msg.sender].opponent */\n      0x02\n      add\n      0x01\n      swap1\n      sload\n      swap1\n      0x0100\n      exp\n      swap1\n      div\n      0xffffffffffffffffffffffffffffffffffffffff\n      and\n        /* \"contracts/RSPGame.sol\":8311:8348  players[players[msg.sender].opponent] */\n      0xffffffffffffffffffffffffffffffffffffffff\n      and\n      0xffffffffffffffffffffffffffffffffffffffff\n      and\n      dup2\n      mstore\n      0x20\n      add\n      swap1\n      dup2\n      mstore\n      0x20\n      add\n      0x00\n      keccak256\n        /* \"contracts/RSPGame.sol\":8311:8357  players[players[msg.sender].opponent].revealed */\n      0x02\n      add\n      0x00\n      swap1\n      sload\n      swap1\n      0x0100\n      exp\n      swap1\n      div\n      0xff\n      and\n        /* \"contracts/RSPGame.sol\":8248:8357  block.timestamp >= players[msg.sender].deadline ||... */\n    tag_62:\n        /* \"contracts/RSPGame.sol\":8227:8425  require(... */\n      tag_63\n      jumpi\n      mload(0x40)\n      0x08c379a000000000000000000000000000000000000000000000000000000000\n      dup2\n      mstore\n      0x04\n      add\n      tag_64\n      swap1\n      tag_65\n      jump\t// in\n    tag_64:\n      mload(0x40)\n      dup1\n      swap2\n      sub\n      swap1\n      revert\n    tag_63:\n        /* \"contracts/RSPGame.sol\":5214:5230  address opponent */\n      0x00\n        /* \"contracts/RSPGame.sol\":5233:5240  players */\n      dup1\n        /* \"contracts/RSPGame.sol\":5233:5252  players[msg.sender] */\n      0x00\n        /* \"contracts/RSPGame.sol\":5241:5251  msg.sender */\n      caller\n        /* \"contracts/RSPGame.sol\":5233:5252  players[msg.sender] */\n      0xffffffffffffffffffffffffffffffffffffffff\n      and\n      0xffffffffffffffffffffffffffffffffffffffff\n      and\n      dup2\n      mstore\n      0x20\n      add\n      swap1\n      dup2\n      mstore\n      0x20\n      add\n      0x00\n      keccak256\n        /* \"contracts/RSPGame.sol\":5233:5261  players[msg.sender].opponent */\n      0x02\n      add\n      0x01\n      swap1\n      sload\n      swap1\n      0x0100\n      exp\n      swap1\n      div\n      0xffffffffffffffffffffffffffffffffffffffff\n      and\n        /* \"contracts/RSPGame.sol\":5214:5261  address opponent = players[msg.sender].opponent */\n      swap1\n      pop\n        /* \"contracts/RSPGame.sol\":5298:5317  string memory vote1 */\n      0x00\n        /* \"contracts/RSPGame.sol\":5320:5327  players */\n      dup1\n        /* \"contracts/RSPGame.sol\":5320:5339  players[msg.sender] */\n      0x00\n        /* \"contracts/RSPGame.sol\":5328:5338  msg.sender */\n      caller\n        /* \"contracts/RSPGame.sol\":5320:5339  players[msg.sender] */\n      0xffffffffffffffffffffffffffffffffffffffff\n      and\n      0xffffffffffffffffffffffffffffffffffffffff\n      and\n      dup2\n      mstore\n      0x20\n      add\n      swap1\n      dup2\n      mstore\n      0x20\n      add\n      0x00\n      keccak256\n        /* \"contracts/RSPGame.sol\":5320:5344  players[msg.sender].vote */\n      0x00\n      add\n        /* \"contracts/RSPGame.sol\":5298:5344  string memory vote1 = players[msg.sender].vote */\n      dup1\n      sload\n      tag_67\n      swap1\n      tag_68\n      jump\t// in\n    tag_67:\n      dup1\n      0x1f\n      add\n      0x20\n      dup1\n      swap2\n      div\n      mul\n      0x20\n      add\n      mload(0x40)\n      swap1\n      dup2\n      add\n      0x40\n      mstore\n      dup1\n      swap3\n      swap2\n      swap1\n      dup2\n      dup2\n      mstore\n      0x20\n      add\n      dup3\n      dup1\n      sload\n      tag_69\n      swap1\n      tag_68\n      jump\t// in\n    tag_69:\n      dup1\n      iszero\n      tag_70\n      jumpi\n      dup1\n      0x1f\n      lt\n      tag_71\n      jumpi\n      0x0100\n      dup1\n      dup4\n      sload\n      div\n      mul\n      dup4\n      mstore\n      swap2\n      0x20\n      add\n      swap2\n      jump(tag_70)\n    tag_71:\n      dup3\n      add\n      swap2\n      swap1\n      0x00\n      mstore\n      keccak256(0x00, 0x20)\n      swap1\n    tag_72:\n      dup2\n      sload\n      dup2\n      mstore\n      swap1\n      0x01\n      add\n      swap1\n      0x20\n      add\n      dup1\n      dup4\n      gt\n      tag_72\n      jumpi\n      dup3\n      swap1\n      sub\n      0x1f\n      and\n      dup3\n      add\n      swap2\n    tag_70:\n      pop\n      pop\n      pop\n      pop\n      pop\n      swap1\n      pop\n        /* \"contracts/RSPGame.sol\":5377:5396  string memory vote2 */\n      0x00\n        /* \"contracts/RSPGame.sol\":5399:5406  players */\n      dup1\n        /* \"contracts/RSPGame.sol\":5399:5416  players[opponent] */\n      0x00\n        /* \"contracts/RSPGame.sol\":5407:5415  opponent */\n      dup5\n        /* \"contracts/RSPGame.sol\":5399:5416  players[opponent] */\n      0xffffffffffffffffffffffffffffffffffffffff\n      and\n      0xffffffffffffffffffffffffffffffffffffffff\n      and\n      dup2\n      mstore\n      0x20\n      add\n      swap1\n      dup2\n      mstore\n      0x20\n      add\n      0x00\n      keccak256\n        /* \"contracts/RSPGame.sol\":5399:5421  players[opponent].vote */\n      0x00\n      add\n        /* \"contracts/RSPGame.sol\":5377:5421  string memory vote2 = players[opponent].vote */\n      dup1\n      sload\n      tag_73\n      swap1\n      tag_68\n      jump\t// in\n    tag_73:\n      dup1\n      0x1f\n      add\n      0x20\n      dup1\n      swap2\n      div\n      mul\n      0x20\n      add\n      mload(0x40)\n      swap1\n      dup2\n      add\n      0x40\n      mstore\n      dup1\n      swap3\n      swap2\n      swap1\n      dup2\n      dup2\n      mstore\n      0x20\n      add\n      dup3\n      dup1\n      sload\n      tag_74\n      swap1\n      tag_68\n      jump\t// in\n    tag_74:\n      dup1\n      iszero\n      tag_75\n      jumpi\n      dup1\n      0x1f\n      lt\n      tag_76\n      jumpi\n      0x0100\n      dup1\n      dup4\n      sload\n      div\n      mul\n      dup4\n      mstore\n      swap2\n      0x20\n      add\n      swap2\n      jump(tag_75)\n    tag_76:\n      dup3\n      add\n      swap2\n      swap1\n      0x00\n      mstore\n      keccak256(0x00, 0x20)\n      swap1\n    tag_77:\n      dup2\n      sload\n      dup2\n      mstore\n      swap1\n      0x01\n      add\n      swap1\n      0x20\n      add\n      dup1\n      dup4\n      gt\n      tag_77\n      jumpi\n      dup3\n      swap1\n      sub\n      0x1f\n      and\n      dup3\n      add\n      swap2\n    tag_75:\n      pop\n      pop\n      pop\n      pop\n      pop\n      swap1\n      pop\n        /* \"contracts/RSPGame.sol\":5512:5534  isWinner(vote1, vote2) */\n      tag_78\n        /* \"contracts/RSPGame.sol\":5521:5526  vote1 */\n      dup3\n        /* \"contracts/RSPGame.sol\":5528:5533  vote2 */\n      dup3\n        /* \"contracts/RSPGame.sol\":5512:5520  isWinner */\n      tag_28\n        /* \"contracts/RSPGame.sol\":5512:5534  isWinner(vote1, vote2) */\n      jump\t// in\n    tag_78:\n        /* \"contracts/RSPGame.sol\":5512:5626  isWinner(vote1, vote2) || (block.timestamp >=... */\n      dup1\n      tag_79\n      jumpi\n      pop\n        /* \"contracts/RSPGame.sol\":5566:5573  players */\n      0x00\n        /* \"contracts/RSPGame.sol\":5566:5585  players[msg.sender] */\n      dup1\n        /* \"contracts/RSPGame.sol\":5574:5584  msg.sender */\n      caller\n        /* \"contracts/RSPGame.sol\":5566:5585  players[msg.sender] */\n      0xffffffffffffffffffffffffffffffffffffffff\n      and\n      0xffffffffffffffffffffffffffffffffffffffff\n      and\n      dup2\n      mstore\n      0x20\n      add\n      swap1\n      dup2\n      mstore\n      0x20\n      add\n      0x00\n      keccak256\n        /* \"contracts/RSPGame.sol\":5566:5594  players[msg.sender].deadline */\n      0x04\n      add\n      sload\n        /* \"contracts/RSPGame.sol\":5539:5554  block.timestamp */\n      timestamp\n        /* \"contracts/RSPGame.sol\":5539:5594  block.timestamp >=... */\n      lt\n      iszero\n        /* \"contracts/RSPGame.sol\":5539:5625  block.timestamp >=... */\n      dup1\n      iszero\n      tag_80\n      jumpi\n      pop\n        /* \"contracts/RSPGame.sol\":5599:5606  players */\n      0x00\n        /* \"contracts/RSPGame.sol\":5599:5616  players[opponent] */\n      dup1\n        /* \"contracts/RSPGame.sol\":5607:5615  opponent */\n      dup5\n        /* \"contracts/RSPGame.sol\":5599:5616  players[opponent] */\n      0xffffffffffffffffffffffffffffffffffffffff\n      and\n      0xffffffffffffffffffffffffffffffffffffffff\n      and\n      dup2\n      mstore\n      0x20\n      add\n      swap1\n      dup2\n      mstore\n      0x20\n      add\n      0x00\n      keccak256\n        /* \"contracts/RSPGame.sol\":5599:5625  players[opponent].revealed */\n      0x02\n      add\n      0x00\n      swap1\n      sload\n      swap1\n      0x0100\n      exp\n      swap1\n      div\n      0xff\n      and\n        /* \"contracts/RSPGame.sol\":5598:5625  !players[opponent].revealed */\n      iszero\n        /* \"contracts/RSPGame.sol\":5539:5625  block.timestamp >=... */\n    tag_80:\n        /* \"contracts/RSPGame.sol\":5512:5626  isWinner(vote1, vote2) || (block.timestamp >=... */\n    tag_79:\n        /* \"contracts/RSPGame.sol\":5508:6576  if (isWinner(vote1, vote2) || (block.timestamp >=... */\n      iszero\n      tag_81\n      jumpi\n        /* \"contracts/RSPGame.sol\":5701:5711  msg.sender */\n      caller\n        /* \"contracts/RSPGame.sol\":5693:5721  payable(msg.sender).transfer */\n      0xffffffffffffffffffffffffffffffffffffffff\n      and\n        /* \"contracts/RSPGame.sol\":5693:5752  payable(msg.sender).transfer(players[msg.sender].stake * 2) */\n      0x08fc\n        /* \"contracts/RSPGame.sol\":5750:5751  2 */\n      0x02\n        /* \"contracts/RSPGame.sol\":5722:5729  players */\n      0x00\n        /* \"contracts/RSPGame.sol\":5722:5741  players[msg.sender] */\n      dup1\n        /* \"contracts/RSPGame.sol\":5730:5740  msg.sender */\n      caller\n        /* \"contracts/RSPGame.sol\":5722:5741  players[msg.sender] */\n      0xffffffffffffffffffffffffffffffffffffffff\n      and\n      0xffffffffffffffffffffffffffffffffffffffff\n      and\n      dup2\n      mstore\n      0x20\n      add\n      swap1\n      dup2\n      mstore\n      0x20\n      add\n      0x00\n      keccak256\n        /* \"contracts/RSPGame.sol\":5722:5747  players[msg.sender].stake */\n      0x03\n      add\n      sload\n        /* \"contracts/RSPGame.sol\":5722:5751  players[msg.sender].stake * 2 */\n      tag_82\n      swap2\n      swap1\n      tag_83\n      jump\t// in\n    tag_82:\n        /* \"contracts/RSPGame.sol\":5693:5752  payable(msg.sender).transfer(players[msg.sender].stake * 2) */\n      swap1\n      dup2\n      iszero\n      mul\n      swap1\n      mload(0x40)\n      0x00\n      mload(0x40)\n      dup1\n      dup4\n      sub\n      dup2\n      dup6\n      dup9\n      dup9\n      call\n      swap4\n      pop\n      pop\n      pop\n      pop\n      iszero\n      dup1\n      iszero\n      tag_85\n      jumpi\n      returndatasize\n      0x00\n      dup1\n      returndatacopy\n      revert(0x00, returndatasize)\n    tag_85:\n      pop\n        /* \"contracts/RSPGame.sol\":5824:5831  players */\n      0x00\n        /* \"contracts/RSPGame.sol\":5824:5843  players[msg.sender] */\n      dup1\n        /* \"contracts/RSPGame.sol\":5832:5842  msg.sender */\n      caller\n        /* \"contracts/RSPGame.sol\":5824:5843  players[msg.sender] */\n      0xffffffffffffffffffffffffffffffffffffffff\n      and\n      0xffffffffffffffffffffffffffffffffffffffff\n      and\n      dup2\n      mstore\n      0x20\n      add\n      swap1\n      dup2\n      mstore\n      0x20\n      add\n      0x00\n      keccak256\n      0x00\n        /* \"contracts/RSPGame.sol\":5817:5843  delete players[msg.sender] */\n      dup1\n      dup3\n      add\n      0x00\n      tag_86\n      swap2\n      swap1\n      tag_87\n      jump\t// in\n    tag_86:\n      0x01\n      dup3\n      add\n      0x00\n      swap1\n      sstore\n      0x02\n      dup3\n      add\n      exp(0x0100, 0x00)\n      dup2\n      sload\n      swap1\n      0xff\n      mul\n      not\n      and\n      swap1\n      sstore\n      0x02\n      dup3\n      add\n      exp(0x0100, 0x01)\n      dup2\n      sload\n      swap1\n      0xffffffffffffffffffffffffffffffffffffffff\n      mul\n      not\n      and\n      swap1\n      sstore\n      0x03\n      dup3\n      add\n      0x00\n      swap1\n      sstore\n      0x04\n      dup3\n      add\n      0x00\n      swap1\n      sstore\n      pop\n      pop\n        /* \"contracts/RSPGame.sol\":5864:5871  players */\n      0x00\n        /* \"contracts/RSPGame.sol\":5864:5881  players[opponent] */\n      dup1\n        /* \"contracts/RSPGame.sol\":5872:5880  opponent */\n      dup5\n        /* \"contracts/RSPGame.sol\":5864:5881  players[opponent] */\n      0xffffffffffffffffffffffffffffffffffffffff\n      and\n      0xffffffffffffffffffffffffffffffffffffffff\n      and\n      dup2\n      mstore\n      0x20\n      add\n      swap1\n      dup2\n      mstore\n      0x20\n      add\n      0x00\n      keccak256\n      0x00\n        /* \"contracts/RSPGame.sol\":5857:5881  delete players[opponent] */\n      dup1\n      dup3\n      add\n      0x00\n      tag_88\n      swap2\n      swap1\n      tag_87\n      jump\t// in\n    tag_88:\n      0x01\n      dup3\n      add\n      0x00\n      swap1\n      sstore\n      0x02\n      dup3\n      add\n      exp(0x0100, 0x00)\n      dup2\n      sload\n      swap1\n      0xff\n      mul\n      not\n      and\n      swap1\n      sstore\n      0x02\n      dup3\n      add\n      exp(0x0100, 0x01)\n      dup2\n      sload\n      swap1\n      0xffffffffffffffffffffffffffffffffffffffff\n      mul\n      not\n      and\n      swap1\n      sstore\n      0x03\n      dup3\n      add\n      0x00\n      swap1\n      sstore\n      0x04\n      dup3\n      add\n      0x00\n      swap1\n      sstore\n      pop\n      pop\n        /* \"contracts/RSPGame.sol\":5936:5987  Withdraw(msg.sender, players[msg.sender].stake * 2) */\n      0x884edad9ce6fa2440d8a54cc123490eb96d2768479d49ff9c7366125a9424364\n        /* \"contracts/RSPGame.sol\":5945:5955  msg.sender */\n      caller\n        /* \"contracts/RSPGame.sol\":5985:5986  2 */\n      0x02\n        /* \"contracts/RSPGame.sol\":5957:5964  players */\n      0x00\n        /* \"contracts/RSPGame.sol\":5957:5976  players[msg.sender] */\n      dup1\n        /* \"contracts/RSPGame.sol\":5965:5975  msg.sender */\n      caller\n        /* \"contracts/RSPGame.sol\":5957:5976  players[msg.sender] */\n      0xffffffffffffffffffffffffffffffffffffffff\n      and\n      0xffffffffffffffffffffffffffffffffffffffff\n      and\n      dup2\n      mstore\n      0x20\n      add\n      swap1\n      dup2\n      mstore\n      0x20\n      add\n      0x00\n      keccak256\n        /* \"contracts/RSPGame.sol\":5957:5982  players[msg.sender].stake */\n      0x03\n      add\n      sload\n        /* \"contracts/RSPGame.sol\":5957:5986  players[msg.sender].stake * 2 */\n      tag_89\n      swap2\n      swap1\n      tag_83\n      jump\t// in\n    tag_89:\n        /* \"contracts/RSPGame.sol\":5936:5987  Withdraw(msg.sender, players[msg.sender].stake * 2) */\n      mload(0x40)\n      tag_90\n      swap3\n      swap2\n      swap1\n      tag_91\n      jump\t// in\n    tag_90:\n      mload(0x40)\n      dup1\n      swap2\n      sub\n      swap1\n      log1\n        /* \"contracts/RSPGame.sol\":5508:6576  if (isWinner(vote1, vote2) || (block.timestamp >=... */\n      jump(tag_92)\n    tag_81:\n        /* \"contracts/RSPGame.sol\":6047:6075  compareStrings(vote1, vote2) */\n      tag_93\n        /* \"contracts/RSPGame.sol\":6062:6067  vote1 */\n      dup3\n        /* \"contracts/RSPGame.sol\":6069:6074  vote2 */\n      dup3\n        /* \"contracts/RSPGame.sol\":6047:6061  compareStrings */\n      tag_38\n        /* \"contracts/RSPGame.sol\":6047:6075  compareStrings(vote1, vote2) */\n      jump\t// in\n    tag_93:\n        /* \"contracts/RSPGame.sol\":6043:6576  if (compareStrings(vote1, vote2)) {... */\n      iszero\n      tag_94\n      jumpi\n        /* \"contracts/RSPGame.sol\":6155:6165  msg.sender */\n      caller\n        /* \"contracts/RSPGame.sol\":6147:6175  payable(msg.sender).transfer */\n      0xffffffffffffffffffffffffffffffffffffffff\n      and\n        /* \"contracts/RSPGame.sol\":6147:6202  payable(msg.sender).transfer(players[msg.sender].stake) */\n      0x08fc\n        /* \"contracts/RSPGame.sol\":6176:6183  players */\n      0x00\n        /* \"contracts/RSPGame.sol\":6176:6195  players[msg.sender] */\n      dup1\n        /* \"contracts/RSPGame.sol\":6184:6194  msg.sender */\n      caller\n        /* \"contracts/RSPGame.sol\":6176:6195  players[msg.sender] */\n      0xffffffffffffffffffffffffffffffffffffffff\n      and\n      0xffffffffffffffffffffffffffffffffffffffff\n      and\n      dup2\n      mstore\n      0x20\n      add\n      swap1\n      dup2\n      mstore\n      0x20\n      add\n      0x00\n      keccak256\n        /* \"contracts/RSPGame.sol\":6176:6201  players[msg.sender].stake */\n      0x03\n      add\n      sload\n        /* \"contracts/RSPGame.sol\":6147:6202  payable(msg.sender).transfer(players[msg.sender].stake) */\n      swap1\n      dup2\n      iszero\n      mul\n      swap1\n      mload(0x40)\n      0x00\n      mload(0x40)\n      dup1\n      dup4\n      sub\n      dup2\n      dup6\n      dup9\n      dup9\n      call\n      swap4\n      pop\n      pop\n      pop\n      pop\n      iszero\n      dup1\n      iszero\n      tag_96\n      jumpi\n      returndatasize\n      0x00\n      dup1\n      returndatacopy\n      revert(0x00, returndatasize)\n    tag_96:\n      pop\n        /* \"contracts/RSPGame.sol\":6224:6232  opponent */\n      dup3\n        /* \"contracts/RSPGame.sol\":6216:6242  payable(opponent).transfer */\n      0xffffffffffffffffffffffffffffffffffffffff\n      and\n        /* \"contracts/RSPGame.sol\":6216:6269  payable(opponent).transfer(players[msg.sender].stake) */\n      0x08fc\n        /* \"contracts/RSPGame.sol\":6243:6250  players */\n      0x00\n        /* \"contracts/RSPGame.sol\":6243:6262  players[msg.sender] */\n      dup1\n        /* \"contracts/RSPGame.sol\":6251:6261  msg.sender */\n      caller\n        /* \"contracts/RSPGame.sol\":6243:6262  players[msg.sender] */\n      0xffffffffffffffffffffffffffffffffffffffff\n      and\n      0xffffffffffffffffffffffffffffffffffffffff\n      and\n      dup2\n      mstore\n      0x20\n      add\n      swap1\n      dup2\n      mstore\n      0x20\n      add\n      0x00\n      keccak256\n        /* \"contracts/RSPGame.sol\":6243:6268  players[msg.sender].stake */\n      0x03\n      add\n      sload\n        /* \"contracts/RSPGame.sol\":6216:6269  payable(opponent).transfer(players[msg.sender].stake) */\n      swap1\n      dup2\n      iszero\n      mul\n      swap1\n      mload(0x40)\n      0x00\n      mload(0x40)\n      dup1\n      dup4\n      sub\n      dup2\n      dup6\n      dup9\n      dup9\n      call\n      swap4\n      pop\n      pop\n      pop\n      pop\n      iszero\n      dup1\n      iszero\n      tag_98\n      jumpi\n      returndatasize\n      0x00\n      dup1\n      returndatacopy\n      revert(0x00, returndatasize)\n    tag_98:\n      pop\n        /* \"contracts/RSPGame.sol\":6341:6348  players */\n      0x00\n        /* \"contracts/RSPGame.sol\":6341:6360  players[msg.sender] */\n      dup1\n        /* \"contracts/RSPGame.sol\":6349:6359  msg.sender */\n      caller\n        /* \"contracts/RSPGame.sol\":6341:6360  players[msg.sender] */\n      0xffffffffffffffffffffffffffffffffffffffff\n      and\n      0xffffffffffffffffffffffffffffffffffffffff\n      and\n      dup2\n      mstore\n      0x20\n      add\n      swap1\n      dup2\n      mstore\n      0x20\n      add\n      0x00\n      keccak256\n      0x00\n        /* \"contracts/RSPGame.sol\":6334:6360  delete players[msg.sender] */\n      dup1\n      dup3\n      add\n      0x00\n      tag_99\n      swap2\n      swap1\n      tag_87\n      jump\t// in\n    tag_99:\n      0x01\n      dup3\n      add\n      0x00\n      swap1\n      sstore\n      0x02\n      dup3\n      add\n      exp(0x0100, 0x00)\n      dup2\n      sload\n      swap1\n      0xff\n      mul\n      not\n      and\n      swap1\n      sstore\n      0x02\n      dup3\n      add\n      exp(0x0100, 0x01)\n      dup2\n      sload\n      swap1\n      0xffffffffffffffffffffffffffffffffffffffff\n      mul\n      not\n      and\n      swap1\n      sstore\n      0x03\n      dup3\n      add\n      0x00\n      swap1\n      sstore\n      0x04\n      dup3\n      add\n      0x00\n      swap1\n      sstore\n      pop\n      pop\n        /* \"contracts/RSPGame.sol\":6381:6388  players */\n      0x00\n        /* \"contracts/RSPGame.sol\":6381:6398  players[opponent] */\n      dup1\n        /* \"contracts/RSPGame.sol\":6389:6397  opponent */\n      dup5\n        /* \"contracts/RSPGame.sol\":6381:6398  players[opponent] */\n      0xffffffffffffffffffffffffffffffffffffffff\n      and\n      0xffffffffffffffffffffffffffffffffffffffff\n      and\n      dup2\n      mstore\n      0x20\n      add\n      swap1\n      dup2\n      mstore\n      0x20\n      add\n      0x00\n      keccak256\n      0x00\n        /* \"contracts/RSPGame.sol\":6374:6398  delete players[opponent] */\n      dup1\n      dup3\n      add\n      0x00\n      tag_100\n      swap2\n      swap1\n      tag_87\n      jump\t// in\n    tag_100:\n      0x01\n      dup3\n      add\n      0x00\n      swap1\n      sstore\n      0x02\n      dup3\n      add\n      exp(0x0100, 0x00)\n      dup2\n      sload\n      swap1\n      0xff\n      mul\n      not\n      and\n      swap1\n      sstore\n      0x02\n      dup3\n      add\n      exp(0x0100, 0x01)\n      dup2\n      sload\n      swap1\n      0xffffffffffffffffffffffffffffffffffffffff\n      mul\n      not\n      and\n      swap1\n      sstore\n      0x03\n      dup3\n      add\n      0x00\n      swap1\n      sstore\n      0x04\n      dup3\n      add\n      0x00\n      swap1\n      sstore\n      pop\n      pop\n        /* \"contracts/RSPGame.sol\":6454:6501  Withdraw(msg.sender, players[msg.sender].stake) */\n      0x884edad9ce6fa2440d8a54cc123490eb96d2768479d49ff9c7366125a9424364\n        /* \"contracts/RSPGame.sol\":6463:6473  msg.sender */\n      caller\n        /* \"contracts/RSPGame.sol\":6475:6482  players */\n      0x00\n        /* \"contracts/RSPGame.sol\":6475:6494  players[msg.sender] */\n      dup1\n        /* \"contracts/RSPGame.sol\":6483:6493  msg.sender */\n      caller\n        /* \"contracts/RSPGame.sol\":6475:6494  players[msg.sender] */\n      0xffffffffffffffffffffffffffffffffffffffff\n      and\n      0xffffffffffffffffffffffffffffffffffffffff\n      and\n      dup2\n      mstore\n      0x20\n      add\n      swap1\n      dup2\n      mstore\n      0x20\n      add\n      0x00\n      keccak256\n        /* \"contracts/RSPGame.sol\":6475:6500  players[msg.sender].stake */\n      0x03\n      add\n      sload\n        /* \"contracts/RSPGame.sol\":6454:6501  Withdraw(msg.sender, players[msg.sender].stake) */\n      mload(0x40)\n      tag_101\n      swap3\n      swap2\n      swap1\n      tag_91\n      jump\t// in\n    tag_101:\n      mload(0x40)\n      dup1\n      swap2\n      sub\n      swap1\n      log1\n        /* \"contracts/RSPGame.sol\":6520:6565  Withdraw(opponent, players[msg.sender].stake) */\n      0x884edad9ce6fa2440d8a54cc123490eb96d2768479d49ff9c7366125a9424364\n        /* \"contracts/RSPGame.sol\":6529:6537  opponent */\n      dup4\n        /* \"contracts/RSPGame.sol\":6539:6546  players */\n      0x00\n        /* \"contracts/RSPGame.sol\":6539:6558  players[msg.sender] */\n      dup1\n        /* \"contracts/RSPGame.sol\":6547:6557  msg.sender */\n      caller\n        /* \"contracts/RSPGame.sol\":6539:6558  players[msg.sender] */\n      0xffffffffffffffffffffffffffffffffffffffff\n      and\n      0xffffffffffffffffffffffffffffffffffffffff\n      and\n      dup2\n      mstore\n      0x20\n      add\n      swap1\n      dup2\n      mstore\n      0x20\n      add\n      0x00\n      keccak256\n        /* \"contracts/RSPGame.sol\":6539:6564  players[msg.sender].stake */\n      0x03\n      add\n      sload\n        /* \"contracts/RSPGame.sol\":6520:6565  Withdraw(opponent, players[msg.sender].stake) */\n      mload(0x40)\n      tag_102\n      swap3\n      swap2\n      swap1\n      tag_91\n      jump\t// in\n    tag_102:\n      mload(0x40)\n      dup1\n      swap2\n      sub\n      swap1\n      log1\n        /* \"contracts/RSPGame.sol\":6043:6576  if (compareStrings(vote1, vote2)) {... */\n    tag_94:\n        /* \"contracts/RSPGame.sol\":5508:6576  if (isWinner(vote1, vote2) || (block.timestamp >=... */\n    tag_92:\n        /* \"contracts/RSPGame.sol\":5203:6582  {... */\n      pop\n      pop\n      pop\n        /* \"contracts/RSPGame.sol\":5156:6582  function withdraw() public payable canWithdraw {... */\n      jump\t// out\n        /* \"contracts/RSPGame.sol\":4339:4977  function reveal(string calldata _vote, string calldata _salt) public hasOpponent validVote(_vote, _salt) {... */\n    tag_23:\n        /* \"contracts/RSPGame.sol\":7813:7814  0 */\n      0x00\n        /* \"contracts/RSPGame.sol\":7773:7815  players[msg.sender].opponent != address(0) */\n      0xffffffffffffffffffffffffffffffffffffffff\n      and\n        /* \"contracts/RSPGame.sol\":7773:7780  players */\n      0x00\n        /* \"contracts/RSPGame.sol\":7773:7792  players[msg.sender] */\n      dup1\n        /* \"contracts/RSPGame.sol\":7781:7791  msg.sender */\n      caller\n        /* \"contracts/RSPGame.sol\":7773:7792  players[msg.sender] */\n      0xffffffffffffffffffffffffffffffffffffffff\n      and\n      0xffffffffffffffffffffffffffffffffffffffff\n      and\n      dup2\n      mstore\n      0x20\n      add\n      swap1\n      dup2\n      mstore\n      0x20\n      add\n      0x00\n      keccak256\n        /* \"contracts/RSPGame.sol\":7773:7801  players[msg.sender].opponent */\n      0x02\n      add\n      0x01\n      swap1\n      sload\n      swap1\n      0x0100\n      exp\n      swap1\n      div\n      0xffffffffffffffffffffffffffffffffffffffff\n      and\n        /* \"contracts/RSPGame.sol\":7773:7815  players[msg.sender].opponent != address(0) */\n      0xffffffffffffffffffffffffffffffffffffffff\n      and\n      sub\n        /* \"contracts/RSPGame.sol\":7765:7843  require(players[msg.sender].opponent != address(0), \"Waiting for an opponent\") */\n      tag_104\n      jumpi\n      mload(0x40)\n      0x08c379a000000000000000000000000000000000000000000000000000000000\n      dup2\n      mstore\n      0x04\n      add\n      tag_105\n      swap1\n      tag_106\n      jump\t// in\n    tag_105:\n      mload(0x40)\n      dup1\n      swap2\n      sub\n      swap1\n      revert\n    tag_104:\n        /* \"contracts/RSPGame.sol\":4430:4435  _vote */\n      dup4\n      dup4\n        /* \"contracts/RSPGame.sol\":8622:8898  modifier validVote(string memory _vote, string memory _salt) {... */\n      dup1\n      dup1\n      0x1f\n      add\n      0x20\n      dup1\n      swap2\n      div\n      mul\n      0x20\n      add\n      mload(0x40)\n      swap1\n      dup2\n      add\n      0x40\n      mstore\n      dup1\n      swap4\n      swap3\n      swap2\n      swap1\n      dup2\n      dup2\n      mstore\n      0x20\n      add\n      dup4\n      dup4\n      dup1\n      dup3\n      dup5\n      calldatacopy\n      0x00\n      dup2\n      dup5\n      add\n      mstore\n      not(0x1f)\n      0x1f\n      dup3\n      add\n      and\n      swap1\n      pop\n      dup1\n      dup4\n      add\n      swap3\n      pop\n      pop\n      pop\n      pop\n      pop\n      pop\n      pop\n        /* \"contracts/RSPGame.sol\":4437:4442  _salt */\n      dup3\n      dup3\n        /* \"contracts/RSPGame.sol\":8622:8898  modifier validVote(string memory _vote, string memory _salt) {... */\n      dup1\n      dup1\n      0x1f\n      add\n      0x20\n      dup1\n      swap2\n      div\n      mul\n      0x20\n      add\n      mload(0x40)\n      swap1\n      dup2\n      add\n      0x40\n      mstore\n      dup1\n      swap4\n      swap3\n      swap2\n      swap1\n      dup2\n      dup2\n      mstore\n      0x20\n      add\n      dup4\n      dup4\n      dup1\n      dup3\n      dup5\n      calldatacopy\n      0x00\n      dup2\n      dup5\n      add\n      mstore\n      not(0x1f)\n      0x1f\n      dup3\n      add\n      and\n      swap1\n      pop\n      dup1\n      dup4\n      add\n      swap3\n      pop\n      pop\n      pop\n      pop\n      pop\n      pop\n      pop\n        /* \"contracts/RSPGame.sol\":8747:8759  bytes32 hash */\n      0x00\n        /* \"contracts/RSPGame.sol\":8789:8794  _vote */\n      dup3\n        /* \"contracts/RSPGame.sol\":8796:8801  _salt */\n      dup3\n        /* \"contracts/RSPGame.sol\":8772:8802  abi.encodePacked(_vote, _salt) */\n      add(0x20, mload(0x40))\n      tag_108\n      swap3\n      swap2\n      swap1\n      tag_109\n      jump\t// in\n    tag_108:\n      mload(0x40)\n      0x20\n      dup2\n      dup4\n      sub\n      sub\n      dup2\n      mstore\n      swap1\n      0x40\n      mstore\n        /* \"contracts/RSPGame.sol\":8762:8803  keccak256(abi.encodePacked(_vote, _salt)) */\n      dup1\n      mload\n      swap1\n      0x20\n      add\n      keccak256\n        /* \"contracts/RSPGame.sol\":8747:8803  bytes32 hash = keccak256(abi.encodePacked(_vote, _salt)) */\n      swap1\n      pop\n        /* \"contracts/RSPGame.sol\":8855:8859  hash */\n      dup1\n        /* \"contracts/RSPGame.sol\":8821:8828  players */\n      0x00\n        /* \"contracts/RSPGame.sol\":8821:8840  players[msg.sender] */\n      dup1\n        /* \"contracts/RSPGame.sol\":8829:8839  msg.sender */\n      caller\n        /* \"contracts/RSPGame.sol\":8821:8840  players[msg.sender] */\n      0xffffffffffffffffffffffffffffffffffffffff\n      and\n      0xffffffffffffffffffffffffffffffffffffffff\n      and\n      dup2\n      mstore\n      0x20\n      add\n      swap1\n      dup2\n      mstore\n      0x20\n      add\n      0x00\n      keccak256\n        /* \"contracts/RSPGame.sol\":8821:8851  players[msg.sender].hashedVote */\n      0x01\n      add\n      sload\n        /* \"contracts/RSPGame.sol\":8821:8859  players[msg.sender].hashedVote == hash */\n      eq\n        /* \"contracts/RSPGame.sol\":8813:8880  require(players[msg.sender].hashedVote == hash, \"Not a valid vote\") */\n      tag_110\n      jumpi\n      mload(0x40)\n      0x08c379a000000000000000000000000000000000000000000000000000000000\n      dup2\n      mstore\n      0x04\n      add\n      tag_111\n      swap1\n      tag_112\n      jump\t// in\n    tag_111:\n      mload(0x40)\n      dup1\n      swap2\n      sub\n      swap1\n      revert\n    tag_110:\n        /* \"contracts/RSPGame.sol\":4455:4472  bytes memory bStr */\n      0x00\n        /* \"contracts/RSPGame.sol\":4481:4486  _vote */\n      dup8\n      dup8\n        /* \"contracts/RSPGame.sol\":4455:4487  bytes memory bStr = bytes(_vote) */\n      dup1\n      dup1\n      0x1f\n      add\n      0x20\n      dup1\n      swap2\n      div\n      mul\n      0x20\n      add\n      mload(0x40)\n      swap1\n      dup2\n      add\n      0x40\n      mstore\n      dup1\n      swap4\n      swap3\n      swap2\n      swap1\n      dup2\n      dup2\n      mstore\n      0x20\n      add\n      dup4\n      dup4\n      dup1\n      dup3\n      dup5\n      calldatacopy\n      0x00\n      dup2\n      dup5\n      add\n      mstore\n      not(0x1f)\n      0x1f\n      dup3\n      add\n      and\n      swap1\n      pop\n      dup1\n      dup4\n      add\n      swap3\n      pop\n      pop\n      pop\n      pop\n      pop\n      pop\n      pop\n      swap1\n      pop\n        /* \"contracts/RSPGame.sol\":4589:4593  0x61 */\n      0x61\n        /* \"contracts/RSPGame.sol\":4578:4593  bStr[0] >= 0x61 */\n      0xf8\n      shl\n        /* \"contracts/RSPGame.sol\":4578:4582  bStr */\n      dup2\n        /* \"contracts/RSPGame.sol\":4583:4584  0 */\n      0x00\n        /* \"contracts/RSPGame.sol\":4578:4585  bStr[0] */\n      dup2\n      mload\n      dup2\n      lt\n      tag_114\n      jumpi\n      tag_115\n      tag_116\n      jump\t// in\n    tag_115:\n    tag_114:\n      0x20\n      add\n      add\n      mload\n      0xf8\n      shr\n      0xf8\n      shl\n        /* \"contracts/RSPGame.sol\":4578:4593  bStr[0] >= 0x61 */\n      not(0xffffffffffffffffffffffffffffffffffffffffffffffffffffffffffffff)\n      and\n      lt\n      iszero\n        /* \"contracts/RSPGame.sol\":4578:4612  bStr[0] >= 0x61 && bStr[0] <= 0x7A */\n      dup1\n      iszero\n      tag_117\n      jumpi\n      pop\n        /* \"contracts/RSPGame.sol\":4608:4612  0x7A */\n      0x7a\n        /* \"contracts/RSPGame.sol\":4597:4612  bStr[0] <= 0x7A */\n      0xf8\n      shl\n        /* \"contracts/RSPGame.sol\":4597:4601  bStr */\n      dup2\n        /* \"contracts/RSPGame.sol\":4602:4603  0 */\n      0x00\n        /* \"contracts/RSPGame.sol\":4597:4604  bStr[0] */\n      dup2\n      mload\n      dup2\n      lt\n      tag_118\n      jumpi\n      tag_119\n      tag_116\n      jump\t// in\n    tag_119:\n    tag_118:\n      0x20\n      add\n      add\n      mload\n      0xf8\n      shr\n      0xf8\n      shl\n        /* \"contracts/RSPGame.sol\":4597:4612  bStr[0] <= 0x7A */\n      not(0xffffffffffffffffffffffffffffffffffffffffffffffffffffffffffffff)\n      and\n      gt\n      iszero\n        /* \"contracts/RSPGame.sol\":4578:4612  bStr[0] >= 0x61 && bStr[0] <= 0x7A */\n    tag_117:\n        /* \"contracts/RSPGame.sol\":4574:4730  if (bStr[0] >= 0x61 && bStr[0] <= 0x7A) {... */\n      iszero\n      tag_120\n      jumpi\n        /* \"contracts/RSPGame.sol\":4716:4718  32 */\n      0x20\n        /* \"contracts/RSPGame.sol\":4705:4709  bStr */\n      dup2\n        /* \"contracts/RSPGame.sol\":4710:4711  0 */\n      0x00\n        /* \"contracts/RSPGame.sol\":4705:4712  bStr[0] */\n      dup2\n      mload\n      dup2\n      lt\n      tag_121\n      jumpi\n      tag_122\n      tag_116\n      jump\t// in\n    tag_122:\n    tag_121:\n      0x20\n      add\n      add\n      mload\n      0xf8\n      shr\n      0xf8\n      shl\n        /* \"contracts/RSPGame.sol\":4699:4713  uint8(bStr[0]) */\n      0xf8\n      shr\n        /* \"contracts/RSPGame.sol\":4699:4718  uint8(bStr[0]) - 32 */\n      tag_123\n      swap2\n      swap1\n      tag_124\n      jump\t// in\n    tag_123:\n        /* \"contracts/RSPGame.sol\":4692:4719  bytes1(uint8(bStr[0]) - 32) */\n      0xf8\n      shl\n        /* \"contracts/RSPGame.sol\":4682:4686  bStr */\n      dup2\n        /* \"contracts/RSPGame.sol\":4687:4688  0 */\n      0x00\n        /* \"contracts/RSPGame.sol\":4682:4689  bStr[0] */\n      dup2\n      mload\n      dup2\n      lt\n      tag_125\n      jumpi\n      tag_126\n      tag_116\n      jump\t// in\n    tag_126:\n    tag_125:\n      0x20\n      add\n      add\n        /* \"contracts/RSPGame.sol\":4682:4719  bStr[0] = bytes1(uint8(bStr[0]) - 32) */\n      swap1\n      not(0xffffffffffffffffffffffffffffffffffffffffffffffffffffffffffffff)\n      and\n      swap1\n      dup2\n      0x00\n      byte\n      swap1\n      mstore8\n      pop\n        /* \"contracts/RSPGame.sol\":4574:4730  if (bStr[0] >= 0x61 && bStr[0] <= 0x7A) {... */\n    tag_120:\n        /* \"contracts/RSPGame.sol\":4809:4813  true */\n      0x01\n        /* \"contracts/RSPGame.sol\":4778:4785  players */\n      0x00\n        /* \"contracts/RSPGame.sol\":4778:4797  players[msg.sender] */\n      dup1\n        /* \"contracts/RSPGame.sol\":4786:4796  msg.sender */\n      caller\n        /* \"contracts/RSPGame.sol\":4778:4797  players[msg.sender] */\n      0xffffffffffffffffffffffffffffffffffffffff\n      and\n      0xffffffffffffffffffffffffffffffffffffffff\n      and\n      dup2\n      mstore\n      0x20\n      add\n      swap1\n      dup2\n      mstore\n      0x20\n      add\n      0x00\n      keccak256\n        /* \"contracts/RSPGame.sol\":4778:4806  players[msg.sender].revealed */\n      0x02\n      add\n      0x00\n        /* \"contracts/RSPGame.sol\":4778:4813  players[msg.sender].revealed = true */\n      0x0100\n      exp\n      dup2\n      sload\n      dup2\n      0xff\n      mul\n      not\n      and\n      swap1\n      dup4\n      iszero\n      iszero\n      mul\n      or\n      swap1\n      sstore\n      pop\n        /* \"contracts/RSPGame.sol\":4857:4861  bStr */\n      dup1\n        /* \"contracts/RSPGame.sol\":4823:4830  players */\n      0x00\n        /* \"contracts/RSPGame.sol\":4823:4842  players[msg.sender] */\n      dup1\n        /* \"contracts/RSPGame.sol\":4831:4841  msg.sender */\n      caller\n        /* \"contracts/RSPGame.sol\":4823:4842  players[msg.sender] */\n      0xffffffffffffffffffffffffffffffffffffffff\n      and\n      0xffffffffffffffffffffffffffffffffffffffff\n      and\n      dup2\n      mstore\n      0x20\n      add\n      swap1\n      dup2\n      mstore\n      0x20\n      add\n      0x00\n      keccak256\n        /* \"contracts/RSPGame.sol\":4823:4847  players[msg.sender].vote */\n      0x00\n      add\n        /* \"contracts/RSPGame.sol\":4823:4862  players[msg.sender].vote = string(bStr) */\n      swap1\n      dup2\n      tag_127\n      swap2\n      swap1\n      tag_128\n      jump\t// in\n    tag_127:\n      pop\n        /* \"contracts/RSPGame.sol\":4932:4970  RevealedVote(msg.sender, string(bStr)) */\n      0x4abf1a182c97c99cbf9798006458c948c47df72ed150ba8a3c04389c3ef93776\n        /* \"contracts/RSPGame.sol\":4945:4955  msg.sender */\n      caller\n        /* \"contracts/RSPGame.sol\":4964:4968  bStr */\n      dup3\n        /* \"contracts/RSPGame.sol\":4932:4970  RevealedVote(msg.sender, string(bStr)) */\n      mload(0x40)\n      tag_129\n      swap3\n      swap2\n      swap1\n      tag_130\n      jump\t// in\n    tag_129:\n      mload(0x40)\n      dup1\n      swap2\n      sub\n      swap1\n      log1\n        /* \"contracts/RSPGame.sol\":4444:4977  {... */\n      pop\n        /* \"contracts/RSPGame.sol\":8683:8898  {... */\n      pop\n        /* \"contracts/RSPGame.sol\":7853:7854  _ */\n      pop\n      pop\n        /* \"contracts/RSPGame.sol\":4339:4977  function reveal(string calldata _vote, string calldata _salt) public hasOpponent validVote(_vote, _salt) {... */\n      pop\n      pop\n      pop\n      pop\n      jump\t// out\n        /* \"contracts/RSPGame.sol\":9511:10180  function isWinner(string memory _vote1, string memory _vote2) public pure validChoice(_vote1) returns(bool) {... */\n    tag_28:\n        /* \"contracts/RSPGame.sol\":9613:9617  bool */\n      0x00\n        /* \"contracts/RSPGame.sol\":9597:9603  _vote1 */\n      dup3\n        /* \"contracts/RSPGame.sol\":9129:9155  compareStrings(_vote, \"R\") */\n      tag_132\n        /* \"contracts/RSPGame.sol\":9144:9149  _vote */\n      dup2\n        /* \"contracts/RSPGame.sol\":9129:9155  compareStrings(_vote, \"R\") */\n      mload(0x40)\n      dup1\n      0x40\n      add\n      0x40\n      mstore\n      dup1\n      0x01\n      dup2\n      mstore\n      0x20\n      add\n      0x5200000000000000000000000000000000000000000000000000000000000000\n      dup2\n      mstore\n      pop\n        /* \"contracts/RSPGame.sol\":9129:9143  compareStrings */\n      tag_38\n        /* \"contracts/RSPGame.sol\":9129:9155  compareStrings(_vote, \"R\") */\n      jump\t// in\n    tag_132:\n        /* \"contracts/RSPGame.sol\":9129:9185  compareStrings(_vote, \"R\") || compareStrings(_vote, \"P\") */\n      dup1\n      tag_133\n      jumpi\n      pop\n        /* \"contracts/RSPGame.sol\":9159:9185  compareStrings(_vote, \"P\") */\n      tag_134\n        /* \"contracts/RSPGame.sol\":9174:9179  _vote */\n      dup2\n        /* \"contracts/RSPGame.sol\":9159:9185  compareStrings(_vote, \"P\") */\n      mload(0x40)\n      dup1\n      0x40\n      add\n      0x40\n      mstore\n      dup1\n      0x01\n      dup2\n      mstore\n      0x20\n      add\n      0x5000000000000000000000000000000000000000000000000000000000000000\n      dup2\n      mstore\n      pop\n        /* \"contracts/RSPGame.sol\":9159:9173  compareStrings */\n      tag_38\n        /* \"contracts/RSPGame.sol\":9159:9185  compareStrings(_vote, \"P\") */\n      jump\t// in\n    tag_134:\n        /* \"contracts/RSPGame.sol\":9129:9185  compareStrings(_vote, \"R\") || compareStrings(_vote, \"P\") */\n    tag_133:\n        /* \"contracts/RSPGame.sol\":9129:9215  compareStrings(_vote, \"R\") || compareStrings(_vote, \"P\") || compareStrings(_vote, \"S\") */\n      dup1\n      tag_135\n      jumpi\n      pop\n        /* \"contracts/RSPGame.sol\":9189:9215  compareStrings(_vote, \"S\") */\n      tag_136\n        /* \"contracts/RSPGame.sol\":9204:9209  _vote */\n      dup2\n        /* \"contracts/RSPGame.sol\":9189:9215  compareStrings(_vote, \"S\") */\n      mload(0x40)\n      dup1\n      0x40\n      add\n      0x40\n      mstore\n      dup1\n      0x01\n      dup2\n      mstore\n      0x20\n      add\n      0x5300000000000000000000000000000000000000000000000000000000000000\n      dup2\n      mstore\n      pop\n        /* \"contracts/RSPGame.sol\":9189:9203  compareStrings */\n      tag_38\n        /* \"contracts/RSPGame.sol\":9189:9215  compareStrings(_vote, \"S\") */\n      jump\t// in\n    tag_136:\n        /* \"contracts/RSPGame.sol\":9129:9215  compareStrings(_vote, \"R\") || compareStrings(_vote, \"P\") || compareStrings(_vote, \"S\") */\n    tag_135:\n        /* \"contracts/RSPGame.sol\":9121:9270  require(compareStrings(_vote, \"R\") || compareStrings(_vote, \"P\") || compareStrings(_vote, \"S\"),... */\n      tag_137\n      jumpi\n      mload(0x40)\n      0x08c379a000000000000000000000000000000000000000000000000000000000\n      dup2\n      mstore\n      0x04\n      add\n      tag_138\n      swap1\n      tag_139\n      jump\t// in\n    tag_138:\n      mload(0x40)\n      dup1\n      swap2\n      sub\n      swap1\n      revert\n    tag_137:\n        /* \"contracts/RSPGame.sol\":9680:9710  compareStrings(_vote1, _vote2) */\n      tag_141\n        /* \"contracts/RSPGame.sol\":9695:9701  _vote1 */\n      dup5\n        /* \"contracts/RSPGame.sol\":9703:9709  _vote2 */\n      dup5\n        /* \"contracts/RSPGame.sol\":9680:9694  compareStrings */\n      tag_38\n        /* \"contracts/RSPGame.sol\":9680:9710  compareStrings(_vote1, _vote2) */\n      jump\t// in\n    tag_141:\n        /* \"contracts/RSPGame.sol\":9680:9740  compareStrings(_vote1, _vote2) || compareStrings(_vote2, \"\") */\n      dup1\n      tag_142\n      jumpi\n      pop\n        /* \"contracts/RSPGame.sol\":9714:9740  compareStrings(_vote2, \"\") */\n      tag_143\n        /* \"contracts/RSPGame.sol\":9729:9735  _vote2 */\n      dup4\n        /* \"contracts/RSPGame.sol\":9714:9740  compareStrings(_vote2, \"\") */\n      mload(0x40)\n      dup1\n      0x20\n      add\n      0x40\n      mstore\n      dup1\n      0x00\n      dup2\n      mstore\n      pop\n        /* \"contracts/RSPGame.sol\":9714:9728  compareStrings */\n      tag_38\n        /* \"contracts/RSPGame.sol\":9714:9740  compareStrings(_vote2, \"\") */\n      jump\t// in\n    tag_143:\n        /* \"contracts/RSPGame.sol\":9680:9740  compareStrings(_vote1, _vote2) || compareStrings(_vote2, \"\") */\n    tag_142:\n        /* \"contracts/RSPGame.sol\":9676:10173  if (compareStrings(_vote1, _vote2) || compareStrings(_vote2, \"\")) return false;... */\n      iszero\n      tag_144\n      jumpi\n        /* \"contracts/RSPGame.sol\":9749:9754  false */\n      0x00\n        /* \"contracts/RSPGame.sol\":9742:9754  return false */\n      swap2\n      pop\n      jump(tag_140)\n        /* \"contracts/RSPGame.sol\":9676:10173  if (compareStrings(_vote1, _vote2) || compareStrings(_vote2, \"\")) return false;... */\n    tag_144:\n        /* \"contracts/RSPGame.sol\":9801:9828  compareStrings(_vote1, \"R\") */\n      tag_146\n        /* \"contracts/RSPGame.sol\":9816:9822  _vote1 */\n      dup5\n        /* \"contracts/RSPGame.sol\":9801:9828  compareStrings(_vote1, \"R\") */\n      mload(0x40)\n      dup1\n      0x40\n      add\n      0x40\n      mstore\n      dup1\n      0x01\n      dup2\n      mstore\n      0x20\n      add\n      0x5200000000000000000000000000000000000000000000000000000000000000\n      dup2\n      mstore\n      pop\n        /* \"contracts/RSPGame.sol\":9801:9815  compareStrings */\n      tag_38\n        /* \"contracts/RSPGame.sol\":9801:9828  compareStrings(_vote1, \"R\") */\n      jump\t// in\n    tag_146:\n        /* \"contracts/RSPGame.sol\":9801:9859  compareStrings(_vote1, \"R\") && compareStrings(_vote2, \"P\") */\n      dup1\n      iszero\n      tag_147\n      jumpi\n      pop\n        /* \"contracts/RSPGame.sol\":9832:9859  compareStrings(_vote2, \"P\") */\n      tag_148\n        /* \"contracts/RSPGame.sol\":9847:9853  _vote2 */\n      dup4\n        /* \"contracts/RSPGame.sol\":9832:9859  compareStrings(_vote2, \"P\") */\n      mload(0x40)\n      dup1\n      0x40\n      add\n      0x40\n      mstore\n      dup1\n      0x01\n      dup2\n      mstore\n      0x20\n      add\n      0x5000000000000000000000000000000000000000000000000000000000000000\n      dup2\n      mstore\n      pop\n        /* \"contracts/RSPGame.sol\":9832:9846  compareStrings */\n      tag_38\n        /* \"contracts/RSPGame.sol\":9832:9859  compareStrings(_vote2, \"P\") */\n      jump\t// in\n    tag_148:\n        /* \"contracts/RSPGame.sol\":9801:9859  compareStrings(_vote1, \"R\") && compareStrings(_vote2, \"P\") */\n    tag_147:\n        /* \"contracts/RSPGame.sol\":9797:10173  if (compareStrings(_vote1, \"R\") && compareStrings(_vote2, \"P\")) return false;... */\n      iszero\n      tag_149\n      jumpi\n        /* \"contracts/RSPGame.sol\":9868:9873  false */\n      0x00\n        /* \"contracts/RSPGame.sol\":9861:9873  return false */\n      swap2\n      pop\n      jump(tag_140)\n        /* \"contracts/RSPGame.sol\":9797:10173  if (compareStrings(_vote1, \"R\") && compareStrings(_vote2, \"P\")) return false;... */\n    tag_149:\n        /* \"contracts/RSPGame.sol\":9923:9950  compareStrings(_vote1, \"P\") */\n      tag_151\n        /* \"contracts/RSPGame.sol\":9938:9944  _vote1 */\n      dup5\n        /* \"contracts/RSPGame.sol\":9923:9950  compareStrings(_vote1, \"P\") */\n      mload(0x40)\n      dup1\n      0x40\n      add\n      0x40\n      mstore\n      dup1\n      0x01\n      dup2\n      mstore\n      0x20\n      add\n      0x5000000000000000000000000000000000000000000000000000000000000000\n      dup2\n      mstore\n      pop\n        /* \"contracts/RSPGame.sol\":9923:9937  compareStrings */\n      tag_38\n        /* \"contracts/RSPGame.sol\":9923:9950  compareStrings(_vote1, \"P\") */\n      jump\t// in\n    tag_151:\n        /* \"contracts/RSPGame.sol\":9923:9981  compareStrings(_vote1, \"P\") && compareStrings(_vote2, \"S\") */\n      dup1\n      iszero\n      tag_152\n      jumpi\n      pop\n        /* \"contracts/RSPGame.sol\":9954:9981  compareStrings(_vote2, \"S\") */\n      tag_153\n        /* \"contracts/RSPGame.sol\":9969:9975  _vote2 */\n      dup4\n        /* \"contracts/RSPGame.sol\":9954:9981  compareStrings(_vote2, \"S\") */\n      mload(0x40)\n      dup1\n      0x40\n      add\n      0x40\n      mstore\n      dup1\n      0x01\n      dup2\n      mstore\n      0x20\n      add\n      0x5300000000000000000000000000000000000000000000000000000000000000\n      dup2\n      mstore\n      pop\n        /* \"contracts/RSPGame.sol\":9954:9968  compareStrings */\n      tag_38\n        /* \"contracts/RSPGame.sol\":9954:9981  compareStrings(_vote2, \"S\") */\n      jump\t// in\n    tag_153:\n        /* \"contracts/RSPGame.sol\":9923:9981  compareStrings(_vote1, \"P\") && compareStrings(_vote2, \"S\") */\n    tag_152:\n        /* \"contracts/RSPGame.sol\":9919:10173  if (compareStrings(_vote1, \"P\") && compareStrings(_vote2, \"S\")) return false;... */\n      iszero\n      tag_154\n      jumpi\n        /* \"contracts/RSPGame.sol\":9990:9995  false */\n      0x00\n        /* \"contracts/RSPGame.sol\":9983:9995  return false */\n      swap2\n      pop\n      jump(tag_140)\n        /* \"contracts/RSPGame.sol\":9919:10173  if (compareStrings(_vote1, \"P\") && compareStrings(_vote2, \"S\")) return false;... */\n    tag_154:\n        /* \"contracts/RSPGame.sol\":10044:10071  compareStrings(_vote1, \"S\") */\n      tag_156\n        /* \"contracts/RSPGame.sol\":10059:10065  _vote1 */\n      dup5\n        /* \"contracts/RSPGame.sol\":10044:10071  compareStrings(_vote1, \"S\") */\n      mload(0x40)\n      dup1\n      0x40\n      add\n      0x40\n      mstore\n      dup1\n      0x01\n      dup2\n      mstore\n      0x20\n      add\n      0x5300000000000000000000000000000000000000000000000000000000000000\n      dup2\n      mstore\n      pop\n        /* \"contracts/RSPGame.sol\":10044:10058  compareStrings */\n      tag_38\n        /* \"contracts/RSPGame.sol\":10044:10071  compareStrings(_vote1, \"S\") */\n      jump\t// in\n    tag_156:\n        /* \"contracts/RSPGame.sol\":10044:10102  compareStrings(_vote1, \"S\") && compareStrings(_vote2, \"R\") */\n      dup1\n      iszero\n      tag_157\n      jumpi\n      pop\n        /* \"contracts/RSPGame.sol\":10075:10102  compareStrings(_vote2, \"R\") */\n      tag_158\n        /* \"contracts/RSPGame.sol\":10090:10096  _vote2 */\n      dup4\n        /* \"contracts/RSPGame.sol\":10075:10102  compareStrings(_vote2, \"R\") */\n      mload(0x40)\n      dup1\n      0x40\n      add\n      0x40\n      mstore\n      dup1\n      0x01\n      dup2\n      mstore\n      0x20\n      add\n      0x5200000000000000000000000000000000000000000000000000000000000000\n      dup2\n      mstore\n      pop\n        /* \"contracts/RSPGame.sol\":10075:10089  compareStrings */\n      tag_38\n        /* \"contracts/RSPGame.sol\":10075:10102  compareStrings(_vote2, \"R\") */\n      jump\t// in\n    tag_158:\n        /* \"contracts/RSPGame.sol\":10044:10102  compareStrings(_vote1, \"S\") && compareStrings(_vote2, \"R\") */\n    tag_157:\n        /* \"contracts/RSPGame.sol\":10040:10173  if (compareStrings(_vote1, \"S\") && compareStrings(_vote2, \"R\")) return false;... */\n      iszero\n      tag_159\n      jumpi\n        /* \"contracts/RSPGame.sol\":10111:10116  false */\n      0x00\n        /* \"contracts/RSPGame.sol\":10104:10116  return false */\n      swap2\n      pop\n      jump(tag_140)\n        /* \"contracts/RSPGame.sol\":10040:10173  if (compareStrings(_vote1, \"S\") && compareStrings(_vote2, \"R\")) return false;... */\n    tag_159:\n        /* \"contracts/RSPGame.sol\":10169:10173  true */\n      0x01\n        /* \"contracts/RSPGame.sol\":10162:10173  return true */\n      swap2\n      pop\n        /* \"contracts/RSPGame.sol\":9280:9281  _ */\n    tag_140:\n        /* \"contracts/RSPGame.sol\":9511:10180  function isWinner(string memory _vote1, string memory _vote2) public pure validChoice(_vote1) returns(bool) {... */\n      pop\n      swap3\n      swap2\n      pop\n      pop\n      jump\t// out\n        /* \"contracts/RSPGame.sol\":1686:1714  uint public revealTime = 480 */\n    tag_33:\n      sload(0x03)\n      dup2\n      jump\t// out\n        /* \"contracts/RSPGame.sol\":6783:7014  function compareStrings(string memory a, string memory b) public pure returns (bool) {... */\n    tag_38:\n        /* \"contracts/RSPGame.sol\":6862:6866  bool */\n      0x00\n        /* \"contracts/RSPGame.sol\":7002:7003  b */\n      dup2\n        /* \"contracts/RSPGame.sol\":6984:7005  abi.encodePacked((b)) */\n      add(0x20, mload(0x40))\n      tag_162\n      swap2\n      swap1\n      tag_163\n      jump\t// in\n    tag_162:\n      mload(0x40)\n      0x20\n      dup2\n      dup4\n      sub\n      sub\n      dup2\n      mstore\n      swap1\n      0x40\n      mstore\n        /* \"contracts/RSPGame.sol\":6974:7006  keccak256(abi.encodePacked((b))) */\n      dup1\n      mload\n      swap1\n      0x20\n      add\n      keccak256\n        /* \"contracts/RSPGame.sol\":6966:6967  a */\n      dup4\n        /* \"contracts/RSPGame.sol\":6948:6969  abi.encodePacked((a)) */\n      add(0x20, mload(0x40))\n      tag_164\n      swap2\n      swap1\n      tag_163\n      jump\t// in\n    tag_164:\n      mload(0x40)\n      0x20\n      dup2\n      dup4\n      sub\n      sub\n      dup2\n      mstore\n      swap1\n      0x40\n      mstore\n        /* \"contracts/RSPGame.sol\":6938:6970  keccak256(abi.encodePacked((a))) */\n      dup1\n      mload\n      swap1\n      0x20\n      add\n      keccak256\n        /* \"contracts/RSPGame.sol\":6938:7006  keccak256(abi.encodePacked((a))) == keccak256(abi.encodePacked((b))) */\n      eq\n        /* \"contracts/RSPGame.sol\":6930:7007  return (keccak256(abi.encodePacked((a))) == keccak256(abi.encodePacked((b)))) */\n      swap1\n      pop\n        /* \"contracts/RSPGame.sol\":6783:7014  function compareStrings(string memory a, string memory b) public pure returns (bool) {... */\n      swap3\n      swap2\n      pop\n      pop\n      jump\t// out\n        /* \"contracts/RSPGame.sol\":2133:3954  function play(bytes32 _hashedVote) public payable isNewPlayer costs(minStake) {... */\n    tag_43:\n        /* \"contracts/RSPGame.sol\":7212:7213  0 */\n      0x00\n        /* \"contracts/RSPGame.sol\":7183:7190  players */\n      dup1\n        /* \"contracts/RSPGame.sol\":7183:7202  players[msg.sender] */\n      0x00\n        /* \"contracts/RSPGame.sol\":7191:7201  msg.sender */\n      caller\n        /* \"contracts/RSPGame.sol\":7183:7202  players[msg.sender] */\n      0xffffffffffffffffffffffffffffffffffffffff\n      and\n      0xffffffffffffffffffffffffffffffffffffffff\n      and\n      dup2\n      mstore\n      0x20\n      add\n      swap1\n      dup2\n      mstore\n      0x20\n      add\n      0x00\n      keccak256\n        /* \"contracts/RSPGame.sol\":7183:7208  players[msg.sender].stake */\n      0x03\n      add\n      sload\n        /* \"contracts/RSPGame.sol\":7183:7213  players[msg.sender].stake == 0 */\n      eq\n        /* \"contracts/RSPGame.sol\":7175:7241  require(players[msg.sender].stake == 0, \"You are already playing\") */\n      tag_166\n      jumpi\n      mload(0x40)\n      0x08c379a000000000000000000000000000000000000000000000000000000000\n      dup2\n      mstore\n      0x04\n      add\n      tag_167\n      swap1\n      tag_168\n      jump\t// in\n    tag_167:\n      mload(0x40)\n      dup1\n      swap2\n      sub\n      swap1\n      revert\n    tag_166:\n        /* \"contracts/RSPGame.sol\":2201:2209  minStake */\n      sload(0x02)\n        /* \"contracts/RSPGame.sol\":7530:7537  _amount */\n      dup1\n        /* \"contracts/RSPGame.sol\":7517:7526  msg.value */\n      callvalue\n        /* \"contracts/RSPGame.sol\":7517:7537  msg.value >= _amount */\n      lt\n      iszero\n        /* \"contracts/RSPGame.sol\":7509:7582  require(msg.value >= _amount, \"The stake must be more than 0,0001 Ether\") */\n      tag_170\n      jumpi\n      mload(0x40)\n      0x08c379a000000000000000000000000000000000000000000000000000000000\n      dup2\n      mstore\n      0x04\n      add\n      tag_171\n      swap1\n      tag_172\n      jump\t// in\n    tag_171:\n      mload(0x40)\n      dup1\n      swap2\n      sub\n      swap1\n      revert\n    tag_170:\n        /* \"contracts/RSPGame.sol\":2277:2464  Player({... */\n      mload(0x40)\n      dup1\n      0xc0\n      add\n      0x40\n      mstore\n      dup1\n      mload(0x40)\n      dup1\n      0x20\n      add\n      0x40\n      mstore\n      dup1\n      0x00\n      dup2\n      mstore\n      pop\n      dup2\n      mstore\n      0x20\n      add\n        /* \"contracts/RSPGame.sol\":2310:2321  _hashedVote */\n      dup4\n        /* \"contracts/RSPGame.sol\":2277:2464  Player({... */\n      dup2\n      mstore\n      0x20\n      add\n        /* \"contracts/RSPGame.sol\":2367:2372  false */\n      0x00\n        /* \"contracts/RSPGame.sol\":2277:2464  Player({... */\n      iszero\n      iszero\n      dup2\n      mstore\n      0x20\n      add\n        /* \"contracts/RSPGame.sol\":2404:2405  0 */\n      0x00\n        /* \"contracts/RSPGame.sol\":2277:2464  Player({... */\n      0xffffffffffffffffffffffffffffffffffffffff\n      and\n      dup2\n      mstore\n      0x20\n      add\n        /* \"contracts/RSPGame.sol\":2427:2428  0 */\n      0x00\n        /* \"contracts/RSPGame.sol\":2277:2464  Player({... */\n      dup2\n      mstore\n      0x20\n      add\n        /* \"contracts/RSPGame.sol\":2452:2453  0 */\n      0x00\n        /* \"contracts/RSPGame.sol\":2277:2464  Player({... */\n      dup2\n      mstore\n      pop\n        /* \"contracts/RSPGame.sol\":2255:2262  players */\n      0x00\n        /* \"contracts/RSPGame.sol\":2255:2274  players[msg.sender] */\n      dup1\n        /* \"contracts/RSPGame.sol\":2263:2273  msg.sender */\n      caller\n        /* \"contracts/RSPGame.sol\":2255:2274  players[msg.sender] */\n      0xffffffffffffffffffffffffffffffffffffffff\n      and\n      0xffffffffffffffffffffffffffffffffffffffff\n      and\n      dup2\n      mstore\n      0x20\n      add\n      swap1\n      dup2\n      mstore\n      0x20\n      add\n      0x00\n      keccak256\n        /* \"contracts/RSPGame.sol\":2255:2464  players[msg.sender] = Player({... */\n      0x00\n      dup3\n      add\n      mload\n      dup2\n      0x00\n      add\n      swap1\n      dup2\n      tag_174\n      swap2\n      swap1\n      tag_128\n      jump\t// in\n    tag_174:\n      pop\n      0x20\n      dup3\n      add\n      mload\n      dup2\n      0x01\n      add\n      sstore\n      0x40\n      dup3\n      add\n      mload\n      dup2\n      0x02\n      add\n      exp(0x0100, 0x00)\n      dup2\n      sload\n      dup2\n      0xff\n      mul\n      not\n      and\n      swap1\n      dup4\n      iszero\n      iszero\n      mul\n      or\n      swap1\n      sstore\n      pop\n      0x60\n      dup3\n      add\n      mload\n      dup2\n      0x02\n      add\n      exp(0x0100, 0x01)\n      dup2\n      sload\n      dup2\n      0xffffffffffffffffffffffffffffffffffffffff\n      mul\n      not\n      and\n      swap1\n      dup4\n      0xffffffffffffffffffffffffffffffffffffffff\n      and\n      mul\n      or\n      swap1\n      sstore\n      pop\n      0x80\n      dup3\n      add\n      mload\n      dup2\n      0x03\n      add\n      sstore\n      0xa0\n      dup3\n      add\n      mload\n      dup2\n      0x04\n      add\n      sstore\n      swap1\n      pop\n      pop\n        /* \"contracts/RSPGame.sol\":2475:2491  uint queueLength */\n      0x00\n        /* \"contracts/RSPGame.sol\":2494:2505  playerQueue */\n      0x01\n        /* \"contracts/RSPGame.sol\":2494:2512  playerQueue.length */\n      dup1\n      sload\n      swap1\n      pop\n        /* \"contracts/RSPGame.sol\":2475:2512  uint queueLength = playerQueue.length */\n      swap1\n      pop\n        /* \"contracts/RSPGame.sol\":2583:2584  0 */\n      0x00\n        /* \"contracts/RSPGame.sol\":2568:2579  queueLength */\n      dup2\n        /* \"contracts/RSPGame.sol\":2568:2584  queueLength == 0 */\n      sub\n        /* \"contracts/RSPGame.sol\":2564:3850  if (queueLength == 0) {... */\n      tag_175\n      jumpi\n        /* \"contracts/RSPGame.sol\":2662:2673  playerQueue */\n      0x01\n        /* \"contracts/RSPGame.sol\":2679:2689  msg.sender */\n      caller\n        /* \"contracts/RSPGame.sol\":2662:2690  playerQueue.push(msg.sender) */\n      swap1\n      dup1\n      0x01\n      dup2\n      sload\n      add\n      dup1\n      dup3\n      sstore\n      dup1\n      swap2\n      pop\n      pop\n      0x01\n      swap1\n      sub\n      swap1\n      0x00\n      mstore\n      keccak256(0x00, 0x20)\n      add\n      0x00\n      swap1\n      swap2\n      swap1\n      swap2\n      swap1\n      swap2\n      0x0100\n      exp\n      dup2\n      sload\n      dup2\n      0xffffffffffffffffffffffffffffffffffffffff\n      mul\n      not\n      and\n      swap1\n      dup4\n      0xffffffffffffffffffffffffffffffffffffffff\n      and\n      mul\n      or\n      swap1\n      sstore\n      pop\n        /* \"contracts/RSPGame.sol\":2732:2741  msg.value */\n      callvalue\n        /* \"contracts/RSPGame.sol\":2704:2711  players */\n      0x00\n        /* \"contracts/RSPGame.sol\":2704:2723  players[msg.sender] */\n      dup1\n        /* \"contracts/RSPGame.sol\":2712:2722  msg.sender */\n      caller\n        /* \"contracts/RSPGame.sol\":2704:2723  players[msg.sender] */\n      0xffffffffffffffffffffffffffffffffffffffff\n      and\n      0xffffffffffffffffffffffffffffffffffffffff\n      and\n      dup2\n      mstore\n      0x20\n      add\n      swap1\n      dup2\n      mstore\n      0x20\n      add\n      0x00\n      keccak256\n        /* \"contracts/RSPGame.sol\":2704:2729  players[msg.sender].stake */\n      0x03\n      add\n        /* \"contracts/RSPGame.sol\":2704:2741  players[msg.sender].stake = msg.value */\n      dup2\n      swap1\n      sstore\n      pop\n        /* \"contracts/RSPGame.sol\":2564:3850  if (queueLength == 0) {... */\n      jump(tag_177)\n    tag_175:\n        /* \"contracts/RSPGame.sol\":2842:2858  address opponent */\n      0x00\n        /* \"contracts/RSPGame.sol\":2861:2872  playerQueue */\n      0x01\n        /* \"contracts/RSPGame.sol\":2887:2888  1 */\n      dup1\n        /* \"contracts/RSPGame.sol\":2873:2884  queueLength */\n      dup4\n        /* \"contracts/RSPGame.sol\":2873:2888  queueLength - 1 */\n      tag_178\n      swap2\n      swap1\n      tag_179\n      jump\t// in\n    tag_178:\n        /* \"contracts/RSPGame.sol\":2861:2889  playerQueue[queueLength - 1] */\n      dup2\n      sload\n      dup2\n      lt\n      tag_180\n      jumpi\n      tag_181\n      tag_116\n      jump\t// in\n    tag_181:\n    tag_180:\n      swap1\n      0x00\n      mstore\n      keccak256(0x00, 0x20)\n      add\n      0x00\n      swap1\n      sload\n      swap1\n      0x0100\n      exp\n      swap1\n      div\n      0xffffffffffffffffffffffffffffffffffffffff\n      and\n        /* \"contracts/RSPGame.sol\":2842:2889  address opponent = playerQueue[queueLength - 1] */\n      swap1\n      pop\n        /* \"contracts/RSPGame.sol\":3010:3017  players */\n      0x00\n        /* \"contracts/RSPGame.sol\":3010:3027  players[opponent] */\n      dup1\n        /* \"contracts/RSPGame.sol\":3018:3026  opponent */\n      dup3\n        /* \"contracts/RSPGame.sol\":3010:3027  players[opponent] */\n      0xffffffffffffffffffffffffffffffffffffffff\n      and\n      0xffffffffffffffffffffffffffffffffffffffff\n      and\n      dup2\n      mstore\n      0x20\n      add\n      swap1\n      dup2\n      mstore\n      0x20\n      add\n      0x00\n      keccak256\n        /* \"contracts/RSPGame.sol\":3010:3033  players[opponent].stake */\n      0x03\n      add\n      sload\n        /* \"contracts/RSPGame.sol\":2997:3006  msg.value */\n      callvalue\n        /* \"contracts/RSPGame.sol\":2997:3033  msg.value >= players[opponent].stake */\n      lt\n      iszero\n        /* \"contracts/RSPGame.sol\":2989:3087  require(msg.value >= players[opponent].stake,... */\n      tag_183\n      jumpi\n      mload(0x40)\n      0x08c379a000000000000000000000000000000000000000000000000000000000\n      dup2\n      mstore\n      0x04\n      add\n      tag_184\n      swap1\n      tag_185\n      jump\t// in\n    tag_184:\n      mload(0x40)\n      dup1\n      swap2\n      sub\n      swap1\n      revert\n    tag_183:\n        /* \"contracts/RSPGame.sol\":3129:3136  players */\n      0x00\n        /* \"contracts/RSPGame.sol\":3129:3146  players[opponent] */\n      dup1\n        /* \"contracts/RSPGame.sol\":3137:3145  opponent */\n      dup3\n        /* \"contracts/RSPGame.sol\":3129:3146  players[opponent] */\n      0xffffffffffffffffffffffffffffffffffffffff\n      and\n      0xffffffffffffffffffffffffffffffffffffffff\n      and\n      dup2\n      mstore\n      0x20\n      add\n      swap1\n      dup2\n      mstore\n      0x20\n      add\n      0x00\n      keccak256\n        /* \"contracts/RSPGame.sol\":3129:3152  players[opponent].stake */\n      0x03\n      add\n      sload\n        /* \"contracts/RSPGame.sol\":3101:3108  players */\n      0x00\n        /* \"contracts/RSPGame.sol\":3101:3120  players[msg.sender] */\n      dup1\n        /* \"contracts/RSPGame.sol\":3109:3119  msg.sender */\n      caller\n        /* \"contracts/RSPGame.sol\":3101:3120  players[msg.sender] */\n      0xffffffffffffffffffffffffffffffffffffffff\n      and\n      0xffffffffffffffffffffffffffffffffffffffff\n      and\n      dup2\n      mstore\n      0x20\n      add\n      swap1\n      dup2\n      mstore\n      0x20\n      add\n      0x00\n      keccak256\n        /* \"contracts/RSPGame.sol\":3101:3126  players[msg.sender].stake */\n      0x03\n      add\n        /* \"contracts/RSPGame.sol\":3101:3152  players[msg.sender].stake = players[opponent].stake */\n      dup2\n      swap1\n      sstore\n      pop\n        /* \"contracts/RSPGame.sol\":3236:3246  msg.sender */\n      caller\n        /* \"contracts/RSPGame.sol\":3228:3256  payable(msg.sender).transfer */\n      0xffffffffffffffffffffffffffffffffffffffff\n      and\n        /* \"contracts/RSPGame.sol\":3228:3293  payable(msg.sender).transfer(msg.value - players[opponent].stake) */\n      0x08fc\n        /* \"contracts/RSPGame.sol\":3269:3276  players */\n      0x00\n        /* \"contracts/RSPGame.sol\":3269:3286  players[opponent] */\n      dup1\n        /* \"contracts/RSPGame.sol\":3277:3285  opponent */\n      dup5\n        /* \"contracts/RSPGame.sol\":3269:3286  players[opponent] */\n      0xffffffffffffffffffffffffffffffffffffffff\n      and\n      0xffffffffffffffffffffffffffffffffffffffff\n      and\n      dup2\n      mstore\n      0x20\n      add\n      swap1\n      dup2\n      mstore\n      0x20\n      add\n      0x00\n      keccak256\n        /* \"contracts/RSPGame.sol\":3269:3292  players[opponent].stake */\n      0x03\n      add\n      sload\n        /* \"contracts/RSPGame.sol\":3257:3266  msg.value */\n      callvalue\n        /* \"contracts/RSPGame.sol\":3257:3292  msg.value - players[opponent].stake */\n      tag_186\n      swap2\n      swap1\n      tag_179\n      jump\t// in\n    tag_186:\n        /* \"contracts/RSPGame.sol\":3228:3293  payable(msg.sender).transfer(msg.value - players[opponent].stake) */\n      swap1\n      dup2\n      iszero\n      mul\n      swap1\n      mload(0x40)\n      0x00\n      mload(0x40)\n      dup1\n      dup4\n      sub\n      dup2\n      dup6\n      dup9\n      dup9\n      call\n      swap4\n      pop\n      pop\n      pop\n      pop\n      iszero\n      dup1\n      iszero\n      tag_188\n      jumpi\n      returndatasize\n      0x00\n      dup1\n      returndatacopy\n      revert(0x00, returndatasize)\n    tag_188:\n      pop\n        /* \"contracts/RSPGame.sol\":3390:3398  opponent */\n      dup1\n        /* \"contracts/RSPGame.sol\":3359:3366  players */\n      0x00\n        /* \"contracts/RSPGame.sol\":3359:3378  players[msg.sender] */\n      dup1\n        /* \"contracts/RSPGame.sol\":3367:3377  msg.sender */\n      caller\n        /* \"contracts/RSPGame.sol\":3359:3378  players[msg.sender] */\n      0xffffffffffffffffffffffffffffffffffffffff\n      and\n      0xffffffffffffffffffffffffffffffffffffffff\n      and\n      dup2\n      mstore\n      0x20\n      add\n      swap1\n      dup2\n      mstore\n      0x20\n      add\n      0x00\n      keccak256\n        /* \"contracts/RSPGame.sol\":3359:3387  players[msg.sender].opponent */\n      0x02\n      add\n      0x01\n        /* \"contracts/RSPGame.sol\":3359:3398  players[msg.sender].opponent = opponent */\n      0x0100\n      exp\n      dup2\n      sload\n      dup2\n      0xffffffffffffffffffffffffffffffffffffffff\n      mul\n      not\n      and\n      swap1\n      dup4\n      0xffffffffffffffffffffffffffffffffffffffff\n      and\n      mul\n      or\n      swap1\n      sstore\n      pop\n        /* \"contracts/RSPGame.sol\":3441:3451  msg.sender */\n      caller\n        /* \"contracts/RSPGame.sol\":3412:3419  players */\n      0x00\n        /* \"contracts/RSPGame.sol\":3412:3429  players[opponent] */\n      dup1\n        /* \"contracts/RSPGame.sol\":3420:3428  opponent */\n      dup4\n        /* \"contracts/RSPGame.sol\":3412:3429  players[opponent] */\n      0xffffffffffffffffffffffffffffffffffffffff\n      and\n      0xffffffffffffffffffffffffffffffffffffffff\n      and\n      dup2\n      mstore\n      0x20\n      add\n      swap1\n      dup2\n      mstore\n      0x20\n      add\n      0x00\n      keccak256\n        /* \"contracts/RSPGame.sol\":3412:3438  players[opponent].opponent */\n      0x02\n      add\n      0x01\n        /* \"contracts/RSPGame.sol\":3412:3451  players[opponent].opponent = msg.sender */\n      0x0100\n      exp\n      dup2\n      sload\n      dup2\n      0xffffffffffffffffffffffffffffffffffffffff\n      mul\n      not\n      and\n      swap1\n      dup4\n      0xffffffffffffffffffffffffffffffffffffffff\n      and\n      mul\n      or\n      swap1\n      sstore\n      pop\n        /* \"contracts/RSPGame.sol\":3519:3532  uint deadline */\n      0x00\n        /* \"contracts/RSPGame.sol\":3553:3563  revealTime */\n      sload(0x03)\n        /* \"contracts/RSPGame.sol\":3535:3550  block.timestamp */\n      timestamp\n        /* \"contracts/RSPGame.sol\":3535:3563  block.timestamp + revealTime */\n      tag_189\n      swap2\n      swap1\n      tag_190\n      jump\t// in\n    tag_189:\n        /* \"contracts/RSPGame.sol\":3519:3563  uint deadline = block.timestamp + revealTime */\n      swap1\n      pop\n        /* \"contracts/RSPGame.sol\":3608:3616  deadline */\n      dup1\n        /* \"contracts/RSPGame.sol\":3577:3584  players */\n      0x00\n        /* \"contracts/RSPGame.sol\":3577:3596  players[msg.sender] */\n      dup1\n        /* \"contracts/RSPGame.sol\":3585:3595  msg.sender */\n      caller\n        /* \"contracts/RSPGame.sol\":3577:3596  players[msg.sender] */\n      0xffffffffffffffffffffffffffffffffffffffff\n      and\n      0xffffffffffffffffffffffffffffffffffffffff\n      and\n      dup2\n      mstore\n      0x20\n      add\n      swap1\n      dup2\n      mstore\n      0x20\n      add\n      0x00\n      keccak256\n        /* \"contracts/RSPGame.sol\":3577:3605  players[msg.sender].deadline */\n      0x04\n      add\n        /* \"contracts/RSPGame.sol\":3577:3616  players[msg.sender].deadline = deadline */\n      dup2\n      swap1\n      sstore\n      pop\n        /* \"contracts/RSPGame.sol\":3659:3667  deadline */\n      dup1\n        /* \"contracts/RSPGame.sol\":3630:3637  players */\n      0x00\n        /* \"contracts/RSPGame.sol\":3630:3647  players[opponent] */\n      dup1\n        /* \"contracts/RSPGame.sol\":3638:3646  opponent */\n      dup5\n        /* \"contracts/RSPGame.sol\":3630:3647  players[opponent] */\n      0xffffffffffffffffffffffffffffffffffffffff\n      and\n      0xffffffffffffffffffffffffffffffffffffffff\n      and\n      dup2\n      mstore\n      0x20\n      add\n      swap1\n      dup2\n      mstore\n      0x20\n      add\n      0x00\n      keccak256\n        /* \"contracts/RSPGame.sol\":3630:3656  players[opponent].deadline */\n      0x04\n      add\n        /* \"contracts/RSPGame.sol\":3630:3667  players[opponent].deadline = deadline */\n      dup2\n      swap1\n      sstore\n      pop\n        /* \"contracts/RSPGame.sol\":3762:3773  playerQueue */\n      0x01\n        /* \"contracts/RSPGame.sol\":3762:3779  playerQueue.pop() */\n      dup1\n      sload\n      dup1\n      tag_191\n      jumpi\n      tag_192\n      tag_193\n      jump\t// in\n    tag_192:\n    tag_191:\n      0x01\n      swap1\n      sub\n      dup2\n      dup2\n      swap1\n      0x00\n      mstore\n      keccak256(0x00, 0x20)\n      add\n      exp(0x0100, 0x00)\n      dup2\n      sload\n      swap1\n      0xffffffffffffffffffffffffffffffffffffffff\n      mul\n      not\n      and\n      swap1\n      sstore\n      swap1\n      sstore\n        /* \"contracts/RSPGame.sol\":3798:3839  GameStart(opponent, msg.sender, deadline) */\n      0xf7750bebc6a1d050dec98239cfc17dbb80b7469bdbf2a73da0c8023a4f46f772\n        /* \"contracts/RSPGame.sol\":3808:3816  opponent */\n      dup3\n        /* \"contracts/RSPGame.sol\":3818:3828  msg.sender */\n      caller\n        /* \"contracts/RSPGame.sol\":3830:3838  deadline */\n      dup4\n        /* \"contracts/RSPGame.sol\":3798:3839  GameStart(opponent, msg.sender, deadline) */\n      mload(0x40)\n      tag_195\n      swap4\n      swap3\n      swap2\n      swap1\n      tag_196\n      jump\t// in\n    tag_195:\n      mload(0x40)\n      dup1\n      swap2\n      sub\n      swap1\n      log1\n        /* \"contracts/RSPGame.sol\":2759:3850  {... */\n      pop\n      pop\n        /* \"contracts/RSPGame.sol\":2564:3850  if (queueLength == 0) {... */\n    tag_177:\n        /* \"contracts/RSPGame.sol\":3912:3947  HiddenVote(msg.sender, _hashedVote) */\n      0x673312c85cba8b334416b1c6e845170bbdff704baf138f1866ab5e8bf3440776\n        /* \"contracts/RSPGame.sol\":3923:3933  msg.sender */\n      caller\n        /* \"contracts/RSPGame.sol\":3935:3946  _hashedVote */\n      dup5\n        /* \"contracts/RSPGame.sol\":3912:3947  HiddenVote(msg.sender, _hashedVote) */\n      mload(0x40)\n      tag_197\n      swap3\n      swap2\n      swap1\n      tag_198\n      jump\t// in\n    tag_197:\n      mload(0x40)\n      dup1\n      swap2\n      sub\n      swap1\n      log1\n        /* \"contracts/RSPGame.sol\":2211:3954  {... */\n      pop\n        /* \"contracts/RSPGame.sol\":7251:7252  _ */\n      pop\n        /* \"contracts/RSPGame.sol\":2133:3954  function play(bytes32 _hashedVote) public payable isNewPlayer costs(minStake) {... */\n      pop\n      jump\t// out\n        /* \"contracts/RSPGame.sol\":1480:1521  mapping(address => Player) public players */\n    tag_48:\n      mstore(0x20, 0x00)\n      dup1\n      0x00\n      mstore\n      keccak256(0x00, 0x40)\n      0x00\n      swap2\n      pop\n      swap1\n      pop\n      dup1\n      0x00\n      add\n      dup1\n      sload\n      tag_199\n      swap1\n      tag_68\n      jump\t// in\n    tag_199:\n      dup1\n      0x1f\n      add\n      0x20\n      dup1\n      swap2\n      div\n      mul\n      0x20\n      add\n      mload(0x40)\n      swap1\n      dup2\n      add\n      0x40\n      mstore\n      dup1\n      swap3\n      swap2\n      swap1\n      dup2\n      dup2\n      mstore\n      0x20\n      add\n      dup3\n      dup1\n      sload\n      tag_200\n      swap1\n      tag_68\n      jump\t// in\n    tag_200:\n      dup1\n      iszero\n      tag_201\n      jumpi\n      dup1\n      0x1f\n      lt\n      tag_202\n      jumpi\n      0x0100\n      dup1\n      dup4\n      sload\n      div\n      mul\n      dup4\n      mstore\n      swap2\n      0x20\n      add\n      swap2\n      jump(tag_201)\n    tag_202:\n      dup3\n      add\n      swap2\n      swap1\n      0x00\n      mstore\n      keccak256(0x00, 0x20)\n      swap1\n    tag_203:\n      dup2\n      sload\n      dup2\n      mstore\n      swap1\n      0x01\n      add\n      swap1\n      0x20\n      add\n      dup1\n      dup4\n      gt\n      tag_203\n      jumpi\n      dup3\n      swap1\n      sub\n      0x1f\n      and\n      dup3\n      add\n      swap2\n    tag_201:\n      pop\n      pop\n      pop\n      pop\n      pop\n      swap1\n      dup1\n      0x01\n      add\n      sload\n      swap1\n      dup1\n      0x02\n      add\n      0x00\n      swap1\n      sload\n      swap1\n      0x0100\n      exp\n      swap1\n      div\n      0xff\n      and\n      swap1\n      dup1\n      0x02\n      add\n      0x01\n      swap1\n      sload\n      swap1\n      0x0100\n      exp\n      swap1\n      div\n      0xffffffffffffffffffffffffffffffffffffffff\n      and\n      swap1\n      dup1\n      0x03\n      add\n      sload\n      swap1\n      dup1\n      0x04\n      add\n      sload\n      swap1\n      pop\n      dup7\n      jump\t// out\n        /* \"contracts/RSPGame.sol\":1528:1556  address[] public playerQueue */\n    tag_55:\n      0x01\n      dup2\n      dup2\n      sload\n      dup2\n      lt\n      tag_204\n      jumpi\n      0x00\n      dup1\n      revert\n    tag_204:\n      swap1\n      0x00\n      mstore\n      keccak256(0x00, 0x20)\n      add\n      0x00\n      swap2\n      pop\n      sload\n      swap1\n      0x0100\n      exp\n      swap1\n      div\n      0xffffffffffffffffffffffffffffffffffffffff\n      and\n      dup2\n      jump\t// out\n    tag_87:\n      pop\n      dup1\n      sload\n      tag_206\n      swap1\n      tag_68\n      jump\t// in\n    tag_206:\n      0x00\n      dup3\n      sstore\n      dup1\n      0x1f\n      lt\n      tag_208\n      jumpi\n      pop\n      jump(tag_207)\n    tag_208:\n      0x1f\n      add\n      0x20\n      swap1\n      div\n      swap1\n      0x00\n      mstore\n      keccak256(0x00, 0x20)\n      swap1\n      dup2\n      add\n      swap1\n      tag_209\n      swap2\n      swap1\n      tag_210\n      jump\t// in\n    tag_209:\n    tag_207:\n      pop\n      jump\t// out\n    tag_210:\n    tag_211:\n      dup1\n      dup3\n      gt\n      iszero\n      tag_212\n      jumpi\n      0x00\n      dup2\n      0x00\n      swap1\n      sstore\n      pop\n      0x01\n      add\n      jump(tag_211)\n    tag_212:\n      pop\n      swap1\n      jump\t// out\n        /* \"#utility.yul\":7:84   */\n    tag_213:\n        /* \"#utility.yul\":44:51   */\n      0x00\n        /* \"#utility.yul\":73:78   */\n      dup2\n        /* \"#utility.yul\":62:78   */\n      swap1\n      pop\n        /* \"#utility.yul\":7:84   */\n      swap2\n      swap1\n      pop\n      jump\t// out\n        /* \"#utility.yul\":90:208   */\n    tag_214:\n        /* \"#utility.yul\":177:201   */\n      tag_287\n        /* \"#utility.yul\":195:200   */\n      dup2\n        /* \"#utility.yul\":177:201   */\n      tag_213\n      jump\t// in\n    tag_287:\n        /* \"#utility.yul\":172:175   */\n      dup3\n        /* \"#utility.yul\":165:202   */\n      mstore\n        /* \"#utility.yul\":90:208   */\n      pop\n      pop\n      jump\t// out\n        /* \"#utility.yul\":214:436   */\n    tag_16:\n        /* \"#utility.yul\":307:311   */\n      0x00\n        /* \"#utility.yul\":345:347   */\n      0x20\n        /* \"#utility.yul\":334:343   */\n      dup3\n        /* \"#utility.yul\":330:348   */\n      add\n        /* \"#utility.yul\":322:348   */\n      swap1\n      pop\n        /* \"#utility.yul\":358:429   */\n      tag_289\n        /* \"#utility.yul\":426:427   */\n      0x00\n        /* \"#utility.yul\":415:424   */\n      dup4\n        /* \"#utility.yul\":411:428   */\n      add\n        /* \"#utility.yul\":402:408   */\n      dup5\n        /* \"#utility.yul\":358:429   */\n      tag_214\n      jump\t// in\n    tag_289:\n        /* \"#utility.yul\":214:436   */\n      swap3\n      swap2\n      pop\n      pop\n      jump\t// out\n        /* \"#utility.yul\":442:517   */\n    tag_215:\n        /* \"#utility.yul\":475:481   */\n      0x00\n        /* \"#utility.yul\":508:510   */\n      0x40\n        /* \"#utility.yul\":502:511   */\n      mload\n        /* \"#utility.yul\":492:511   */\n      swap1\n      pop\n        /* \"#utility.yul\":442:517   */\n      swap1\n      jump\t// out\n        /* \"#utility.yul\":523:640   */\n    tag_216:\n        /* \"#utility.yul\":632:633   */\n      0x00\n        /* \"#utility.yul\":629:630   */\n      dup1\n        /* \"#utility.yul\":622:634   */\n      revert\n        /* \"#utility.yul\":646:763   */\n    tag_217:\n        /* \"#utility.yul\":755:756   */\n      0x00\n        /* \"#utility.yul\":752:753   */\n      dup1\n        /* \"#utility.yul\":745:757   */\n      revert\n        /* \"#utility.yul\":769:886   */\n    tag_218:\n        /* \"#utility.yul\":878:879   */\n      0x00\n        /* \"#utility.yul\":875:876   */\n      dup1\n        /* \"#utility.yul\":868:880   */\n      revert\n        /* \"#utility.yul\":892:1009   */\n    tag_219:\n        /* \"#utility.yul\":1001:1002   */\n      0x00\n        /* \"#utility.yul\":998:999   */\n      dup1\n        /* \"#utility.yul\":991:1003   */\n      revert\n        /* \"#utility.yul\":1015:1132   */\n    tag_220:\n        /* \"#utility.yul\":1124:1125   */\n      0x00\n        /* \"#utility.yul\":1121:1122   */\n      dup1\n        /* \"#utility.yul\":1114:1126   */\n      revert\n        /* \"#utility.yul\":1152:1705   */\n    tag_221:\n        /* \"#utility.yul\":1210:1218   */\n      0x00\n        /* \"#utility.yul\":1220:1226   */\n      dup1\n        /* \"#utility.yul\":1270:1273   */\n      dup4\n        /* \"#utility.yul\":1263:1267   */\n      0x1f\n        /* \"#utility.yul\":1255:1261   */\n      dup5\n        /* \"#utility.yul\":1251:1268   */\n      add\n        /* \"#utility.yul\":1247:1274   */\n      slt\n        /* \"#utility.yul\":1237:1359   */\n      tag_297\n      jumpi\n        /* \"#utility.yul\":1278:1357   */\n      tag_298\n      tag_218\n      jump\t// in\n    tag_298:\n        /* \"#utility.yul\":1237:1359   */\n    tag_297:\n        /* \"#utility.yul\":1391:1397   */\n      dup3\n        /* \"#utility.yul\":1378:1398   */\n      calldataload\n        /* \"#utility.yul\":1368:1398   */\n      swap1\n      pop\n        /* \"#utility.yul\":1421:1439   */\n      0xffffffffffffffff\n        /* \"#utility.yul\":1413:1419   */\n      dup2\n        /* \"#utility.yul\":1410:1440   */\n      gt\n        /* \"#utility.yul\":1407:1524   */\n      iszero\n      tag_299\n      jumpi\n        /* \"#utility.yul\":1443:1522   */\n      tag_300\n      tag_219\n      jump\t// in\n    tag_300:\n        /* \"#utility.yul\":1407:1524   */\n    tag_299:\n        /* \"#utility.yul\":1557:1561   */\n      0x20\n        /* \"#utility.yul\":1549:1555   */\n      dup4\n        /* \"#utility.yul\":1545:1562   */\n      add\n        /* \"#utility.yul\":1533:1562   */\n      swap2\n      pop\n        /* \"#utility.yul\":1611:1614   */\n      dup4\n        /* \"#utility.yul\":1603:1607   */\n      0x01\n        /* \"#utility.yul\":1595:1601   */\n      dup3\n        /* \"#utility.yul\":1591:1608   */\n      mul\n        /* \"#utility.yul\":1581:1589   */\n      dup4\n        /* \"#utility.yul\":1577:1609   */\n      add\n        /* \"#utility.yul\":1574:1615   */\n      gt\n        /* \"#utility.yul\":1571:1699   */\n      iszero\n      tag_301\n      jumpi\n        /* \"#utility.yul\":1618:1697   */\n      tag_302\n      tag_220\n      jump\t// in\n    tag_302:\n        /* \"#utility.yul\":1571:1699   */\n    tag_301:\n        /* \"#utility.yul\":1152:1705   */\n      swap3\n      pop\n      swap3\n      swap1\n      pop\n      jump\t// out\n        /* \"#utility.yul\":1711:2585   */\n    tag_22:\n        /* \"#utility.yul\":1803:1809   */\n      0x00\n        /* \"#utility.yul\":1811:1817   */\n      dup1\n        /* \"#utility.yul\":1819:1825   */\n      0x00\n        /* \"#utility.yul\":1827:1833   */\n      dup1\n        /* \"#utility.yul\":1876:1878   */\n      0x40\n        /* \"#utility.yul\":1864:1873   */\n      dup6\n        /* \"#utility.yul\":1855:1862   */\n      dup8\n        /* \"#utility.yul\":1851:1874   */\n      sub\n        /* \"#utility.yul\":1847:1879   */\n      slt\n        /* \"#utility.yul\":1844:1963   */\n      iszero\n      tag_304\n      jumpi\n        /* \"#utility.yul\":1882:1961   */\n      tag_305\n      tag_216\n      jump\t// in\n    tag_305:\n        /* \"#utility.yul\":1844:1963   */\n    tag_304:\n        /* \"#utility.yul\":2030:2031   */\n      0x00\n        /* \"#utility.yul\":2019:2028   */\n      dup6\n        /* \"#utility.yul\":2015:2032   */\n      add\n        /* \"#utility.yul\":2002:2033   */\n      calldataload\n        /* \"#utility.yul\":2060:2078   */\n      0xffffffffffffffff\n        /* \"#utility.yul\":2052:2058   */\n      dup2\n        /* \"#utility.yul\":2049:2079   */\n      gt\n        /* \"#utility.yul\":2046:2163   */\n      iszero\n      tag_306\n      jumpi\n        /* \"#utility.yul\":2082:2161   */\n      tag_307\n      tag_217\n      jump\t// in\n    tag_307:\n        /* \"#utility.yul\":2046:2163   */\n    tag_306:\n        /* \"#utility.yul\":2195:2260   */\n      tag_308\n        /* \"#utility.yul\":2252:2259   */\n      dup8\n        /* \"#utility.yul\":2243:2249   */\n      dup3\n        /* \"#utility.yul\":2232:2241   */\n      dup9\n        /* \"#utility.yul\":2228:2250   */\n      add\n        /* \"#utility.yul\":2195:2260   */\n      tag_221\n      jump\t// in\n    tag_308:\n        /* \"#utility.yul\":2177:2260   */\n      swap5\n      pop\n      swap5\n      pop\n        /* \"#utility.yul\":1973:2270   */\n      pop\n        /* \"#utility.yul\":2337:2339   */\n      0x20\n        /* \"#utility.yul\":2326:2335   */\n      dup6\n        /* \"#utility.yul\":2322:2340   */\n      add\n        /* \"#utility.yul\":2309:2341   */\n      calldataload\n        /* \"#utility.yul\":2368:2386   */\n      0xffffffffffffffff\n        /* \"#utility.yul\":2360:2366   */\n      dup2\n        /* \"#utility.yul\":2357:2387   */\n      gt\n        /* \"#utility.yul\":2354:2471   */\n      iszero\n      tag_309\n      jumpi\n        /* \"#utility.yul\":2390:2469   */\n      tag_310\n      tag_217\n      jump\t// in\n    tag_310:\n        /* \"#utility.yul\":2354:2471   */\n    tag_309:\n        /* \"#utility.yul\":2503:2568   */\n      tag_311\n        /* \"#utility.yul\":2560:2567   */\n      dup8\n        /* \"#utility.yul\":2551:2557   */\n      dup3\n        /* \"#utility.yul\":2540:2549   */\n      dup9\n        /* \"#utility.yul\":2536:2558   */\n      add\n        /* \"#utility.yul\":2503:2568   */\n      tag_221\n      jump\t// in\n    tag_311:\n        /* \"#utility.yul\":2485:2568   */\n      swap3\n      pop\n      swap3\n      pop\n        /* \"#utility.yul\":2280:2578   */\n      pop\n        /* \"#utility.yul\":1711:2585   */\n      swap3\n      swap6\n      swap2\n      swap5\n      pop\n      swap3\n      pop\n      jump\t// out\n        /* \"#utility.yul\":2591:2708   */\n    tag_222:\n        /* \"#utility.yul\":2700:2701   */\n      0x00\n        /* \"#utility.yul\":2697:2698   */\n      dup1\n        /* \"#utility.yul\":2690:2702   */\n      revert\n        /* \"#utility.yul\":2714:2816   */\n    tag_223:\n        /* \"#utility.yul\":2755:2761   */\n      0x00\n        /* \"#utility.yul\":2806:2808   */\n      0x1f\n        /* \"#utility.yul\":2802:2809   */\n      not\n        /* \"#utility.yul\":2797:2799   */\n      0x1f\n        /* \"#utility.yul\":2790:2795   */\n      dup4\n        /* \"#utility.yul\":2786:2800   */\n      add\n        /* \"#utility.yul\":2782:2810   */\n      and\n        /* \"#utility.yul\":2772:2810   */\n      swap1\n      pop\n        /* \"#utility.yul\":2714:2816   */\n      swap2\n      swap1\n      pop\n      jump\t// out\n        /* \"#utility.yul\":2822:3002   */\n    tag_224:\n        /* \"#utility.yul\":2870:2947   */\n      0x4e487b7100000000000000000000000000000000000000000000000000000000\n        /* \"#utility.yul\":2867:2868   */\n      0x00\n        /* \"#utility.yul\":2860:2948   */\n      mstore\n        /* \"#utility.yul\":2967:2971   */\n      0x41\n        /* \"#utility.yul\":2964:2965   */\n      0x04\n        /* \"#utility.yul\":2957:2972   */\n      mstore\n        /* \"#utility.yul\":2991:2995   */\n      0x24\n        /* \"#utility.yul\":2988:2989   */\n      0x00\n        /* \"#utility.yul\":2981:2996   */\n      revert\n        /* \"#utility.yul\":3008:3289   */\n    tag_225:\n        /* \"#utility.yul\":3091:3118   */\n      tag_316\n        /* \"#utility.yul\":3113:3117   */\n      dup3\n        /* \"#utility.yul\":3091:3118   */\n      tag_223\n      jump\t// in\n    tag_316:\n        /* \"#utility.yul\":3083:3089   */\n      dup2\n        /* \"#utility.yul\":3079:3119   */\n      add\n        /* \"#utility.yul\":3221:3227   */\n      dup2\n        /* \"#utility.yul\":3209:3219   */\n      dup2\n        /* \"#utility.yul\":3206:3228   */\n      lt\n        /* \"#utility.yul\":3185:3203   */\n      0xffffffffffffffff\n        /* \"#utility.yul\":3173:3183   */\n      dup3\n        /* \"#utility.yul\":3170:3204   */\n      gt\n        /* \"#utility.yul\":3167:3229   */\n      or\n        /* \"#utility.yul\":3164:3252   */\n      iszero\n      tag_317\n      jumpi\n        /* \"#utility.yul\":3232:3250   */\n      tag_318\n      tag_224\n      jump\t// in\n    tag_318:\n        /* \"#utility.yul\":3164:3252   */\n    tag_317:\n        /* \"#utility.yul\":3272:3282   */\n      dup1\n        /* \"#utility.yul\":3268:3270   */\n      0x40\n        /* \"#utility.yul\":3261:3283   */\n      mstore\n        /* \"#utility.yul\":3051:3289   */\n      pop\n        /* \"#utility.yul\":3008:3289   */\n      pop\n      pop\n      jump\t// out\n        /* \"#utility.yul\":3295:3424   */\n    tag_226:\n        /* \"#utility.yul\":3329:3335   */\n      0x00\n        /* \"#utility.yul\":3356:3376   */\n      tag_320\n      tag_215\n      jump\t// in\n    tag_320:\n        /* \"#utility.yul\":3346:3376   */\n      swap1\n      pop\n        /* \"#utility.yul\":3385:3418   */\n      tag_321\n        /* \"#utility.yul\":3413:3417   */\n      dup3\n        /* \"#utility.yul\":3405:3411   */\n      dup3\n        /* \"#utility.yul\":3385:3418   */\n      tag_225\n      jump\t// in\n    tag_321:\n        /* \"#utility.yul\":3295:3424   */\n      swap2\n      swap1\n      pop\n      jump\t// out\n        /* \"#utility.yul\":3430:3738   */\n    tag_227:\n        /* \"#utility.yul\":3492:3496   */\n      0x00\n        /* \"#utility.yul\":3582:3600   */\n      0xffffffffffffffff\n        /* \"#utility.yul\":3574:3580   */\n      dup3\n        /* \"#utility.yul\":3571:3601   */\n      gt\n        /* \"#utility.yul\":3568:3624   */\n      iszero\n      tag_323\n      jumpi\n        /* \"#utility.yul\":3604:3622   */\n      tag_324\n      tag_224\n      jump\t// in\n    tag_324:\n        /* \"#utility.yul\":3568:3624   */\n    tag_323:\n        /* \"#utility.yul\":3642:3671   */\n      tag_325\n        /* \"#utility.yul\":3664:3670   */\n      dup3\n        /* \"#utility.yul\":3642:3671   */\n      tag_223\n      jump\t// in\n    tag_325:\n        /* \"#utility.yul\":3634:3671   */\n      swap1\n      pop\n        /* \"#utility.yul\":3726:3730   */\n      0x20\n        /* \"#utility.yul\":3720:3724   */\n      dup2\n        /* \"#utility.yul\":3716:3731   */\n      add\n        /* \"#utility.yul\":3708:3731   */\n      swap1\n      pop\n        /* \"#utility.yul\":3430:3738   */\n      swap2\n      swap1\n      pop\n      jump\t// out\n        /* \"#utility.yul\":3744:3892   */\n    tag_228:\n        /* \"#utility.yul\":3842:3848   */\n      dup3\n        /* \"#utility.yul\":3837:3840   */\n      dup2\n        /* \"#utility.yul\":3832:3835   */\n      dup4\n        /* \"#utility.yul\":3819:3849   */\n      calldatacopy\n        /* \"#utility.yul\":3883:3884   */\n      0x00\n        /* \"#utility.yul\":3874:3880   */\n      dup4\n        /* \"#utility.yul\":3869:3872   */\n      dup4\n        /* \"#utility.yul\":3865:3881   */\n      add\n        /* \"#utility.yul\":3858:3885   */\n      mstore\n        /* \"#utility.yul\":3744:3892   */\n      pop\n      pop\n      pop\n      jump\t// out\n        /* \"#utility.yul\":3898:4323   */\n    tag_229:\n        /* \"#utility.yul\":3976:3981   */\n      0x00\n        /* \"#utility.yul\":4001:4067   */\n      tag_328\n        /* \"#utility.yul\":4017:4066   */\n      tag_329\n        /* \"#utility.yul\":4059:4065   */\n      dup5\n        /* \"#utility.yul\":4017:4066   */\n      tag_227\n      jump\t// in\n    tag_329:\n        /* \"#utility.yul\":4001:4067   */\n      tag_226\n      jump\t// in\n    tag_328:\n        /* \"#utility.yul\":3992:4067   */\n      swap1\n      pop\n        /* \"#utility.yul\":4090:4096   */\n      dup3\n        /* \"#utility.yul\":4083:4088   */\n      dup2\n        /* \"#utility.yul\":4076:4097   */\n      mstore\n        /* \"#utility.yul\":4128:4132   */\n      0x20\n        /* \"#utility.yul\":4121:4126   */\n      dup2\n        /* \"#utility.yul\":4117:4133   */\n      add\n        /* \"#utility.yul\":4166:4169   */\n      dup5\n        /* \"#utility.yul\":4157:4163   */\n      dup5\n        /* \"#utility.yul\":4152:4155   */\n      dup5\n        /* \"#utility.yul\":4148:4164   */\n      add\n        /* \"#utility.yul\":4145:4170   */\n      gt\n        /* \"#utility.yul\":4142:4254   */\n      iszero\n      tag_330\n      jumpi\n        /* \"#utility.yul\":4173:4252   */\n      tag_331\n      tag_222\n      jump\t// in\n    tag_331:\n        /* \"#utility.yul\":4142:4254   */\n    tag_330:\n        /* \"#utility.yul\":4263:4317   */\n      tag_332\n        /* \"#utility.yul\":4310:4316   */\n      dup5\n        /* \"#utility.yul\":4305:4308   */\n      dup3\n        /* \"#utility.yul\":4300:4303   */\n      dup6\n        /* \"#utility.yul\":4263:4317   */\n      tag_228\n      jump\t// in\n    tag_332:\n        /* \"#utility.yul\":3982:4323   */\n      pop\n        /* \"#utility.yul\":3898:4323   */\n      swap4\n      swap3\n      pop\n      pop\n      pop\n      jump\t// out\n        /* \"#utility.yul\":4343:4683   */\n    tag_230:\n        /* \"#utility.yul\":4399:4404   */\n      0x00\n        /* \"#utility.yul\":4448:4451   */\n      dup3\n        /* \"#utility.yul\":4441:4445   */\n      0x1f\n        /* \"#utility.yul\":4433:4439   */\n      dup4\n        /* \"#utility.yul\":4429:4446   */\n      add\n        /* \"#utility.yul\":4425:4452   */\n      slt\n        /* \"#utility.yul\":4415:4537   */\n      tag_334\n      jumpi\n        /* \"#utility.yul\":4456:4535   */\n      tag_335\n      tag_218\n      jump\t// in\n    tag_335:\n        /* \"#utility.yul\":4415:4537   */\n    tag_334:\n        /* \"#utility.yul\":4573:4579   */\n      dup2\n        /* \"#utility.yul\":4560:4580   */\n      calldataload\n        /* \"#utility.yul\":4598:4677   */\n      tag_336\n        /* \"#utility.yul\":4673:4676   */\n      dup5\n        /* \"#utility.yul\":4665:4671   */\n      dup3\n        /* \"#utility.yul\":4658:4662   */\n      0x20\n        /* \"#utility.yul\":4650:4656   */\n      dup7\n        /* \"#utility.yul\":4646:4663   */\n      add\n        /* \"#utility.yul\":4598:4677   */\n      tag_229\n      jump\t// in\n    tag_336:\n        /* \"#utility.yul\":4589:4677   */\n      swap2\n      pop\n        /* \"#utility.yul\":4405:4683   */\n      pop\n        /* \"#utility.yul\":4343:4683   */\n      swap3\n      swap2\n      pop\n      pop\n      jump\t// out\n        /* \"#utility.yul\":4689:5523   */\n    tag_27:\n        /* \"#utility.yul\":4777:4783   */\n      0x00\n        /* \"#utility.yul\":4785:4791   */\n      dup1\n        /* \"#utility.yul\":4834:4836   */\n      0x40\n        /* \"#utility.yul\":4822:4831   */\n      dup4\n        /* \"#utility.yul\":4813:4820   */\n      dup6\n        /* \"#utility.yul\":4809:4832   */\n      sub\n        /* \"#utility.yul\":4805:4837   */\n      slt\n        /* \"#utility.yul\":4802:4921   */\n      iszero\n      tag_338\n      jumpi\n        /* \"#utility.yul\":4840:4919   */\n      tag_339\n      tag_216\n      jump\t// in\n    tag_339:\n        /* \"#utility.yul\":4802:4921   */\n    tag_338:\n        /* \"#utility.yul\":4988:4989   */\n      0x00\n        /* \"#utility.yul\":4977:4986   */\n      dup4\n        /* \"#utility.yul\":4973:4990   */\n      add\n        /* \"#utility.yul\":4960:4991   */\n      calldataload\n        /* \"#utility.yul\":5018:5036   */\n      0xffffffffffffffff\n        /* \"#utility.yul\":5010:5016   */\n      dup2\n        /* \"#utility.yul\":5007:5037   */\n      gt\n        /* \"#utility.yul\":5004:5121   */\n      iszero\n      tag_340\n      jumpi\n        /* \"#utility.yul\":5040:5119   */\n      tag_341\n      tag_217\n      jump\t// in\n    tag_341:\n        /* \"#utility.yul\":5004:5121   */\n    tag_340:\n        /* \"#utility.yul\":5145:5208   */\n      tag_342\n        /* \"#utility.yul\":5200:5207   */\n      dup6\n        /* \"#utility.yul\":5191:5197   */\n      dup3\n        /* \"#utility.yul\":5180:5189   */\n      dup7\n        /* \"#utility.yul\":5176:5198   */\n      add\n        /* \"#utility.yul\":5145:5208   */\n      tag_230\n      jump\t// in\n    tag_342:\n        /* \"#utility.yul\":5135:5208   */\n      swap3\n      pop\n        /* \"#utility.yul\":4931:5218   */\n      pop\n        /* \"#utility.yul\":5285:5287   */\n      0x20\n        /* \"#utility.yul\":5274:5283   */\n      dup4\n        /* \"#utility.yul\":5270:5288   */\n      add\n        /* \"#utility.yul\":5257:5289   */\n      calldataload\n        /* \"#utility.yul\":5316:5334   */\n      0xffffffffffffffff\n        /* \"#utility.yul\":5308:5314   */\n      dup2\n        /* \"#utility.yul\":5305:5335   */\n      gt\n        /* \"#utility.yul\":5302:5419   */\n      iszero\n      tag_343\n      jumpi\n        /* \"#utility.yul\":5338:5417   */\n      tag_344\n      tag_217\n      jump\t// in\n    tag_344:\n        /* \"#utility.yul\":5302:5419   */\n    tag_343:\n        /* \"#utility.yul\":5443:5506   */\n      tag_345\n        /* \"#utility.yul\":5498:5505   */\n      dup6\n        /* \"#utility.yul\":5489:5495   */\n      dup3\n        /* \"#utility.yul\":5478:5487   */\n      dup7\n        /* \"#utility.yul\":5474:5496   */\n      add\n        /* \"#utility.yul\":5443:5506   */\n      tag_230\n      jump\t// in\n    tag_345:\n        /* \"#utility.yul\":5433:5506   */\n      swap2\n      pop\n        /* \"#utility.yul\":5228:5516   */\n      pop\n        /* \"#utility.yul\":4689:5523   */\n      swap3\n      pop\n      swap3\n      swap1\n      pop\n      jump\t// out\n        /* \"#utility.yul\":5529:5619   */\n    tag_231:\n        /* \"#utility.yul\":5563:5570   */\n      0x00\n        /* \"#utility.yul\":5606:5611   */\n      dup2\n        /* \"#utility.yul\":5599:5612   */\n      iszero\n        /* \"#utility.yul\":5592:5613   */\n      iszero\n        /* \"#utility.yul\":5581:5613   */\n      swap1\n      pop\n        /* \"#utility.yul\":5529:5619   */\n      swap2\n      swap1\n      pop\n      jump\t// out\n        /* \"#utility.yul\":5625:5734   */\n    tag_232:\n        /* \"#utility.yul\":5706:5727   */\n      tag_348\n        /* \"#utility.yul\":5721:5726   */\n      dup2\n        /* \"#utility.yul\":5706:5727   */\n      tag_231\n      jump\t// in\n    tag_348:\n        /* \"#utility.yul\":5701:5704   */\n      dup3\n        /* \"#utility.yul\":5694:5728   */\n      mstore\n        /* \"#utility.yul\":5625:5734   */\n      pop\n      pop\n      jump\t// out\n        /* \"#utility.yul\":5740:5950   */\n    tag_30:\n        /* \"#utility.yul\":5827:5831   */\n      0x00\n        /* \"#utility.yul\":5865:5867   */\n      0x20\n        /* \"#utility.yul\":5854:5863   */\n      dup3\n        /* \"#utility.yul\":5850:5868   */\n      add\n        /* \"#utility.yul\":5842:5868   */\n      swap1\n      pop\n        /* \"#utility.yul\":5878:5943   */\n      tag_350\n        /* \"#utility.yul\":5940:5941   */\n      0x00\n        /* \"#utility.yul\":5929:5938   */\n      dup4\n        /* \"#utility.yul\":5925:5942   */\n      add\n        /* \"#utility.yul\":5916:5922   */\n      dup5\n        /* \"#utility.yul\":5878:5943   */\n      tag_232\n      jump\t// in\n    tag_350:\n        /* \"#utility.yul\":5740:5950   */\n      swap3\n      swap2\n      pop\n      pop\n      jump\t// out\n        /* \"#utility.yul\":5956:6033   */\n    tag_233:\n        /* \"#utility.yul\":5993:6000   */\n      0x00\n        /* \"#utility.yul\":6022:6027   */\n      dup2\n        /* \"#utility.yul\":6011:6027   */\n      swap1\n      pop\n        /* \"#utility.yul\":5956:6033   */\n      swap2\n      swap1\n      pop\n      jump\t// out\n        /* \"#utility.yul\":6039:6161   */\n    tag_234:\n        /* \"#utility.yul\":6112:6136   */\n      tag_353\n        /* \"#utility.yul\":6130:6135   */\n      dup2\n        /* \"#utility.yul\":6112:6136   */\n      tag_233\n      jump\t// in\n    tag_353:\n        /* \"#utility.yul\":6105:6110   */\n      dup2\n        /* \"#utility.yul\":6102:6137   */\n      eq\n        /* \"#utility.yul\":6092:6155   */\n      tag_354\n      jumpi\n        /* \"#utility.yul\":6151:6152   */\n      0x00\n        /* \"#utility.yul\":6148:6149   */\n      dup1\n        /* \"#utility.yul\":6141:6153   */\n      revert\n        /* \"#utility.yul\":6092:6155   */\n    tag_354:\n        /* \"#utility.yul\":6039:6161   */\n      pop\n      jump\t// out\n        /* \"#utility.yul\":6167:6306   */\n    tag_235:\n        /* \"#utility.yul\":6213:6218   */\n      0x00\n        /* \"#utility.yul\":6251:6257   */\n      dup2\n        /* \"#utility.yul\":6238:6258   */\n      calldataload\n        /* \"#utility.yul\":6229:6258   */\n      swap1\n      pop\n        /* \"#utility.yul\":6267:6300   */\n      tag_356\n        /* \"#utility.yul\":6294:6299   */\n      dup2\n        /* \"#utility.yul\":6267:6300   */\n      tag_234\n      jump\t// in\n    tag_356:\n        /* \"#utility.yul\":6167:6306   */\n      swap3\n      swap2\n      pop\n      pop\n      jump\t// out\n        /* \"#utility.yul\":6312:6641   */\n    tag_42:\n        /* \"#utility.yul\":6371:6377   */\n      0x00\n        /* \"#utility.yul\":6420:6422   */\n      0x20\n        /* \"#utility.yul\":6408:6417   */\n      dup3\n        /* \"#utility.yul\":6399:6406   */\n      dup5\n        /* \"#utility.yul\":6395:6418   */\n      sub\n        /* \"#utility.yul\":6391:6423   */\n      slt\n        /* \"#utility.yul\":6388:6507   */\n      iszero\n      tag_358\n      jumpi\n        /* \"#utility.yul\":6426:6505   */\n      tag_359\n      tag_216\n      jump\t// in\n    tag_359:\n        /* \"#utility.yul\":6388:6507   */\n    tag_358:\n        /* \"#utility.yul\":6546:6547   */\n      0x00\n        /* \"#utility.yul\":6571:6624   */\n      tag_360\n        /* \"#utility.yul\":6616:6623   */\n      dup5\n        /* \"#utility.yul\":6607:6613   */\n      dup3\n        /* \"#utility.yul\":6596:6605   */\n      dup6\n        /* \"#utility.yul\":6592:6614   */\n      add\n        /* \"#utility.yul\":6571:6624   */\n      tag_235\n      jump\t// in\n    tag_360:\n        /* \"#utility.yul\":6561:6624   */\n      swap2\n      pop\n        /* \"#utility.yul\":6517:6634   */\n      pop\n        /* \"#utility.yul\":6312:6641   */\n      swap3\n      swap2\n      pop\n      pop\n      jump\t// out\n        /* \"#utility.yul\":6647:6773   */\n    tag_236:\n        /* \"#utility.yul\":6684:6691   */\n      0x00\n        /* \"#utility.yul\":6724:6766   */\n      0xffffffffffffffffffffffffffffffffffffffff\n        /* \"#utility.yul\":6717:6722   */\n      dup3\n        /* \"#utility.yul\":6713:6767   */\n      and\n        /* \"#utility.yul\":6702:6767   */\n      swap1\n      pop\n        /* \"#utility.yul\":6647:6773   */\n      swap2\n      swap1\n      pop\n      jump\t// out\n        /* \"#utility.yul\":6779:6875   */\n    tag_237:\n        /* \"#utility.yul\":6816:6823   */\n      0x00\n        /* \"#utility.yul\":6845:6869   */\n      tag_363\n        /* \"#utility.yul\":6863:6868   */\n      dup3\n        /* \"#utility.yul\":6845:6869   */\n      tag_236\n      jump\t// in\n    tag_363:\n        /* \"#utility.yul\":6834:6869   */\n      swap1\n      pop\n        /* \"#utility.yul\":6779:6875   */\n      swap2\n      swap1\n      pop\n      jump\t// out\n        /* \"#utility.yul\":6881:7003   */\n    tag_238:\n        /* \"#utility.yul\":6954:6978   */\n      tag_365\n        /* \"#utility.yul\":6972:6977   */\n      dup2\n        /* \"#utility.yul\":6954:6978   */\n      tag_237\n      jump\t// in\n    tag_365:\n        /* \"#utility.yul\":6947:6952   */\n      dup2\n        /* \"#utility.yul\":6944:6979   */\n      eq\n        /* \"#utility.yul\":6934:6997   */\n      tag_366\n      jumpi\n        /* \"#utility.yul\":6993:6994   */\n      0x00\n        /* \"#utility.yul\":6990:6991   */\n      dup1\n        /* \"#utility.yul\":6983:6995   */\n      revert\n        /* \"#utility.yul\":6934:6997   */\n    tag_366:\n        /* \"#utility.yul\":6881:7003   */\n      pop\n      jump\t// out\n        /* \"#utility.yul\":7009:7148   */\n    tag_239:\n        /* \"#utility.yul\":7055:7060   */\n      0x00\n        /* \"#utility.yul\":7093:7099   */\n      dup2\n        /* \"#utility.yul\":7080:7100   */\n      calldataload\n        /* \"#utility.yul\":7071:7100   */\n      swap1\n      pop\n        /* \"#utility.yul\":7109:7142   */\n      tag_368\n        /* \"#utility.yul\":7136:7141   */\n      dup2\n        /* \"#utility.yul\":7109:7142   */\n      tag_238\n      jump\t// in\n    tag_368:\n        /* \"#utility.yul\":7009:7148   */\n      swap3\n      swap2\n      pop\n      pop\n      jump\t// out\n        /* \"#utility.yul\":7154:7483   */\n    tag_47:\n        /* \"#utility.yul\":7213:7219   */\n      0x00\n        /* \"#utility.yul\":7262:7264   */\n      0x20\n        /* \"#utility.yul\":7250:7259   */\n      dup3\n        /* \"#utility.yul\":7241:7248   */\n      dup5\n        /* \"#utility.yul\":7237:7260   */\n      sub\n        /* \"#utility.yul\":7233:7265   */\n      slt\n        /* \"#utility.yul\":7230:7349   */\n      iszero\n      tag_370\n      jumpi\n        /* \"#utility.yul\":7268:7347   */\n      tag_371\n      tag_216\n      jump\t// in\n    tag_371:\n        /* \"#utility.yul\":7230:7349   */\n    tag_370:\n        /* \"#utility.yul\":7388:7389   */\n      0x00\n        /* \"#utility.yul\":7413:7466   */\n      tag_372\n        /* \"#utility.yul\":7458:7465   */\n      dup5\n        /* \"#utility.yul\":7449:7455   */\n      dup3\n        /* \"#utility.yul\":7438:7447   */\n      dup6\n        /* \"#utility.yul\":7434:7456   */\n      add\n        /* \"#utility.yul\":7413:7466   */\n      tag_239\n      jump\t// in\n    tag_372:\n        /* \"#utility.yul\":7403:7466   */\n      swap2\n      pop\n        /* \"#utility.yul\":7359:7476   */\n      pop\n        /* \"#utility.yul\":7154:7483   */\n      swap3\n      swap2\n      pop\n      pop\n      jump\t// out\n        /* \"#utility.yul\":7489:7588   */\n    tag_240:\n        /* \"#utility.yul\":7541:7547   */\n      0x00\n        /* \"#utility.yul\":7575:7580   */\n      dup2\n        /* \"#utility.yul\":7569:7581   */\n      mload\n        /* \"#utility.yul\":7559:7581   */\n      swap1\n      pop\n        /* \"#utility.yul\":7489:7588   */\n      swap2\n      swap1\n      pop\n      jump\t// out\n        /* \"#utility.yul\":7594:7763   */\n    tag_241:\n        /* \"#utility.yul\":7678:7689   */\n      0x00\n        /* \"#utility.yul\":7712:7718   */\n      dup3\n        /* \"#utility.yul\":7707:7710   */\n      dup3\n        /* \"#utility.yul\":7700:7719   */\n      mstore\n        /* \"#utility.yul\":7752:7756   */\n      0x20\n        /* \"#utility.yul\":7747:7750   */\n      dup3\n        /* \"#utility.yul\":7743:7757   */\n      add\n        /* \"#utility.yul\":7728:7757   */\n      swap1\n      pop\n        /* \"#utility.yul\":7594:7763   */\n      swap3\n      swap2\n      pop\n      pop\n      jump\t// out\n        /* \"#utility.yul\":7769:7908   */\n    tag_242:\n        /* \"#utility.yul\":7858:7864   */\n      dup3\n        /* \"#utility.yul\":7853:7856   */\n      dup2\n        /* \"#utility.yul\":7848:7851   */\n      dup4\n        /* \"#utility.yul\":7842:7865   */\n      mcopy\n        /* \"#utility.yul\":7899:7900   */\n      0x00\n        /* \"#utility.yul\":7890:7896   */\n      dup4\n        /* \"#utility.yul\":7885:7888   */\n      dup4\n        /* \"#utility.yul\":7881:7897   */\n      add\n        /* \"#utility.yul\":7874:7901   */\n      mstore\n        /* \"#utility.yul\":7769:7908   */\n      pop\n      pop\n      pop\n      jump\t// out\n        /* \"#utility.yul\":7914:8291   */\n    tag_243:\n        /* \"#utility.yul\":8002:8005   */\n      0x00\n        /* \"#utility.yul\":8030:8069   */\n      tag_377\n        /* \"#utility.yul\":8063:8068   */\n      dup3\n        /* \"#utility.yul\":8030:8069   */\n      tag_240\n      jump\t// in\n    tag_377:\n        /* \"#utility.yul\":8085:8156   */\n      tag_378\n        /* \"#utility.yul\":8149:8155   */\n      dup2\n        /* \"#utility.yul\":8144:8147   */\n      dup6\n        /* \"#utility.yul\":8085:8156   */\n      tag_241\n      jump\t// in\n    tag_378:\n        /* \"#utility.yul\":8078:8156   */\n      swap4\n      pop\n        /* \"#utility.yul\":8165:8230   */\n      tag_379\n        /* \"#utility.yul\":8223:8229   */\n      dup2\n        /* \"#utility.yul\":8218:8221   */\n      dup6\n        /* \"#utility.yul\":8211:8215   */\n      0x20\n        /* \"#utility.yul\":8204:8209   */\n      dup7\n        /* \"#utility.yul\":8200:8216   */\n      add\n        /* \"#utility.yul\":8165:8230   */\n      tag_242\n      jump\t// in\n    tag_379:\n        /* \"#utility.yul\":8255:8284   */\n      tag_380\n        /* \"#utility.yul\":8277:8283   */\n      dup2\n        /* \"#utility.yul\":8255:8284   */\n      tag_223\n      jump\t// in\n    tag_380:\n        /* \"#utility.yul\":8250:8253   */\n      dup5\n        /* \"#utility.yul\":8246:8285   */\n      add\n        /* \"#utility.yul\":8239:8285   */\n      swap2\n      pop\n        /* \"#utility.yul\":8006:8291   */\n      pop\n        /* \"#utility.yul\":7914:8291   */\n      swap3\n      swap2\n      pop\n      pop\n      jump\t// out\n        /* \"#utility.yul\":8297:8415   */\n    tag_244:\n        /* \"#utility.yul\":8384:8408   */\n      tag_382\n        /* \"#utility.yul\":8402:8407   */\n      dup2\n        /* \"#utility.yul\":8384:8408   */\n      tag_233\n      jump\t// in\n    tag_382:\n        /* \"#utility.yul\":8379:8382   */\n      dup3\n        /* \"#utility.yul\":8372:8409   */\n      mstore\n        /* \"#utility.yul\":8297:8415   */\n      pop\n      pop\n      jump\t// out\n        /* \"#utility.yul\":8421:8539   */\n    tag_245:\n        /* \"#utility.yul\":8508:8532   */\n      tag_384\n        /* \"#utility.yul\":8526:8531   */\n      dup2\n        /* \"#utility.yul\":8508:8532   */\n      tag_237\n      jump\t// in\n    tag_384:\n        /* \"#utility.yul\":8503:8506   */\n      dup3\n        /* \"#utility.yul\":8496:8533   */\n      mstore\n        /* \"#utility.yul\":8421:8539   */\n      pop\n      pop\n      jump\t// out\n        /* \"#utility.yul\":8545:9399   */\n    tag_50:\n        /* \"#utility.yul\":8792:8796   */\n      0x00\n        /* \"#utility.yul\":8830:8833   */\n      0xc0\n        /* \"#utility.yul\":8819:8828   */\n      dup3\n        /* \"#utility.yul\":8815:8834   */\n      add\n        /* \"#utility.yul\":8807:8834   */\n      swap1\n      pop\n        /* \"#utility.yul\":8880:8889   */\n      dup2\n        /* \"#utility.yul\":8874:8878   */\n      dup2\n        /* \"#utility.yul\":8870:8890   */\n      sub\n        /* \"#utility.yul\":8866:8867   */\n      0x00\n        /* \"#utility.yul\":8855:8864   */\n      dup4\n        /* \"#utility.yul\":8851:8868   */\n      add\n        /* \"#utility.yul\":8844:8891   */\n      mstore\n        /* \"#utility.yul\":8908:8986   */\n      tag_386\n        /* \"#utility.yul\":8981:8985   */\n      dup2\n        /* \"#utility.yul\":8972:8978   */\n      dup10\n        /* \"#utility.yul\":8908:8986   */\n      tag_243\n      jump\t// in\n    tag_386:\n        /* \"#utility.yul\":8900:8986   */\n      swap1\n      pop\n        /* \"#utility.yul\":8996:9068   */\n      tag_387\n        /* \"#utility.yul\":9064:9066   */\n      0x20\n        /* \"#utility.yul\":9053:9062   */\n      dup4\n        /* \"#utility.yul\":9049:9067   */\n      add\n        /* \"#utility.yul\":9040:9046   */\n      dup9\n        /* \"#utility.yul\":8996:9068   */\n      tag_244\n      jump\t// in\n    tag_387:\n        /* \"#utility.yul\":9078:9144   */\n      tag_388\n        /* \"#utility.yul\":9140:9142   */\n      0x40\n        /* \"#utility.yul\":9129:9138   */\n      dup4\n        /* \"#utility.yul\":9125:9143   */\n      add\n        /* \"#utility.yul\":9116:9122   */\n      dup8\n        /* \"#utility.yul\":9078:9144   */\n      tag_232\n      jump\t// in\n    tag_388:\n        /* \"#utility.yul\":9154:9226   */\n      tag_389\n        /* \"#utility.yul\":9222:9224   */\n      0x60\n        /* \"#utility.yul\":9211:9220   */\n      dup4\n        /* \"#utility.yul\":9207:9225   */\n      add\n        /* \"#utility.yul\":9198:9204   */\n      dup7\n        /* \"#utility.yul\":9154:9226   */\n      tag_245\n      jump\t// in\n    tag_389:\n        /* \"#utility.yul\":9236:9309   */\n      tag_390\n        /* \"#utility.yul\":9304:9307   */\n      0x80\n        /* \"#utility.yul\":9293:9302   */\n      dup4\n        /* \"#utility.yul\":9289:9308   */\n      add\n        /* \"#utility.yul\":9280:9286   */\n      dup6\n        /* \"#utility.yul\":9236:9309   */\n      tag_214\n      jump\t// in\n    tag_390:\n        /* \"#utility.yul\":9319:9392   */\n      tag_391\n        /* \"#utility.yul\":9387:9390   */\n      0xa0\n        /* \"#utility.yul\":9376:9385   */\n      dup4\n        /* \"#utility.yul\":9372:9391   */\n      add\n        /* \"#utility.yul\":9363:9369   */\n      dup5\n        /* \"#utility.yul\":9319:9392   */\n      tag_214\n      jump\t// in\n    tag_391:\n        /* \"#utility.yul\":8545:9399   */\n      swap8\n      swap7\n      pop\n      pop\n      pop\n      pop\n      pop\n      pop\n      pop\n      jump\t// out\n        /* \"#utility.yul\":9405:9527   */\n    tag_246:\n        /* \"#utility.yul\":9478:9502   */\n      tag_393\n        /* \"#utility.yul\":9496:9501   */\n      dup2\n        /* \"#utility.yul\":9478:9502   */\n      tag_213\n      jump\t// in\n    tag_393:\n        /* \"#utility.yul\":9471:9476   */\n      dup2\n        /* \"#utility.yul\":9468:9503   */\n      eq\n        /* \"#utility.yul\":9458:9521   */\n      tag_394\n      jumpi\n        /* \"#utility.yul\":9517:9518   */\n      0x00\n        /* \"#utility.yul\":9514:9515   */\n      dup1\n        /* \"#utility.yul\":9507:9519   */\n      revert\n        /* \"#utility.yul\":9458:9521   */\n    tag_394:\n        /* \"#utility.yul\":9405:9527   */\n      pop\n      jump\t// out\n        /* \"#utility.yul\":9533:9672   */\n    tag_247:\n        /* \"#utility.yul\":9579:9584   */\n      0x00\n        /* \"#utility.yul\":9617:9623   */\n      dup2\n        /* \"#utility.yul\":9604:9624   */\n      calldataload\n        /* \"#utility.yul\":9595:9624   */\n      swap1\n      pop\n        /* \"#utility.yul\":9633:9666   */\n      tag_396\n        /* \"#utility.yul\":9660:9665   */\n      dup2\n        /* \"#utility.yul\":9633:9666   */\n      tag_246\n      jump\t// in\n    tag_396:\n        /* \"#utility.yul\":9533:9672   */\n      swap3\n      swap2\n      pop\n      pop\n      jump\t// out\n        /* \"#utility.yul\":9678:10007   */\n    tag_54:\n        /* \"#utility.yul\":9737:9743   */\n      0x00\n        /* \"#utility.yul\":9786:9788   */\n      0x20\n        /* \"#utility.yul\":9774:9783   */\n      dup3\n        /* \"#utility.yul\":9765:9772   */\n      dup5\n        /* \"#utility.yul\":9761:9784   */\n      sub\n        /* \"#utility.yul\":9757:9789   */\n      slt\n        /* \"#utility.yul\":9754:9873   */\n      iszero\n      tag_398\n      jumpi\n        /* \"#utility.yul\":9792:9871   */\n      tag_399\n      tag_216\n      jump\t// in\n    tag_399:\n        /* \"#utility.yul\":9754:9873   */\n    tag_398:\n        /* \"#utility.yul\":9912:9913   */\n      0x00\n        /* \"#utility.yul\":9937:9990   */\n      tag_400\n        /* \"#utility.yul\":9982:9989   */\n      dup5\n        /* \"#utility.yul\":9973:9979   */\n      dup3\n        /* \"#utility.yul\":9962:9971   */\n      dup6\n        /* \"#utility.yul\":9958:9980   */\n      add\n        /* \"#utility.yul\":9937:9990   */\n      tag_247\n      jump\t// in\n    tag_400:\n        /* \"#utility.yul\":9927:9990   */\n      swap2\n      pop\n        /* \"#utility.yul\":9883:10000   */\n      pop\n        /* \"#utility.yul\":9678:10007   */\n      swap3\n      swap2\n      pop\n      pop\n      jump\t// out\n        /* \"#utility.yul\":10013:10235   */\n    tag_57:\n        /* \"#utility.yul\":10106:10110   */\n      0x00\n        /* \"#utility.yul\":10144:10146   */\n      0x20\n        /* \"#utility.yul\":10133:10142   */\n      dup3\n        /* \"#utility.yul\":10129:10147   */\n      add\n        /* \"#utility.yul\":10121:10147   */\n      swap1\n      pop\n        /* \"#utility.yul\":10157:10228   */\n      tag_402\n        /* \"#utility.yul\":10225:10226   */\n      0x00\n        /* \"#utility.yul\":10214:10223   */\n      dup4\n        /* \"#utility.yul\":10210:10227   */\n      add\n        /* \"#utility.yul\":10201:10207   */\n      dup5\n        /* \"#utility.yul\":10157:10228   */\n      tag_245\n      jump\t// in\n    tag_402:\n        /* \"#utility.yul\":10013:10235   */\n      swap3\n      swap2\n      pop\n      pop\n      jump\t// out\n        /* \"#utility.yul\":10241:10471   */\n    tag_248:\n        /* \"#utility.yul\":10381:10415   */\n      0x596f75206d7573742072657665616c20796f757220766f7465206265666f7265\n        /* \"#utility.yul\":10377:10378   */\n      0x00\n        /* \"#utility.yul\":10369:10375   */\n      dup3\n        /* \"#utility.yul\":10365:10379   */\n      add\n        /* \"#utility.yul\":10358:10416   */\n      mstore\n        /* \"#utility.yul\":10450:10463   */\n      0x207769746864726177616c000000000000000000000000000000000000000000\n        /* \"#utility.yul\":10445:10447   */\n      0x20\n        /* \"#utility.yul\":10437:10443   */\n      dup3\n        /* \"#utility.yul\":10433:10448   */\n      add\n        /* \"#utility.yul\":10426:10464   */\n      mstore\n        /* \"#utility.yul\":10241:10471   */\n      pop\n      jump\t// out\n        /* \"#utility.yul\":10477:10843   */\n    tag_249:\n        /* \"#utility.yul\":10619:10622   */\n      0x00\n        /* \"#utility.yul\":10640:10707   */\n      tag_405\n        /* \"#utility.yul\":10704:10706   */\n      0x2b\n        /* \"#utility.yul\":10699:10702   */\n      dup4\n        /* \"#utility.yul\":10640:10707   */\n      tag_241\n      jump\t// in\n    tag_405:\n        /* \"#utility.yul\":10633:10707   */\n      swap2\n      pop\n        /* \"#utility.yul\":10716:10809   */\n      tag_406\n        /* \"#utility.yul\":10805:10808   */\n      dup3\n        /* \"#utility.yul\":10716:10809   */\n      tag_248\n      jump\t// in\n    tag_406:\n        /* \"#utility.yul\":10834:10836   */\n      0x40\n        /* \"#utility.yul\":10829:10832   */\n      dup3\n        /* \"#utility.yul\":10825:10837   */\n      add\n        /* \"#utility.yul\":10818:10837   */\n      swap1\n      pop\n        /* \"#utility.yul\":10477:10843   */\n      swap2\n      swap1\n      pop\n      jump\t// out\n        /* \"#utility.yul\":10849:11268   */\n    tag_61:\n        /* \"#utility.yul\":11015:11019   */\n      0x00\n        /* \"#utility.yul\":11053:11055   */\n      0x20\n        /* \"#utility.yul\":11042:11051   */\n      dup3\n        /* \"#utility.yul\":11038:11056   */\n      add\n        /* \"#utility.yul\":11030:11056   */\n      swap1\n      pop\n        /* \"#utility.yul\":11102:11111   */\n      dup2\n        /* \"#utility.yul\":11096:11100   */\n      dup2\n        /* \"#utility.yul\":11092:11112   */\n      sub\n        /* \"#utility.yul\":11088:11089   */\n      0x00\n        /* \"#utility.yul\":11077:11086   */\n      dup4\n        /* \"#utility.yul\":11073:11090   */\n      add\n        /* \"#utility.yul\":11066:11113   */\n      mstore\n        /* \"#utility.yul\":11130:11261   */\n      tag_408\n        /* \"#utility.yul\":11256:11260   */\n      dup2\n        /* \"#utility.yul\":11130:11261   */\n      tag_249\n      jump\t// in\n    tag_408:\n        /* \"#utility.yul\":11122:11261   */\n      swap1\n      pop\n        /* \"#utility.yul\":10849:11268   */\n      swap2\n      swap1\n      pop\n      jump\t// out\n        /* \"#utility.yul\":11274:11503   */\n    tag_250:\n        /* \"#utility.yul\":11414:11448   */\n      0x57616974696e6720666f72206f70706f6e656e7420746f2072657665616c206f\n        /* \"#utility.yul\":11410:11411   */\n      0x00\n        /* \"#utility.yul\":11402:11408   */\n      dup3\n        /* \"#utility.yul\":11398:11412   */\n      add\n        /* \"#utility.yul\":11391:11449   */\n      mstore\n        /* \"#utility.yul\":11483:11495   */\n      0x7220646561646c696e6500000000000000000000000000000000000000000000\n        /* \"#utility.yul\":11478:11480   */\n      0x20\n        /* \"#utility.yul\":11470:11476   */\n      dup3\n        /* \"#utility.yul\":11466:11481   */\n      add\n        /* \"#utility.yul\":11459:11496   */\n      mstore\n        /* \"#utility.yul\":11274:11503   */\n      pop\n      jump\t// out\n        /* \"#utility.yul\":11509:11875   */\n    tag_251:\n        /* \"#utility.yul\":11651:11654   */\n      0x00\n        /* \"#utility.yul\":11672:11739   */\n      tag_411\n        /* \"#utility.yul\":11736:11738   */\n      0x2a\n        /* \"#utility.yul\":11731:11734   */\n      dup4\n        /* \"#utility.yul\":11672:11739   */\n      tag_241\n      jump\t// in\n    tag_411:\n        /* \"#utility.yul\":11665:11739   */\n      swap2\n      pop\n        /* \"#utility.yul\":11748:11841   */\n      tag_412\n        /* \"#utility.yul\":11837:11840   */\n      dup3\n        /* \"#utility.yul\":11748:11841   */\n      tag_250\n      jump\t// in\n    tag_412:\n        /* \"#utility.yul\":11866:11868   */\n      0x40\n        /* \"#utility.yul\":11861:11864   */\n      dup3\n        /* \"#utility.yul\":11857:11869   */\n      add\n        /* \"#utility.yul\":11850:11869   */\n      swap1\n      pop\n        /* \"#utility.yul\":11509:11875   */\n      swap2\n      swap1\n      pop\n      jump\t// out\n        /* \"#utility.yul\":11881:12300   */\n    tag_65:\n        /* \"#utility.yul\":12047:12051   */\n      0x00\n        /* \"#utility.yul\":12085:12087   */\n      0x20\n        /* \"#utility.yul\":12074:12083   */\n      dup3\n        /* \"#utility.yul\":12070:12088   */\n      add\n        /* \"#utility.yul\":12062:12088   */\n      swap1\n      pop\n        /* \"#utility.yul\":12134:12143   */\n      dup2\n        /* \"#utility.yul\":12128:12132   */\n      dup2\n        /* \"#utility.yul\":12124:12144   */\n      sub\n        /* \"#utility.yul\":12120:12121   */\n      0x00\n        /* \"#utility.yul\":12109:12118   */\n      dup4\n        /* \"#utility.yul\":12105:12122   */\n      add\n        /* \"#utility.yul\":12098:12145   */\n      mstore\n        /* \"#utility.yul\":12162:12293   */\n      tag_414\n        /* \"#utility.yul\":12288:12292   */\n      dup2\n        /* \"#utility.yul\":12162:12293   */\n      tag_251\n      jump\t// in\n    tag_414:\n        /* \"#utility.yul\":12154:12293   */\n      swap1\n      pop\n        /* \"#utility.yul\":11881:12300   */\n      swap2\n      swap1\n      pop\n      jump\t// out\n        /* \"#utility.yul\":12306:12486   */\n    tag_252:\n        /* \"#utility.yul\":12354:12431   */\n      0x4e487b7100000000000000000000000000000000000000000000000000000000\n        /* \"#utility.yul\":12351:12352   */\n      0x00\n        /* \"#utility.yul\":12344:12432   */\n      mstore\n        /* \"#utility.yul\":12451:12455   */\n      0x22\n        /* \"#utility.yul\":12448:12449   */\n      0x04\n        /* \"#utility.yul\":12441:12456   */\n      mstore\n        /* \"#utility.yul\":12475:12479   */\n      0x24\n        /* \"#utility.yul\":12472:12473   */\n      0x00\n        /* \"#utility.yul\":12465:12480   */\n      revert\n        /* \"#utility.yul\":12492:12812   */\n    tag_68:\n        /* \"#utility.yul\":12536:12542   */\n      0x00\n        /* \"#utility.yul\":12573:12574   */\n      0x02\n        /* \"#utility.yul\":12567:12571   */\n      dup3\n        /* \"#utility.yul\":12563:12575   */\n      div\n        /* \"#utility.yul\":12553:12575   */\n      swap1\n      pop\n        /* \"#utility.yul\":12620:12621   */\n      0x01\n        /* \"#utility.yul\":12614:12618   */\n      dup3\n        /* \"#utility.yul\":12610:12622   */\n      and\n        /* \"#utility.yul\":12641:12659   */\n      dup1\n        /* \"#utility.yul\":12631:12712   */\n      tag_417\n      jumpi\n        /* \"#utility.yul\":12697:12701   */\n      0x7f\n        /* \"#utility.yul\":12689:12695   */\n      dup3\n        /* \"#utility.yul\":12685:12702   */\n      and\n        /* \"#utility.yul\":12675:12702   */\n      swap2\n      pop\n        /* \"#utility.yul\":12631:12712   */\n    tag_417:\n        /* \"#utility.yul\":12759:12761   */\n      0x20\n        /* \"#utility.yul\":12751:12757   */\n      dup3\n        /* \"#utility.yul\":12748:12762   */\n      lt\n        /* \"#utility.yul\":12728:12746   */\n      dup2\n        /* \"#utility.yul\":12725:12763   */\n      sub\n        /* \"#utility.yul\":12722:12806   */\n      tag_418\n      jumpi\n        /* \"#utility.yul\":12778:12796   */\n      tag_419\n      tag_252\n      jump\t// in\n    tag_419:\n        /* \"#utility.yul\":12722:12806   */\n    tag_418:\n        /* \"#utility.yul\":12543:12812   */\n      pop\n        /* \"#utility.yul\":12492:12812   */\n      swap2\n      swap1\n      pop\n      jump\t// out\n        /* \"#utility.yul\":12818:12998   */\n    tag_253:\n        /* \"#utility.yul\":12866:12943   */\n      0x4e487b7100000000000000000000000000000000000000000000000000000000\n        /* \"#utility.yul\":12863:12864   */\n      0x00\n        /* \"#utility.yul\":12856:12944   */\n      mstore\n        /* \"#utility.yul\":12963:12967   */\n      0x11\n        /* \"#utility.yul\":12960:12961   */\n      0x04\n        /* \"#utility.yul\":12953:12968   */\n      mstore\n        /* \"#utility.yul\":12987:12991   */\n      0x24\n        /* \"#utility.yul\":12984:12985   */\n      0x00\n        /* \"#utility.yul\":12977:12992   */\n      revert\n        /* \"#utility.yul\":13004:13414   */\n    tag_83:\n        /* \"#utility.yul\":13044:13051   */\n      0x00\n        /* \"#utility.yul\":13067:13087   */\n      tag_422\n        /* \"#utility.yul\":13085:13086   */\n      dup3\n        /* \"#utility.yul\":13067:13087   */\n      tag_213\n      jump\t// in\n    tag_422:\n        /* \"#utility.yul\":13062:13087   */\n      swap2\n      pop\n        /* \"#utility.yul\":13101:13121   */\n      tag_423\n        /* \"#utility.yul\":13119:13120   */\n      dup4\n        /* \"#utility.yul\":13101:13121   */\n      tag_213\n      jump\t// in\n    tag_423:\n        /* \"#utility.yul\":13096:13121   */\n      swap3\n      pop\n        /* \"#utility.yul\":13156:13157   */\n      dup3\n        /* \"#utility.yul\":13153:13154   */\n      dup3\n        /* \"#utility.yul\":13149:13158   */\n      mul\n        /* \"#utility.yul\":13178:13208   */\n      tag_424\n        /* \"#utility.yul\":13196:13207   */\n      dup2\n        /* \"#utility.yul\":13178:13208   */\n      tag_213\n      jump\t// in\n    tag_424:\n        /* \"#utility.yul\":13167:13208   */\n      swap2\n      pop\n        /* \"#utility.yul\":13357:13358   */\n      dup3\n        /* \"#utility.yul\":13348:13355   */\n      dup3\n        /* \"#utility.yul\":13344:13359   */\n      div\n        /* \"#utility.yul\":13341:13342   */\n      dup5\n        /* \"#utility.yul\":13338:13360   */\n      eq\n        /* \"#utility.yul\":13318:13319   */\n      dup4\n        /* \"#utility.yul\":13311:13320   */\n      iszero\n        /* \"#utility.yul\":13291:13374   */\n      or\n        /* \"#utility.yul\":13268:13407   */\n      tag_425\n      jumpi\n        /* \"#utility.yul\":13387:13405   */\n      tag_426\n      tag_253\n      jump\t// in\n    tag_426:\n        /* \"#utility.yul\":13268:13407   */\n    tag_425:\n        /* \"#utility.yul\":13052:13414   */\n      pop\n        /* \"#utility.yul\":13004:13414   */\n      swap3\n      swap2\n      pop\n      pop\n      jump\t// out\n        /* \"#utility.yul\":13420:13752   */\n    tag_91:\n        /* \"#utility.yul\":13541:13545   */\n      0x00\n        /* \"#utility.yul\":13579:13581   */\n      0x40\n        /* \"#utility.yul\":13568:13577   */\n      dup3\n        /* \"#utility.yul\":13564:13582   */\n      add\n        /* \"#utility.yul\":13556:13582   */\n      swap1\n      pop\n        /* \"#utility.yul\":13592:13663   */\n      tag_428\n        /* \"#utility.yul\":13660:13661   */\n      0x00\n        /* \"#utility.yul\":13649:13658   */\n      dup4\n        /* \"#utility.yul\":13645:13662   */\n      add\n        /* \"#utility.yul\":13636:13642   */\n      dup6\n        /* \"#utility.yul\":13592:13663   */\n      tag_245\n      jump\t// in\n    tag_428:\n        /* \"#utility.yul\":13673:13745   */\n      tag_429\n        /* \"#utility.yul\":13741:13743   */\n      0x20\n        /* \"#utility.yul\":13730:13739   */\n      dup4\n        /* \"#utility.yul\":13726:13744   */\n      add\n        /* \"#utility.yul\":13717:13723   */\n      dup5\n        /* \"#utility.yul\":13673:13745   */\n      tag_214\n      jump\t// in\n    tag_429:\n        /* \"#utility.yul\":13420:13752   */\n      swap4\n      swap3\n      pop\n      pop\n      pop\n      jump\t// out\n        /* \"#utility.yul\":13758:13931   */\n    tag_254:\n        /* \"#utility.yul\":13898:13923   */\n      0x57616974696e6720666f7220616e206f70706f6e656e74000000000000000000\n        /* \"#utility.yul\":13894:13895   */\n      0x00\n        /* \"#utility.yul\":13886:13892   */\n      dup3\n        /* \"#utility.yul\":13882:13896   */\n      add\n        /* \"#utility.yul\":13875:13924   */\n      mstore\n        /* \"#utility.yul\":13758:13931   */\n      pop\n      jump\t// out\n        /* \"#utility.yul\":13937:14303   */\n    tag_255:\n        /* \"#utility.yul\":14079:14082   */\n      0x00\n        /* \"#utility.yul\":14100:14167   */\n      tag_432\n        /* \"#utility.yul\":14164:14166   */\n      0x17\n        /* \"#utility.yul\":14159:14162   */\n      dup4\n        /* \"#utility.yul\":14100:14167   */\n      tag_241\n      jump\t// in\n    tag_432:\n        /* \"#utility.yul\":14093:14167   */\n      swap2\n      pop\n        /* \"#utility.yul\":14176:14269   */\n      tag_433\n        /* \"#utility.yul\":14265:14268   */\n      dup3\n        /* \"#utility.yul\":14176:14269   */\n      tag_254\n      jump\t// in\n    tag_433:\n        /* \"#utility.yul\":14294:14296   */\n      0x20\n        /* \"#utility.yul\":14289:14292   */\n      dup3\n        /* \"#utility.yul\":14285:14297   */\n      add\n        /* \"#utility.yul\":14278:14297   */\n      swap1\n      pop\n        /* \"#utility.yul\":13937:14303   */\n      swap2\n      swap1\n      pop\n      jump\t// out\n        /* \"#utility.yul\":14309:14728   */\n    tag_106:\n        /* \"#utility.yul\":14475:14479   */\n      0x00\n        /* \"#utility.yul\":14513:14515   */\n      0x20\n        /* \"#utility.yul\":14502:14511   */\n      dup3\n        /* \"#utility.yul\":14498:14516   */\n      add\n        /* \"#utility.yul\":14490:14516   */\n      swap1\n      pop\n        /* \"#utility.yul\":14562:14571   */\n      dup2\n        /* \"#utility.yul\":14556:14560   */\n      dup2\n        /* \"#utility.yul\":14552:14572   */\n      sub\n        /* \"#utility.yul\":14548:14549   */\n      0x00\n        /* \"#utility.yul\":14537:14546   */\n      dup4\n        /* \"#utility.yul\":14533:14550   */\n      add\n        /* \"#utility.yul\":14526:14573   */\n      mstore\n        /* \"#utility.yul\":14590:14721   */\n      tag_435\n        /* \"#utility.yul\":14716:14720   */\n      dup2\n        /* \"#utility.yul\":14590:14721   */\n      tag_255\n      jump\t// in\n    tag_435:\n        /* \"#utility.yul\":14582:14721   */\n      swap1\n      pop\n        /* \"#utility.yul\":14309:14728   */\n      swap2\n      swap1\n      pop\n      jump\t// out\n        /* \"#utility.yul\":14734:14882   */\n    tag_256:\n        /* \"#utility.yul\":14836:14847   */\n      0x00\n        /* \"#utility.yul\":14873:14876   */\n      dup2\n        /* \"#utility.yul\":14858:14876   */\n      swap1\n      pop\n        /* \"#utility.yul\":14734:14882   */\n      swap3\n      swap2\n      pop\n      pop\n      jump\t// out\n        /* \"#utility.yul\":14888:15278   */\n    tag_257:\n        /* \"#utility.yul\":14994:14997   */\n      0x00\n        /* \"#utility.yul\":15022:15061   */\n      tag_438\n        /* \"#utility.yul\":15055:15060   */\n      dup3\n        /* \"#utility.yul\":15022:15061   */\n      tag_240\n      jump\t// in\n    tag_438:\n        /* \"#utility.yul\":15077:15166   */\n      tag_439\n        /* \"#utility.yul\":15159:15165   */\n      dup2\n        /* \"#utility.yul\":15154:15157   */\n      dup6\n        /* \"#utility.yul\":15077:15166   */\n      tag_256\n      jump\t// in\n    tag_439:\n        /* \"#utility.yul\":15070:15166   */\n      swap4\n      pop\n        /* \"#utility.yul\":15175:15240   */\n      tag_440\n        /* \"#utility.yul\":15233:15239   */\n      dup2\n        /* \"#utility.yul\":15228:15231   */\n      dup6\n        /* \"#utility.yul\":15221:15225   */\n      0x20\n        /* \"#utility.yul\":15214:15219   */\n      dup7\n        /* \"#utility.yul\":15210:15226   */\n      add\n        /* \"#utility.yul\":15175:15240   */\n      tag_242\n      jump\t// in\n    tag_440:\n        /* \"#utility.yul\":15265:15271   */\n      dup1\n        /* \"#utility.yul\":15260:15263   */\n      dup5\n        /* \"#utility.yul\":15256:15272   */\n      add\n        /* \"#utility.yul\":15249:15272   */\n      swap2\n      pop\n        /* \"#utility.yul\":14998:15278   */\n      pop\n        /* \"#utility.yul\":14888:15278   */\n      swap3\n      swap2\n      pop\n      pop\n      jump\t// out\n        /* \"#utility.yul\":15284:15719   */\n    tag_109:\n        /* \"#utility.yul\":15464:15467   */\n      0x00\n        /* \"#utility.yul\":15486:15581   */\n      tag_442\n        /* \"#utility.yul\":15577:15580   */\n      dup3\n        /* \"#utility.yul\":15568:15574   */\n      dup6\n        /* \"#utility.yul\":15486:15581   */\n      tag_257\n      jump\t// in\n    tag_442:\n        /* \"#utility.yul\":15479:15581   */\n      swap2\n      pop\n        /* \"#utility.yul\":15598:15693   */\n      tag_443\n        /* \"#utility.yul\":15689:15692   */\n      dup3\n        /* \"#utility.yul\":15680:15686   */\n      dup5\n        /* \"#utility.yul\":15598:15693   */\n      tag_257\n      jump\t// in\n    tag_443:\n        /* \"#utility.yul\":15591:15693   */\n      swap2\n      pop\n        /* \"#utility.yul\":15710:15713   */\n      dup2\n        /* \"#utility.yul\":15703:15713   */\n      swap1\n      pop\n        /* \"#utility.yul\":15284:15719   */\n      swap4\n      swap3\n      pop\n      pop\n      pop\n      jump\t// out\n        /* \"#utility.yul\":15725:15891   */\n    tag_258:\n        /* \"#utility.yul\":15865:15883   */\n      0x4e6f7420612076616c696420766f746500000000000000000000000000000000\n        /* \"#utility.yul\":15861:15862   */\n      0x00\n        /* \"#utility.yul\":15853:15859   */\n      dup3\n        /* \"#utility.yul\":15849:15863   */\n      add\n        /* \"#utility.yul\":15842:15884   */\n      mstore\n        /* \"#utility.yul\":15725:15891   */\n      pop\n      jump\t// out\n        /* \"#utility.yul\":15897:16263   */\n    tag_259:\n        /* \"#utility.yul\":16039:16042   */\n      0x00\n        /* \"#utility.yul\":16060:16127   */\n      tag_446\n        /* \"#utility.yul\":16124:16126   */\n      0x10\n        /* \"#utility.yul\":16119:16122   */\n      dup4\n        /* \"#utility.yul\":16060:16127   */\n      tag_241\n      jump\t// in\n    tag_446:\n        /* \"#utility.yul\":16053:16127   */\n      swap2\n      pop\n        /* \"#utility.yul\":16136:16229   */\n      tag_447\n        /* \"#utility.yul\":16225:16228   */\n      dup3\n        /* \"#utility.yul\":16136:16229   */\n      tag_258\n      jump\t// in\n    tag_447:\n        /* \"#utility.yul\":16254:16256   */\n      0x20\n        /* \"#utility.yul\":16249:16252   */\n      dup3\n        /* \"#utility.yul\":16245:16257   */\n      add\n        /* \"#utility.yul\":16238:16257   */\n      swap1\n      pop\n        /* \"#utility.yul\":15897:16263   */\n      swap2\n      swap1\n      pop\n      jump\t// out\n        /* \"#utility.yul\":16269:16688   */\n    tag_112:\n        /* \"#utility.yul\":16435:16439   */\n      0x00\n        /* \"#utility.yul\":16473:16475   */\n      0x20\n        /* \"#utility.yul\":16462:16471   */\n      dup3\n        /* \"#utility.yul\":16458:16476   */\n      add\n        /* \"#utility.yul\":16450:16476   */\n      swap1\n      pop\n        /* \"#utility.yul\":16522:16531   */\n      dup2\n        /* \"#utility.yul\":16516:16520   */\n      dup2\n        /* \"#utility.yul\":16512:16532   */\n      sub\n        /* \"#utility.yul\":16508:16509   */\n      0x00\n        /* \"#utility.yul\":16497:16506   */\n      dup4\n        /* \"#utility.yul\":16493:16510   */\n      add\n        /* \"#utility.yul\":16486:16533   */\n      mstore\n        /* \"#utility.yul\":16550:16681   */\n      tag_449\n        /* \"#utility.yul\":16676:16680   */\n      dup2\n        /* \"#utility.yul\":16550:16681   */\n      tag_259\n      jump\t// in\n    tag_449:\n        /* \"#utility.yul\":16542:16681   */\n      swap1\n      pop\n        /* \"#utility.yul\":16269:16688   */\n      swap2\n      swap1\n      pop\n      jump\t// out\n        /* \"#utility.yul\":16694:16874   */\n    tag_116:\n        /* \"#utility.yul\":16742:16819   */\n      0x4e487b7100000000000000000000000000000000000000000000000000000000\n        /* \"#utility.yul\":16739:16740   */\n      0x00\n        /* \"#utility.yul\":16732:16820   */\n      mstore\n        /* \"#utility.yul\":16839:16843   */\n      0x32\n        /* \"#utility.yul\":16836:16837   */\n      0x04\n        /* \"#utility.yul\":16829:16844   */\n      mstore\n        /* \"#utility.yul\":16863:16867   */\n      0x24\n        /* \"#utility.yul\":16860:16861   */\n      0x00\n        /* \"#utility.yul\":16853:16868   */\n      revert\n        /* \"#utility.yul\":16880:16966   */\n    tag_260:\n        /* \"#utility.yul\":16915:16922   */\n      0x00\n        /* \"#utility.yul\":16955:16959   */\n      0xff\n        /* \"#utility.yul\":16948:16953   */\n      dup3\n        /* \"#utility.yul\":16944:16960   */\n      and\n        /* \"#utility.yul\":16933:16960   */\n      swap1\n      pop\n        /* \"#utility.yul\":16880:16966   */\n      swap2\n      swap1\n      pop\n      jump\t// out\n        /* \"#utility.yul\":16972:17163   */\n    tag_124:\n        /* \"#utility.yul\":17010:17014   */\n      0x00\n        /* \"#utility.yul\":17030:17048   */\n      tag_453\n        /* \"#utility.yul\":17046:17047   */\n      dup3\n        /* \"#utility.yul\":17030:17048   */\n      tag_260\n      jump\t// in\n    tag_453:\n        /* \"#utility.yul\":17025:17048   */\n      swap2\n      pop\n        /* \"#utility.yul\":17062:17080   */\n      tag_454\n        /* \"#utility.yul\":17078:17079   */\n      dup4\n        /* \"#utility.yul\":17062:17080   */\n      tag_260\n      jump\t// in\n    tag_454:\n        /* \"#utility.yul\":17057:17080   */\n      swap3\n      pop\n        /* \"#utility.yul\":17104:17105   */\n      dup3\n        /* \"#utility.yul\":17101:17102   */\n      dup3\n        /* \"#utility.yul\":17097:17106   */\n      sub\n        /* \"#utility.yul\":17089:17106   */\n      swap1\n      pop\n        /* \"#utility.yul\":17128:17132   */\n      0xff\n        /* \"#utility.yul\":17122:17126   */\n      dup2\n        /* \"#utility.yul\":17119:17133   */\n      gt\n        /* \"#utility.yul\":17116:17156   */\n      iszero\n      tag_455\n      jumpi\n        /* \"#utility.yul\":17136:17154   */\n      tag_456\n      tag_253\n      jump\t// in\n    tag_456:\n        /* \"#utility.yul\":17116:17156   */\n    tag_455:\n        /* \"#utility.yul\":16972:17163   */\n      swap3\n      swap2\n      pop\n      pop\n      jump\t// out\n        /* \"#utility.yul\":17169:17310   */\n    tag_261:\n        /* \"#utility.yul\":17218:17222   */\n      0x00\n        /* \"#utility.yul\":17241:17244   */\n      dup2\n        /* \"#utility.yul\":17233:17244   */\n      swap1\n      pop\n        /* \"#utility.yul\":17264:17267   */\n      dup2\n        /* \"#utility.yul\":17261:17262   */\n      0x00\n        /* \"#utility.yul\":17254:17268   */\n      mstore\n        /* \"#utility.yul\":17298:17302   */\n      0x20\n        /* \"#utility.yul\":17295:17296   */\n      0x00\n        /* \"#utility.yul\":17285:17303   */\n      keccak256\n        /* \"#utility.yul\":17277:17303   */\n      swap1\n      pop\n        /* \"#utility.yul\":17169:17310   */\n      swap2\n      swap1\n      pop\n      jump\t// out\n        /* \"#utility.yul\":17316:17409   */\n    tag_262:\n        /* \"#utility.yul\":17353:17359   */\n      0x00\n        /* \"#utility.yul\":17400:17402   */\n      0x20\n        /* \"#utility.yul\":17395:17397   */\n      0x1f\n        /* \"#utility.yul\":17388:17393   */\n      dup4\n        /* \"#utility.yul\":17384:17398   */\n      add\n        /* \"#utility.yul\":17380:17403   */\n      div\n        /* \"#utility.yul\":17370:17403   */\n      swap1\n      pop\n        /* \"#utility.yul\":17316:17409   */\n      swap2\n      swap1\n      pop\n      jump\t// out\n        /* \"#utility.yul\":17415:17522   */\n    tag_263:\n        /* \"#utility.yul\":17459:17467   */\n      0x00\n        /* \"#utility.yul\":17509:17514   */\n      dup3\n        /* \"#utility.yul\":17503:17507   */\n      dup3\n        /* \"#utility.yul\":17499:17515   */\n      shl\n        /* \"#utility.yul\":17478:17515   */\n      swap1\n      pop\n        /* \"#utility.yul\":17415:17522   */\n      swap3\n      swap2\n      pop\n      pop\n      jump\t// out\n        /* \"#utility.yul\":17528:17921   */\n    tag_264:\n        /* \"#utility.yul\":17597:17603   */\n      0x00\n        /* \"#utility.yul\":17647:17648   */\n      0x08\n        /* \"#utility.yul\":17635:17645   */\n      dup4\n        /* \"#utility.yul\":17631:17649   */\n      mul\n        /* \"#utility.yul\":17670:17767   */\n      tag_461\n        /* \"#utility.yul\":17700:17766   */\n      0xffffffffffffffffffffffffffffffffffffffffffffffffffffffffffffffff\n        /* \"#utility.yul\":17689:17698   */\n      dup3\n        /* \"#utility.yul\":17670:17767   */\n      tag_263\n      jump\t// in\n    tag_461:\n        /* \"#utility.yul\":17788:17827   */\n      tag_462\n        /* \"#utility.yul\":17818:17826   */\n      dup7\n        /* \"#utility.yul\":17807:17816   */\n      dup4\n        /* \"#utility.yul\":17788:17827   */\n      tag_263\n      jump\t// in\n    tag_462:\n        /* \"#utility.yul\":17776:17827   */\n      swap6\n      pop\n        /* \"#utility.yul\":17860:17864   */\n      dup1\n        /* \"#utility.yul\":17856:17865   */\n      not\n        /* \"#utility.yul\":17849:17854   */\n      dup5\n        /* \"#utility.yul\":17845:17866   */\n      and\n        /* \"#utility.yul\":17836:17866   */\n      swap4\n      pop\n        /* \"#utility.yul\":17909:17913   */\n      dup1\n        /* \"#utility.yul\":17899:17907   */\n      dup7\n        /* \"#utility.yul\":17895:17914   */\n      and\n        /* \"#utility.yul\":17888:17893   */\n      dup5\n        /* \"#utility.yul\":17885:17915   */\n      or\n        /* \"#utility.yul\":17875:17915   */\n      swap3\n      pop\n        /* \"#utility.yul\":17604:17921   */\n      pop\n      pop\n        /* \"#utility.yul\":17528:17921   */\n      swap4\n      swap3\n      pop\n      pop\n      pop\n      jump\t// out\n        /* \"#utility.yul\":17927:17987   */\n    tag_265:\n        /* \"#utility.yul\":17955:17958   */\n      0x00\n        /* \"#utility.yul\":17976:17981   */\n      dup2\n        /* \"#utility.yul\":17969:17981   */\n      swap1\n      pop\n        /* \"#utility.yul\":17927:17987   */\n      swap2\n      swap1\n      pop\n      jump\t// out\n        /* \"#utility.yul\":17993:18135   */\n    tag_266:\n        /* \"#utility.yul\":18043:18052   */\n      0x00\n        /* \"#utility.yul\":18076:18129   */\n      tag_465\n        /* \"#utility.yul\":18094:18128   */\n      tag_466\n        /* \"#utility.yul\":18103:18127   */\n      tag_467\n        /* \"#utility.yul\":18121:18126   */\n      dup5\n        /* \"#utility.yul\":18103:18127   */\n      tag_213\n      jump\t// in\n    tag_467:\n        /* \"#utility.yul\":18094:18128   */\n      tag_265\n      jump\t// in\n    tag_466:\n        /* \"#utility.yul\":18076:18129   */\n      tag_213\n      jump\t// in\n    tag_465:\n        /* \"#utility.yul\":18063:18129   */\n      swap1\n      pop\n        /* \"#utility.yul\":17993:18135   */\n      swap2\n      swap1\n      pop\n      jump\t// out\n        /* \"#utility.yul\":18141:18216   */\n    tag_267:\n        /* \"#utility.yul\":18184:18187   */\n      0x00\n        /* \"#utility.yul\":18205:18210   */\n      dup2\n        /* \"#utility.yul\":18198:18210   */\n      swap1\n      pop\n        /* \"#utility.yul\":18141:18216   */\n      swap2\n      swap1\n      pop\n      jump\t// out\n        /* \"#utility.yul\":18222:18491   */\n    tag_268:\n        /* \"#utility.yul\":18332:18371   */\n      tag_470\n        /* \"#utility.yul\":18363:18370   */\n      dup4\n        /* \"#utility.yul\":18332:18371   */\n      tag_266\n      jump\t// in\n    tag_470:\n        /* \"#utility.yul\":18393:18484   */\n      tag_471\n        /* \"#utility.yul\":18442:18483   */\n      tag_472\n        /* \"#utility.yul\":18466:18482   */\n      dup3\n        /* \"#utility.yul\":18442:18483   */\n      tag_267\n      jump\t// in\n    tag_472:\n        /* \"#utility.yul\":18434:18440   */\n      dup5\n        /* \"#utility.yul\":18427:18431   */\n      dup5\n        /* \"#utility.yul\":18421:18432   */\n      sload\n        /* \"#utility.yul\":18393:18484   */\n      tag_264\n      jump\t// in\n    tag_471:\n        /* \"#utility.yul\":18387:18391   */\n      dup3\n        /* \"#utility.yul\":18380:18485   */\n      sstore\n        /* \"#utility.yul\":18298:18491   */\n      pop\n        /* \"#utility.yul\":18222:18491   */\n      pop\n      pop\n      pop\n      jump\t// out\n        /* \"#utility.yul\":18497:18570   */\n    tag_269:\n        /* \"#utility.yul\":18542:18545   */\n      0x00\n        /* \"#utility.yul\":18497:18570   */\n      swap1\n      jump\t// out\n        /* \"#utility.yul\":18576:18765   */\n    tag_270:\n        /* \"#utility.yul\":18653:18685   */\n      tag_475\n      tag_269\n      jump\t// in\n    tag_475:\n        /* \"#utility.yul\":18694:18759   */\n      tag_476\n        /* \"#utility.yul\":18752:18758   */\n      dup2\n        /* \"#utility.yul\":18744:18750   */\n      dup5\n        /* \"#utility.yul\":18738:18742   */\n      dup5\n        /* \"#utility.yul\":18694:18759   */\n      tag_268\n      jump\t// in\n    tag_476:\n        /* \"#utility.yul\":18629:18765   */\n      pop\n        /* \"#utility.yul\":18576:18765   */\n      pop\n      pop\n      jump\t// out\n        /* \"#utility.yul\":18771:18957   */\n    tag_271:\n        /* \"#utility.yul\":18831:18951   */\n    tag_478:\n        /* \"#utility.yul\":18848:18851   */\n      dup2\n        /* \"#utility.yul\":18841:18846   */\n      dup2\n        /* \"#utility.yul\":18838:18852   */\n      lt\n        /* \"#utility.yul\":18831:18951   */\n      iszero\n      tag_480\n      jumpi\n        /* \"#utility.yul\":18902:18941   */\n      tag_481\n        /* \"#utility.yul\":18939:18940   */\n      0x00\n        /* \"#utility.yul\":18932:18937   */\n      dup3\n        /* \"#utility.yul\":18902:18941   */\n      tag_270\n      jump\t// in\n    tag_481:\n        /* \"#utility.yul\":18875:18876   */\n      0x01\n        /* \"#utility.yul\":18868:18873   */\n      dup2\n        /* \"#utility.yul\":18864:18877   */\n      add\n        /* \"#utility.yul\":18855:18877   */\n      swap1\n      pop\n        /* \"#utility.yul\":18831:18951   */\n      jump(tag_478)\n    tag_480:\n        /* \"#utility.yul\":18771:18957   */\n      pop\n      pop\n      jump\t// out\n        /* \"#utility.yul\":18963:19506   */\n    tag_272:\n        /* \"#utility.yul\":19064:19066   */\n      0x1f\n        /* \"#utility.yul\":19059:19062   */\n      dup3\n        /* \"#utility.yul\":19056:19067   */\n      gt\n        /* \"#utility.yul\":19053:19499   */\n      iszero\n      tag_483\n      jumpi\n        /* \"#utility.yul\":19098:19136   */\n      tag_484\n        /* \"#utility.yul\":19130:19135   */\n      dup2\n        /* \"#utility.yul\":19098:19136   */\n      tag_261\n      jump\t// in\n    tag_484:\n        /* \"#utility.yul\":19182:19211   */\n      tag_485\n        /* \"#utility.yul\":19200:19210   */\n      dup5\n        /* \"#utility.yul\":19182:19211   */\n      tag_262\n      jump\t// in\n    tag_485:\n        /* \"#utility.yul\":19172:19180   */\n      dup2\n        /* \"#utility.yul\":19168:19212   */\n      add\n        /* \"#utility.yul\":19365:19367   */\n      0x20\n        /* \"#utility.yul\":19353:19363   */\n      dup6\n        /* \"#utility.yul\":19350:19368   */\n      lt\n        /* \"#utility.yul\":19347:19396   */\n      iszero\n      tag_486\n      jumpi\n        /* \"#utility.yul\":19386:19394   */\n      dup2\n        /* \"#utility.yul\":19371:19394   */\n      swap1\n      pop\n        /* \"#utility.yul\":19347:19396   */\n    tag_486:\n        /* \"#utility.yul\":19409:19489   */\n      tag_487\n        /* \"#utility.yul\":19465:19487   */\n      tag_488\n        /* \"#utility.yul\":19483:19486   */\n      dup6\n        /* \"#utility.yul\":19465:19487   */\n      tag_262\n      jump\t// in\n    tag_488:\n        /* \"#utility.yul\":19455:19463   */\n      dup4\n        /* \"#utility.yul\":19451:19488   */\n      add\n        /* \"#utility.yul\":19438:19449   */\n      dup3\n        /* \"#utility.yul\":19409:19489   */\n      tag_271\n      jump\t// in\n    tag_487:\n        /* \"#utility.yul\":19068:19499   */\n      pop\n      pop\n        /* \"#utility.yul\":19053:19499   */\n    tag_483:\n        /* \"#utility.yul\":18963:19506   */\n      pop\n      pop\n      pop\n      jump\t// out\n        /* \"#utility.yul\":19512:19629   */\n    tag_273:\n        /* \"#utility.yul\":19566:19574   */\n      0x00\n        /* \"#utility.yul\":19616:19621   */\n      dup3\n        /* \"#utility.yul\":19610:19614   */\n      dup3\n        /* \"#utility.yul\":19606:19622   */\n      shr\n        /* \"#utility.yul\":19585:19622   */\n      swap1\n      pop\n        /* \"#utility.yul\":19512:19629   */\n      swap3\n      swap2\n      pop\n      pop\n      jump\t// out\n        /* \"#utility.yul\":19635:19804   */\n    tag_274:\n        /* \"#utility.yul\":19679:19685   */\n      0x00\n        /* \"#utility.yul\":19712:19763   */\n      tag_491\n        /* \"#utility.yul\":19760:19761   */\n      0x00\n        /* \"#utility.yul\":19756:19762   */\n      not\n        /* \"#utility.yul\":19748:19753   */\n      dup5\n        /* \"#utility.yul\":19745:19746   */\n      0x08\n        /* \"#utility.yul\":19741:19754   */\n      mul\n        /* \"#utility.yul\":19712:19763   */\n      tag_273\n      jump\t// in\n    tag_491:\n        /* \"#utility.yul\":19708:19764   */\n      not\n        /* \"#utility.yul\":19793:19797   */\n      dup1\n        /* \"#utility.yul\":19787:19791   */\n      dup4\n        /* \"#utility.yul\":19783:19798   */\n      and\n        /* \"#utility.yul\":19773:19798   */\n      swap2\n      pop\n        /* \"#utility.yul\":19686:19804   */\n      pop\n        /* \"#utility.yul\":19635:19804   */\n      swap3\n      swap2\n      pop\n      pop\n      jump\t// out\n        /* \"#utility.yul\":19809:20104   */\n    tag_275:\n        /* \"#utility.yul\":19885:19889   */\n      0x00\n        /* \"#utility.yul\":20031:20060   */\n      tag_493\n        /* \"#utility.yul\":20056:20059   */\n      dup4\n        /* \"#utility.yul\":20050:20054   */\n      dup4\n        /* \"#utility.yul\":20031:20060   */\n      tag_274\n      jump\t// in\n    tag_493:\n        /* \"#utility.yul\":20023:20060   */\n      swap2\n      pop\n        /* \"#utility.yul\":20093:20096   */\n      dup3\n        /* \"#utility.yul\":20090:20091   */\n      0x02\n        /* \"#utility.yul\":20086:20097   */\n      mul\n        /* \"#utility.yul\":20080:20084   */\n      dup3\n        /* \"#utility.yul\":20077:20098   */\n      or\n        /* \"#utility.yul\":20069:20098   */\n      swap1\n      pop\n        /* \"#utility.yul\":19809:20104   */\n      swap3\n      swap2\n      pop\n      pop\n      jump\t// out\n        /* \"#utility.yul\":20109:21504   */\n    tag_128:\n        /* \"#utility.yul\":20226:20263   */\n      tag_495\n        /* \"#utility.yul\":20259:20262   */\n      dup3\n        /* \"#utility.yul\":20226:20263   */\n      tag_240\n      jump\t// in\n    tag_495:\n        /* \"#utility.yul\":20328:20346   */\n      0xffffffffffffffff\n        /* \"#utility.yul\":20320:20326   */\n      dup2\n        /* \"#utility.yul\":20317:20347   */\n      gt\n        /* \"#utility.yul\":20314:20370   */\n      iszero\n      tag_496\n      jumpi\n        /* \"#utility.yul\":20350:20368   */\n      tag_497\n      tag_224\n      jump\t// in\n    tag_497:\n        /* \"#utility.yul\":20314:20370   */\n    tag_496:\n        /* \"#utility.yul\":20394:20432   */\n      tag_498\n        /* \"#utility.yul\":20426:20430   */\n      dup3\n        /* \"#utility.yul\":20420:20431   */\n      sload\n        /* \"#utility.yul\":20394:20432   */\n      tag_68\n      jump\t// in\n    tag_498:\n        /* \"#utility.yul\":20479:20546   */\n      tag_499\n        /* \"#utility.yul\":20539:20545   */\n      dup3\n        /* \"#utility.yul\":20531:20537   */\n      dup3\n        /* \"#utility.yul\":20525:20529   */\n      dup6\n        /* \"#utility.yul\":20479:20546   */\n      tag_272\n      jump\t// in\n    tag_499:\n        /* \"#utility.yul\":20573:20574   */\n      0x00\n        /* \"#utility.yul\":20597:20601   */\n      0x20\n        /* \"#utility.yul\":20584:20601   */\n      swap1\n      pop\n        /* \"#utility.yul\":20629:20631   */\n      0x1f\n        /* \"#utility.yul\":20621:20627   */\n      dup4\n        /* \"#utility.yul\":20618:20632   */\n      gt\n        /* \"#utility.yul\":20646:20647   */\n      0x01\n        /* \"#utility.yul\":20641:21259   */\n      dup2\n      eq\n      tag_501\n      jumpi\n        /* \"#utility.yul\":21303:21304   */\n      0x00\n        /* \"#utility.yul\":21320:21326   */\n      dup5\n        /* \"#utility.yul\":21317:21394   */\n      iszero\n      tag_502\n      jumpi\n        /* \"#utility.yul\":21369:21378   */\n      dup3\n        /* \"#utility.yul\":21364:21367   */\n      dup8\n        /* \"#utility.yul\":21360:21379   */\n      add\n        /* \"#utility.yul\":21354:21380   */\n      mload\n        /* \"#utility.yul\":21345:21380   */\n      swap1\n      pop\n        /* \"#utility.yul\":21317:21394   */\n    tag_502:\n        /* \"#utility.yul\":21420:21487   */\n      tag_503\n        /* \"#utility.yul\":21480:21486   */\n      dup6\n        /* \"#utility.yul\":21473:21478   */\n      dup3\n        /* \"#utility.yul\":21420:21487   */\n      tag_275\n      jump\t// in\n    tag_503:\n        /* \"#utility.yul\":21414:21418   */\n      dup7\n        /* \"#utility.yul\":21407:21488   */\n      sstore\n        /* \"#utility.yul\":21276:21498   */\n      pop\n        /* \"#utility.yul\":20611:21498   */\n      jump(tag_500)\n        /* \"#utility.yul\":20641:21259   */\n    tag_501:\n        /* \"#utility.yul\":20693:20697   */\n      0x1f\n        /* \"#utility.yul\":20689:20698   */\n      not\n        /* \"#utility.yul\":20681:20687   */\n      dup5\n        /* \"#utility.yul\":20677:20699   */\n      and\n        /* \"#utility.yul\":20727:20764   */\n      tag_504\n        /* \"#utility.yul\":20759:20763   */\n      dup7\n        /* \"#utility.yul\":20727:20764   */\n      tag_261\n      jump\t// in\n    tag_504:\n        /* \"#utility.yul\":20786:20787   */\n      0x00\n        /* \"#utility.yul\":20800:21008   */\n    tag_505:\n        /* \"#utility.yul\":20814:20821   */\n      dup3\n        /* \"#utility.yul\":20811:20812   */\n      dup2\n        /* \"#utility.yul\":20808:20822   */\n      lt\n        /* \"#utility.yul\":20800:21008   */\n      iszero\n      tag_507\n      jumpi\n        /* \"#utility.yul\":20893:20902   */\n      dup5\n        /* \"#utility.yul\":20888:20891   */\n      dup10\n        /* \"#utility.yul\":20884:20903   */\n      add\n        /* \"#utility.yul\":20878:20904   */\n      mload\n        /* \"#utility.yul\":20870:20876   */\n      dup3\n        /* \"#utility.yul\":20863:20905   */\n      sstore\n        /* \"#utility.yul\":20944:20945   */\n      0x01\n        /* \"#utility.yul\":20936:20942   */\n      dup3\n        /* \"#utility.yul\":20932:20946   */\n      add\n        /* \"#utility.yul\":20922:20946   */\n      swap2\n      pop\n        /* \"#utility.yul\":20991:20993   */\n      0x20\n        /* \"#utility.yul\":20980:20989   */\n      dup6\n        /* \"#utility.yul\":20976:20994   */\n      add\n        /* \"#utility.yul\":20963:20994   */\n      swap5\n      pop\n        /* \"#utility.yul\":20837:20841   */\n      0x20\n        /* \"#utility.yul\":20834:20835   */\n      dup2\n        /* \"#utility.yul\":20830:20842   */\n      add\n        /* \"#utility.yul\":20825:20842   */\n      swap1\n      pop\n        /* \"#utility.yul\":20800:21008   */\n      jump(tag_505)\n    tag_507:\n        /* \"#utility.yul\":21036:21042   */\n      dup7\n        /* \"#utility.yul\":21027:21034   */\n      dup4\n        /* \"#utility.yul\":21024:21043   */\n      lt\n        /* \"#utility.yul\":21021:21200   */\n      iszero\n      tag_508\n      jumpi\n        /* \"#utility.yul\":21094:21103   */\n      dup5\n        /* \"#utility.yul\":21089:21092   */\n      dup10\n        /* \"#utility.yul\":21085:21104   */\n      add\n        /* \"#utility.yul\":21079:21105   */\n      mload\n        /* \"#utility.yul\":21137:21185   */\n      tag_509\n        /* \"#utility.yul\":21179:21183   */\n      0x1f\n        /* \"#utility.yul\":21171:21177   */\n      dup10\n        /* \"#utility.yul\":21167:21184   */\n      and\n        /* \"#utility.yul\":21156:21165   */\n      dup3\n        /* \"#utility.yul\":21137:21185   */\n      tag_274\n      jump\t// in\n    tag_509:\n        /* \"#utility.yul\":21129:21135   */\n      dup4\n        /* \"#utility.yul\":21122:21186   */\n      sstore\n        /* \"#utility.yul\":21044:21200   */\n      pop\n        /* \"#utility.yul\":21021:21200   */\n    tag_508:\n        /* \"#utility.yul\":21246:21247   */\n      0x01\n        /* \"#utility.yul\":21242:21243   */\n      0x02\n        /* \"#utility.yul\":21234:21240   */\n      dup9\n        /* \"#utility.yul\":21230:21244   */\n      mul\n        /* \"#utility.yul\":21226:21248   */\n      add\n        /* \"#utility.yul\":21220:21224   */\n      dup9\n        /* \"#utility.yul\":21213:21249   */\n      sstore\n        /* \"#utility.yul\":20648:21259   */\n      pop\n      pop\n      pop\n        /* \"#utility.yul\":20611:21498   */\n    tag_500:\n      pop\n        /* \"#utility.yul\":20201:21504   */\n      pop\n      pop\n      pop\n        /* \"#utility.yul\":20109:21504   */\n      pop\n      pop\n      jump\t// out\n        /* \"#utility.yul\":21510:21933   */\n    tag_130:\n        /* \"#utility.yul\":21651:21655   */\n      0x00\n        /* \"#utility.yul\":21689:21691   */\n      0x40\n        /* \"#utility.yul\":21678:21687   */\n      dup3\n        /* \"#utility.yul\":21674:21692   */\n      add\n        /* \"#utility.yul\":21666:21692   */\n      swap1\n      pop\n        /* \"#utility.yul\":21702:21773   */\n      tag_511\n        /* \"#utility.yul\":21770:21771   */\n      0x00\n        /* \"#utility.yul\":21759:21768   */\n      dup4\n        /* \"#utility.yul\":21755:21772   */\n      add\n        /* \"#utility.yul\":21746:21752   */\n      dup6\n        /* \"#utility.yul\":21702:21773   */\n      tag_245\n      jump\t// in\n    tag_511:\n        /* \"#utility.yul\":21820:21829   */\n      dup2\n        /* \"#utility.yul\":21814:21818   */\n      dup2\n        /* \"#utility.yul\":21810:21830   */\n      sub\n        /* \"#utility.yul\":21805:21807   */\n      0x20\n        /* \"#utility.yul\":21794:21803   */\n      dup4\n        /* \"#utility.yul\":21790:21808   */\n      add\n        /* \"#utility.yul\":21783:21831   */\n      mstore\n        /* \"#utility.yul\":21848:21926   */\n      tag_512\n        /* \"#utility.yul\":21921:21925   */\n      dup2\n        /* \"#utility.yul\":21912:21918   */\n      dup5\n        /* \"#utility.yul\":21848:21926   */\n      tag_243\n      jump\t// in\n    tag_512:\n        /* \"#utility.yul\":21840:21926   */\n      swap1\n      pop\n        /* \"#utility.yul\":21510:21933   */\n      swap4\n      swap3\n      pop\n      pop\n      pop\n      jump\t// out\n        /* \"#utility.yul\":21939:22168   */\n    tag_276:\n        /* \"#utility.yul\":22079:22113   */\n      0x596f7520646964206e6f742063686f6f736520726f636b2c207061706572206f\n        /* \"#utility.yul\":22075:22076   */\n      0x00\n        /* \"#utility.yul\":22067:22073   */\n      dup3\n        /* \"#utility.yul\":22063:22077   */\n      add\n        /* \"#utility.yul\":22056:22114   */\n      mstore\n        /* \"#utility.yul\":22148:22160   */\n      0x722073636973736f727300000000000000000000000000000000000000000000\n        /* \"#utility.yul\":22143:22145   */\n      0x20\n        /* \"#utility.yul\":22135:22141   */\n      dup3\n        /* \"#utility.yul\":22131:22146   */\n      add\n        /* \"#utility.yul\":22124:22161   */\n      mstore\n        /* \"#utility.yul\":21939:22168   */\n      pop\n      jump\t// out\n        /* \"#utility.yul\":22174:22540   */\n    tag_277:\n        /* \"#utility.yul\":22316:22319   */\n      0x00\n        /* \"#utility.yul\":22337:22404   */\n      tag_515\n        /* \"#utility.yul\":22401:22403   */\n      0x2a\n        /* \"#utility.yul\":22396:22399   */\n      dup4\n        /* \"#utility.yul\":22337:22404   */\n      tag_241\n      jump\t// in\n    tag_515:\n        /* \"#utility.yul\":22330:22404   */\n      swap2\n      pop\n        /* \"#utility.yul\":22413:22506   */\n      tag_516\n        /* \"#utility.yul\":22502:22505   */\n      dup3\n        /* \"#utility.yul\":22413:22506   */\n      tag_276\n      jump\t// in\n    tag_516:\n        /* \"#utility.yul\":22531:22533   */\n      0x40\n        /* \"#utility.yul\":22526:22529   */\n      dup3\n        /* \"#utility.yul\":22522:22534   */\n      add\n        /* \"#utility.yul\":22515:22534   */\n      swap1\n      pop\n        /* \"#utility.yul\":22174:22540   */\n      swap2\n      swap1\n      pop\n      jump\t// out\n        /* \"#utility.yul\":22546:22965   */\n    tag_139:\n        /* \"#utility.yul\":22712:22716   */\n      0x00\n        /* \"#utility.yul\":22750:22752   */\n      0x20\n        /* \"#utility.yul\":22739:22748   */\n      dup3\n        /* \"#utility.yul\":22735:22753   */\n      add\n        /* \"#utility.yul\":22727:22753   */\n      swap1\n      pop\n        /* \"#utility.yul\":22799:22808   */\n      dup2\n        /* \"#utility.yul\":22793:22797   */\n      dup2\n        /* \"#utility.yul\":22789:22809   */\n      sub\n        /* \"#utility.yul\":22785:22786   */\n      0x00\n        /* \"#utility.yul\":22774:22783   */\n      dup4\n        /* \"#utility.yul\":22770:22787   */\n      add\n        /* \"#utility.yul\":22763:22810   */\n      mstore\n        /* \"#utility.yul\":22827:22958   */\n      tag_518\n        /* \"#utility.yul\":22953:22957   */\n      dup2\n        /* \"#utility.yul\":22827:22958   */\n      tag_277\n      jump\t// in\n    tag_518:\n        /* \"#utility.yul\":22819:22958   */\n      swap1\n      pop\n        /* \"#utility.yul\":22546:22965   */\n      swap2\n      swap1\n      pop\n      jump\t// out\n        /* \"#utility.yul\":22971:23246   */\n    tag_163:\n        /* \"#utility.yul\":23103:23106   */\n      0x00\n        /* \"#utility.yul\":23125:23220   */\n      tag_520\n        /* \"#utility.yul\":23216:23219   */\n      dup3\n        /* \"#utility.yul\":23207:23213   */\n      dup5\n        /* \"#utility.yul\":23125:23220   */\n      tag_257\n      jump\t// in\n    tag_520:\n        /* \"#utility.yul\":23118:23220   */\n      swap2\n      pop\n        /* \"#utility.yul\":23237:23240   */\n      dup2\n        /* \"#utility.yul\":23230:23240   */\n      swap1\n      pop\n        /* \"#utility.yul\":22971:23246   */\n      swap3\n      swap2\n      pop\n      pop\n      jump\t// out\n        /* \"#utility.yul\":23252:23425   */\n    tag_278:\n        /* \"#utility.yul\":23392:23417   */\n      0x596f752061726520616c726561647920706c6179696e67000000000000000000\n        /* \"#utility.yul\":23388:23389   */\n      0x00\n        /* \"#utility.yul\":23380:23386   */\n      dup3\n        /* \"#utility.yul\":23376:23390   */\n      add\n        /* \"#utility.yul\":23369:23418   */\n      mstore\n        /* \"#utility.yul\":23252:23425   */\n      pop\n      jump\t// out\n        /* \"#utility.yul\":23431:23797   */\n    tag_279:\n        /* \"#utility.yul\":23573:23576   */\n      0x00\n        /* \"#utility.yul\":23594:23661   */\n      tag_523\n        /* \"#utility.yul\":23658:23660   */\n      0x17\n        /* \"#utility.yul\":23653:23656   */\n      dup4\n        /* \"#utility.yul\":23594:23661   */\n      tag_241\n      jump\t// in\n    tag_523:\n        /* \"#utility.yul\":23587:23661   */\n      swap2\n      pop\n        /* \"#utility.yul\":23670:23763   */\n      tag_524\n        /* \"#utility.yul\":23759:23762   */\n      dup3\n        /* \"#utility.yul\":23670:23763   */\n      tag_278\n      jump\t// in\n    tag_524:\n        /* \"#utility.yul\":23788:23790   */\n      0x20\n        /* \"#utility.yul\":23783:23786   */\n      dup3\n        /* \"#utility.yul\":23779:23791   */\n      add\n        /* \"#utility.yul\":23772:23791   */\n      swap1\n      pop\n        /* \"#utility.yul\":23431:23797   */\n      swap2\n      swap1\n      pop\n      jump\t// out\n        /* \"#utility.yul\":23803:24222   */\n    tag_168:\n        /* \"#utility.yul\":23969:23973   */\n      0x00\n        /* \"#utility.yul\":24007:24009   */\n      0x20\n        /* \"#utility.yul\":23996:24005   */\n      dup3\n        /* \"#utility.yul\":23992:24010   */\n      add\n        /* \"#utility.yul\":23984:24010   */\n      swap1\n      pop\n        /* \"#utility.yul\":24056:24065   */\n      dup2\n        /* \"#utility.yul\":24050:24054   */\n      dup2\n        /* \"#utility.yul\":24046:24066   */\n      sub\n        /* \"#utility.yul\":24042:24043   */\n      0x00\n        /* \"#utility.yul\":24031:24040   */\n      dup4\n        /* \"#utility.yul\":24027:24044   */\n      add\n        /* \"#utility.yul\":24020:24067   */\n      mstore\n        /* \"#utility.yul\":24084:24215   */\n      tag_526\n        /* \"#utility.yul\":24210:24214   */\n      dup2\n        /* \"#utility.yul\":24084:24215   */\n      tag_279\n      jump\t// in\n    tag_526:\n        /* \"#utility.yul\":24076:24215   */\n      swap1\n      pop\n        /* \"#utility.yul\":23803:24222   */\n      swap2\n      swap1\n      pop\n      jump\t// out\n        /* \"#utility.yul\":24228:24455   */\n    tag_280:\n        /* \"#utility.yul\":24368:24402   */\n      0x546865207374616b65206d757374206265206d6f7265207468616e20302c3030\n        /* \"#utility.yul\":24364:24365   */\n      0x00\n        /* \"#utility.yul\":24356:24362   */\n      dup3\n        /* \"#utility.yul\":24352:24366   */\n      add\n        /* \"#utility.yul\":24345:24403   */\n      mstore\n        /* \"#utility.yul\":24437:24447   */\n      0x3031204574686572000000000000000000000000000000000000000000000000\n        /* \"#utility.yul\":24432:24434   */\n      0x20\n        /* \"#utility.yul\":24424:24430   */\n      dup3\n        /* \"#utility.yul\":24420:24435   */\n      add\n        /* \"#utility.yul\":24413:24448   */\n      mstore\n        /* \"#utility.yul\":24228:24455   */\n      pop\n      jump\t// out\n        /* \"#utility.yul\":24461:24827   */\n    tag_281:\n        /* \"#utility.yul\":24603:24606   */\n      0x00\n        /* \"#utility.yul\":24624:24691   */\n      tag_529\n        /* \"#utility.yul\":24688:24690   */\n      0x28\n        /* \"#utility.yul\":24683:24686   */\n      dup4\n        /* \"#utility.yul\":24624:24691   */\n      tag_241\n      jump\t// in\n    tag_529:\n        /* \"#utility.yul\":24617:24691   */\n      swap2\n      pop\n        /* \"#utility.yul\":24700:24793   */\n      tag_530\n        /* \"#utility.yul\":24789:24792   */\n      dup3\n        /* \"#utility.yul\":24700:24793   */\n      tag_280\n      jump\t// in\n    tag_530:\n        /* \"#utility.yul\":24818:24820   */\n      0x40\n        /* \"#utility.yul\":24813:24816   */\n      dup3\n        /* \"#utility.yul\":24809:24821   */\n      add\n        /* \"#utility.yul\":24802:24821   */\n      swap1\n      pop\n        /* \"#utility.yul\":24461:24827   */\n      swap2\n      swap1\n      pop\n      jump\t// out\n        /* \"#utility.yul\":24833:25252   */\n    tag_172:\n        /* \"#utility.yul\":24999:25003   */\n      0x00\n        /* \"#utility.yul\":25037:25039   */\n      0x20\n        /* \"#utility.yul\":25026:25035   */\n      dup3\n        /* \"#utility.yul\":25022:25040   */\n      add\n        /* \"#utility.yul\":25014:25040   */\n      swap1\n      pop\n        /* \"#utility.yul\":25086:25095   */\n      dup2\n        /* \"#utility.yul\":25080:25084   */\n      dup2\n        /* \"#utility.yul\":25076:25096   */\n      sub\n        /* \"#utility.yul\":25072:25073   */\n      0x00\n        /* \"#utility.yul\":25061:25070   */\n      dup4\n        /* \"#utility.yul\":25057:25074   */\n      add\n        /* \"#utility.yul\":25050:25097   */\n      mstore\n        /* \"#utility.yul\":25114:25245   */\n      tag_532\n        /* \"#utility.yul\":25240:25244   */\n      dup2\n        /* \"#utility.yul\":25114:25245   */\n      tag_281\n      jump\t// in\n    tag_532:\n        /* \"#utility.yul\":25106:25245   */\n      swap1\n      pop\n        /* \"#utility.yul\":24833:25252   */\n      swap2\n      swap1\n      pop\n      jump\t// out\n        /* \"#utility.yul\":25258:25452   */\n    tag_179:\n        /* \"#utility.yul\":25298:25302   */\n      0x00\n        /* \"#utility.yul\":25318:25338   */\n      tag_534\n        /* \"#utility.yul\":25336:25337   */\n      dup3\n        /* \"#utility.yul\":25318:25338   */\n      tag_213\n      jump\t// in\n    tag_534:\n        /* \"#utility.yul\":25313:25338   */\n      swap2\n      pop\n        /* \"#utility.yul\":25352:25372   */\n      tag_535\n        /* \"#utility.yul\":25370:25371   */\n      dup4\n        /* \"#utility.yul\":25352:25372   */\n      tag_213\n      jump\t// in\n    tag_535:\n        /* \"#utility.yul\":25347:25372   */\n      swap3\n      pop\n        /* \"#utility.yul\":25396:25397   */\n      dup3\n        /* \"#utility.yul\":25393:25394   */\n      dup3\n        /* \"#utility.yul\":25389:25398   */\n      sub\n        /* \"#utility.yul\":25381:25398   */\n      swap1\n      pop\n        /* \"#utility.yul\":25420:25421   */\n      dup2\n        /* \"#utility.yul\":25414:25418   */\n      dup2\n        /* \"#utility.yul\":25411:25422   */\n      gt\n        /* \"#utility.yul\":25408:25445   */\n      iszero\n      tag_536\n      jumpi\n        /* \"#utility.yul\":25425:25443   */\n      tag_537\n      tag_253\n      jump\t// in\n    tag_537:\n        /* \"#utility.yul\":25408:25445   */\n    tag_536:\n        /* \"#utility.yul\":25258:25452   */\n      swap3\n      swap2\n      pop\n      pop\n      jump\t// out\n        /* \"#utility.yul\":25458:25682   */\n    tag_282:\n        /* \"#utility.yul\":25598:25632   */\n      0x596f75206e65656420746f206d6174636820746865206f70706f6e656e747320\n        /* \"#utility.yul\":25594:25595   */\n      0x00\n        /* \"#utility.yul\":25586:25592   */\n      dup3\n        /* \"#utility.yul\":25582:25596   */\n      add\n        /* \"#utility.yul\":25575:25633   */\n      mstore\n        /* \"#utility.yul\":25667:25674   */\n      0x7374616b65000000000000000000000000000000000000000000000000000000\n        /* \"#utility.yul\":25662:25664   */\n      0x20\n        /* \"#utility.yul\":25654:25660   */\n      dup3\n        /* \"#utility.yul\":25650:25665   */\n      add\n        /* \"#utility.yul\":25643:25675   */\n      mstore\n        /* \"#utility.yul\":25458:25682   */\n      pop\n      jump\t// out\n        /* \"#utility.yul\":25688:26054   */\n    tag_283:\n        /* \"#utility.yul\":25830:25833   */\n      0x00\n        /* \"#utility.yul\":25851:25918   */\n      tag_540\n        /* \"#utility.yul\":25915:25917   */\n      0x25\n        /* \"#utility.yul\":25910:25913   */\n      dup4\n        /* \"#utility.yul\":25851:25918   */\n      tag_241\n      jump\t// in\n    tag_540:\n        /* \"#utility.yul\":25844:25918   */\n      swap2\n      pop\n        /* \"#utility.yul\":25927:26020   */\n      tag_541\n        /* \"#utility.yul\":26016:26019   */\n      dup3\n        /* \"#utility.yul\":25927:26020   */\n      tag_282\n      jump\t// in\n    tag_541:\n        /* \"#utility.yul\":26045:26047   */\n      0x40\n        /* \"#utility.yul\":26040:26043   */\n      dup3\n        /* \"#utility.yul\":26036:26048   */\n      add\n        /* \"#utility.yul\":26029:26048   */\n      swap1\n      pop\n        /* \"#utility.yul\":25688:26054   */\n      swap2\n      swap1\n      pop\n      jump\t// out\n        /* \"#utility.yul\":26060:26479   */\n    tag_185:\n        /* \"#utility.yul\":26226:26230   */\n      0x00\n        /* \"#utility.yul\":26264:26266   */\n      0x20\n        /* \"#utility.yul\":26253:26262   */\n      dup3\n        /* \"#utility.yul\":26249:26267   */\n      add\n        /* \"#utility.yul\":26241:26267   */\n      swap1\n      pop\n        /* \"#utility.yul\":26313:26322   */\n      dup2\n        /* \"#utility.yul\":26307:26311   */\n      dup2\n        /* \"#utility.yul\":26303:26323   */\n      sub\n        /* \"#utility.yul\":26299:26300   */\n      0x00\n        /* \"#utility.yul\":26288:26297   */\n      dup4\n        /* \"#utility.yul\":26284:26301   */\n      add\n        /* \"#utility.yul\":26277:26324   */\n      mstore\n        /* \"#utility.yul\":26341:26472   */\n      tag_543\n        /* \"#utility.yul\":26467:26471   */\n      dup2\n        /* \"#utility.yul\":26341:26472   */\n      tag_283\n      jump\t// in\n    tag_543:\n        /* \"#utility.yul\":26333:26472   */\n      swap1\n      pop\n        /* \"#utility.yul\":26060:26479   */\n      swap2\n      swap1\n      pop\n      jump\t// out\n        /* \"#utility.yul\":26485:26676   */\n    tag_190:\n        /* \"#utility.yul\":26525:26528   */\n      0x00\n        /* \"#utility.yul\":26544:26564   */\n      tag_545\n        /* \"#utility.yul\":26562:26563   */\n      dup3\n        /* \"#utility.yul\":26544:26564   */\n      tag_213\n      jump\t// in\n    tag_545:\n        /* \"#utility.yul\":26539:26564   */\n      swap2\n      pop\n        /* \"#utility.yul\":26578:26598   */\n      tag_546\n        /* \"#utility.yul\":26596:26597   */\n      dup4\n        /* \"#utility.yul\":26578:26598   */\n      tag_213\n      jump\t// in\n    tag_546:\n        /* \"#utility.yul\":26573:26598   */\n      swap3\n      pop\n        /* \"#utility.yul\":26621:26622   */\n      dup3\n        /* \"#utility.yul\":26618:26619   */\n      dup3\n        /* \"#utility.yul\":26614:26623   */\n      add\n        /* \"#utility.yul\":26607:26623   */\n      swap1\n      pop\n        /* \"#utility.yul\":26642:26645   */\n      dup1\n        /* \"#utility.yul\":26639:26640   */\n      dup3\n        /* \"#utility.yul\":26636:26646   */\n      gt\n        /* \"#utility.yul\":26633:26669   */\n      iszero\n      tag_547\n      jumpi\n        /* \"#utility.yul\":26649:26667   */\n      tag_548\n      tag_253\n      jump\t// in\n    tag_548:\n        /* \"#utility.yul\":26633:26669   */\n    tag_547:\n        /* \"#utility.yul\":26485:26676   */\n      swap3\n      swap2\n      pop\n      pop\n      jump\t// out\n        /* \"#utility.yul\":26682:26862   */\n    tag_193:\n        /* \"#utility.yul\":26730:26807   */\n      0x4e487b7100000000000000000000000000000000000000000000000000000000\n        /* \"#utility.yul\":26727:26728   */\n      0x00\n        /* \"#utility.yul\":26720:26808   */\n      mstore\n        /* \"#utility.yul\":26827:26831   */\n      0x31\n        /* \"#utility.yul\":26824:26825   */\n      0x04\n        /* \"#utility.yul\":26817:26832   */\n      mstore\n        /* \"#utility.yul\":26851:26855   */\n      0x24\n        /* \"#utility.yul\":26848:26849   */\n      0x00\n        /* \"#utility.yul\":26841:26856   */\n      revert\n        /* \"#utility.yul\":26868:27310   */\n    tag_196:\n        /* \"#utility.yul\":27017:27021   */\n      0x00\n        /* \"#utility.yul\":27055:27057   */\n      0x60\n        /* \"#utility.yul\":27044:27053   */\n      dup3\n        /* \"#utility.yul\":27040:27058   */\n      add\n        /* \"#utility.yul\":27032:27058   */\n      swap1\n      pop\n        /* \"#utility.yul\":27068:27139   */\n      tag_551\n        /* \"#utility.yul\":27136:27137   */\n      0x00\n        /* \"#utility.yul\":27125:27134   */\n      dup4\n        /* \"#utility.yul\":27121:27138   */\n      add\n        /* \"#utility.yul\":27112:27118   */\n      dup7\n        /* \"#utility.yul\":27068:27139   */\n      tag_245\n      jump\t// in\n    tag_551:\n        /* \"#utility.yul\":27149:27221   */\n      tag_552\n        /* \"#utility.yul\":27217:27219   */\n      0x20\n        /* \"#utility.yul\":27206:27215   */\n      dup4\n        /* \"#utility.yul\":27202:27220   */\n      add\n        /* \"#utility.yul\":27193:27199   */\n      dup6\n        /* \"#utility.yul\":27149:27221   */\n      tag_245\n      jump\t// in\n    tag_552:\n        /* \"#utility.yul\":27231:27303   */\n      tag_553\n        /* \"#utility.yul\":27299:27301   */\n      0x40\n        /* \"#utility.yul\":27288:27297   */\n      dup4\n        /* \"#utility.yul\":27284:27302   */\n      add\n        /* \"#utility.yul\":27275:27281   */\n      dup5\n        /* \"#utility.yul\":27231:27303   */\n      tag_214\n      jump\t// in\n    tag_553:\n        /* \"#utility.yul\":26868:27310   */\n      swap5\n      swap4\n      pop\n      pop\n      pop\n      pop\n      jump\t// out\n        /* \"#utility.yul\":27316:27648   */\n    tag_198:\n        /* \"#utility.yul\":27437:27441   */\n      0x00\n        /* \"#utility.yul\":27475:27477   */\n      0x40\n        /* \"#utility.yul\":27464:27473   */\n      dup3\n        /* \"#utility.yul\":27460:27478   */\n      add\n        /* \"#utility.yul\":27452:27478   */\n      swap1\n      pop\n        /* \"#utility.yul\":27488:27559   */\n      tag_555\n        /* \"#utility.yul\":27556:27557   */\n      0x00\n        /* \"#utility.yul\":27545:27554   */\n      dup4\n        /* \"#utility.yul\":27541:27558   */\n      add\n        /* \"#utility.yul\":27532:27538   */\n      dup6\n        /* \"#utility.yul\":27488:27559   */\n      tag_245\n      jump\t// in\n    tag_555:\n        /* \"#utility.yul\":27569:27641   */\n      tag_556\n        /* \"#utility.yul\":27637:27639   */\n      0x20\n        /* \"#utility.yul\":27626:27635   */\n      dup4\n        /* \"#utility.yul\":27622:27640   */\n      add\n        /* \"#utility.yul\":27613:27619   */\n      dup5\n        /* \"#utility.yul\":27569:27641   */\n      tag_244\n      jump\t// in\n    tag_556:\n        /* \"#utility.yul\":27316:27648   */\n      swap4\n      swap3\n      pop\n      pop\n      pop\n      jump\t// out\n\n    auxdata: 0xa26469706673582212203592dc38a9964f6fba7c512d5b385b96ac303e1c8937c2b2d2d8490f19e5d7e364736f6c634300081a0033\n}\n",
				"bytecode": {
					"linkReferences": {},
					"object": "608060405266038d7ea4c680006002556101e0600355348015601f575f80fd5b50612ad98061002d5f395ff3fe608060405260043610610085575f3560e01c8063ba829d7111610058578063ba829d7114610121578063bed34bba1461014b578063c7a1865b14610187578063e2eb41ff146101a3578063e71a0706146101e457610085565b8063375b3c0a146100895780633ccfd60b146100b35780635ba1b2c7146100bd578063943e0a04146100e5575b5f80fd5b348015610094575f80fd5b5061009d610220565b6040516100aa9190611c2b565b60405180910390f35b6100bb610226565b005b3480156100c8575f80fd5b506100e360048036038101906100de9190611cb6565b610c1a565b005b3480156100f0575f80fd5b5061010b60048036038101906101069190611e6c565b611056565b6040516101189190611efc565b60405180910390f35b34801561012c575f80fd5b5061013561135d565b6040516101429190611c2b565b60405180910390f35b348015610156575f80fd5b50610171600480360381019061016c9190611e6c565b611363565b60405161017e9190611efc565b60405180910390f35b6101a1600480360381019061019c9190611f48565b6113bb565b005b3480156101ae575f80fd5b506101c960048036038101906101c49190611fcd565b611a97565b6040516101db96959493929190612076565b60405180910390f35b3480156101ef575f80fd5b5061020a60048036038101906102059190612106565b611b80565b6040516102179190612131565b60405180910390f35b60025481565b5f803373ffffffffffffffffffffffffffffffffffffffff1673ffffffffffffffffffffffffffffffffffffffff1681526020019081526020015f206002015f9054906101000a900460ff166102b1576040517f08c379a00000000000000000000000000000000000000000000000000000000081526004016102a8906121ba565b60405180910390fd5b5f803373ffffffffffffffffffffffffffffffffffffffff1673ffffffffffffffffffffffffffffffffffffffff1681526020019081526020015f2060040154421015806103a657505f80805f3373ffffffffffffffffffffffffffffffffffffffff1673ffffffffffffffffffffffffffffffffffffffff1681526020019081526020015f2060020160019054906101000a900473ffffffffffffffffffffffffffffffffffffffff1673ffffffffffffffffffffffffffffffffffffffff1673ffffffffffffffffffffffffffffffffffffffff1681526020019081526020015f206002015f9054906101000a900460ff165b6103e5576040517f08c379a00000000000000000000000000000000000000000000000000000000081526004016103dc90612248565b60405180910390fd5b5f805f3373ffffffffffffffffffffffffffffffffffffffff1673ffffffffffffffffffffffffffffffffffffffff1681526020019081526020015f2060020160019054906101000a900473ffffffffffffffffffffffffffffffffffffffff1690505f805f3373ffffffffffffffffffffffffffffffffffffffff1673ffffffffffffffffffffffffffffffffffffffff1681526020019081526020015f205f01805461049290612293565b80601f01602080910402602001604051908101604052809291908181526020018280546104be90612293565b80156105095780601f106104e057610100808354040283529160200191610509565b820191905f5260205f20905b8154815290600101906020018083116104ec57829003601f168201915b505050505090505f805f8473ffffffffffffffffffffffffffffffffffffffff1673ffffffffffffffffffffffffffffffffffffffff1681526020019081526020015f205f01805461055a90612293565b80601f016020809104026020016040519081016040528092919081815260200182805461058690612293565b80156105d15780601f106105a8576101008083540402835291602001916105d1565b820191905f5260205f20905b8154815290600101906020018083116105b457829003601f168201915b505050505090506105e28282611056565b8061068157505f803373ffffffffffffffffffffffffffffffffffffffff1673ffffffffffffffffffffffffffffffffffffffff1681526020019081526020015f2060040154421015801561068057505f808473ffffffffffffffffffffffffffffffffffffffff1673ffffffffffffffffffffffffffffffffffffffff1681526020019081526020015f206002015f9054906101000a900460ff16155b5b156108d6573373ffffffffffffffffffffffffffffffffffffffff166108fc60025f803373ffffffffffffffffffffffffffffffffffffffff1673ffffffffffffffffffffffffffffffffffffffff1681526020019081526020015f20600301546106ec91906122f0565b90811502906040515f60405180830381858888f19350505050158015610714573d5f803e3d5ffd5b505f803373ffffffffffffffffffffffffffffffffffffffff1673ffffffffffffffffffffffffffffffffffffffff1681526020019081526020015f205f8082015f6107609190611bbb565b600182015f9055600282015f6101000a81549060ff02191690556002820160016101000a81549073ffffffffffffffffffffffffffffffffffffffff0219169055600382015f9055600482015f905550505f808473ffffffffffffffffffffffffffffffffffffffff1673ffffffffffffffffffffffffffffffffffffffff1681526020019081526020015f205f8082015f6107fc9190611bbb565b600182015f9055600282015f6101000a81549060ff02191690556002820160016101000a81549073ffffffffffffffffffffffffffffffffffffffff0219169055600382015f9055600482015f905550507f884edad9ce6fa2440d8a54cc123490eb96d2768479d49ff9c7366125a94243643360025f803373ffffffffffffffffffffffffffffffffffffffff1673ffffffffffffffffffffffffffffffffffffffff1681526020019081526020015f20600301546108bb91906122f0565b6040516108c9929190612331565b60405180910390a1610c15565b6108e08282611363565b15610c14573373ffffffffffffffffffffffffffffffffffffffff166108fc5f803373ffffffffffffffffffffffffffffffffffffffff1673ffffffffffffffffffffffffffffffffffffffff1681526020019081526020015f206003015490811502906040515f60405180830381858888f19350505050158015610967573d5f803e3d5ffd5b508273ffffffffffffffffffffffffffffffffffffffff166108fc5f803373ffffffffffffffffffffffffffffffffffffffff1673ffffffffffffffffffffffffffffffffffffffff1681526020019081526020015f206003015490811502906040515f60405180830381858888f193505050501580156109ea573d5f803e3d5ffd5b505f803373ffffffffffffffffffffffffffffffffffffffff1673ffffffffffffffffffffffffffffffffffffffff1681526020019081526020015f205f8082015f610a369190611bbb565b600182015f9055600282015f6101000a81549060ff02191690556002820160016101000a81549073ffffffffffffffffffffffffffffffffffffffff0219169055600382015f9055600482015f905550505f808473ffffffffffffffffffffffffffffffffffffffff1673ffffffffffffffffffffffffffffffffffffffff1681526020019081526020015f205f8082015f610ad29190611bbb565b600182015f9055600282015f6101000a81549060ff02191690556002820160016101000a81549073ffffffffffffffffffffffffffffffffffffffff0219169055600382015f9055600482015f905550507f884edad9ce6fa2440d8a54cc123490eb96d2768479d49ff9c7366125a9424364335f803373ffffffffffffffffffffffffffffffffffffffff1673ffffffffffffffffffffffffffffffffffffffff1681526020019081526020015f2060030154604051610b93929190612331565b60405180910390a17f884edad9ce6fa2440d8a54cc123490eb96d2768479d49ff9c7366125a9424364835f803373ffffffffffffffffffffffffffffffffffffffff1673ffffffffffffffffffffffffffffffffffffffff1681526020019081526020015f2060030154604051610c0b929190612331565b60405180910390a15b5b505050565b5f73ffffffffffffffffffffffffffffffffffffffff165f803373ffffffffffffffffffffffffffffffffffffffff1673ffffffffffffffffffffffffffffffffffffffff1681526020019081526020015f2060020160019054906101000a900473ffffffffffffffffffffffffffffffffffffffff1673ffffffffffffffffffffffffffffffffffffffff1603610ce7576040517f08c379a0000000000000000000000000000000000000000000000000000000008152600401610cde906123a2565b60405180910390fd5b83838080601f0160208091040260200160405190810160405280939291908181526020018383808284375f81840152601f19601f8201169050808301925050505050505082828080601f0160208091040260200160405190810160405280939291908181526020018383808284375f81840152601f19601f820116905080830192505050505050505f8282604051602001610d839291906123fa565b604051602081830303815290604052805190602001209050805f803373ffffffffffffffffffffffffffffffffffffffff1673ffffffffffffffffffffffffffffffffffffffff1681526020019081526020015f206001015414610e1c576040517f08c379a0000000000000000000000000000000000000000000000000000000008152600401610e1390612467565b60405180910390fd5b5f87878080601f0160208091040260200160405190810160405280939291908181526020018383808284375f81840152601f19601f820116905080830192505050505050509050606160f81b815f81518110610e7b57610e7a612485565b5b602001015160f81c60f81b7effffffffffffffffffffffffffffffffffffffffffffffffffffffffffffff191610158015610ef95750607a60f81b815f81518110610ec957610ec8612485565b5b602001015160f81c60f81b7effffffffffffffffffffffffffffffffffffffffffffffffffffffffffffff191611155b15610f70576020815f81518110610f1357610f12612485565b5b602001015160f81c60f81b60f81c610f2b91906124be565b60f81b815f81518110610f4157610f40612485565b5b60200101907effffffffffffffffffffffffffffffffffffffffffffffffffffffffffffff191690815f1a9053505b60015f803373ffffffffffffffffffffffffffffffffffffffff1673ffffffffffffffffffffffffffffffffffffffff1681526020019081526020015f206002015f6101000a81548160ff021916908315150217905550805f803373ffffffffffffffffffffffffffffffffffffffff1673ffffffffffffffffffffffffffffffffffffffff1681526020019081526020015f205f019081611012919061268f565b507f4abf1a182c97c99cbf9798006458c948c47df72ed150ba8a3c04389c3ef93776338260405161104492919061275e565b60405180910390a15050505050505050565b5f82611097816040518060400160405280600181526020017f5200000000000000000000000000000000000000000000000000000000000000815250611363565b806110dd57506110dc816040518060400160405280600181526020017f5000000000000000000000000000000000000000000000000000000000000000815250611363565b5b806111235750611122816040518060400160405280600181526020017f5300000000000000000000000000000000000000000000000000000000000000815250611363565b5b611162576040517f08c379a0000000000000000000000000000000000000000000000000000000008152600401611159906127fc565b60405180910390fd5b61116c8484611363565b8061118b575061118a8360405180602001604052805f815250611363565b5b15611198575f9150611356565b6111d7846040518060400160405280600181526020017f5200000000000000000000000000000000000000000000000000000000000000815250611363565b801561121e575061121d836040518060400160405280600181526020017f5000000000000000000000000000000000000000000000000000000000000000815250611363565b5b1561122b575f9150611356565b61126a846040518060400160405280600181526020017f5000000000000000000000000000000000000000000000000000000000000000815250611363565b80156112b157506112b0836040518060400160405280600181526020017f5300000000000000000000000000000000000000000000000000000000000000815250611363565b5b156112be575f9150611356565b6112fd846040518060400160405280600181526020017f5300000000000000000000000000000000000000000000000000000000000000815250611363565b80156113445750611343836040518060400160405280600181526020017f5200000000000000000000000000000000000000000000000000000000000000815250611363565b5b15611351575f9150611356565b600191505b5092915050565b60035481565b5f81604051602001611375919061281a565b604051602081830303815290604052805190602001208360405160200161139c919061281a565b6040516020818303038152906040528051906020012014905092915050565b5f805f3373ffffffffffffffffffffffffffffffffffffffff1673ffffffffffffffffffffffffffffffffffffffff1681526020019081526020015f20600301541461143c576040517f08c379a00000000000000000000000000000000000000000000000000000000081526004016114339061287a565b60405180910390fd5b60025480341015611482576040517f08c379a000000000000000000000000000000000000000000000000000000000815260040161147990612908565b60405180910390fd5b6040518060c0016040528060405180602001604052805f81525081526020018381526020015f151581526020015f73ffffffffffffffffffffffffffffffffffffffff1681526020015f81526020015f8152505f803373ffffffffffffffffffffffffffffffffffffffff1673ffffffffffffffffffffffffffffffffffffffff1681526020019081526020015f205f820151815f019081611524919061268f565b50602082015181600101556040820151816002015f6101000a81548160ff02191690831515021790555060608201518160020160016101000a81548173ffffffffffffffffffffffffffffffffffffffff021916908373ffffffffffffffffffffffffffffffffffffffff1602179055506080820151816003015560a082015181600401559050505f60018054905090505f810361166557600133908060018154018082558091505060019003905f5260205f20015f9091909190916101000a81548173ffffffffffffffffffffffffffffffffffffffff021916908373ffffffffffffffffffffffffffffffffffffffff160217905550345f803373ffffffffffffffffffffffffffffffffffffffff1673ffffffffffffffffffffffffffffffffffffffff1681526020019081526020015f2060030181905550611a59565b5f600180836116749190612926565b8154811061168557611684612485565b5b905f5260205f20015f9054906101000a900473ffffffffffffffffffffffffffffffffffffffff1690505f808273ffffffffffffffffffffffffffffffffffffffff1673ffffffffffffffffffffffffffffffffffffffff1681526020019081526020015f2060030154341015611731576040517f08c379a0000000000000000000000000000000000000000000000000000000008152600401611728906129c9565b60405180910390fd5b5f808273ffffffffffffffffffffffffffffffffffffffff1673ffffffffffffffffffffffffffffffffffffffff1681526020019081526020015f20600301545f803373ffffffffffffffffffffffffffffffffffffffff1673ffffffffffffffffffffffffffffffffffffffff1681526020019081526020015f20600301819055503373ffffffffffffffffffffffffffffffffffffffff166108fc5f808473ffffffffffffffffffffffffffffffffffffffff1673ffffffffffffffffffffffffffffffffffffffff1681526020019081526020015f2060030154346118199190612926565b90811502906040515f60405180830381858888f19350505050158015611841573d5f803e3d5ffd5b50805f803373ffffffffffffffffffffffffffffffffffffffff1673ffffffffffffffffffffffffffffffffffffffff1681526020019081526020015f2060020160016101000a81548173ffffffffffffffffffffffffffffffffffffffff021916908373ffffffffffffffffffffffffffffffffffffffff160217905550335f808373ffffffffffffffffffffffffffffffffffffffff1673ffffffffffffffffffffffffffffffffffffffff1681526020019081526020015f2060020160016101000a81548173ffffffffffffffffffffffffffffffffffffffff021916908373ffffffffffffffffffffffffffffffffffffffff1602179055505f6003544261194d91906129e7565b9050805f803373ffffffffffffffffffffffffffffffffffffffff1673ffffffffffffffffffffffffffffffffffffffff1681526020019081526020015f2060040181905550805f808473ffffffffffffffffffffffffffffffffffffffff1673ffffffffffffffffffffffffffffffffffffffff1681526020019081526020015f206004018190555060018054806119e9576119e8612a1a565b5b600190038181905f5260205f20015f6101000a81549073ffffffffffffffffffffffffffffffffffffffff021916905590557ff7750bebc6a1d050dec98239cfc17dbb80b7469bdbf2a73da0c8023a4f46f772823383604051611a4e93929190612a47565b60405180910390a150505b7f673312c85cba8b334416b1c6e845170bbdff704baf138f1866ab5e8bf34407763384604051611a8a929190612a7c565b60405180910390a1505050565b5f602052805f5260405f205f91509050805f018054611ab590612293565b80601f0160208091040260200160405190810160405280929190818152602001828054611ae190612293565b8015611b2c5780601f10611b0357610100808354040283529160200191611b2c565b820191905f5260205f20905b815481529060010190602001808311611b0f57829003601f168201915b505050505090806001015490806002015f9054906101000a900460ff16908060020160019054906101000a900473ffffffffffffffffffffffffffffffffffffffff16908060030154908060040154905086565b60018181548110611b8f575f80fd5b905f5260205f20015f915054906101000a900473ffffffffffffffffffffffffffffffffffffffff1681565b508054611bc790612293565b5f825580601f10611bd85750611bf5565b601f0160209004905f5260205f2090810190611bf49190611bf8565b5b50565b5b80821115611c0f575f815f905550600101611bf9565b5090565b5f819050919050565b611c2581611c13565b82525050565b5f602082019050611c3e5f830184611c1c565b92915050565b5f604051905090565b5f80fd5b5f80fd5b5f80fd5b5f80fd5b5f80fd5b5f8083601f840112611c7657611c75611c55565b5b8235905067ffffffffffffffff811115611c9357611c92611c59565b5b602083019150836001820283011115611caf57611cae611c5d565b5b9250929050565b5f805f8060408587031215611cce57611ccd611c4d565b5b5f85013567ffffffffffffffff811115611ceb57611cea611c51565b5b611cf787828801611c61565b9450945050602085013567ffffffffffffffff811115611d1a57611d19611c51565b5b611d2687828801611c61565b925092505092959194509250565b5f80fd5b5f601f19601f8301169050919050565b7f4e487b71000000000000000000000000000000000000000000000000000000005f52604160045260245ffd5b611d7e82611d38565b810181811067ffffffffffffffff82111715611d9d57611d9c611d48565b5b80604052505050565b5f611daf611c44565b9050611dbb8282611d75565b919050565b5f67ffffffffffffffff821115611dda57611dd9611d48565b5b611de382611d38565b9050602081019050919050565b828183375f83830152505050565b5f611e10611e0b84611dc0565b611da6565b905082815260208101848484011115611e2c57611e2b611d34565b5b611e37848285611df0565b509392505050565b5f82601f830112611e5357611e52611c55565b5b8135611e63848260208601611dfe565b91505092915050565b5f8060408385031215611e8257611e81611c4d565b5b5f83013567ffffffffffffffff811115611e9f57611e9e611c51565b5b611eab85828601611e3f565b925050602083013567ffffffffffffffff811115611ecc57611ecb611c51565b5b611ed885828601611e3f565b9150509250929050565b5f8115159050919050565b611ef681611ee2565b82525050565b5f602082019050611f0f5f830184611eed565b92915050565b5f819050919050565b611f2781611f15565b8114611f31575f80fd5b50565b5f81359050611f4281611f1e565b92915050565b5f60208284031215611f5d57611f5c611c4d565b5b5f611f6a84828501611f34565b91505092915050565b5f73ffffffffffffffffffffffffffffffffffffffff82169050919050565b5f611f9c82611f73565b9050919050565b611fac81611f92565b8114611fb6575f80fd5b50565b5f81359050611fc781611fa3565b92915050565b5f60208284031215611fe257611fe1611c4d565b5b5f611fef84828501611fb9565b91505092915050565b5f81519050919050565b5f82825260208201905092915050565b8281835e5f83830152505050565b5f61202a82611ff8565b6120348185612002565b9350612044818560208601612012565b61204d81611d38565b840191505092915050565b61206181611f15565b82525050565b61207081611f92565b82525050565b5f60c0820190508181035f83015261208e8189612020565b905061209d6020830188612058565b6120aa6040830187611eed565b6120b76060830186612067565b6120c46080830185611c1c565b6120d160a0830184611c1c565b979650505050505050565b6120e581611c13565b81146120ef575f80fd5b50565b5f81359050612100816120dc565b92915050565b5f6020828403121561211b5761211a611c4d565b5b5f612128848285016120f2565b91505092915050565b5f6020820190506121445f830184612067565b92915050565b7f596f75206d7573742072657665616c20796f757220766f7465206265666f72655f8201527f207769746864726177616c000000000000000000000000000000000000000000602082015250565b5f6121a4602b83612002565b91506121af8261214a565b604082019050919050565b5f6020820190508181035f8301526121d181612198565b9050919050565b7f57616974696e6720666f72206f70706f6e656e7420746f2072657665616c206f5f8201527f7220646561646c696e6500000000000000000000000000000000000000000000602082015250565b5f612232602a83612002565b915061223d826121d8565b604082019050919050565b5f6020820190508181035f83015261225f81612226565b9050919050565b7f4e487b71000000000000000000000000000000000000000000000000000000005f52602260045260245ffd5b5f60028204905060018216806122aa57607f821691505b6020821081036122bd576122bc612266565b5b50919050565b7f4e487b71000000000000000000000000000000000000000000000000000000005f52601160045260245ffd5b5f6122fa82611c13565b915061230583611c13565b925082820261231381611c13565b9150828204841483151761232a576123296122c3565b5b5092915050565b5f6040820190506123445f830185612067565b6123516020830184611c1c565b9392505050565b7f57616974696e6720666f7220616e206f70706f6e656e740000000000000000005f82015250565b5f61238c601783612002565b915061239782612358565b602082019050919050565b5f6020820190508181035f8301526123b981612380565b9050919050565b5f81905092915050565b5f6123d482611ff8565b6123de81856123c0565b93506123ee818560208601612012565b80840191505092915050565b5f61240582856123ca565b915061241182846123ca565b91508190509392505050565b7f4e6f7420612076616c696420766f7465000000000000000000000000000000005f82015250565b5f612451601083612002565b915061245c8261241d565b602082019050919050565b5f6020820190508181035f83015261247e81612445565b9050919050565b7f4e487b71000000000000000000000000000000000000000000000000000000005f52603260045260245ffd5b5f60ff82169050919050565b5f6124c8826124b2565b91506124d3836124b2565b9250828203905060ff8111156124ec576124eb6122c3565b5b92915050565b5f819050815f5260205f209050919050565b5f6020601f8301049050919050565b5f82821b905092915050565b5f6008830261254e7fffffffffffffffffffffffffffffffffffffffffffffffffffffffffffffffff82612513565b6125588683612513565b95508019841693508086168417925050509392505050565b5f819050919050565b5f61259361258e61258984611c13565b612570565b611c13565b9050919050565b5f819050919050565b6125ac83612579565b6125c06125b88261259a565b84845461251f565b825550505050565b5f90565b6125d46125c8565b6125df8184846125a3565b505050565b5b81811015612602576125f75f826125cc565b6001810190506125e5565b5050565b601f82111561264757612618816124f2565b61262184612504565b81016020851015612630578190505b61264461263c85612504565b8301826125e4565b50505b505050565b5f82821c905092915050565b5f6126675f198460080261264c565b1980831691505092915050565b5f61267f8383612658565b9150826002028217905092915050565b61269882611ff8565b67ffffffffffffffff8111156126b1576126b0611d48565b5b6126bb8254612293565b6126c6828285612606565b5f60209050601f8311600181146126f7575f84156126e5578287015190505b6126ef8582612674565b865550612756565b601f198416612705866124f2565b5f5b8281101561272c57848901518255600182019150602085019450602081019050612707565b868310156127495784890151612745601f891682612658565b8355505b6001600288020188555050505b505050505050565b5f6040820190506127715f830185612067565b81810360208301526127838184612020565b90509392505050565b7f596f7520646964206e6f742063686f6f736520726f636b2c207061706572206f5f8201527f722073636973736f727300000000000000000000000000000000000000000000602082015250565b5f6127e6602a83612002565b91506127f18261278c565b604082019050919050565b5f6020820190508181035f830152612813816127da565b9050919050565b5f61282582846123ca565b915081905092915050565b7f596f752061726520616c726561647920706c6179696e670000000000000000005f82015250565b5f612864601783612002565b915061286f82612830565b602082019050919050565b5f6020820190508181035f83015261289181612858565b9050919050565b7f546865207374616b65206d757374206265206d6f7265207468616e20302c30305f8201527f3031204574686572000000000000000000000000000000000000000000000000602082015250565b5f6128f2602883612002565b91506128fd82612898565b604082019050919050565b5f6020820190508181035f83015261291f816128e6565b9050919050565b5f61293082611c13565b915061293b83611c13565b9250828203905081811115612953576129526122c3565b5b92915050565b7f596f75206e65656420746f206d6174636820746865206f70706f6e656e7473205f8201527f7374616b65000000000000000000000000000000000000000000000000000000602082015250565b5f6129b3602583612002565b91506129be82612959565b604082019050919050565b5f6020820190508181035f8301526129e0816129a7565b9050919050565b5f6129f182611c13565b91506129fc83611c13565b9250828201905080821115612a1457612a136122c3565b5b92915050565b7f4e487b71000000000000000000000000000000000000000000000000000000005f52603160045260245ffd5b5f606082019050612a5a5f830186612067565b612a676020830185612067565b612a746040830184611c1c565b949350505050565b5f604082019050612a8f5f830185612067565b612a9c6020830184612058565b939250505056fea26469706673582212203592dc38a9964f6fba7c512d5b385b96ac303e1c8937c2b2d2d8490f19e5d7e364736f6c634300081a0033",
					"opcodes": "PUSH1 0x80 PUSH1 0x40 MSTORE PUSH7 0x38D7EA4C68000 PUSH1 0x2 SSTORE PUSH2 0x1E0 PUSH1 0x3 SSTORE CALLVALUE DUP1 ISZERO PUSH1 0x1F JUMPI PUSH0 DUP1 REVERT JUMPDEST POP PUSH2 0x2AD9 DUP1 PUSH2 0x2D PUSH0 CODECOPY PUSH0 RETURN INVALID PUSH1 0x80 PUSH1 0x40 MSTORE PUSH1 0x4 CALLDATASIZE LT PUSH2 0x85 JUMPI PUSH0 CALLDATALOAD PUSH1 0xE0 SHR DUP1 PUSH4 0xBA829D71 GT PUSH2 0x58 JUMPI DUP1 PUSH4 0xBA829D71 EQ PUSH2 0x121 JUMPI DUP1 PUSH4 0xBED34BBA EQ PUSH2 0x14B JUMPI DUP1 PUSH4 0xC7A1865B EQ PUSH2 0x187 JUMPI DUP1 PUSH4 0xE2EB41FF EQ PUSH2 0x1A3 JUMPI DUP1 PUSH4 0xE71A0706 EQ PUSH2 0x1E4 JUMPI PUSH2 0x85 JUMP JUMPDEST DUP1 PUSH4 0x375B3C0A EQ PUSH2 0x89 JUMPI DUP1 PUSH4 0x3CCFD60B EQ PUSH2 0xB3 JUMPI DUP1 PUSH4 0x5BA1B2C7 EQ PUSH2 0xBD JUMPI DUP1 PUSH4 0x943E0A04 EQ PUSH2 0xE5 JUMPI JUMPDEST PUSH0 DUP1 REVERT JUMPDEST CALLVALUE DUP1 ISZERO PUSH2 0x94 JUMPI PUSH0 DUP1 REVERT JUMPDEST POP PUSH2 0x9D PUSH2 0x220 JUMP JUMPDEST PUSH1 0x40 MLOAD PUSH2 0xAA SWAP2 SWAP1 PUSH2 0x1C2B JUMP JUMPDEST PUSH1 0x40 MLOAD DUP1 SWAP2 SUB SWAP1 RETURN JUMPDEST PUSH2 0xBB PUSH2 0x226 JUMP JUMPDEST STOP JUMPDEST CALLVALUE DUP1 ISZERO PUSH2 0xC8 JUMPI PUSH0 DUP1 REVERT JUMPDEST POP PUSH2 0xE3 PUSH1 0x4 DUP1 CALLDATASIZE SUB DUP2 ADD SWAP1 PUSH2 0xDE SWAP2 SWAP1 PUSH2 0x1CB6 JUMP JUMPDEST PUSH2 0xC1A JUMP JUMPDEST STOP JUMPDEST CALLVALUE DUP1 ISZERO PUSH2 0xF0 JUMPI PUSH0 DUP1 REVERT JUMPDEST POP PUSH2 0x10B PUSH1 0x4 DUP1 CALLDATASIZE SUB DUP2 ADD SWAP1 PUSH2 0x106 SWAP2 SWAP1 PUSH2 0x1E6C JUMP JUMPDEST PUSH2 0x1056 JUMP JUMPDEST PUSH1 0x40 MLOAD PUSH2 0x118 SWAP2 SWAP1 PUSH2 0x1EFC JUMP JUMPDEST PUSH1 0x40 MLOAD DUP1 SWAP2 SUB SWAP1 RETURN JUMPDEST CALLVALUE DUP1 ISZERO PUSH2 0x12C JUMPI PUSH0 DUP1 REVERT JUMPDEST POP PUSH2 0x135 PUSH2 0x135D JUMP JUMPDEST PUSH1 0x40 MLOAD PUSH2 0x142 SWAP2 SWAP1 PUSH2 0x1C2B JUMP JUMPDEST PUSH1 0x40 MLOAD DUP1 SWAP2 SUB SWAP1 RETURN JUMPDEST CALLVALUE DUP1 ISZERO PUSH2 0x156 JUMPI PUSH0 DUP1 REVERT JUMPDEST POP PUSH2 0x171 PUSH1 0x4 DUP1 CALLDATASIZE SUB DUP2 ADD SWAP1 PUSH2 0x16C SWAP2 SWAP1 PUSH2 0x1E6C JUMP JUMPDEST PUSH2 0x1363 JUMP JUMPDEST PUSH1 0x40 MLOAD PUSH2 0x17E SWAP2 SWAP1 PUSH2 0x1EFC JUMP JUMPDEST PUSH1 0x40 MLOAD DUP1 SWAP2 SUB SWAP1 RETURN JUMPDEST PUSH2 0x1A1 PUSH1 0x4 DUP1 CALLDATASIZE SUB DUP2 ADD SWAP1 PUSH2 0x19C SWAP2 SWAP1 PUSH2 0x1F48 JUMP JUMPDEST PUSH2 0x13BB JUMP JUMPDEST STOP JUMPDEST CALLVALUE DUP1 ISZERO PUSH2 0x1AE JUMPI PUSH0 DUP1 REVERT JUMPDEST POP PUSH2 0x1C9 PUSH1 0x4 DUP1 CALLDATASIZE SUB DUP2 ADD SWAP1 PUSH2 0x1C4 SWAP2 SWAP1 PUSH2 0x1FCD JUMP JUMPDEST PUSH2 0x1A97 JUMP JUMPDEST PUSH1 0x40 MLOAD PUSH2 0x1DB SWAP7 SWAP6 SWAP5 SWAP4 SWAP3 SWAP2 SWAP1 PUSH2 0x2076 JUMP JUMPDEST PUSH1 0x40 MLOAD DUP1 SWAP2 SUB SWAP1 RETURN JUMPDEST CALLVALUE DUP1 ISZERO PUSH2 0x1EF JUMPI PUSH0 DUP1 REVERT JUMPDEST POP PUSH2 0x20A PUSH1 0x4 DUP1 CALLDATASIZE SUB DUP2 ADD SWAP1 PUSH2 0x205 SWAP2 SWAP1 PUSH2 0x2106 JUMP JUMPDEST PUSH2 0x1B80 JUMP JUMPDEST PUSH1 0x40 MLOAD PUSH2 0x217 SWAP2 SWAP1 PUSH2 0x2131 JUMP JUMPDEST PUSH1 0x40 MLOAD DUP1 SWAP2 SUB SWAP1 RETURN JUMPDEST PUSH1 0x2 SLOAD DUP2 JUMP JUMPDEST PUSH0 DUP1 CALLER PUSH20 0xFFFFFFFFFFFFFFFFFFFFFFFFFFFFFFFFFFFFFFFF AND PUSH20 0xFFFFFFFFFFFFFFFFFFFFFFFFFFFFFFFFFFFFFFFF AND DUP2 MSTORE PUSH1 0x20 ADD SWAP1 DUP2 MSTORE PUSH1 0x20 ADD PUSH0 KECCAK256 PUSH1 0x2 ADD PUSH0 SWAP1 SLOAD SWAP1 PUSH2 0x100 EXP SWAP1 DIV PUSH1 0xFF AND PUSH2 0x2B1 JUMPI PUSH1 0x40 MLOAD PUSH32 0x8C379A000000000000000000000000000000000000000000000000000000000 DUP2 MSTORE PUSH1 0x4 ADD PUSH2 0x2A8 SWAP1 PUSH2 0x21BA JUMP JUMPDEST PUSH1 0x40 MLOAD DUP1 SWAP2 SUB SWAP1 REVERT JUMPDEST PUSH0 DUP1 CALLER PUSH20 0xFFFFFFFFFFFFFFFFFFFFFFFFFFFFFFFFFFFFFFFF AND PUSH20 0xFFFFFFFFFFFFFFFFFFFFFFFFFFFFFFFFFFFFFFFF AND DUP2 MSTORE PUSH1 0x20 ADD SWAP1 DUP2 MSTORE PUSH1 0x20 ADD PUSH0 KECCAK256 PUSH1 0x4 ADD SLOAD TIMESTAMP LT ISZERO DUP1 PUSH2 0x3A6 JUMPI POP PUSH0 DUP1 DUP1 PUSH0 CALLER PUSH20 0xFFFFFFFFFFFFFFFFFFFFFFFFFFFFFFFFFFFFFFFF AND PUSH20 0xFFFFFFFFFFFFFFFFFFFFFFFFFFFFFFFFFFFFFFFF AND DUP2 MSTORE PUSH1 0x20 ADD SWAP1 DUP2 MSTORE PUSH1 0x20 ADD PUSH0 KECCAK256 PUSH1 0x2 ADD PUSH1 0x1 SWAP1 SLOAD SWAP1 PUSH2 0x100 EXP SWAP1 DIV PUSH20 0xFFFFFFFFFFFFFFFFFFFFFFFFFFFFFFFFFFFFFFFF AND PUSH20 0xFFFFFFFFFFFFFFFFFFFFFFFFFFFFFFFFFFFFFFFF AND PUSH20 0xFFFFFFFFFFFFFFFFFFFFFFFFFFFFFFFFFFFFFFFF AND DUP2 MSTORE PUSH1 0x20 ADD SWAP1 DUP2 MSTORE PUSH1 0x20 ADD PUSH0 KECCAK256 PUSH1 0x2 ADD PUSH0 SWAP1 SLOAD SWAP1 PUSH2 0x100 EXP SWAP1 DIV PUSH1 0xFF AND JUMPDEST PUSH2 0x3E5 JUMPI PUSH1 0x40 MLOAD PUSH32 0x8C379A000000000000000000000000000000000000000000000000000000000 DUP2 MSTORE PUSH1 0x4 ADD PUSH2 0x3DC SWAP1 PUSH2 0x2248 JUMP JUMPDEST PUSH1 0x40 MLOAD DUP1 SWAP2 SUB SWAP1 REVERT JUMPDEST PUSH0 DUP1 PUSH0 CALLER PUSH20 0xFFFFFFFFFFFFFFFFFFFFFFFFFFFFFFFFFFFFFFFF AND PUSH20 0xFFFFFFFFFFFFFFFFFFFFFFFFFFFFFFFFFFFFFFFF AND DUP2 MSTORE PUSH1 0x20 ADD SWAP1 DUP2 MSTORE PUSH1 0x20 ADD PUSH0 KECCAK256 PUSH1 0x2 ADD PUSH1 0x1 SWAP1 SLOAD SWAP1 PUSH2 0x100 EXP SWAP1 DIV PUSH20 0xFFFFFFFFFFFFFFFFFFFFFFFFFFFFFFFFFFFFFFFF AND SWAP1 POP PUSH0 DUP1 PUSH0 CALLER PUSH20 0xFFFFFFFFFFFFFFFFFFFFFFFFFFFFFFFFFFFFFFFF AND PUSH20 0xFFFFFFFFFFFFFFFFFFFFFFFFFFFFFFFFFFFFFFFF AND DUP2 MSTORE PUSH1 0x20 ADD SWAP1 DUP2 MSTORE PUSH1 0x20 ADD PUSH0 KECCAK256 PUSH0 ADD DUP1 SLOAD PUSH2 0x492 SWAP1 PUSH2 0x2293 JUMP JUMPDEST DUP1 PUSH1 0x1F ADD PUSH1 0x20 DUP1 SWAP2 DIV MUL PUSH1 0x20 ADD PUSH1 0x40 MLOAD SWAP1 DUP2 ADD PUSH1 0x40 MSTORE DUP1 SWAP3 SWAP2 SWAP1 DUP2 DUP2 MSTORE PUSH1 0x20 ADD DUP3 DUP1 SLOAD PUSH2 0x4BE SWAP1 PUSH2 0x2293 JUMP JUMPDEST DUP1 ISZERO PUSH2 0x509 JUMPI DUP1 PUSH1 0x1F LT PUSH2 0x4E0 JUMPI PUSH2 0x100 DUP1 DUP4 SLOAD DIV MUL DUP4 MSTORE SWAP2 PUSH1 0x20 ADD SWAP2 PUSH2 0x509 JUMP JUMPDEST DUP3 ADD SWAP2 SWAP1 PUSH0 MSTORE PUSH1 0x20 PUSH0 KECCAK256 SWAP1 JUMPDEST DUP2 SLOAD DUP2 MSTORE SWAP1 PUSH1 0x1 ADD SWAP1 PUSH1 0x20 ADD DUP1 DUP4 GT PUSH2 0x4EC JUMPI DUP3 SWAP1 SUB PUSH1 0x1F AND DUP3 ADD SWAP2 JUMPDEST POP POP POP POP POP SWAP1 POP PUSH0 DUP1 PUSH0 DUP5 PUSH20 0xFFFFFFFFFFFFFFFFFFFFFFFFFFFFFFFFFFFFFFFF AND PUSH20 0xFFFFFFFFFFFFFFFFFFFFFFFFFFFFFFFFFFFFFFFF AND DUP2 MSTORE PUSH1 0x20 ADD SWAP1 DUP2 MSTORE PUSH1 0x20 ADD PUSH0 KECCAK256 PUSH0 ADD DUP1 SLOAD PUSH2 0x55A SWAP1 PUSH2 0x2293 JUMP JUMPDEST DUP1 PUSH1 0x1F ADD PUSH1 0x20 DUP1 SWAP2 DIV MUL PUSH1 0x20 ADD PUSH1 0x40 MLOAD SWAP1 DUP2 ADD PUSH1 0x40 MSTORE DUP1 SWAP3 SWAP2 SWAP1 DUP2 DUP2 MSTORE PUSH1 0x20 ADD DUP3 DUP1 SLOAD PUSH2 0x586 SWAP1 PUSH2 0x2293 JUMP JUMPDEST DUP1 ISZERO PUSH2 0x5D1 JUMPI DUP1 PUSH1 0x1F LT PUSH2 0x5A8 JUMPI PUSH2 0x100 DUP1 DUP4 SLOAD DIV MUL DUP4 MSTORE SWAP2 PUSH1 0x20 ADD SWAP2 PUSH2 0x5D1 JUMP JUMPDEST DUP3 ADD SWAP2 SWAP1 PUSH0 MSTORE PUSH1 0x20 PUSH0 KECCAK256 SWAP1 JUMPDEST DUP2 SLOAD DUP2 MSTORE SWAP1 PUSH1 0x1 ADD SWAP1 PUSH1 0x20 ADD DUP1 DUP4 GT PUSH2 0x5B4 JUMPI DUP3 SWAP1 SUB PUSH1 0x1F AND DUP3 ADD SWAP2 JUMPDEST POP POP POP POP POP SWAP1 POP PUSH2 0x5E2 DUP3 DUP3 PUSH2 0x1056 JUMP JUMPDEST DUP1 PUSH2 0x681 JUMPI POP PUSH0 DUP1 CALLER PUSH20 0xFFFFFFFFFFFFFFFFFFFFFFFFFFFFFFFFFFFFFFFF AND PUSH20 0xFFFFFFFFFFFFFFFFFFFFFFFFFFFFFFFFFFFFFFFF AND DUP2 MSTORE PUSH1 0x20 ADD SWAP1 DUP2 MSTORE PUSH1 0x20 ADD PUSH0 KECCAK256 PUSH1 0x4 ADD SLOAD TIMESTAMP LT ISZERO DUP1 ISZERO PUSH2 0x680 JUMPI POP PUSH0 DUP1 DUP5 PUSH20 0xFFFFFFFFFFFFFFFFFFFFFFFFFFFFFFFFFFFFFFFF AND PUSH20 0xFFFFFFFFFFFFFFFFFFFFFFFFFFFFFFFFFFFFFFFF AND DUP2 MSTORE PUSH1 0x20 ADD SWAP1 DUP2 MSTORE PUSH1 0x20 ADD PUSH0 KECCAK256 PUSH1 0x2 ADD PUSH0 SWAP1 SLOAD SWAP1 PUSH2 0x100 EXP SWAP1 DIV PUSH1 0xFF AND ISZERO JUMPDEST JUMPDEST ISZERO PUSH2 0x8D6 JUMPI CALLER PUSH20 0xFFFFFFFFFFFFFFFFFFFFFFFFFFFFFFFFFFFFFFFF AND PUSH2 0x8FC PUSH1 0x2 PUSH0 DUP1 CALLER PUSH20 0xFFFFFFFFFFFFFFFFFFFFFFFFFFFFFFFFFFFFFFFF AND PUSH20 0xFFFFFFFFFFFFFFFFFFFFFFFFFFFFFFFFFFFFFFFF AND DUP2 MSTORE PUSH1 0x20 ADD SWAP1 DUP2 MSTORE PUSH1 0x20 ADD PUSH0 KECCAK256 PUSH1 0x3 ADD SLOAD PUSH2 0x6EC SWAP2 SWAP1 PUSH2 0x22F0 JUMP JUMPDEST SWAP1 DUP2 ISZERO MUL SWAP1 PUSH1 0x40 MLOAD PUSH0 PUSH1 0x40 MLOAD DUP1 DUP4 SUB DUP2 DUP6 DUP9 DUP9 CALL SWAP4 POP POP POP POP ISZERO DUP1 ISZERO PUSH2 0x714 JUMPI RETURNDATASIZE PUSH0 DUP1 RETURNDATACOPY RETURNDATASIZE PUSH0 REVERT JUMPDEST POP PUSH0 DUP1 CALLER PUSH20 0xFFFFFFFFFFFFFFFFFFFFFFFFFFFFFFFFFFFFFFFF AND PUSH20 0xFFFFFFFFFFFFFFFFFFFFFFFFFFFFFFFFFFFFFFFF AND DUP2 MSTORE PUSH1 0x20 ADD SWAP1 DUP2 MSTORE PUSH1 0x20 ADD PUSH0 KECCAK256 PUSH0 DUP1 DUP3 ADD PUSH0 PUSH2 0x760 SWAP2 SWAP1 PUSH2 0x1BBB JUMP JUMPDEST PUSH1 0x1 DUP3 ADD PUSH0 SWAP1 SSTORE PUSH1 0x2 DUP3 ADD PUSH0 PUSH2 0x100 EXP DUP2 SLOAD SWAP1 PUSH1 0xFF MUL NOT AND SWAP1 SSTORE PUSH1 0x2 DUP3 ADD PUSH1 0x1 PUSH2 0x100 EXP DUP2 SLOAD SWAP1 PUSH20 0xFFFFFFFFFFFFFFFFFFFFFFFFFFFFFFFFFFFFFFFF MUL NOT AND SWAP1 SSTORE PUSH1 0x3 DUP3 ADD PUSH0 SWAP1 SSTORE PUSH1 0x4 DUP3 ADD PUSH0 SWAP1 SSTORE POP POP PUSH0 DUP1 DUP5 PUSH20 0xFFFFFFFFFFFFFFFFFFFFFFFFFFFFFFFFFFFFFFFF AND PUSH20 0xFFFFFFFFFFFFFFFFFFFFFFFFFFFFFFFFFFFFFFFF AND DUP2 MSTORE PUSH1 0x20 ADD SWAP1 DUP2 MSTORE PUSH1 0x20 ADD PUSH0 KECCAK256 PUSH0 DUP1 DUP3 ADD PUSH0 PUSH2 0x7FC SWAP2 SWAP1 PUSH2 0x1BBB JUMP JUMPDEST PUSH1 0x1 DUP3 ADD PUSH0 SWAP1 SSTORE PUSH1 0x2 DUP3 ADD PUSH0 PUSH2 0x100 EXP DUP2 SLOAD SWAP1 PUSH1 0xFF MUL NOT AND SWAP1 SSTORE PUSH1 0x2 DUP3 ADD PUSH1 0x1 PUSH2 0x100 EXP DUP2 SLOAD SWAP1 PUSH20 0xFFFFFFFFFFFFFFFFFFFFFFFFFFFFFFFFFFFFFFFF MUL NOT AND SWAP1 SSTORE PUSH1 0x3 DUP3 ADD PUSH0 SWAP1 SSTORE PUSH1 0x4 DUP3 ADD PUSH0 SWAP1 SSTORE POP POP PUSH32 0x884EDAD9CE6FA2440D8A54CC123490EB96D2768479D49FF9C7366125A9424364 CALLER PUSH1 0x2 PUSH0 DUP1 CALLER PUSH20 0xFFFFFFFFFFFFFFFFFFFFFFFFFFFFFFFFFFFFFFFF AND PUSH20 0xFFFFFFFFFFFFFFFFFFFFFFFFFFFFFFFFFFFFFFFF AND DUP2 MSTORE PUSH1 0x20 ADD SWAP1 DUP2 MSTORE PUSH1 0x20 ADD PUSH0 KECCAK256 PUSH1 0x3 ADD SLOAD PUSH2 0x8BB SWAP2 SWAP1 PUSH2 0x22F0 JUMP JUMPDEST PUSH1 0x40 MLOAD PUSH2 0x8C9 SWAP3 SWAP2 SWAP1 PUSH2 0x2331 JUMP JUMPDEST PUSH1 0x40 MLOAD DUP1 SWAP2 SUB SWAP1 LOG1 PUSH2 0xC15 JUMP JUMPDEST PUSH2 0x8E0 DUP3 DUP3 PUSH2 0x1363 JUMP JUMPDEST ISZERO PUSH2 0xC14 JUMPI CALLER PUSH20 0xFFFFFFFFFFFFFFFFFFFFFFFFFFFFFFFFFFFFFFFF AND PUSH2 0x8FC PUSH0 DUP1 CALLER PUSH20 0xFFFFFFFFFFFFFFFFFFFFFFFFFFFFFFFFFFFFFFFF AND PUSH20 0xFFFFFFFFFFFFFFFFFFFFFFFFFFFFFFFFFFFFFFFF AND DUP2 MSTORE PUSH1 0x20 ADD SWAP1 DUP2 MSTORE PUSH1 0x20 ADD PUSH0 KECCAK256 PUSH1 0x3 ADD SLOAD SWAP1 DUP2 ISZERO MUL SWAP1 PUSH1 0x40 MLOAD PUSH0 PUSH1 0x40 MLOAD DUP1 DUP4 SUB DUP2 DUP6 DUP9 DUP9 CALL SWAP4 POP POP POP POP ISZERO DUP1 ISZERO PUSH2 0x967 JUMPI RETURNDATASIZE PUSH0 DUP1 RETURNDATACOPY RETURNDATASIZE PUSH0 REVERT JUMPDEST POP DUP3 PUSH20 0xFFFFFFFFFFFFFFFFFFFFFFFFFFFFFFFFFFFFFFFF AND PUSH2 0x8FC PUSH0 DUP1 CALLER PUSH20 0xFFFFFFFFFFFFFFFFFFFFFFFFFFFFFFFFFFFFFFFF AND PUSH20 0xFFFFFFFFFFFFFFFFFFFFFFFFFFFFFFFFFFFFFFFF AND DUP2 MSTORE PUSH1 0x20 ADD SWAP1 DUP2 MSTORE PUSH1 0x20 ADD PUSH0 KECCAK256 PUSH1 0x3 ADD SLOAD SWAP1 DUP2 ISZERO MUL SWAP1 PUSH1 0x40 MLOAD PUSH0 PUSH1 0x40 MLOAD DUP1 DUP4 SUB DUP2 DUP6 DUP9 DUP9 CALL SWAP4 POP POP POP POP ISZERO DUP1 ISZERO PUSH2 0x9EA JUMPI RETURNDATASIZE PUSH0 DUP1 RETURNDATACOPY RETURNDATASIZE PUSH0 REVERT JUMPDEST POP PUSH0 DUP1 CALLER PUSH20 0xFFFFFFFFFFFFFFFFFFFFFFFFFFFFFFFFFFFFFFFF AND PUSH20 0xFFFFFFFFFFFFFFFFFFFFFFFFFFFFFFFFFFFFFFFF AND DUP2 MSTORE PUSH1 0x20 ADD SWAP1 DUP2 MSTORE PUSH1 0x20 ADD PUSH0 KECCAK256 PUSH0 DUP1 DUP3 ADD PUSH0 PUSH2 0xA36 SWAP2 SWAP1 PUSH2 0x1BBB JUMP JUMPDEST PUSH1 0x1 DUP3 ADD PUSH0 SWAP1 SSTORE PUSH1 0x2 DUP3 ADD PUSH0 PUSH2 0x100 EXP DUP2 SLOAD SWAP1 PUSH1 0xFF MUL NOT AND SWAP1 SSTORE PUSH1 0x2 DUP3 ADD PUSH1 0x1 PUSH2 0x100 EXP DUP2 SLOAD SWAP1 PUSH20 0xFFFFFFFFFFFFFFFFFFFFFFFFFFFFFFFFFFFFFFFF MUL NOT AND SWAP1 SSTORE PUSH1 0x3 DUP3 ADD PUSH0 SWAP1 SSTORE PUSH1 0x4 DUP3 ADD PUSH0 SWAP1 SSTORE POP POP PUSH0 DUP1 DUP5 PUSH20 0xFFFFFFFFFFFFFFFFFFFFFFFFFFFFFFFFFFFFFFFF AND PUSH20 0xFFFFFFFFFFFFFFFFFFFFFFFFFFFFFFFFFFFFFFFF AND DUP2 MSTORE PUSH1 0x20 ADD SWAP1 DUP2 MSTORE PUSH1 0x20 ADD PUSH0 KECCAK256 PUSH0 DUP1 DUP3 ADD PUSH0 PUSH2 0xAD2 SWAP2 SWAP1 PUSH2 0x1BBB JUMP JUMPDEST PUSH1 0x1 DUP3 ADD PUSH0 SWAP1 SSTORE PUSH1 0x2 DUP3 ADD PUSH0 PUSH2 0x100 EXP DUP2 SLOAD SWAP1 PUSH1 0xFF MUL NOT AND SWAP1 SSTORE PUSH1 0x2 DUP3 ADD PUSH1 0x1 PUSH2 0x100 EXP DUP2 SLOAD SWAP1 PUSH20 0xFFFFFFFFFFFFFFFFFFFFFFFFFFFFFFFFFFFFFFFF MUL NOT AND SWAP1 SSTORE PUSH1 0x3 DUP3 ADD PUSH0 SWAP1 SSTORE PUSH1 0x4 DUP3 ADD PUSH0 SWAP1 SSTORE POP POP PUSH32 0x884EDAD9CE6FA2440D8A54CC123490EB96D2768479D49FF9C7366125A9424364 CALLER PUSH0 DUP1 CALLER PUSH20 0xFFFFFFFFFFFFFFFFFFFFFFFFFFFFFFFFFFFFFFFF AND PUSH20 0xFFFFFFFFFFFFFFFFFFFFFFFFFFFFFFFFFFFFFFFF AND DUP2 MSTORE PUSH1 0x20 ADD SWAP1 DUP2 MSTORE PUSH1 0x20 ADD PUSH0 KECCAK256 PUSH1 0x3 ADD SLOAD PUSH1 0x40 MLOAD PUSH2 0xB93 SWAP3 SWAP2 SWAP1 PUSH2 0x2331 JUMP JUMPDEST PUSH1 0x40 MLOAD DUP1 SWAP2 SUB SWAP1 LOG1 PUSH32 0x884EDAD9CE6FA2440D8A54CC123490EB96D2768479D49FF9C7366125A9424364 DUP4 PUSH0 DUP1 CALLER PUSH20 0xFFFFFFFFFFFFFFFFFFFFFFFFFFFFFFFFFFFFFFFF AND PUSH20 0xFFFFFFFFFFFFFFFFFFFFFFFFFFFFFFFFFFFFFFFF AND DUP2 MSTORE PUSH1 0x20 ADD SWAP1 DUP2 MSTORE PUSH1 0x20 ADD PUSH0 KECCAK256 PUSH1 0x3 ADD SLOAD PUSH1 0x40 MLOAD PUSH2 0xC0B SWAP3 SWAP2 SWAP1 PUSH2 0x2331 JUMP JUMPDEST PUSH1 0x40 MLOAD DUP1 SWAP2 SUB SWAP1 LOG1 JUMPDEST JUMPDEST POP POP POP JUMP JUMPDEST PUSH0 PUSH20 0xFFFFFFFFFFFFFFFFFFFFFFFFFFFFFFFFFFFFFFFF AND PUSH0 DUP1 CALLER PUSH20 0xFFFFFFFFFFFFFFFFFFFFFFFFFFFFFFFFFFFFFFFF AND PUSH20 0xFFFFFFFFFFFFFFFFFFFFFFFFFFFFFFFFFFFFFFFF AND DUP2 MSTORE PUSH1 0x20 ADD SWAP1 DUP2 MSTORE PUSH1 0x20 ADD PUSH0 KECCAK256 PUSH1 0x2 ADD PUSH1 0x1 SWAP1 SLOAD SWAP1 PUSH2 0x100 EXP SWAP1 DIV PUSH20 0xFFFFFFFFFFFFFFFFFFFFFFFFFFFFFFFFFFFFFFFF AND PUSH20 0xFFFFFFFFFFFFFFFFFFFFFFFFFFFFFFFFFFFFFFFF AND SUB PUSH2 0xCE7 JUMPI PUSH1 0x40 MLOAD PUSH32 0x8C379A000000000000000000000000000000000000000000000000000000000 DUP2 MSTORE PUSH1 0x4 ADD PUSH2 0xCDE SWAP1 PUSH2 0x23A2 JUMP JUMPDEST PUSH1 0x40 MLOAD DUP1 SWAP2 SUB SWAP1 REVERT JUMPDEST DUP4 DUP4 DUP1 DUP1 PUSH1 0x1F ADD PUSH1 0x20 DUP1 SWAP2 DIV MUL PUSH1 0x20 ADD PUSH1 0x40 MLOAD SWAP1 DUP2 ADD PUSH1 0x40 MSTORE DUP1 SWAP4 SWAP3 SWAP2 SWAP1 DUP2 DUP2 MSTORE PUSH1 0x20 ADD DUP4 DUP4 DUP1 DUP3 DUP5 CALLDATACOPY PUSH0 DUP2 DUP5 ADD MSTORE PUSH1 0x1F NOT PUSH1 0x1F DUP3 ADD AND SWAP1 POP DUP1 DUP4 ADD SWAP3 POP POP POP POP POP POP POP DUP3 DUP3 DUP1 DUP1 PUSH1 0x1F ADD PUSH1 0x20 DUP1 SWAP2 DIV MUL PUSH1 0x20 ADD PUSH1 0x40 MLOAD SWAP1 DUP2 ADD PUSH1 0x40 MSTORE DUP1 SWAP4 SWAP3 SWAP2 SWAP1 DUP2 DUP2 MSTORE PUSH1 0x20 ADD DUP4 DUP4 DUP1 DUP3 DUP5 CALLDATACOPY PUSH0 DUP2 DUP5 ADD MSTORE PUSH1 0x1F NOT PUSH1 0x1F DUP3 ADD AND SWAP1 POP DUP1 DUP4 ADD SWAP3 POP POP POP POP POP POP POP PUSH0 DUP3 DUP3 PUSH1 0x40 MLOAD PUSH1 0x20 ADD PUSH2 0xD83 SWAP3 SWAP2 SWAP1 PUSH2 0x23FA JUMP JUMPDEST PUSH1 0x40 MLOAD PUSH1 0x20 DUP2 DUP4 SUB SUB DUP2 MSTORE SWAP1 PUSH1 0x40 MSTORE DUP1 MLOAD SWAP1 PUSH1 0x20 ADD KECCAK256 SWAP1 POP DUP1 PUSH0 DUP1 CALLER PUSH20 0xFFFFFFFFFFFFFFFFFFFFFFFFFFFFFFFFFFFFFFFF AND PUSH20 0xFFFFFFFFFFFFFFFFFFFFFFFFFFFFFFFFFFFFFFFF AND DUP2 MSTORE PUSH1 0x20 ADD SWAP1 DUP2 MSTORE PUSH1 0x20 ADD PUSH0 KECCAK256 PUSH1 0x1 ADD SLOAD EQ PUSH2 0xE1C JUMPI PUSH1 0x40 MLOAD PUSH32 0x8C379A000000000000000000000000000000000000000000000000000000000 DUP2 MSTORE PUSH1 0x4 ADD PUSH2 0xE13 SWAP1 PUSH2 0x2467 JUMP JUMPDEST PUSH1 0x40 MLOAD DUP1 SWAP2 SUB SWAP1 REVERT JUMPDEST PUSH0 DUP8 DUP8 DUP1 DUP1 PUSH1 0x1F ADD PUSH1 0x20 DUP1 SWAP2 DIV MUL PUSH1 0x20 ADD PUSH1 0x40 MLOAD SWAP1 DUP2 ADD PUSH1 0x40 MSTORE DUP1 SWAP4 SWAP3 SWAP2 SWAP1 DUP2 DUP2 MSTORE PUSH1 0x20 ADD DUP4 DUP4 DUP1 DUP3 DUP5 CALLDATACOPY PUSH0 DUP2 DUP5 ADD MSTORE PUSH1 0x1F NOT PUSH1 0x1F DUP3 ADD AND SWAP1 POP DUP1 DUP4 ADD SWAP3 POP POP POP POP POP POP POP SWAP1 POP PUSH1 0x61 PUSH1 0xF8 SHL DUP2 PUSH0 DUP2 MLOAD DUP2 LT PUSH2 0xE7B JUMPI PUSH2 0xE7A PUSH2 0x2485 JUMP JUMPDEST JUMPDEST PUSH1 0x20 ADD ADD MLOAD PUSH1 0xF8 SHR PUSH1 0xF8 SHL PUSH31 0xFFFFFFFFFFFFFFFFFFFFFFFFFFFFFFFFFFFFFFFFFFFFFFFFFFFFFFFFFFFFFF NOT AND LT ISZERO DUP1 ISZERO PUSH2 0xEF9 JUMPI POP PUSH1 0x7A PUSH1 0xF8 SHL DUP2 PUSH0 DUP2 MLOAD DUP2 LT PUSH2 0xEC9 JUMPI PUSH2 0xEC8 PUSH2 0x2485 JUMP JUMPDEST JUMPDEST PUSH1 0x20 ADD ADD MLOAD PUSH1 0xF8 SHR PUSH1 0xF8 SHL PUSH31 0xFFFFFFFFFFFFFFFFFFFFFFFFFFFFFFFFFFFFFFFFFFFFFFFFFFFFFFFFFFFFFF NOT AND GT ISZERO JUMPDEST ISZERO PUSH2 0xF70 JUMPI PUSH1 0x20 DUP2 PUSH0 DUP2 MLOAD DUP2 LT PUSH2 0xF13 JUMPI PUSH2 0xF12 PUSH2 0x2485 JUMP JUMPDEST JUMPDEST PUSH1 0x20 ADD ADD MLOAD PUSH1 0xF8 SHR PUSH1 0xF8 SHL PUSH1 0xF8 SHR PUSH2 0xF2B SWAP2 SWAP1 PUSH2 0x24BE JUMP JUMPDEST PUSH1 0xF8 SHL DUP2 PUSH0 DUP2 MLOAD DUP2 LT PUSH2 0xF41 JUMPI PUSH2 0xF40 PUSH2 0x2485 JUMP JUMPDEST JUMPDEST PUSH1 0x20 ADD ADD SWAP1 PUSH31 0xFFFFFFFFFFFFFFFFFFFFFFFFFFFFFFFFFFFFFFFFFFFFFFFFFFFFFFFFFFFFFF NOT AND SWAP1 DUP2 PUSH0 BYTE SWAP1 MSTORE8 POP JUMPDEST PUSH1 0x1 PUSH0 DUP1 CALLER PUSH20 0xFFFFFFFFFFFFFFFFFFFFFFFFFFFFFFFFFFFFFFFF AND PUSH20 0xFFFFFFFFFFFFFFFFFFFFFFFFFFFFFFFFFFFFFFFF AND DUP2 MSTORE PUSH1 0x20 ADD SWAP1 DUP2 MSTORE PUSH1 0x20 ADD PUSH0 KECCAK256 PUSH1 0x2 ADD PUSH0 PUSH2 0x100 EXP DUP2 SLOAD DUP2 PUSH1 0xFF MUL NOT AND SWAP1 DUP4 ISZERO ISZERO MUL OR SWAP1 SSTORE POP DUP1 PUSH0 DUP1 CALLER PUSH20 0xFFFFFFFFFFFFFFFFFFFFFFFFFFFFFFFFFFFFFFFF AND PUSH20 0xFFFFFFFFFFFFFFFFFFFFFFFFFFFFFFFFFFFFFFFF AND DUP2 MSTORE PUSH1 0x20 ADD SWAP1 DUP2 MSTORE PUSH1 0x20 ADD PUSH0 KECCAK256 PUSH0 ADD SWAP1 DUP2 PUSH2 0x1012 SWAP2 SWAP1 PUSH2 0x268F JUMP JUMPDEST POP PUSH32 0x4ABF1A182C97C99CBF9798006458C948C47DF72ED150BA8A3C04389C3EF93776 CALLER DUP3 PUSH1 0x40 MLOAD PUSH2 0x1044 SWAP3 SWAP2 SWAP1 PUSH2 0x275E JUMP JUMPDEST PUSH1 0x40 MLOAD DUP1 SWAP2 SUB SWAP1 LOG1 POP POP POP POP POP POP POP POP JUMP JUMPDEST PUSH0 DUP3 PUSH2 0x1097 DUP2 PUSH1 0x40 MLOAD DUP1 PUSH1 0x40 ADD PUSH1 0x40 MSTORE DUP1 PUSH1 0x1 DUP2 MSTORE PUSH1 0x20 ADD PUSH32 0x5200000000000000000000000000000000000000000000000000000000000000 DUP2 MSTORE POP PUSH2 0x1363 JUMP JUMPDEST DUP1 PUSH2 0x10DD JUMPI POP PUSH2 0x10DC DUP2 PUSH1 0x40 MLOAD DUP1 PUSH1 0x40 ADD PUSH1 0x40 MSTORE DUP1 PUSH1 0x1 DUP2 MSTORE PUSH1 0x20 ADD PUSH32 0x5000000000000000000000000000000000000000000000000000000000000000 DUP2 MSTORE POP PUSH2 0x1363 JUMP JUMPDEST JUMPDEST DUP1 PUSH2 0x1123 JUMPI POP PUSH2 0x1122 DUP2 PUSH1 0x40 MLOAD DUP1 PUSH1 0x40 ADD PUSH1 0x40 MSTORE DUP1 PUSH1 0x1 DUP2 MSTORE PUSH1 0x20 ADD PUSH32 0x5300000000000000000000000000000000000000000000000000000000000000 DUP2 MSTORE POP PUSH2 0x1363 JUMP JUMPDEST JUMPDEST PUSH2 0x1162 JUMPI PUSH1 0x40 MLOAD PUSH32 0x8C379A000000000000000000000000000000000000000000000000000000000 DUP2 MSTORE PUSH1 0x4 ADD PUSH2 0x1159 SWAP1 PUSH2 0x27FC JUMP JUMPDEST PUSH1 0x40 MLOAD DUP1 SWAP2 SUB SWAP1 REVERT JUMPDEST PUSH2 0x116C DUP5 DUP5 PUSH2 0x1363 JUMP JUMPDEST DUP1 PUSH2 0x118B JUMPI POP PUSH2 0x118A DUP4 PUSH1 0x40 MLOAD DUP1 PUSH1 0x20 ADD PUSH1 0x40 MSTORE DUP1 PUSH0 DUP2 MSTORE POP PUSH2 0x1363 JUMP JUMPDEST JUMPDEST ISZERO PUSH2 0x1198 JUMPI PUSH0 SWAP2 POP PUSH2 0x1356 JUMP JUMPDEST PUSH2 0x11D7 DUP5 PUSH1 0x40 MLOAD DUP1 PUSH1 0x40 ADD PUSH1 0x40 MSTORE DUP1 PUSH1 0x1 DUP2 MSTORE PUSH1 0x20 ADD PUSH32 0x5200000000000000000000000000000000000000000000000000000000000000 DUP2 MSTORE POP PUSH2 0x1363 JUMP JUMPDEST DUP1 ISZERO PUSH2 0x121E JUMPI POP PUSH2 0x121D DUP4 PUSH1 0x40 MLOAD DUP1 PUSH1 0x40 ADD PUSH1 0x40 MSTORE DUP1 PUSH1 0x1 DUP2 MSTORE PUSH1 0x20 ADD PUSH32 0x5000000000000000000000000000000000000000000000000000000000000000 DUP2 MSTORE POP PUSH2 0x1363 JUMP JUMPDEST JUMPDEST ISZERO PUSH2 0x122B JUMPI PUSH0 SWAP2 POP PUSH2 0x1356 JUMP JUMPDEST PUSH2 0x126A DUP5 PUSH1 0x40 MLOAD DUP1 PUSH1 0x40 ADD PUSH1 0x40 MSTORE DUP1 PUSH1 0x1 DUP2 MSTORE PUSH1 0x20 ADD PUSH32 0x5000000000000000000000000000000000000000000000000000000000000000 DUP2 MSTORE POP PUSH2 0x1363 JUMP JUMPDEST DUP1 ISZERO PUSH2 0x12B1 JUMPI POP PUSH2 0x12B0 DUP4 PUSH1 0x40 MLOAD DUP1 PUSH1 0x40 ADD PUSH1 0x40 MSTORE DUP1 PUSH1 0x1 DUP2 MSTORE PUSH1 0x20 ADD PUSH32 0x5300000000000000000000000000000000000000000000000000000000000000 DUP2 MSTORE POP PUSH2 0x1363 JUMP JUMPDEST JUMPDEST ISZERO PUSH2 0x12BE JUMPI PUSH0 SWAP2 POP PUSH2 0x1356 JUMP JUMPDEST PUSH2 0x12FD DUP5 PUSH1 0x40 MLOAD DUP1 PUSH1 0x40 ADD PUSH1 0x40 MSTORE DUP1 PUSH1 0x1 DUP2 MSTORE PUSH1 0x20 ADD PUSH32 0x5300000000000000000000000000000000000000000000000000000000000000 DUP2 MSTORE POP PUSH2 0x1363 JUMP JUMPDEST DUP1 ISZERO PUSH2 0x1344 JUMPI POP PUSH2 0x1343 DUP4 PUSH1 0x40 MLOAD DUP1 PUSH1 0x40 ADD PUSH1 0x40 MSTORE DUP1 PUSH1 0x1 DUP2 MSTORE PUSH1 0x20 ADD PUSH32 0x5200000000000000000000000000000000000000000000000000000000000000 DUP2 MSTORE POP PUSH2 0x1363 JUMP JUMPDEST JUMPDEST ISZERO PUSH2 0x1351 JUMPI PUSH0 SWAP2 POP PUSH2 0x1356 JUMP JUMPDEST PUSH1 0x1 SWAP2 POP JUMPDEST POP SWAP3 SWAP2 POP POP JUMP JUMPDEST PUSH1 0x3 SLOAD DUP2 JUMP JUMPDEST PUSH0 DUP2 PUSH1 0x40 MLOAD PUSH1 0x20 ADD PUSH2 0x1375 SWAP2 SWAP1 PUSH2 0x281A JUMP JUMPDEST PUSH1 0x40 MLOAD PUSH1 0x20 DUP2 DUP4 SUB SUB DUP2 MSTORE SWAP1 PUSH1 0x40 MSTORE DUP1 MLOAD SWAP1 PUSH1 0x20 ADD KECCAK256 DUP4 PUSH1 0x40 MLOAD PUSH1 0x20 ADD PUSH2 0x139C SWAP2 SWAP1 PUSH2 0x281A JUMP JUMPDEST PUSH1 0x40 MLOAD PUSH1 0x20 DUP2 DUP4 SUB SUB DUP2 MSTORE SWAP1 PUSH1 0x40 MSTORE DUP1 MLOAD SWAP1 PUSH1 0x20 ADD KECCAK256 EQ SWAP1 POP SWAP3 SWAP2 POP POP JUMP JUMPDEST PUSH0 DUP1 PUSH0 CALLER PUSH20 0xFFFFFFFFFFFFFFFFFFFFFFFFFFFFFFFFFFFFFFFF AND PUSH20 0xFFFFFFFFFFFFFFFFFFFFFFFFFFFFFFFFFFFFFFFF AND DUP2 MSTORE PUSH1 0x20 ADD SWAP1 DUP2 MSTORE PUSH1 0x20 ADD PUSH0 KECCAK256 PUSH1 0x3 ADD SLOAD EQ PUSH2 0x143C JUMPI PUSH1 0x40 MLOAD PUSH32 0x8C379A000000000000000000000000000000000000000000000000000000000 DUP2 MSTORE PUSH1 0x4 ADD PUSH2 0x1433 SWAP1 PUSH2 0x287A JUMP JUMPDEST PUSH1 0x40 MLOAD DUP1 SWAP2 SUB SWAP1 REVERT JUMPDEST PUSH1 0x2 SLOAD DUP1 CALLVALUE LT ISZERO PUSH2 0x1482 JUMPI PUSH1 0x40 MLOAD PUSH32 0x8C379A000000000000000000000000000000000000000000000000000000000 DUP2 MSTORE PUSH1 0x4 ADD PUSH2 0x1479 SWAP1 PUSH2 0x2908 JUMP JUMPDEST PUSH1 0x40 MLOAD DUP1 SWAP2 SUB SWAP1 REVERT JUMPDEST PUSH1 0x40 MLOAD DUP1 PUSH1 0xC0 ADD PUSH1 0x40 MSTORE DUP1 PUSH1 0x40 MLOAD DUP1 PUSH1 0x20 ADD PUSH1 0x40 MSTORE DUP1 PUSH0 DUP2 MSTORE POP DUP2 MSTORE PUSH1 0x20 ADD DUP4 DUP2 MSTORE PUSH1 0x20 ADD PUSH0 ISZERO ISZERO DUP2 MSTORE PUSH1 0x20 ADD PUSH0 PUSH20 0xFFFFFFFFFFFFFFFFFFFFFFFFFFFFFFFFFFFFFFFF AND DUP2 MSTORE PUSH1 0x20 ADD PUSH0 DUP2 MSTORE PUSH1 0x20 ADD PUSH0 DUP2 MSTORE POP PUSH0 DUP1 CALLER PUSH20 0xFFFFFFFFFFFFFFFFFFFFFFFFFFFFFFFFFFFFFFFF AND PUSH20 0xFFFFFFFFFFFFFFFFFFFFFFFFFFFFFFFFFFFFFFFF AND DUP2 MSTORE PUSH1 0x20 ADD SWAP1 DUP2 MSTORE PUSH1 0x20 ADD PUSH0 KECCAK256 PUSH0 DUP3 ADD MLOAD DUP2 PUSH0 ADD SWAP1 DUP2 PUSH2 0x1524 SWAP2 SWAP1 PUSH2 0x268F JUMP JUMPDEST POP PUSH1 0x20 DUP3 ADD MLOAD DUP2 PUSH1 0x1 ADD SSTORE PUSH1 0x40 DUP3 ADD MLOAD DUP2 PUSH1 0x2 ADD PUSH0 PUSH2 0x100 EXP DUP2 SLOAD DUP2 PUSH1 0xFF MUL NOT AND SWAP1 DUP4 ISZERO ISZERO MUL OR SWAP1 SSTORE POP PUSH1 0x60 DUP3 ADD MLOAD DUP2 PUSH1 0x2 ADD PUSH1 0x1 PUSH2 0x100 EXP DUP2 SLOAD DUP2 PUSH20 0xFFFFFFFFFFFFFFFFFFFFFFFFFFFFFFFFFFFFFFFF MUL NOT AND SWAP1 DUP4 PUSH20 0xFFFFFFFFFFFFFFFFFFFFFFFFFFFFFFFFFFFFFFFF AND MUL OR SWAP1 SSTORE POP PUSH1 0x80 DUP3 ADD MLOAD DUP2 PUSH1 0x3 ADD SSTORE PUSH1 0xA0 DUP3 ADD MLOAD DUP2 PUSH1 0x4 ADD SSTORE SWAP1 POP POP PUSH0 PUSH1 0x1 DUP1 SLOAD SWAP1 POP SWAP1 POP PUSH0 DUP2 SUB PUSH2 0x1665 JUMPI PUSH1 0x1 CALLER SWAP1 DUP1 PUSH1 0x1 DUP2 SLOAD ADD DUP1 DUP3 SSTORE DUP1 SWAP2 POP POP PUSH1 0x1 SWAP1 SUB SWAP1 PUSH0 MSTORE PUSH1 0x20 PUSH0 KECCAK256 ADD PUSH0 SWAP1 SWAP2 SWAP1 SWAP2 SWAP1 SWAP2 PUSH2 0x100 EXP DUP2 SLOAD DUP2 PUSH20 0xFFFFFFFFFFFFFFFFFFFFFFFFFFFFFFFFFFFFFFFF MUL NOT AND SWAP1 DUP4 PUSH20 0xFFFFFFFFFFFFFFFFFFFFFFFFFFFFFFFFFFFFFFFF AND MUL OR SWAP1 SSTORE POP CALLVALUE PUSH0 DUP1 CALLER PUSH20 0xFFFFFFFFFFFFFFFFFFFFFFFFFFFFFFFFFFFFFFFF AND PUSH20 0xFFFFFFFFFFFFFFFFFFFFFFFFFFFFFFFFFFFFFFFF AND DUP2 MSTORE PUSH1 0x20 ADD SWAP1 DUP2 MSTORE PUSH1 0x20 ADD PUSH0 KECCAK256 PUSH1 0x3 ADD DUP2 SWAP1 SSTORE POP PUSH2 0x1A59 JUMP JUMPDEST PUSH0 PUSH1 0x1 DUP1 DUP4 PUSH2 0x1674 SWAP2 SWAP1 PUSH2 0x2926 JUMP JUMPDEST DUP2 SLOAD DUP2 LT PUSH2 0x1685 JUMPI PUSH2 0x1684 PUSH2 0x2485 JUMP JUMPDEST JUMPDEST SWAP1 PUSH0 MSTORE PUSH1 0x20 PUSH0 KECCAK256 ADD PUSH0 SWAP1 SLOAD SWAP1 PUSH2 0x100 EXP SWAP1 DIV PUSH20 0xFFFFFFFFFFFFFFFFFFFFFFFFFFFFFFFFFFFFFFFF AND SWAP1 POP PUSH0 DUP1 DUP3 PUSH20 0xFFFFFFFFFFFFFFFFFFFFFFFFFFFFFFFFFFFFFFFF AND PUSH20 0xFFFFFFFFFFFFFFFFFFFFFFFFFFFFFFFFFFFFFFFF AND DUP2 MSTORE PUSH1 0x20 ADD SWAP1 DUP2 MSTORE PUSH1 0x20 ADD PUSH0 KECCAK256 PUSH1 0x3 ADD SLOAD CALLVALUE LT ISZERO PUSH2 0x1731 JUMPI PUSH1 0x40 MLOAD PUSH32 0x8C379A000000000000000000000000000000000000000000000000000000000 DUP2 MSTORE PUSH1 0x4 ADD PUSH2 0x1728 SWAP1 PUSH2 0x29C9 JUMP JUMPDEST PUSH1 0x40 MLOAD DUP1 SWAP2 SUB SWAP1 REVERT JUMPDEST PUSH0 DUP1 DUP3 PUSH20 0xFFFFFFFFFFFFFFFFFFFFFFFFFFFFFFFFFFFFFFFF AND PUSH20 0xFFFFFFFFFFFFFFFFFFFFFFFFFFFFFFFFFFFFFFFF AND DUP2 MSTORE PUSH1 0x20 ADD SWAP1 DUP2 MSTORE PUSH1 0x20 ADD PUSH0 KECCAK256 PUSH1 0x3 ADD SLOAD PUSH0 DUP1 CALLER PUSH20 0xFFFFFFFFFFFFFFFFFFFFFFFFFFFFFFFFFFFFFFFF AND PUSH20 0xFFFFFFFFFFFFFFFFFFFFFFFFFFFFFFFFFFFFFFFF AND DUP2 MSTORE PUSH1 0x20 ADD SWAP1 DUP2 MSTORE PUSH1 0x20 ADD PUSH0 KECCAK256 PUSH1 0x3 ADD DUP2 SWAP1 SSTORE POP CALLER PUSH20 0xFFFFFFFFFFFFFFFFFFFFFFFFFFFFFFFFFFFFFFFF AND PUSH2 0x8FC PUSH0 DUP1 DUP5 PUSH20 0xFFFFFFFFFFFFFFFFFFFFFFFFFFFFFFFFFFFFFFFF AND PUSH20 0xFFFFFFFFFFFFFFFFFFFFFFFFFFFFFFFFFFFFFFFF AND DUP2 MSTORE PUSH1 0x20 ADD SWAP1 DUP2 MSTORE PUSH1 0x20 ADD PUSH0 KECCAK256 PUSH1 0x3 ADD SLOAD CALLVALUE PUSH2 0x1819 SWAP2 SWAP1 PUSH2 0x2926 JUMP JUMPDEST SWAP1 DUP2 ISZERO MUL SWAP1 PUSH1 0x40 MLOAD PUSH0 PUSH1 0x40 MLOAD DUP1 DUP4 SUB DUP2 DUP6 DUP9 DUP9 CALL SWAP4 POP POP POP POP ISZERO DUP1 ISZERO PUSH2 0x1841 JUMPI RETURNDATASIZE PUSH0 DUP1 RETURNDATACOPY RETURNDATASIZE PUSH0 REVERT JUMPDEST POP DUP1 PUSH0 DUP1 CALLER PUSH20 0xFFFFFFFFFFFFFFFFFFFFFFFFFFFFFFFFFFFFFFFF AND PUSH20 0xFFFFFFFFFFFFFFFFFFFFFFFFFFFFFFFFFFFFFFFF AND DUP2 MSTORE PUSH1 0x20 ADD SWAP1 DUP2 MSTORE PUSH1 0x20 ADD PUSH0 KECCAK256 PUSH1 0x2 ADD PUSH1 0x1 PUSH2 0x100 EXP DUP2 SLOAD DUP2 PUSH20 0xFFFFFFFFFFFFFFFFFFFFFFFFFFFFFFFFFFFFFFFF MUL NOT AND SWAP1 DUP4 PUSH20 0xFFFFFFFFFFFFFFFFFFFFFFFFFFFFFFFFFFFFFFFF AND MUL OR SWAP1 SSTORE POP CALLER PUSH0 DUP1 DUP4 PUSH20 0xFFFFFFFFFFFFFFFFFFFFFFFFFFFFFFFFFFFFFFFF AND PUSH20 0xFFFFFFFFFFFFFFFFFFFFFFFFFFFFFFFFFFFFFFFF AND DUP2 MSTORE PUSH1 0x20 ADD SWAP1 DUP2 MSTORE PUSH1 0x20 ADD PUSH0 KECCAK256 PUSH1 0x2 ADD PUSH1 0x1 PUSH2 0x100 EXP DUP2 SLOAD DUP2 PUSH20 0xFFFFFFFFFFFFFFFFFFFFFFFFFFFFFFFFFFFFFFFF MUL NOT AND SWAP1 DUP4 PUSH20 0xFFFFFFFFFFFFFFFFFFFFFFFFFFFFFFFFFFFFFFFF AND MUL OR SWAP1 SSTORE POP PUSH0 PUSH1 0x3 SLOAD TIMESTAMP PUSH2 0x194D SWAP2 SWAP1 PUSH2 0x29E7 JUMP JUMPDEST SWAP1 POP DUP1 PUSH0 DUP1 CALLER PUSH20 0xFFFFFFFFFFFFFFFFFFFFFFFFFFFFFFFFFFFFFFFF AND PUSH20 0xFFFFFFFFFFFFFFFFFFFFFFFFFFFFFFFFFFFFFFFF AND DUP2 MSTORE PUSH1 0x20 ADD SWAP1 DUP2 MSTORE PUSH1 0x20 ADD PUSH0 KECCAK256 PUSH1 0x4 ADD DUP2 SWAP1 SSTORE POP DUP1 PUSH0 DUP1 DUP5 PUSH20 0xFFFFFFFFFFFFFFFFFFFFFFFFFFFFFFFFFFFFFFFF AND PUSH20 0xFFFFFFFFFFFFFFFFFFFFFFFFFFFFFFFFFFFFFFFF AND DUP2 MSTORE PUSH1 0x20 ADD SWAP1 DUP2 MSTORE PUSH1 0x20 ADD PUSH0 KECCAK256 PUSH1 0x4 ADD DUP2 SWAP1 SSTORE POP PUSH1 0x1 DUP1 SLOAD DUP1 PUSH2 0x19E9 JUMPI PUSH2 0x19E8 PUSH2 0x2A1A JUMP JUMPDEST JUMPDEST PUSH1 0x1 SWAP1 SUB DUP2 DUP2 SWAP1 PUSH0 MSTORE PUSH1 0x20 PUSH0 KECCAK256 ADD PUSH0 PUSH2 0x100 EXP DUP2 SLOAD SWAP1 PUSH20 0xFFFFFFFFFFFFFFFFFFFFFFFFFFFFFFFFFFFFFFFF MUL NOT AND SWAP1 SSTORE SWAP1 SSTORE PUSH32 0xF7750BEBC6A1D050DEC98239CFC17DBB80B7469BDBF2A73DA0C8023A4F46F772 DUP3 CALLER DUP4 PUSH1 0x40 MLOAD PUSH2 0x1A4E SWAP4 SWAP3 SWAP2 SWAP1 PUSH2 0x2A47 JUMP JUMPDEST PUSH1 0x40 MLOAD DUP1 SWAP2 SUB SWAP1 LOG1 POP POP JUMPDEST PUSH32 0x673312C85CBA8B334416B1C6E845170BBDFF704BAF138F1866AB5E8BF3440776 CALLER DUP5 PUSH1 0x40 MLOAD PUSH2 0x1A8A SWAP3 SWAP2 SWAP1 PUSH2 0x2A7C JUMP JUMPDEST PUSH1 0x40 MLOAD DUP1 SWAP2 SUB SWAP1 LOG1 POP POP POP JUMP JUMPDEST PUSH0 PUSH1 0x20 MSTORE DUP1 PUSH0 MSTORE PUSH1 0x40 PUSH0 KECCAK256 PUSH0 SWAP2 POP SWAP1 POP DUP1 PUSH0 ADD DUP1 SLOAD PUSH2 0x1AB5 SWAP1 PUSH2 0x2293 JUMP JUMPDEST DUP1 PUSH1 0x1F ADD PUSH1 0x20 DUP1 SWAP2 DIV MUL PUSH1 0x20 ADD PUSH1 0x40 MLOAD SWAP1 DUP2 ADD PUSH1 0x40 MSTORE DUP1 SWAP3 SWAP2 SWAP1 DUP2 DUP2 MSTORE PUSH1 0x20 ADD DUP3 DUP1 SLOAD PUSH2 0x1AE1 SWAP1 PUSH2 0x2293 JUMP JUMPDEST DUP1 ISZERO PUSH2 0x1B2C JUMPI DUP1 PUSH1 0x1F LT PUSH2 0x1B03 JUMPI PUSH2 0x100 DUP1 DUP4 SLOAD DIV MUL DUP4 MSTORE SWAP2 PUSH1 0x20 ADD SWAP2 PUSH2 0x1B2C JUMP JUMPDEST DUP3 ADD SWAP2 SWAP1 PUSH0 MSTORE PUSH1 0x20 PUSH0 KECCAK256 SWAP1 JUMPDEST DUP2 SLOAD DUP2 MSTORE SWAP1 PUSH1 0x1 ADD SWAP1 PUSH1 0x20 ADD DUP1 DUP4 GT PUSH2 0x1B0F JUMPI DUP3 SWAP1 SUB PUSH1 0x1F AND DUP3 ADD SWAP2 JUMPDEST POP POP POP POP POP SWAP1 DUP1 PUSH1 0x1 ADD SLOAD SWAP1 DUP1 PUSH1 0x2 ADD PUSH0 SWAP1 SLOAD SWAP1 PUSH2 0x100 EXP SWAP1 DIV PUSH1 0xFF AND SWAP1 DUP1 PUSH1 0x2 ADD PUSH1 0x1 SWAP1 SLOAD SWAP1 PUSH2 0x100 EXP SWAP1 DIV PUSH20 0xFFFFFFFFFFFFFFFFFFFFFFFFFFFFFFFFFFFFFFFF AND SWAP1 DUP1 PUSH1 0x3 ADD SLOAD SWAP1 DUP1 PUSH1 0x4 ADD SLOAD SWAP1 POP DUP7 JUMP JUMPDEST PUSH1 0x1 DUP2 DUP2 SLOAD DUP2 LT PUSH2 0x1B8F JUMPI PUSH0 DUP1 REVERT JUMPDEST SWAP1 PUSH0 MSTORE PUSH1 0x20 PUSH0 KECCAK256 ADD PUSH0 SWAP2 POP SLOAD SWAP1 PUSH2 0x100 EXP SWAP1 DIV PUSH20 0xFFFFFFFFFFFFFFFFFFFFFFFFFFFFFFFFFFFFFFFF AND DUP2 JUMP JUMPDEST POP DUP1 SLOAD PUSH2 0x1BC7 SWAP1 PUSH2 0x2293 JUMP JUMPDEST PUSH0 DUP3 SSTORE DUP1 PUSH1 0x1F LT PUSH2 0x1BD8 JUMPI POP PUSH2 0x1BF5 JUMP JUMPDEST PUSH1 0x1F ADD PUSH1 0x20 SWAP1 DIV SWAP1 PUSH0 MSTORE PUSH1 0x20 PUSH0 KECCAK256 SWAP1 DUP2 ADD SWAP1 PUSH2 0x1BF4 SWAP2 SWAP1 PUSH2 0x1BF8 JUMP JUMPDEST JUMPDEST POP JUMP JUMPDEST JUMPDEST DUP1 DUP3 GT ISZERO PUSH2 0x1C0F JUMPI PUSH0 DUP2 PUSH0 SWAP1 SSTORE POP PUSH1 0x1 ADD PUSH2 0x1BF9 JUMP JUMPDEST POP SWAP1 JUMP JUMPDEST PUSH0 DUP2 SWAP1 POP SWAP2 SWAP1 POP JUMP JUMPDEST PUSH2 0x1C25 DUP2 PUSH2 0x1C13 JUMP JUMPDEST DUP3 MSTORE POP POP JUMP JUMPDEST PUSH0 PUSH1 0x20 DUP3 ADD SWAP1 POP PUSH2 0x1C3E PUSH0 DUP4 ADD DUP5 PUSH2 0x1C1C JUMP JUMPDEST SWAP3 SWAP2 POP POP JUMP JUMPDEST PUSH0 PUSH1 0x40 MLOAD SWAP1 POP SWAP1 JUMP JUMPDEST PUSH0 DUP1 REVERT JUMPDEST PUSH0 DUP1 REVERT JUMPDEST PUSH0 DUP1 REVERT JUMPDEST PUSH0 DUP1 REVERT JUMPDEST PUSH0 DUP1 REVERT JUMPDEST PUSH0 DUP1 DUP4 PUSH1 0x1F DUP5 ADD SLT PUSH2 0x1C76 JUMPI PUSH2 0x1C75 PUSH2 0x1C55 JUMP JUMPDEST JUMPDEST DUP3 CALLDATALOAD SWAP1 POP PUSH8 0xFFFFFFFFFFFFFFFF DUP2 GT ISZERO PUSH2 0x1C93 JUMPI PUSH2 0x1C92 PUSH2 0x1C59 JUMP JUMPDEST JUMPDEST PUSH1 0x20 DUP4 ADD SWAP2 POP DUP4 PUSH1 0x1 DUP3 MUL DUP4 ADD GT ISZERO PUSH2 0x1CAF JUMPI PUSH2 0x1CAE PUSH2 0x1C5D JUMP JUMPDEST JUMPDEST SWAP3 POP SWAP3 SWAP1 POP JUMP JUMPDEST PUSH0 DUP1 PUSH0 DUP1 PUSH1 0x40 DUP6 DUP8 SUB SLT ISZERO PUSH2 0x1CCE JUMPI PUSH2 0x1CCD PUSH2 0x1C4D JUMP JUMPDEST JUMPDEST PUSH0 DUP6 ADD CALLDATALOAD PUSH8 0xFFFFFFFFFFFFFFFF DUP2 GT ISZERO PUSH2 0x1CEB JUMPI PUSH2 0x1CEA PUSH2 0x1C51 JUMP JUMPDEST JUMPDEST PUSH2 0x1CF7 DUP8 DUP3 DUP9 ADD PUSH2 0x1C61 JUMP JUMPDEST SWAP5 POP SWAP5 POP POP PUSH1 0x20 DUP6 ADD CALLDATALOAD PUSH8 0xFFFFFFFFFFFFFFFF DUP2 GT ISZERO PUSH2 0x1D1A JUMPI PUSH2 0x1D19 PUSH2 0x1C51 JUMP JUMPDEST JUMPDEST PUSH2 0x1D26 DUP8 DUP3 DUP9 ADD PUSH2 0x1C61 JUMP JUMPDEST SWAP3 POP SWAP3 POP POP SWAP3 SWAP6 SWAP2 SWAP5 POP SWAP3 POP JUMP JUMPDEST PUSH0 DUP1 REVERT JUMPDEST PUSH0 PUSH1 0x1F NOT PUSH1 0x1F DUP4 ADD AND SWAP1 POP SWAP2 SWAP1 POP JUMP JUMPDEST PUSH32 0x4E487B7100000000000000000000000000000000000000000000000000000000 PUSH0 MSTORE PUSH1 0x41 PUSH1 0x4 MSTORE PUSH1 0x24 PUSH0 REVERT JUMPDEST PUSH2 0x1D7E DUP3 PUSH2 0x1D38 JUMP JUMPDEST DUP2 ADD DUP2 DUP2 LT PUSH8 0xFFFFFFFFFFFFFFFF DUP3 GT OR ISZERO PUSH2 0x1D9D JUMPI PUSH2 0x1D9C PUSH2 0x1D48 JUMP JUMPDEST JUMPDEST DUP1 PUSH1 0x40 MSTORE POP POP POP JUMP JUMPDEST PUSH0 PUSH2 0x1DAF PUSH2 0x1C44 JUMP JUMPDEST SWAP1 POP PUSH2 0x1DBB DUP3 DUP3 PUSH2 0x1D75 JUMP JUMPDEST SWAP2 SWAP1 POP JUMP JUMPDEST PUSH0 PUSH8 0xFFFFFFFFFFFFFFFF DUP3 GT ISZERO PUSH2 0x1DDA JUMPI PUSH2 0x1DD9 PUSH2 0x1D48 JUMP JUMPDEST JUMPDEST PUSH2 0x1DE3 DUP3 PUSH2 0x1D38 JUMP JUMPDEST SWAP1 POP PUSH1 0x20 DUP2 ADD SWAP1 POP SWAP2 SWAP1 POP JUMP JUMPDEST DUP3 DUP2 DUP4 CALLDATACOPY PUSH0 DUP4 DUP4 ADD MSTORE POP POP POP JUMP JUMPDEST PUSH0 PUSH2 0x1E10 PUSH2 0x1E0B DUP5 PUSH2 0x1DC0 JUMP JUMPDEST PUSH2 0x1DA6 JUMP JUMPDEST SWAP1 POP DUP3 DUP2 MSTORE PUSH1 0x20 DUP2 ADD DUP5 DUP5 DUP5 ADD GT ISZERO PUSH2 0x1E2C JUMPI PUSH2 0x1E2B PUSH2 0x1D34 JUMP JUMPDEST JUMPDEST PUSH2 0x1E37 DUP5 DUP3 DUP6 PUSH2 0x1DF0 JUMP JUMPDEST POP SWAP4 SWAP3 POP POP POP JUMP JUMPDEST PUSH0 DUP3 PUSH1 0x1F DUP4 ADD SLT PUSH2 0x1E53 JUMPI PUSH2 0x1E52 PUSH2 0x1C55 JUMP JUMPDEST JUMPDEST DUP2 CALLDATALOAD PUSH2 0x1E63 DUP5 DUP3 PUSH1 0x20 DUP7 ADD PUSH2 0x1DFE JUMP JUMPDEST SWAP2 POP POP SWAP3 SWAP2 POP POP JUMP JUMPDEST PUSH0 DUP1 PUSH1 0x40 DUP4 DUP6 SUB SLT ISZERO PUSH2 0x1E82 JUMPI PUSH2 0x1E81 PUSH2 0x1C4D JUMP JUMPDEST JUMPDEST PUSH0 DUP4 ADD CALLDATALOAD PUSH8 0xFFFFFFFFFFFFFFFF DUP2 GT ISZERO PUSH2 0x1E9F JUMPI PUSH2 0x1E9E PUSH2 0x1C51 JUMP JUMPDEST JUMPDEST PUSH2 0x1EAB DUP6 DUP3 DUP7 ADD PUSH2 0x1E3F JUMP JUMPDEST SWAP3 POP POP PUSH1 0x20 DUP4 ADD CALLDATALOAD PUSH8 0xFFFFFFFFFFFFFFFF DUP2 GT ISZERO PUSH2 0x1ECC JUMPI PUSH2 0x1ECB PUSH2 0x1C51 JUMP JUMPDEST JUMPDEST PUSH2 0x1ED8 DUP6 DUP3 DUP7 ADD PUSH2 0x1E3F JUMP JUMPDEST SWAP2 POP POP SWAP3 POP SWAP3 SWAP1 POP JUMP JUMPDEST PUSH0 DUP2 ISZERO ISZERO SWAP1 POP SWAP2 SWAP1 POP JUMP JUMPDEST PUSH2 0x1EF6 DUP2 PUSH2 0x1EE2 JUMP JUMPDEST DUP3 MSTORE POP POP JUMP JUMPDEST PUSH0 PUSH1 0x20 DUP3 ADD SWAP1 POP PUSH2 0x1F0F PUSH0 DUP4 ADD DUP5 PUSH2 0x1EED JUMP JUMPDEST SWAP3 SWAP2 POP POP JUMP JUMPDEST PUSH0 DUP2 SWAP1 POP SWAP2 SWAP1 POP JUMP JUMPDEST PUSH2 0x1F27 DUP2 PUSH2 0x1F15 JUMP JUMPDEST DUP2 EQ PUSH2 0x1F31 JUMPI PUSH0 DUP1 REVERT JUMPDEST POP JUMP JUMPDEST PUSH0 DUP2 CALLDATALOAD SWAP1 POP PUSH2 0x1F42 DUP2 PUSH2 0x1F1E JUMP JUMPDEST SWAP3 SWAP2 POP POP JUMP JUMPDEST PUSH0 PUSH1 0x20 DUP3 DUP5 SUB SLT ISZERO PUSH2 0x1F5D JUMPI PUSH2 0x1F5C PUSH2 0x1C4D JUMP JUMPDEST JUMPDEST PUSH0 PUSH2 0x1F6A DUP5 DUP3 DUP6 ADD PUSH2 0x1F34 JUMP JUMPDEST SWAP2 POP POP SWAP3 SWAP2 POP POP JUMP JUMPDEST PUSH0 PUSH20 0xFFFFFFFFFFFFFFFFFFFFFFFFFFFFFFFFFFFFFFFF DUP3 AND SWAP1 POP SWAP2 SWAP1 POP JUMP JUMPDEST PUSH0 PUSH2 0x1F9C DUP3 PUSH2 0x1F73 JUMP JUMPDEST SWAP1 POP SWAP2 SWAP1 POP JUMP JUMPDEST PUSH2 0x1FAC DUP2 PUSH2 0x1F92 JUMP JUMPDEST DUP2 EQ PUSH2 0x1FB6 JUMPI PUSH0 DUP1 REVERT JUMPDEST POP JUMP JUMPDEST PUSH0 DUP2 CALLDATALOAD SWAP1 POP PUSH2 0x1FC7 DUP2 PUSH2 0x1FA3 JUMP JUMPDEST SWAP3 SWAP2 POP POP JUMP JUMPDEST PUSH0 PUSH1 0x20 DUP3 DUP5 SUB SLT ISZERO PUSH2 0x1FE2 JUMPI PUSH2 0x1FE1 PUSH2 0x1C4D JUMP JUMPDEST JUMPDEST PUSH0 PUSH2 0x1FEF DUP5 DUP3 DUP6 ADD PUSH2 0x1FB9 JUMP JUMPDEST SWAP2 POP POP SWAP3 SWAP2 POP POP JUMP JUMPDEST PUSH0 DUP2 MLOAD SWAP1 POP SWAP2 SWAP1 POP JUMP JUMPDEST PUSH0 DUP3 DUP3 MSTORE PUSH1 0x20 DUP3 ADD SWAP1 POP SWAP3 SWAP2 POP POP JUMP JUMPDEST DUP3 DUP2 DUP4 MCOPY PUSH0 DUP4 DUP4 ADD MSTORE POP POP POP JUMP JUMPDEST PUSH0 PUSH2 0x202A DUP3 PUSH2 0x1FF8 JUMP JUMPDEST PUSH2 0x2034 DUP2 DUP6 PUSH2 0x2002 JUMP JUMPDEST SWAP4 POP PUSH2 0x2044 DUP2 DUP6 PUSH1 0x20 DUP7 ADD PUSH2 0x2012 JUMP JUMPDEST PUSH2 0x204D DUP2 PUSH2 0x1D38 JUMP JUMPDEST DUP5 ADD SWAP2 POP POP SWAP3 SWAP2 POP POP JUMP JUMPDEST PUSH2 0x2061 DUP2 PUSH2 0x1F15 JUMP JUMPDEST DUP3 MSTORE POP POP JUMP JUMPDEST PUSH2 0x2070 DUP2 PUSH2 0x1F92 JUMP JUMPDEST DUP3 MSTORE POP POP JUMP JUMPDEST PUSH0 PUSH1 0xC0 DUP3 ADD SWAP1 POP DUP2 DUP2 SUB PUSH0 DUP4 ADD MSTORE PUSH2 0x208E DUP2 DUP10 PUSH2 0x2020 JUMP JUMPDEST SWAP1 POP PUSH2 0x209D PUSH1 0x20 DUP4 ADD DUP9 PUSH2 0x2058 JUMP JUMPDEST PUSH2 0x20AA PUSH1 0x40 DUP4 ADD DUP8 PUSH2 0x1EED JUMP JUMPDEST PUSH2 0x20B7 PUSH1 0x60 DUP4 ADD DUP7 PUSH2 0x2067 JUMP JUMPDEST PUSH2 0x20C4 PUSH1 0x80 DUP4 ADD DUP6 PUSH2 0x1C1C JUMP JUMPDEST PUSH2 0x20D1 PUSH1 0xA0 DUP4 ADD DUP5 PUSH2 0x1C1C JUMP JUMPDEST SWAP8 SWAP7 POP POP POP POP POP POP POP JUMP JUMPDEST PUSH2 0x20E5 DUP2 PUSH2 0x1C13 JUMP JUMPDEST DUP2 EQ PUSH2 0x20EF JUMPI PUSH0 DUP1 REVERT JUMPDEST POP JUMP JUMPDEST PUSH0 DUP2 CALLDATALOAD SWAP1 POP PUSH2 0x2100 DUP2 PUSH2 0x20DC JUMP JUMPDEST SWAP3 SWAP2 POP POP JUMP JUMPDEST PUSH0 PUSH1 0x20 DUP3 DUP5 SUB SLT ISZERO PUSH2 0x211B JUMPI PUSH2 0x211A PUSH2 0x1C4D JUMP JUMPDEST JUMPDEST PUSH0 PUSH2 0x2128 DUP5 DUP3 DUP6 ADD PUSH2 0x20F2 JUMP JUMPDEST SWAP2 POP POP SWAP3 SWAP2 POP POP JUMP JUMPDEST PUSH0 PUSH1 0x20 DUP3 ADD SWAP1 POP PUSH2 0x2144 PUSH0 DUP4 ADD DUP5 PUSH2 0x2067 JUMP JUMPDEST SWAP3 SWAP2 POP POP JUMP JUMPDEST PUSH32 0x596F75206D7573742072657665616C20796F757220766F7465206265666F7265 PUSH0 DUP3 ADD MSTORE PUSH32 0x207769746864726177616C000000000000000000000000000000000000000000 PUSH1 0x20 DUP3 ADD MSTORE POP JUMP JUMPDEST PUSH0 PUSH2 0x21A4 PUSH1 0x2B DUP4 PUSH2 0x2002 JUMP JUMPDEST SWAP2 POP PUSH2 0x21AF DUP3 PUSH2 0x214A JUMP JUMPDEST PUSH1 0x40 DUP3 ADD SWAP1 POP SWAP2 SWAP1 POP JUMP JUMPDEST PUSH0 PUSH1 0x20 DUP3 ADD SWAP1 POP DUP2 DUP2 SUB PUSH0 DUP4 ADD MSTORE PUSH2 0x21D1 DUP2 PUSH2 0x2198 JUMP JUMPDEST SWAP1 POP SWAP2 SWAP1 POP JUMP JUMPDEST PUSH32 0x57616974696E6720666F72206F70706F6E656E7420746F2072657665616C206F PUSH0 DUP3 ADD MSTORE PUSH32 0x7220646561646C696E6500000000000000000000000000000000000000000000 PUSH1 0x20 DUP3 ADD MSTORE POP JUMP JUMPDEST PUSH0 PUSH2 0x2232 PUSH1 0x2A DUP4 PUSH2 0x2002 JUMP JUMPDEST SWAP2 POP PUSH2 0x223D DUP3 PUSH2 0x21D8 JUMP JUMPDEST PUSH1 0x40 DUP3 ADD SWAP1 POP SWAP2 SWAP1 POP JUMP JUMPDEST PUSH0 PUSH1 0x20 DUP3 ADD SWAP1 POP DUP2 DUP2 SUB PUSH0 DUP4 ADD MSTORE PUSH2 0x225F DUP2 PUSH2 0x2226 JUMP JUMPDEST SWAP1 POP SWAP2 SWAP1 POP JUMP JUMPDEST PUSH32 0x4E487B7100000000000000000000000000000000000000000000000000000000 PUSH0 MSTORE PUSH1 0x22 PUSH1 0x4 MSTORE PUSH1 0x24 PUSH0 REVERT JUMPDEST PUSH0 PUSH1 0x2 DUP3 DIV SWAP1 POP PUSH1 0x1 DUP3 AND DUP1 PUSH2 0x22AA JUMPI PUSH1 0x7F DUP3 AND SWAP2 POP JUMPDEST PUSH1 0x20 DUP3 LT DUP2 SUB PUSH2 0x22BD JUMPI PUSH2 0x22BC PUSH2 0x2266 JUMP JUMPDEST JUMPDEST POP SWAP2 SWAP1 POP JUMP JUMPDEST PUSH32 0x4E487B7100000000000000000000000000000000000000000000000000000000 PUSH0 MSTORE PUSH1 0x11 PUSH1 0x4 MSTORE PUSH1 0x24 PUSH0 REVERT JUMPDEST PUSH0 PUSH2 0x22FA DUP3 PUSH2 0x1C13 JUMP JUMPDEST SWAP2 POP PUSH2 0x2305 DUP4 PUSH2 0x1C13 JUMP JUMPDEST SWAP3 POP DUP3 DUP3 MUL PUSH2 0x2313 DUP2 PUSH2 0x1C13 JUMP JUMPDEST SWAP2 POP DUP3 DUP3 DIV DUP5 EQ DUP4 ISZERO OR PUSH2 0x232A JUMPI PUSH2 0x2329 PUSH2 0x22C3 JUMP JUMPDEST JUMPDEST POP SWAP3 SWAP2 POP POP JUMP JUMPDEST PUSH0 PUSH1 0x40 DUP3 ADD SWAP1 POP PUSH2 0x2344 PUSH0 DUP4 ADD DUP6 PUSH2 0x2067 JUMP JUMPDEST PUSH2 0x2351 PUSH1 0x20 DUP4 ADD DUP5 PUSH2 0x1C1C JUMP JUMPDEST SWAP4 SWAP3 POP POP POP JUMP JUMPDEST PUSH32 0x57616974696E6720666F7220616E206F70706F6E656E74000000000000000000 PUSH0 DUP3 ADD MSTORE POP JUMP JUMPDEST PUSH0 PUSH2 0x238C PUSH1 0x17 DUP4 PUSH2 0x2002 JUMP JUMPDEST SWAP2 POP PUSH2 0x2397 DUP3 PUSH2 0x2358 JUMP JUMPDEST PUSH1 0x20 DUP3 ADD SWAP1 POP SWAP2 SWAP1 POP JUMP JUMPDEST PUSH0 PUSH1 0x20 DUP3 ADD SWAP1 POP DUP2 DUP2 SUB PUSH0 DUP4 ADD MSTORE PUSH2 0x23B9 DUP2 PUSH2 0x2380 JUMP JUMPDEST SWAP1 POP SWAP2 SWAP1 POP JUMP JUMPDEST PUSH0 DUP2 SWAP1 POP SWAP3 SWAP2 POP POP JUMP JUMPDEST PUSH0 PUSH2 0x23D4 DUP3 PUSH2 0x1FF8 JUMP JUMPDEST PUSH2 0x23DE DUP2 DUP6 PUSH2 0x23C0 JUMP JUMPDEST SWAP4 POP PUSH2 0x23EE DUP2 DUP6 PUSH1 0x20 DUP7 ADD PUSH2 0x2012 JUMP JUMPDEST DUP1 DUP5 ADD SWAP2 POP POP SWAP3 SWAP2 POP POP JUMP JUMPDEST PUSH0 PUSH2 0x2405 DUP3 DUP6 PUSH2 0x23CA JUMP JUMPDEST SWAP2 POP PUSH2 0x2411 DUP3 DUP5 PUSH2 0x23CA JUMP JUMPDEST SWAP2 POP DUP2 SWAP1 POP SWAP4 SWAP3 POP POP POP JUMP JUMPDEST PUSH32 0x4E6F7420612076616C696420766F746500000000000000000000000000000000 PUSH0 DUP3 ADD MSTORE POP JUMP JUMPDEST PUSH0 PUSH2 0x2451 PUSH1 0x10 DUP4 PUSH2 0x2002 JUMP JUMPDEST SWAP2 POP PUSH2 0x245C DUP3 PUSH2 0x241D JUMP JUMPDEST PUSH1 0x20 DUP3 ADD SWAP1 POP SWAP2 SWAP1 POP JUMP JUMPDEST PUSH0 PUSH1 0x20 DUP3 ADD SWAP1 POP DUP2 DUP2 SUB PUSH0 DUP4 ADD MSTORE PUSH2 0x247E DUP2 PUSH2 0x2445 JUMP JUMPDEST SWAP1 POP SWAP2 SWAP1 POP JUMP JUMPDEST PUSH32 0x4E487B7100000000000000000000000000000000000000000000000000000000 PUSH0 MSTORE PUSH1 0x32 PUSH1 0x4 MSTORE PUSH1 0x24 PUSH0 REVERT JUMPDEST PUSH0 PUSH1 0xFF DUP3 AND SWAP1 POP SWAP2 SWAP1 POP JUMP JUMPDEST PUSH0 PUSH2 0x24C8 DUP3 PUSH2 0x24B2 JUMP JUMPDEST SWAP2 POP PUSH2 0x24D3 DUP4 PUSH2 0x24B2 JUMP JUMPDEST SWAP3 POP DUP3 DUP3 SUB SWAP1 POP PUSH1 0xFF DUP2 GT ISZERO PUSH2 0x24EC JUMPI PUSH2 0x24EB PUSH2 0x22C3 JUMP JUMPDEST JUMPDEST SWAP3 SWAP2 POP POP JUMP JUMPDEST PUSH0 DUP2 SWAP1 POP DUP2 PUSH0 MSTORE PUSH1 0x20 PUSH0 KECCAK256 SWAP1 POP SWAP2 SWAP1 POP JUMP JUMPDEST PUSH0 PUSH1 0x20 PUSH1 0x1F DUP4 ADD DIV SWAP1 POP SWAP2 SWAP1 POP JUMP JUMPDEST PUSH0 DUP3 DUP3 SHL SWAP1 POP SWAP3 SWAP2 POP POP JUMP JUMPDEST PUSH0 PUSH1 0x8 DUP4 MUL PUSH2 0x254E PUSH32 0xFFFFFFFFFFFFFFFFFFFFFFFFFFFFFFFFFFFFFFFFFFFFFFFFFFFFFFFFFFFFFFFF DUP3 PUSH2 0x2513 JUMP JUMPDEST PUSH2 0x2558 DUP7 DUP4 PUSH2 0x2513 JUMP JUMPDEST SWAP6 POP DUP1 NOT DUP5 AND SWAP4 POP DUP1 DUP7 AND DUP5 OR SWAP3 POP POP POP SWAP4 SWAP3 POP POP POP JUMP JUMPDEST PUSH0 DUP2 SWAP1 POP SWAP2 SWAP1 POP JUMP JUMPDEST PUSH0 PUSH2 0x2593 PUSH2 0x258E PUSH2 0x2589 DUP5 PUSH2 0x1C13 JUMP JUMPDEST PUSH2 0x2570 JUMP JUMPDEST PUSH2 0x1C13 JUMP JUMPDEST SWAP1 POP SWAP2 SWAP1 POP JUMP JUMPDEST PUSH0 DUP2 SWAP1 POP SWAP2 SWAP1 POP JUMP JUMPDEST PUSH2 0x25AC DUP4 PUSH2 0x2579 JUMP JUMPDEST PUSH2 0x25C0 PUSH2 0x25B8 DUP3 PUSH2 0x259A JUMP JUMPDEST DUP5 DUP5 SLOAD PUSH2 0x251F JUMP JUMPDEST DUP3 SSTORE POP POP POP POP JUMP JUMPDEST PUSH0 SWAP1 JUMP JUMPDEST PUSH2 0x25D4 PUSH2 0x25C8 JUMP JUMPDEST PUSH2 0x25DF DUP2 DUP5 DUP5 PUSH2 0x25A3 JUMP JUMPDEST POP POP POP JUMP JUMPDEST JUMPDEST DUP2 DUP2 LT ISZERO PUSH2 0x2602 JUMPI PUSH2 0x25F7 PUSH0 DUP3 PUSH2 0x25CC JUMP JUMPDEST PUSH1 0x1 DUP2 ADD SWAP1 POP PUSH2 0x25E5 JUMP JUMPDEST POP POP JUMP JUMPDEST PUSH1 0x1F DUP3 GT ISZERO PUSH2 0x2647 JUMPI PUSH2 0x2618 DUP2 PUSH2 0x24F2 JUMP JUMPDEST PUSH2 0x2621 DUP5 PUSH2 0x2504 JUMP JUMPDEST DUP2 ADD PUSH1 0x20 DUP6 LT ISZERO PUSH2 0x2630 JUMPI DUP2 SWAP1 POP JUMPDEST PUSH2 0x2644 PUSH2 0x263C DUP6 PUSH2 0x2504 JUMP JUMPDEST DUP4 ADD DUP3 PUSH2 0x25E4 JUMP JUMPDEST POP POP JUMPDEST POP POP POP JUMP JUMPDEST PUSH0 DUP3 DUP3 SHR SWAP1 POP SWAP3 SWAP2 POP POP JUMP JUMPDEST PUSH0 PUSH2 0x2667 PUSH0 NOT DUP5 PUSH1 0x8 MUL PUSH2 0x264C JUMP JUMPDEST NOT DUP1 DUP4 AND SWAP2 POP POP SWAP3 SWAP2 POP POP JUMP JUMPDEST PUSH0 PUSH2 0x267F DUP4 DUP4 PUSH2 0x2658 JUMP JUMPDEST SWAP2 POP DUP3 PUSH1 0x2 MUL DUP3 OR SWAP1 POP SWAP3 SWAP2 POP POP JUMP JUMPDEST PUSH2 0x2698 DUP3 PUSH2 0x1FF8 JUMP JUMPDEST PUSH8 0xFFFFFFFFFFFFFFFF DUP2 GT ISZERO PUSH2 0x26B1 JUMPI PUSH2 0x26B0 PUSH2 0x1D48 JUMP JUMPDEST JUMPDEST PUSH2 0x26BB DUP3 SLOAD PUSH2 0x2293 JUMP JUMPDEST PUSH2 0x26C6 DUP3 DUP3 DUP6 PUSH2 0x2606 JUMP JUMPDEST PUSH0 PUSH1 0x20 SWAP1 POP PUSH1 0x1F DUP4 GT PUSH1 0x1 DUP2 EQ PUSH2 0x26F7 JUMPI PUSH0 DUP5 ISZERO PUSH2 0x26E5 JUMPI DUP3 DUP8 ADD MLOAD SWAP1 POP JUMPDEST PUSH2 0x26EF DUP6 DUP3 PUSH2 0x2674 JUMP JUMPDEST DUP7 SSTORE POP PUSH2 0x2756 JUMP JUMPDEST PUSH1 0x1F NOT DUP5 AND PUSH2 0x2705 DUP7 PUSH2 0x24F2 JUMP JUMPDEST PUSH0 JUMPDEST DUP3 DUP2 LT ISZERO PUSH2 0x272C JUMPI DUP5 DUP10 ADD MLOAD DUP3 SSTORE PUSH1 0x1 DUP3 ADD SWAP2 POP PUSH1 0x20 DUP6 ADD SWAP5 POP PUSH1 0x20 DUP2 ADD SWAP1 POP PUSH2 0x2707 JUMP JUMPDEST DUP7 DUP4 LT ISZERO PUSH2 0x2749 JUMPI DUP5 DUP10 ADD MLOAD PUSH2 0x2745 PUSH1 0x1F DUP10 AND DUP3 PUSH2 0x2658 JUMP JUMPDEST DUP4 SSTORE POP JUMPDEST PUSH1 0x1 PUSH1 0x2 DUP9 MUL ADD DUP9 SSTORE POP POP POP JUMPDEST POP POP POP POP POP POP JUMP JUMPDEST PUSH0 PUSH1 0x40 DUP3 ADD SWAP1 POP PUSH2 0x2771 PUSH0 DUP4 ADD DUP6 PUSH2 0x2067 JUMP JUMPDEST DUP2 DUP2 SUB PUSH1 0x20 DUP4 ADD MSTORE PUSH2 0x2783 DUP2 DUP5 PUSH2 0x2020 JUMP JUMPDEST SWAP1 POP SWAP4 SWAP3 POP POP POP JUMP JUMPDEST PUSH32 0x596F7520646964206E6F742063686F6F736520726F636B2C207061706572206F PUSH0 DUP3 ADD MSTORE PUSH32 0x722073636973736F727300000000000000000000000000000000000000000000 PUSH1 0x20 DUP3 ADD MSTORE POP JUMP JUMPDEST PUSH0 PUSH2 0x27E6 PUSH1 0x2A DUP4 PUSH2 0x2002 JUMP JUMPDEST SWAP2 POP PUSH2 0x27F1 DUP3 PUSH2 0x278C JUMP JUMPDEST PUSH1 0x40 DUP3 ADD SWAP1 POP SWAP2 SWAP1 POP JUMP JUMPDEST PUSH0 PUSH1 0x20 DUP3 ADD SWAP1 POP DUP2 DUP2 SUB PUSH0 DUP4 ADD MSTORE PUSH2 0x2813 DUP2 PUSH2 0x27DA JUMP JUMPDEST SWAP1 POP SWAP2 SWAP1 POP JUMP JUMPDEST PUSH0 PUSH2 0x2825 DUP3 DUP5 PUSH2 0x23CA JUMP JUMPDEST SWAP2 POP DUP2 SWAP1 POP SWAP3 SWAP2 POP POP JUMP JUMPDEST PUSH32 0x596F752061726520616C726561647920706C6179696E67000000000000000000 PUSH0 DUP3 ADD MSTORE POP JUMP JUMPDEST PUSH0 PUSH2 0x2864 PUSH1 0x17 DUP4 PUSH2 0x2002 JUMP JUMPDEST SWAP2 POP PUSH2 0x286F DUP3 PUSH2 0x2830 JUMP JUMPDEST PUSH1 0x20 DUP3 ADD SWAP1 POP SWAP2 SWAP1 POP JUMP JUMPDEST PUSH0 PUSH1 0x20 DUP3 ADD SWAP1 POP DUP2 DUP2 SUB PUSH0 DUP4 ADD MSTORE PUSH2 0x2891 DUP2 PUSH2 0x2858 JUMP JUMPDEST SWAP1 POP SWAP2 SWAP1 POP JUMP JUMPDEST PUSH32 0x546865207374616B65206D757374206265206D6F7265207468616E20302C3030 PUSH0 DUP3 ADD MSTORE PUSH32 0x3031204574686572000000000000000000000000000000000000000000000000 PUSH1 0x20 DUP3 ADD MSTORE POP JUMP JUMPDEST PUSH0 PUSH2 0x28F2 PUSH1 0x28 DUP4 PUSH2 0x2002 JUMP JUMPDEST SWAP2 POP PUSH2 0x28FD DUP3 PUSH2 0x2898 JUMP JUMPDEST PUSH1 0x40 DUP3 ADD SWAP1 POP SWAP2 SWAP1 POP JUMP JUMPDEST PUSH0 PUSH1 0x20 DUP3 ADD SWAP1 POP DUP2 DUP2 SUB PUSH0 DUP4 ADD MSTORE PUSH2 0x291F DUP2 PUSH2 0x28E6 JUMP JUMPDEST SWAP1 POP SWAP2 SWAP1 POP JUMP JUMPDEST PUSH0 PUSH2 0x2930 DUP3 PUSH2 0x1C13 JUMP JUMPDEST SWAP2 POP PUSH2 0x293B DUP4 PUSH2 0x1C13 JUMP JUMPDEST SWAP3 POP DUP3 DUP3 SUB SWAP1 POP DUP2 DUP2 GT ISZERO PUSH2 0x2953 JUMPI PUSH2 0x2952 PUSH2 0x22C3 JUMP JUMPDEST JUMPDEST SWAP3 SWAP2 POP POP JUMP JUMPDEST PUSH32 0x596F75206E65656420746F206D6174636820746865206F70706F6E656E747320 PUSH0 DUP3 ADD MSTORE PUSH32 0x7374616B65000000000000000000000000000000000000000000000000000000 PUSH1 0x20 DUP3 ADD MSTORE POP JUMP JUMPDEST PUSH0 PUSH2 0x29B3 PUSH1 0x25 DUP4 PUSH2 0x2002 JUMP JUMPDEST SWAP2 POP PUSH2 0x29BE DUP3 PUSH2 0x2959 JUMP JUMPDEST PUSH1 0x40 DUP3 ADD SWAP1 POP SWAP2 SWAP1 POP JUMP JUMPDEST PUSH0 PUSH1 0x20 DUP3 ADD SWAP1 POP DUP2 DUP2 SUB PUSH0 DUP4 ADD MSTORE PUSH2 0x29E0 DUP2 PUSH2 0x29A7 JUMP JUMPDEST SWAP1 POP SWAP2 SWAP1 POP JUMP JUMPDEST PUSH0 PUSH2 0x29F1 DUP3 PUSH2 0x1C13 JUMP JUMPDEST SWAP2 POP PUSH2 0x29FC DUP4 PUSH2 0x1C13 JUMP JUMPDEST SWAP3 POP DUP3 DUP3 ADD SWAP1 POP DUP1 DUP3 GT ISZERO PUSH2 0x2A14 JUMPI PUSH2 0x2A13 PUSH2 0x22C3 JUMP JUMPDEST JUMPDEST SWAP3 SWAP2 POP POP JUMP JUMPDEST PUSH32 0x4E487B7100000000000000000000000000000000000000000000000000000000 PUSH0 MSTORE PUSH1 0x31 PUSH1 0x4 MSTORE PUSH1 0x24 PUSH0 REVERT JUMPDEST PUSH0 PUSH1 0x60 DUP3 ADD SWAP1 POP PUSH2 0x2A5A PUSH0 DUP4 ADD DUP7 PUSH2 0x2067 JUMP JUMPDEST PUSH2 0x2A67 PUSH1 0x20 DUP4 ADD DUP6 PUSH2 0x2067 JUMP JUMPDEST PUSH2 0x2A74 PUSH1 0x40 DUP4 ADD DUP5 PUSH2 0x1C1C JUMP JUMPDEST SWAP5 SWAP4 POP POP POP POP JUMP JUMPDEST PUSH0 PUSH1 0x40 DUP3 ADD SWAP1 POP PUSH2 0x2A8F PUSH0 DUP4 ADD DUP6 PUSH2 0x2067 JUMP JUMPDEST PUSH2 0x2A9C PUSH1 0x20 DUP4 ADD DUP5 PUSH2 0x2058 JUMP JUMPDEST SWAP4 SWAP3 POP POP POP JUMP INVALID LOG2 PUSH5 0x6970667358 0x22 SLT KECCAK256 CALLDATALOAD SWAP3 0xDC CODESIZE 0xA9 SWAP7 0x4F PUSH16 0xBA7C512D5B385B96AC303E1C8937C2B2 0xD2 0xD8 BLOBHASH 0xF NOT 0xE5 0xD7 0xE3 PUSH5 0x736F6C6343 STOP ADDMOD BYTE STOP CALLER "
				},
				"gasEstimates": {
					"creation": {
						"codeDepositCost": "2193800",
						"executionCost": "46548",
						"totalCost": "2240348"
					},
					"external": {
						"compareStrings(string,string)": "infinite",
						"isWinner(string,string)": "infinite",
						"minStake()": "2426",
						"play(bytes32)": "infinite",
						"playerQueue(uint256)": "5032",
						"players(address)": "infinite",
						"reveal(string,string)": "infinite",
						"revealTime()": "2425",
						"withdraw()": "infinite"
					}
				},
				"methodIdentifiers": {
					"compareStrings(string,string)": "bed34bba",
					"isWinner(string,string)": "943e0a04",
					"minStake()": "375b3c0a",
					"play(bytes32)": "c7a1865b",
					"playerQueue(uint256)": "e71a0706",
					"players(address)": "e2eb41ff",
					"reveal(string,string)": "5ba1b2c7",
					"revealTime()": "ba829d71",
					"withdraw()": "3ccfd60b"
				}
			},
			"storageLayout": {
				"storage": [
					{
						"astId": 46,
						"contract": "contracts/RSPGame.sol:RPSGame",
						"label": "players",
						"offset": 0,
						"slot": "0",
						"type": "t_mapping(t_address,t_struct(Player)15_storage)"
					},
					{
						"astId": 49,
						"contract": "contracts/RSPGame.sol:RPSGame",
						"label": "playerQueue",
						"offset": 0,
						"slot": "1",
						"type": "t_array(t_address)dyn_storage"
					},
					{
						"astId": 52,
						"contract": "contracts/RSPGame.sol:RPSGame",
						"label": "minStake",
						"offset": 0,
						"slot": "2",
						"type": "t_uint256"
					},
					{
						"astId": 55,
						"contract": "contracts/RSPGame.sol:RPSGame",
						"label": "revealTime",
						"offset": 0,
						"slot": "3",
						"type": "t_uint256"
					}
				],
				"types": {
					"t_address": {
						"encoding": "inplace",
						"label": "address",
						"numberOfBytes": "20"
					},
					"t_array(t_address)dyn_storage": {
						"base": "t_address",
						"encoding": "dynamic_array",
						"label": "address[]",
						"numberOfBytes": "32"
					},
					"t_bool": {
						"encoding": "inplace",
						"label": "bool",
						"numberOfBytes": "1"
					},
					"t_bytes32": {
						"encoding": "inplace",
						"label": "bytes32",
						"numberOfBytes": "32"
					},
					"t_mapping(t_address,t_struct(Player)15_storage)": {
						"encoding": "mapping",
						"key": "t_address",
						"label": "mapping(address => struct RPSGame.Player)",
						"numberOfBytes": "32",
						"value": "t_struct(Player)15_storage"
					},
					"t_string_storage": {
						"encoding": "bytes",
						"label": "string",
						"numberOfBytes": "32"
					},
					"t_struct(Player)15_storage": {
						"encoding": "inplace",
						"label": "struct RPSGame.Player",
						"members": [
							{
								"astId": 4,
								"contract": "contracts/RSPGame.sol:RPSGame",
								"label": "vote",
								"offset": 0,
								"slot": "0",
								"type": "t_string_storage"
							},
							{
								"astId": 6,
								"contract": "contracts/RSPGame.sol:RPSGame",
								"label": "hashedVote",
								"offset": 0,
								"slot": "1",
								"type": "t_bytes32"
							},
							{
								"astId": 8,
								"contract": "contracts/RSPGame.sol:RPSGame",
								"label": "revealed",
								"offset": 0,
								"slot": "2",
								"type": "t_bool"
							},
							{
								"astId": 10,
								"contract": "contracts/RSPGame.sol:RPSGame",
								"label": "opponent",
								"offset": 1,
								"slot": "2",
								"type": "t_address"
							},
							{
								"astId": 12,
								"contract": "contracts/RSPGame.sol:RPSGame",
								"label": "stake",
								"offset": 0,
								"slot": "3",
								"type": "t_uint256"
							},
							{
								"astId": 14,
								"contract": "contracts/RSPGame.sol:RPSGame",
								"label": "deadline",
								"offset": 0,
								"slot": "4",
								"type": "t_uint256"
							}
						],
						"numberOfBytes": "160"
					},
					"t_uint256": {
						"encoding": "inplace",
						"label": "uint256",
						"numberOfBytes": "32"
					}
				}
			},
			"userdoc": {
				"kind": "user",
				"methods": {
					"play(bytes32)": {
						"notice": "The vote must be a valid character ('R', 'P', 'S')         and be concatenated with salt. The hashing         algorithm to be used is keccak256.The player must deposit a stake of 1 Ether to join."
					},
					"reveal(string,string)": {
						"notice": "To reveal the vote, the player must use         the same vote and salt used to create the hash."
					},
					"withdraw()": {
						"notice": "You can only withdraw on victory, tie, or timeout of the deadline."
					}
				},
				"notice": "This contract allows players to participate in a Rock-Paper-Scissors game with a stake.         Players submit their hashed votes and later reveal them to determine the winner.         The gas fee for two player finishing a normal game where no unusual protocol violations         happen is: 402 588 gas.",
				"version": 1
			}
		}
	}
}