{
	"contracts/RSPGame.sol": {
		"RPSGame": {
			"abi": [
				{
					"anonymous": false,
					"inputs": [
						{
							"indexed": false,
							"internalType": "address",
							"name": "_player1",
							"type": "address"
						},
						{
							"indexed": false,
							"internalType": "address",
							"name": "_player2",
							"type": "address"
						},
						{
							"indexed": false,
							"internalType": "uint256",
							"name": "_deadline",
							"type": "uint256"
						}
					],
					"name": "GameStart",
					"type": "event"
				},
				{
					"anonymous": false,
					"inputs": [
						{
							"indexed": false,
							"internalType": "address",
							"name": "_player",
							"type": "address"
						},
						{
							"indexed": false,
							"internalType": "bytes32",
							"name": "_hashedVote",
							"type": "bytes32"
						}
					],
					"name": "HiddenVote",
					"type": "event"
				},
				{
					"anonymous": false,
					"inputs": [
						{
							"indexed": false,
							"internalType": "address",
							"name": "_player",
							"type": "address"
						},
						{
							"indexed": false,
							"internalType": "string",
							"name": "_vote",
							"type": "string"
						}
					],
					"name": "RevealedVote",
					"type": "event"
				},
				{
					"anonymous": false,
					"inputs": [
						{
							"indexed": false,
							"internalType": "address",
							"name": "_winner",
							"type": "address"
						},
						{
							"indexed": false,
							"internalType": "uint256",
							"name": "_amount",
							"type": "uint256"
						}
					],
					"name": "Withdraw",
					"type": "event"
				},
				{
					"inputs": [
						{
							"internalType": "string",
							"name": "a",
							"type": "string"
						},
						{
							"internalType": "string",
							"name": "b",
							"type": "string"
						}
					],
					"name": "compareStrings",
					"outputs": [
						{
							"internalType": "bool",
							"name": "",
							"type": "bool"
						}
					],
					"stateMutability": "pure",
					"type": "function"
				},
				{
					"inputs": [
						{
							"internalType": "string",
							"name": "_vote1",
							"type": "string"
						},
						{
							"internalType": "string",
							"name": "_vote2",
							"type": "string"
						}
					],
					"name": "isWinner",
					"outputs": [
						{
							"internalType": "bool",
							"name": "",
							"type": "bool"
						}
					],
					"stateMutability": "pure",
					"type": "function"
				},
				{
					"inputs": [
						{
							"internalType": "bytes32",
							"name": "_hashedVote",
							"type": "bytes32"
						}
					],
					"name": "play",
					"outputs": [],
					"stateMutability": "payable",
					"type": "function"
				},
				{
					"inputs": [
						{
							"internalType": "uint256",
							"name": "",
							"type": "uint256"
						}
					],
					"name": "playerQueue",
					"outputs": [
						{
							"internalType": "address",
							"name": "",
							"type": "address"
						}
					],
					"stateMutability": "view",
					"type": "function"
				},
				{
					"inputs": [
						{
							"internalType": "address",
							"name": "",
							"type": "address"
						}
					],
					"name": "players",
					"outputs": [
						{
							"internalType": "string",
							"name": "vote",
							"type": "string"
						},
						{
							"internalType": "bytes32",
							"name": "hashedVote",
							"type": "bytes32"
						},
						{
							"internalType": "bool",
							"name": "revealed",
							"type": "bool"
						},
						{
							"internalType": "address",
							"name": "opponent",
							"type": "address"
						},
						{
							"internalType": "uint256",
							"name": "deadline",
							"type": "uint256"
						}
					],
					"stateMutability": "view",
					"type": "function"
				},
				{
					"inputs": [
						{
							"internalType": "string",
							"name": "_vote",
							"type": "string"
						},
						{
							"internalType": "string",
							"name": "_salt",
							"type": "string"
						}
					],
					"name": "reveal",
					"outputs": [],
					"stateMutability": "nonpayable",
					"type": "function"
				},
				{
					"inputs": [],
					"name": "revealTime",
					"outputs": [
						{
							"internalType": "uint256",
							"name": "",
							"type": "uint256"
						}
					],
					"stateMutability": "view",
					"type": "function"
				},
				{
					"inputs": [],
					"name": "stake",
					"outputs": [
						{
							"internalType": "uint256",
							"name": "",
							"type": "uint256"
						}
					],
					"stateMutability": "view",
					"type": "function"
				},
				{
					"inputs": [],
					"name": "withdraw",
					"outputs": [],
					"stateMutability": "payable",
					"type": "function"
				}
			],
			"devdoc": {
				"author": "Johan F. Wilvang",
				"details": "The contract handles player registration, vote submission, vote revealing, and stake withdrawal.",
				"kind": "dev",
				"methods": {
					"compareStrings(string,string)": {
						"details": "Compares two strings for equality.",
						"params": {
							"a": "The first string.",
							"b": "The second string."
						},
						"returns": {
							"_0": "True if the strings are equal, false otherwise."
						}
					},
					"isWinner(string,string)": {
						"details": "Determines if the first vote is the winner.",
						"params": {
							"_vote1": "The first vote.",
							"_vote2": "The second vote."
						},
						"returns": {
							"_0": "True if the first vote is the winner, false otherwise."
						}
					},
					"play(bytes32)": {
						"details": "Allows a player to join the game with a hashed vote.",
						"params": {
							"_hashedVote": "The hashed vote of the player."
						}
					},
					"reveal(string,string)": {
						"details": "Allows a player to reveal their vote.      The vote will be converted to uppercase if      it was originally in lowercase.",
						"params": {
							"_salt": "The salt used to hash the vote.",
							"_vote": "The vote of the player."
						}
					},
					"withdraw()": {
						"details": "Allows a player to withdraw their stake if conditions are met."
					}
				},
				"title": "Rock-Paper-Scissors Game Contract",
				"version": 1
			},
			"evm": {
				"assembly": "    /* \"contracts/RSPGame.sol\":580:9581  contract RPSGame {... */\n  mstore(0x40, 0x80)\n    /* \"contracts/RSPGame.sol\":1575:1582  1 ether */\n  0x0de0b6b3a7640000\n    /* \"contracts/RSPGame.sol\":1555:1582  uint public stake = 1 ether */\n  0x02\n  sstore\n    /* \"contracts/RSPGame.sol\":1636:1639  480 */\n  0x01e0\n    /* \"contracts/RSPGame.sol\":1611:1639  uint public revealTime = 480 */\n  0x03\n  sstore\n    /* \"contracts/RSPGame.sol\":580:9581  contract RPSGame {... */\n  callvalue\n  dup1\n  iszero\n  tag_1\n  jumpi\n  0x00\n  dup1\n  revert\ntag_1:\n  pop\n  dataSize(sub_0)\n  dup1\n  dataOffset(sub_0)\n  0x00\n  codecopy\n  0x00\n  return\nstop\n\nsub_0: assembly {\n        /* \"contracts/RSPGame.sol\":580:9581  contract RPSGame {... */\n      mstore(0x40, 0x80)\n      jumpi(tag_1, lt(calldatasize, 0x04))\n      shr(0xe0, calldataload(0x00))\n      dup1\n      0xba829d71\n      gt\n      tag_11\n      jumpi\n      dup1\n      0xba829d71\n      eq\n      tag_6\n      jumpi\n      dup1\n      0xbed34bba\n      eq\n      tag_7\n      jumpi\n      dup1\n      0xc7a1865b\n      eq\n      tag_8\n      jumpi\n      dup1\n      0xe2eb41ff\n      eq\n      tag_9\n      jumpi\n      dup1\n      0xe71a0706\n      eq\n      tag_10\n      jumpi\n      jump(tag_1)\n    tag_11:\n      dup1\n      0x3a4b66f1\n      eq\n      tag_2\n      jumpi\n      dup1\n      0x3ccfd60b\n      eq\n      tag_3\n      jumpi\n      dup1\n      0x5ba1b2c7\n      eq\n      tag_4\n      jumpi\n      dup1\n      0x943e0a04\n      eq\n      tag_5\n      jumpi\n    tag_1:\n      0x00\n      dup1\n      revert\n        /* \"contracts/RSPGame.sol\":1555:1582  uint public stake = 1 ether */\n    tag_2:\n      callvalue\n      dup1\n      iszero\n      tag_12\n      jumpi\n      0x00\n      dup1\n      revert\n    tag_12:\n      pop\n      tag_13\n      tag_14\n      jump\t// in\n    tag_13:\n      mload(0x40)\n      tag_15\n      swap2\n      swap1\n      tag_16\n      jump\t// in\n    tag_15:\n      mload(0x40)\n      dup1\n      swap2\n      sub\n      swap1\n      return\n        /* \"contracts/RSPGame.sol\":4687:5993  function withdraw() public payable canWithdraw {... */\n    tag_3:\n      tag_17\n      tag_18\n      jump\t// in\n    tag_17:\n      stop\n        /* \"contracts/RSPGame.sol\":3870:4508  function reveal(string calldata _vote, string calldata _salt) public hasOpponent validVote(_vote, _salt) {... */\n    tag_4:\n      callvalue\n      dup1\n      iszero\n      tag_19\n      jumpi\n      0x00\n      dup1\n      revert\n    tag_19:\n      pop\n      tag_20\n      0x04\n      dup1\n      calldatasize\n      sub\n      dup2\n      add\n      swap1\n      tag_21\n      swap2\n      swap1\n      tag_22\n      jump\t// in\n    tag_21:\n      tag_23\n      jump\t// in\n    tag_20:\n      stop\n        /* \"contracts/RSPGame.sol\":8910:9579  function isWinner(string memory _vote1, string memory _vote2) public pure validChoice(_vote1) returns(bool) {... */\n    tag_5:\n      callvalue\n      dup1\n      iszero\n      tag_24\n      jumpi\n      0x00\n      dup1\n      revert\n    tag_24:\n      pop\n      tag_25\n      0x04\n      dup1\n      calldatasize\n      sub\n      dup2\n      add\n      swap1\n      tag_26\n      swap2\n      swap1\n      tag_27\n      jump\t// in\n    tag_26:\n      tag_28\n      jump\t// in\n    tag_25:\n      mload(0x40)\n      tag_29\n      swap2\n      swap1\n      tag_30\n      jump\t// in\n    tag_29:\n      mload(0x40)\n      dup1\n      swap2\n      sub\n      swap1\n      return\n        /* \"contracts/RSPGame.sol\":1611:1639  uint public revealTime = 480 */\n    tag_6:\n      callvalue\n      dup1\n      iszero\n      tag_31\n      jumpi\n      0x00\n      dup1\n      revert\n    tag_31:\n      pop\n      tag_32\n      tag_33\n      jump\t// in\n    tag_32:\n      mload(0x40)\n      tag_34\n      swap2\n      swap1\n      tag_16\n      jump\t// in\n    tag_34:\n      mload(0x40)\n      dup1\n      swap2\n      sub\n      swap1\n      return\n        /* \"contracts/RSPGame.sol\":6194:6425  function compareStrings(string memory a, string memory b) public pure returns (bool) {... */\n    tag_7:\n      callvalue\n      dup1\n      iszero\n      tag_35\n      jumpi\n      0x00\n      dup1\n      revert\n    tag_35:\n      pop\n      tag_36\n      0x04\n      dup1\n      calldatasize\n      sub\n      dup2\n      add\n      swap1\n      tag_37\n      swap2\n      swap1\n      tag_27\n      jump\t// in\n    tag_37:\n      tag_38\n      jump\t// in\n    tag_36:\n      mload(0x40)\n      tag_39\n      swap2\n      swap1\n      tag_30\n      jump\t// in\n    tag_39:\n      mload(0x40)\n      dup1\n      swap2\n      sub\n      swap1\n      return\n        /* \"contracts/RSPGame.sol\":2051:3485  function play(bytes32 _hashedVote) public payable isNewPlayer costs(stake) {... */\n    tag_8:\n      tag_40\n      0x04\n      dup1\n      calldatasize\n      sub\n      dup2\n      add\n      swap1\n      tag_41\n      swap2\n      swap1\n      tag_42\n      jump\t// in\n    tag_41:\n      tag_43\n      jump\t// in\n    tag_40:\n      stop\n        /* \"contracts/RSPGame.sol\":1427:1468  mapping(address => Player) public players */\n    tag_9:\n      callvalue\n      dup1\n      iszero\n      tag_44\n      jumpi\n      0x00\n      dup1\n      revert\n    tag_44:\n      pop\n      tag_45\n      0x04\n      dup1\n      calldatasize\n      sub\n      dup2\n      add\n      swap1\n      tag_46\n      swap2\n      swap1\n      tag_47\n      jump\t// in\n    tag_46:\n      tag_48\n      jump\t// in\n    tag_45:\n      mload(0x40)\n      tag_49\n      swap6\n      swap5\n      swap4\n      swap3\n      swap2\n      swap1\n      tag_50\n      jump\t// in\n    tag_49:\n      mload(0x40)\n      dup1\n      swap2\n      sub\n      swap1\n      return\n        /* \"contracts/RSPGame.sol\":1475:1503  address[] public playerQueue */\n    tag_10:\n      callvalue\n      dup1\n      iszero\n      tag_51\n      jumpi\n      0x00\n      dup1\n      revert\n    tag_51:\n      pop\n      tag_52\n      0x04\n      dup1\n      calldatasize\n      sub\n      dup2\n      add\n      swap1\n      tag_53\n      swap2\n      swap1\n      tag_54\n      jump\t// in\n    tag_53:\n      tag_55\n      jump\t// in\n    tag_52:\n      mload(0x40)\n      tag_56\n      swap2\n      swap1\n      tag_57\n      jump\t// in\n    tag_56:\n      mload(0x40)\n      dup1\n      swap2\n      sub\n      swap1\n      return\n        /* \"contracts/RSPGame.sol\":1555:1582  uint public stake = 1 ether */\n    tag_14:\n      sload(0x02)\n      dup2\n      jump\t// out\n        /* \"contracts/RSPGame.sol\":4687:5993  function withdraw() public payable canWithdraw {... */\n    tag_18:\n        /* \"contracts/RSPGame.sol\":7438:7445  players */\n      0x00\n        /* \"contracts/RSPGame.sol\":7438:7457  players[msg.sender] */\n      dup1\n        /* \"contracts/RSPGame.sol\":7446:7456  msg.sender */\n      caller\n        /* \"contracts/RSPGame.sol\":7438:7457  players[msg.sender] */\n      0xffffffffffffffffffffffffffffffffffffffff\n      and\n      0xffffffffffffffffffffffffffffffffffffffff\n      and\n      dup2\n      mstore\n      0x20\n      add\n      swap1\n      dup2\n      mstore\n      0x20\n      add\n      0x00\n      keccak256\n        /* \"contracts/RSPGame.sol\":7438:7466  players[msg.sender].revealed */\n      0x02\n      add\n      0x00\n      swap1\n      sload\n      swap1\n      0x0100\n      exp\n      swap1\n      div\n      0xff\n      and\n        /* \"contracts/RSPGame.sol\":7430:7514  require(players[msg.sender].revealed, \"You must reveal your vote before withdrawal\") */\n      tag_59\n      jumpi\n      mload(0x40)\n      0x08c379a000000000000000000000000000000000000000000000000000000000\n      dup2\n      mstore\n      0x04\n      add\n      tag_60\n      swap1\n      tag_61\n      jump\t// in\n    tag_60:\n      mload(0x40)\n      dup1\n      swap2\n      sub\n      swap1\n      revert\n    tag_59:\n        /* \"contracts/RSPGame.sol\":7666:7673  players */\n      0x00\n        /* \"contracts/RSPGame.sol\":7666:7685  players[msg.sender] */\n      dup1\n        /* \"contracts/RSPGame.sol\":7674:7684  msg.sender */\n      caller\n        /* \"contracts/RSPGame.sol\":7666:7685  players[msg.sender] */\n      0xffffffffffffffffffffffffffffffffffffffff\n      and\n      0xffffffffffffffffffffffffffffffffffffffff\n      and\n      dup2\n      mstore\n      0x20\n      add\n      swap1\n      dup2\n      mstore\n      0x20\n      add\n      0x00\n      keccak256\n        /* \"contracts/RSPGame.sol\":7666:7694  players[msg.sender].deadline */\n      0x03\n      add\n      sload\n        /* \"contracts/RSPGame.sol\":7647:7662  block.timestamp */\n      timestamp\n        /* \"contracts/RSPGame.sol\":7647:7694  block.timestamp >= players[msg.sender].deadline */\n      lt\n      iszero\n        /* \"contracts/RSPGame.sol\":7647:7756  block.timestamp >= players[msg.sender].deadline ||... */\n      dup1\n      tag_62\n      jumpi\n      pop\n        /* \"contracts/RSPGame.sol\":7710:7717  players */\n      0x00\n        /* \"contracts/RSPGame.sol\":7710:7747  players[players[msg.sender].opponent] */\n      dup1\n        /* \"contracts/RSPGame.sol\":7718:7725  players */\n      dup1\n        /* \"contracts/RSPGame.sol\":7718:7737  players[msg.sender] */\n      0x00\n        /* \"contracts/RSPGame.sol\":7726:7736  msg.sender */\n      caller\n        /* \"contracts/RSPGame.sol\":7718:7737  players[msg.sender] */\n      0xffffffffffffffffffffffffffffffffffffffff\n      and\n      0xffffffffffffffffffffffffffffffffffffffff\n      and\n      dup2\n      mstore\n      0x20\n      add\n      swap1\n      dup2\n      mstore\n      0x20\n      add\n      0x00\n      keccak256\n        /* \"contracts/RSPGame.sol\":7718:7746  players[msg.sender].opponent */\n      0x02\n      add\n      0x01\n      swap1\n      sload\n      swap1\n      0x0100\n      exp\n      swap1\n      div\n      0xffffffffffffffffffffffffffffffffffffffff\n      and\n        /* \"contracts/RSPGame.sol\":7710:7747  players[players[msg.sender].opponent] */\n      0xffffffffffffffffffffffffffffffffffffffff\n      and\n      0xffffffffffffffffffffffffffffffffffffffff\n      and\n      dup2\n      mstore\n      0x20\n      add\n      swap1\n      dup2\n      mstore\n      0x20\n      add\n      0x00\n      keccak256\n        /* \"contracts/RSPGame.sol\":7710:7756  players[players[msg.sender].opponent].revealed */\n      0x02\n      add\n      0x00\n      swap1\n      sload\n      swap1\n      0x0100\n      exp\n      swap1\n      div\n      0xff\n      and\n        /* \"contracts/RSPGame.sol\":7647:7756  block.timestamp >= players[msg.sender].deadline ||... */\n    tag_62:\n        /* \"contracts/RSPGame.sol\":7626:7824  require(... */\n      tag_63\n      jumpi\n      mload(0x40)\n      0x08c379a000000000000000000000000000000000000000000000000000000000\n      dup2\n      mstore\n      0x04\n      add\n      tag_64\n      swap1\n      tag_65\n      jump\t// in\n    tag_64:\n      mload(0x40)\n      dup1\n      swap2\n      sub\n      swap1\n      revert\n    tag_63:\n        /* \"contracts/RSPGame.sol\":4745:4761  address opponent */\n      0x00\n        /* \"contracts/RSPGame.sol\":4764:4771  players */\n      dup1\n        /* \"contracts/RSPGame.sol\":4764:4783  players[msg.sender] */\n      0x00\n        /* \"contracts/RSPGame.sol\":4772:4782  msg.sender */\n      caller\n        /* \"contracts/RSPGame.sol\":4764:4783  players[msg.sender] */\n      0xffffffffffffffffffffffffffffffffffffffff\n      and\n      0xffffffffffffffffffffffffffffffffffffffff\n      and\n      dup2\n      mstore\n      0x20\n      add\n      swap1\n      dup2\n      mstore\n      0x20\n      add\n      0x00\n      keccak256\n        /* \"contracts/RSPGame.sol\":4764:4792  players[msg.sender].opponent */\n      0x02\n      add\n      0x01\n      swap1\n      sload\n      swap1\n      0x0100\n      exp\n      swap1\n      div\n      0xffffffffffffffffffffffffffffffffffffffff\n      and\n        /* \"contracts/RSPGame.sol\":4745:4792  address opponent = players[msg.sender].opponent */\n      swap1\n      pop\n        /* \"contracts/RSPGame.sol\":4829:4848  string memory vote1 */\n      0x00\n        /* \"contracts/RSPGame.sol\":4851:4858  players */\n      dup1\n        /* \"contracts/RSPGame.sol\":4851:4870  players[msg.sender] */\n      0x00\n        /* \"contracts/RSPGame.sol\":4859:4869  msg.sender */\n      caller\n        /* \"contracts/RSPGame.sol\":4851:4870  players[msg.sender] */\n      0xffffffffffffffffffffffffffffffffffffffff\n      and\n      0xffffffffffffffffffffffffffffffffffffffff\n      and\n      dup2\n      mstore\n      0x20\n      add\n      swap1\n      dup2\n      mstore\n      0x20\n      add\n      0x00\n      keccak256\n        /* \"contracts/RSPGame.sol\":4851:4875  players[msg.sender].vote */\n      0x00\n      add\n        /* \"contracts/RSPGame.sol\":4829:4875  string memory vote1 = players[msg.sender].vote */\n      dup1\n      sload\n      tag_67\n      swap1\n      tag_68\n      jump\t// in\n    tag_67:\n      dup1\n      0x1f\n      add\n      0x20\n      dup1\n      swap2\n      div\n      mul\n      0x20\n      add\n      mload(0x40)\n      swap1\n      dup2\n      add\n      0x40\n      mstore\n      dup1\n      swap3\n      swap2\n      swap1\n      dup2\n      dup2\n      mstore\n      0x20\n      add\n      dup3\n      dup1\n      sload\n      tag_69\n      swap1\n      tag_68\n      jump\t// in\n    tag_69:\n      dup1\n      iszero\n      tag_70\n      jumpi\n      dup1\n      0x1f\n      lt\n      tag_71\n      jumpi\n      0x0100\n      dup1\n      dup4\n      sload\n      div\n      mul\n      dup4\n      mstore\n      swap2\n      0x20\n      add\n      swap2\n      jump(tag_70)\n    tag_71:\n      dup3\n      add\n      swap2\n      swap1\n      0x00\n      mstore\n      keccak256(0x00, 0x20)\n      swap1\n    tag_72:\n      dup2\n      sload\n      dup2\n      mstore\n      swap1\n      0x01\n      add\n      swap1\n      0x20\n      add\n      dup1\n      dup4\n      gt\n      tag_72\n      jumpi\n      dup3\n      swap1\n      sub\n      0x1f\n      and\n      dup3\n      add\n      swap2\n    tag_70:\n      pop\n      pop\n      pop\n      pop\n      pop\n      swap1\n      pop\n        /* \"contracts/RSPGame.sol\":4908:4927  string memory vote2 */\n      0x00\n        /* \"contracts/RSPGame.sol\":4930:4937  players */\n      dup1\n        /* \"contracts/RSPGame.sol\":4930:4947  players[opponent] */\n      0x00\n        /* \"contracts/RSPGame.sol\":4938:4946  opponent */\n      dup5\n        /* \"contracts/RSPGame.sol\":4930:4947  players[opponent] */\n      0xffffffffffffffffffffffffffffffffffffffff\n      and\n      0xffffffffffffffffffffffffffffffffffffffff\n      and\n      dup2\n      mstore\n      0x20\n      add\n      swap1\n      dup2\n      mstore\n      0x20\n      add\n      0x00\n      keccak256\n        /* \"contracts/RSPGame.sol\":4930:4952  players[opponent].vote */\n      0x00\n      add\n        /* \"contracts/RSPGame.sol\":4908:4952  string memory vote2 = players[opponent].vote */\n      dup1\n      sload\n      tag_73\n      swap1\n      tag_68\n      jump\t// in\n    tag_73:\n      dup1\n      0x1f\n      add\n      0x20\n      dup1\n      swap2\n      div\n      mul\n      0x20\n      add\n      mload(0x40)\n      swap1\n      dup2\n      add\n      0x40\n      mstore\n      dup1\n      swap3\n      swap2\n      swap1\n      dup2\n      dup2\n      mstore\n      0x20\n      add\n      dup3\n      dup1\n      sload\n      tag_74\n      swap1\n      tag_68\n      jump\t// in\n    tag_74:\n      dup1\n      iszero\n      tag_75\n      jumpi\n      dup1\n      0x1f\n      lt\n      tag_76\n      jumpi\n      0x0100\n      dup1\n      dup4\n      sload\n      div\n      mul\n      dup4\n      mstore\n      swap2\n      0x20\n      add\n      swap2\n      jump(tag_75)\n    tag_76:\n      dup3\n      add\n      swap2\n      swap1\n      0x00\n      mstore\n      keccak256(0x00, 0x20)\n      swap1\n    tag_77:\n      dup2\n      sload\n      dup2\n      mstore\n      swap1\n      0x01\n      add\n      swap1\n      0x20\n      add\n      dup1\n      dup4\n      gt\n      tag_77\n      jumpi\n      dup3\n      swap1\n      sub\n      0x1f\n      and\n      dup3\n      add\n      swap2\n    tag_75:\n      pop\n      pop\n      pop\n      pop\n      pop\n      swap1\n      pop\n        /* \"contracts/RSPGame.sol\":5043:5065  isWinner(vote1, vote2) */\n      tag_78\n        /* \"contracts/RSPGame.sol\":5052:5057  vote1 */\n      dup3\n        /* \"contracts/RSPGame.sol\":5059:5064  vote2 */\n      dup3\n        /* \"contracts/RSPGame.sol\":5043:5051  isWinner */\n      tag_28\n        /* \"contracts/RSPGame.sol\":5043:5065  isWinner(vote1, vote2) */\n      jump\t// in\n    tag_78:\n        /* \"contracts/RSPGame.sol\":5043:5157  isWinner(vote1, vote2) || (block.timestamp >=... */\n      dup1\n      tag_79\n      jumpi\n      pop\n        /* \"contracts/RSPGame.sol\":5097:5104  players */\n      0x00\n        /* \"contracts/RSPGame.sol\":5097:5116  players[msg.sender] */\n      dup1\n        /* \"contracts/RSPGame.sol\":5105:5115  msg.sender */\n      caller\n        /* \"contracts/RSPGame.sol\":5097:5116  players[msg.sender] */\n      0xffffffffffffffffffffffffffffffffffffffff\n      and\n      0xffffffffffffffffffffffffffffffffffffffff\n      and\n      dup2\n      mstore\n      0x20\n      add\n      swap1\n      dup2\n      mstore\n      0x20\n      add\n      0x00\n      keccak256\n        /* \"contracts/RSPGame.sol\":5097:5125  players[msg.sender].deadline */\n      0x03\n      add\n      sload\n        /* \"contracts/RSPGame.sol\":5070:5085  block.timestamp */\n      timestamp\n        /* \"contracts/RSPGame.sol\":5070:5125  block.timestamp >=... */\n      lt\n      iszero\n        /* \"contracts/RSPGame.sol\":5070:5156  block.timestamp >=... */\n      dup1\n      iszero\n      tag_80\n      jumpi\n      pop\n        /* \"contracts/RSPGame.sol\":5130:5137  players */\n      0x00\n        /* \"contracts/RSPGame.sol\":5130:5147  players[opponent] */\n      dup1\n        /* \"contracts/RSPGame.sol\":5138:5146  opponent */\n      dup5\n        /* \"contracts/RSPGame.sol\":5130:5147  players[opponent] */\n      0xffffffffffffffffffffffffffffffffffffffff\n      and\n      0xffffffffffffffffffffffffffffffffffffffff\n      and\n      dup2\n      mstore\n      0x20\n      add\n      swap1\n      dup2\n      mstore\n      0x20\n      add\n      0x00\n      keccak256\n        /* \"contracts/RSPGame.sol\":5130:5156  players[opponent].revealed */\n      0x02\n      add\n      0x00\n      swap1\n      sload\n      swap1\n      0x0100\n      exp\n      swap1\n      div\n      0xff\n      and\n        /* \"contracts/RSPGame.sol\":5129:5156  !players[opponent].revealed */\n      iszero\n        /* \"contracts/RSPGame.sol\":5070:5156  block.timestamp >=... */\n    tag_80:\n        /* \"contracts/RSPGame.sol\":5043:5157  isWinner(vote1, vote2) || (block.timestamp >=... */\n    tag_79:\n        /* \"contracts/RSPGame.sol\":5039:5987  if (isWinner(vote1, vote2) || (block.timestamp >=... */\n      iszero\n      tag_81\n      jumpi\n        /* \"contracts/RSPGame.sol\":5232:5242  msg.sender */\n      caller\n        /* \"contracts/RSPGame.sol\":5224:5252  payable(msg.sender).transfer */\n      0xffffffffffffffffffffffffffffffffffffffff\n      and\n        /* \"contracts/RSPGame.sol\":5224:5263  payable(msg.sender).transfer(stake * 2) */\n      0x08fc\n        /* \"contracts/RSPGame.sol\":5261:5262  2 */\n      0x02\n        /* \"contracts/RSPGame.sol\":5253:5258  stake */\n      dup1\n      sload\n        /* \"contracts/RSPGame.sol\":5253:5262  stake * 2 */\n      tag_82\n      swap2\n      swap1\n      tag_83\n      jump\t// in\n    tag_82:\n        /* \"contracts/RSPGame.sol\":5224:5263  payable(msg.sender).transfer(stake * 2) */\n      swap1\n      dup2\n      iszero\n      mul\n      swap1\n      mload(0x40)\n      0x00\n      mload(0x40)\n      dup1\n      dup4\n      sub\n      dup2\n      dup6\n      dup9\n      dup9\n      call\n      swap4\n      pop\n      pop\n      pop\n      pop\n      iszero\n      dup1\n      iszero\n      tag_85\n      jumpi\n      returndatasize\n      0x00\n      dup1\n      returndatacopy\n      revert(0x00, returndatasize)\n    tag_85:\n      pop\n        /* \"contracts/RSPGame.sol\":5335:5342  players */\n      0x00\n        /* \"contracts/RSPGame.sol\":5335:5354  players[msg.sender] */\n      dup1\n        /* \"contracts/RSPGame.sol\":5343:5353  msg.sender */\n      caller\n        /* \"contracts/RSPGame.sol\":5335:5354  players[msg.sender] */\n      0xffffffffffffffffffffffffffffffffffffffff\n      and\n      0xffffffffffffffffffffffffffffffffffffffff\n      and\n      dup2\n      mstore\n      0x20\n      add\n      swap1\n      dup2\n      mstore\n      0x20\n      add\n      0x00\n      keccak256\n      0x00\n        /* \"contracts/RSPGame.sol\":5328:5354  delete players[msg.sender] */\n      dup1\n      dup3\n      add\n      0x00\n      tag_86\n      swap2\n      swap1\n      tag_87\n      jump\t// in\n    tag_86:\n      0x01\n      dup3\n      add\n      0x00\n      swap1\n      sstore\n      0x02\n      dup3\n      add\n      exp(0x0100, 0x00)\n      dup2\n      sload\n      swap1\n      0xff\n      mul\n      not\n      and\n      swap1\n      sstore\n      0x02\n      dup3\n      add\n      exp(0x0100, 0x01)\n      dup2\n      sload\n      swap1\n      0xffffffffffffffffffffffffffffffffffffffff\n      mul\n      not\n      and\n      swap1\n      sstore\n      0x03\n      dup3\n      add\n      0x00\n      swap1\n      sstore\n      pop\n      pop\n        /* \"contracts/RSPGame.sol\":5375:5382  players */\n      0x00\n        /* \"contracts/RSPGame.sol\":5375:5392  players[opponent] */\n      dup1\n        /* \"contracts/RSPGame.sol\":5383:5391  opponent */\n      dup5\n        /* \"contracts/RSPGame.sol\":5375:5392  players[opponent] */\n      0xffffffffffffffffffffffffffffffffffffffff\n      and\n      0xffffffffffffffffffffffffffffffffffffffff\n      and\n      dup2\n      mstore\n      0x20\n      add\n      swap1\n      dup2\n      mstore\n      0x20\n      add\n      0x00\n      keccak256\n      0x00\n        /* \"contracts/RSPGame.sol\":5368:5392  delete players[opponent] */\n      dup1\n      dup3\n      add\n      0x00\n      tag_88\n      swap2\n      swap1\n      tag_87\n      jump\t// in\n    tag_88:\n      0x01\n      dup3\n      add\n      0x00\n      swap1\n      sstore\n      0x02\n      dup3\n      add\n      exp(0x0100, 0x00)\n      dup2\n      sload\n      swap1\n      0xff\n      mul\n      not\n      and\n      swap1\n      sstore\n      0x02\n      dup3\n      add\n      exp(0x0100, 0x01)\n      dup2\n      sload\n      swap1\n      0xffffffffffffffffffffffffffffffffffffffff\n      mul\n      not\n      and\n      swap1\n      sstore\n      0x03\n      dup3\n      add\n      0x00\n      swap1\n      sstore\n      pop\n      pop\n        /* \"contracts/RSPGame.sol\":5447:5478  Withdraw(msg.sender, stake * 2) */\n      0x884edad9ce6fa2440d8a54cc123490eb96d2768479d49ff9c7366125a9424364\n        /* \"contracts/RSPGame.sol\":5456:5466  msg.sender */\n      caller\n        /* \"contracts/RSPGame.sol\":5476:5477  2 */\n      0x02\n        /* \"contracts/RSPGame.sol\":5468:5473  stake */\n      dup1\n      sload\n        /* \"contracts/RSPGame.sol\":5468:5477  stake * 2 */\n      tag_89\n      swap2\n      swap1\n      tag_83\n      jump\t// in\n    tag_89:\n        /* \"contracts/RSPGame.sol\":5447:5478  Withdraw(msg.sender, stake * 2) */\n      mload(0x40)\n      tag_90\n      swap3\n      swap2\n      swap1\n      tag_91\n      jump\t// in\n    tag_90:\n      mload(0x40)\n      dup1\n      swap2\n      sub\n      swap1\n      log1\n        /* \"contracts/RSPGame.sol\":5039:5987  if (isWinner(vote1, vote2) || (block.timestamp >=... */\n      jump(tag_92)\n    tag_81:\n        /* \"contracts/RSPGame.sol\":5538:5566  compareStrings(vote1, vote2) */\n      tag_93\n        /* \"contracts/RSPGame.sol\":5553:5558  vote1 */\n      dup3\n        /* \"contracts/RSPGame.sol\":5560:5565  vote2 */\n      dup3\n        /* \"contracts/RSPGame.sol\":5538:5552  compareStrings */\n      tag_38\n        /* \"contracts/RSPGame.sol\":5538:5566  compareStrings(vote1, vote2) */\n      jump\t// in\n    tag_93:\n        /* \"contracts/RSPGame.sol\":5534:5987  if (compareStrings(vote1, vote2)) {... */\n      iszero\n      tag_94\n      jumpi\n        /* \"contracts/RSPGame.sol\":5646:5656  msg.sender */\n      caller\n        /* \"contracts/RSPGame.sol\":5638:5666  payable(msg.sender).transfer */\n      0xffffffffffffffffffffffffffffffffffffffff\n      and\n        /* \"contracts/RSPGame.sol\":5638:5673  payable(msg.sender).transfer(stake) */\n      0x08fc\n        /* \"contracts/RSPGame.sol\":5667:5672  stake */\n      sload(0x02)\n        /* \"contracts/RSPGame.sol\":5638:5673  payable(msg.sender).transfer(stake) */\n      swap1\n      dup2\n      iszero\n      mul\n      swap1\n      mload(0x40)\n      0x00\n      mload(0x40)\n      dup1\n      dup4\n      sub\n      dup2\n      dup6\n      dup9\n      dup9\n      call\n      swap4\n      pop\n      pop\n      pop\n      pop\n      iszero\n      dup1\n      iszero\n      tag_96\n      jumpi\n      returndatasize\n      0x00\n      dup1\n      returndatacopy\n      revert(0x00, returndatasize)\n    tag_96:\n      pop\n        /* \"contracts/RSPGame.sol\":5695:5703  opponent */\n      dup3\n        /* \"contracts/RSPGame.sol\":5687:5713  payable(opponent).transfer */\n      0xffffffffffffffffffffffffffffffffffffffff\n      and\n        /* \"contracts/RSPGame.sol\":5687:5720  payable(opponent).transfer(stake) */\n      0x08fc\n        /* \"contracts/RSPGame.sol\":5714:5719  stake */\n      sload(0x02)\n        /* \"contracts/RSPGame.sol\":5687:5720  payable(opponent).transfer(stake) */\n      swap1\n      dup2\n      iszero\n      mul\n      swap1\n      mload(0x40)\n      0x00\n      mload(0x40)\n      dup1\n      dup4\n      sub\n      dup2\n      dup6\n      dup9\n      dup9\n      call\n      swap4\n      pop\n      pop\n      pop\n      pop\n      iszero\n      dup1\n      iszero\n      tag_98\n      jumpi\n      returndatasize\n      0x00\n      dup1\n      returndatacopy\n      revert(0x00, returndatasize)\n    tag_98:\n      pop\n        /* \"contracts/RSPGame.sol\":5792:5799  players */\n      0x00\n        /* \"contracts/RSPGame.sol\":5792:5811  players[msg.sender] */\n      dup1\n        /* \"contracts/RSPGame.sol\":5800:5810  msg.sender */\n      caller\n        /* \"contracts/RSPGame.sol\":5792:5811  players[msg.sender] */\n      0xffffffffffffffffffffffffffffffffffffffff\n      and\n      0xffffffffffffffffffffffffffffffffffffffff\n      and\n      dup2\n      mstore\n      0x20\n      add\n      swap1\n      dup2\n      mstore\n      0x20\n      add\n      0x00\n      keccak256\n      0x00\n        /* \"contracts/RSPGame.sol\":5785:5811  delete players[msg.sender] */\n      dup1\n      dup3\n      add\n      0x00\n      tag_99\n      swap2\n      swap1\n      tag_87\n      jump\t// in\n    tag_99:\n      0x01\n      dup3\n      add\n      0x00\n      swap1\n      sstore\n      0x02\n      dup3\n      add\n      exp(0x0100, 0x00)\n      dup2\n      sload\n      swap1\n      0xff\n      mul\n      not\n      and\n      swap1\n      sstore\n      0x02\n      dup3\n      add\n      exp(0x0100, 0x01)\n      dup2\n      sload\n      swap1\n      0xffffffffffffffffffffffffffffffffffffffff\n      mul\n      not\n      and\n      swap1\n      sstore\n      0x03\n      dup3\n      add\n      0x00\n      swap1\n      sstore\n      pop\n      pop\n        /* \"contracts/RSPGame.sol\":5832:5839  players */\n      0x00\n        /* \"contracts/RSPGame.sol\":5832:5849  players[opponent] */\n      dup1\n        /* \"contracts/RSPGame.sol\":5840:5848  opponent */\n      dup5\n        /* \"contracts/RSPGame.sol\":5832:5849  players[opponent] */\n      0xffffffffffffffffffffffffffffffffffffffff\n      and\n      0xffffffffffffffffffffffffffffffffffffffff\n      and\n      dup2\n      mstore\n      0x20\n      add\n      swap1\n      dup2\n      mstore\n      0x20\n      add\n      0x00\n      keccak256\n      0x00\n        /* \"contracts/RSPGame.sol\":5825:5849  delete players[opponent] */\n      dup1\n      dup3\n      add\n      0x00\n      tag_100\n      swap2\n      swap1\n      tag_87\n      jump\t// in\n    tag_100:\n      0x01\n      dup3\n      add\n      0x00\n      swap1\n      sstore\n      0x02\n      dup3\n      add\n      exp(0x0100, 0x00)\n      dup2\n      sload\n      swap1\n      0xff\n      mul\n      not\n      and\n      swap1\n      sstore\n      0x02\n      dup3\n      add\n      exp(0x0100, 0x01)\n      dup2\n      sload\n      swap1\n      0xffffffffffffffffffffffffffffffffffffffff\n      mul\n      not\n      and\n      swap1\n      sstore\n      0x03\n      dup3\n      add\n      0x00\n      swap1\n      sstore\n      pop\n      pop\n        /* \"contracts/RSPGame.sol\":5905:5932  Withdraw(msg.sender, stake) */\n      0x884edad9ce6fa2440d8a54cc123490eb96d2768479d49ff9c7366125a9424364\n        /* \"contracts/RSPGame.sol\":5914:5924  msg.sender */\n      caller\n        /* \"contracts/RSPGame.sol\":5926:5931  stake */\n      sload(0x02)\n        /* \"contracts/RSPGame.sol\":5905:5932  Withdraw(msg.sender, stake) */\n      mload(0x40)\n      tag_101\n      swap3\n      swap2\n      swap1\n      tag_91\n      jump\t// in\n    tag_101:\n      mload(0x40)\n      dup1\n      swap2\n      sub\n      swap1\n      log1\n        /* \"contracts/RSPGame.sol\":5951:5976  Withdraw(opponent, stake) */\n      0x884edad9ce6fa2440d8a54cc123490eb96d2768479d49ff9c7366125a9424364\n        /* \"contracts/RSPGame.sol\":5960:5968  opponent */\n      dup4\n        /* \"contracts/RSPGame.sol\":5970:5975  stake */\n      sload(0x02)\n        /* \"contracts/RSPGame.sol\":5951:5976  Withdraw(opponent, stake) */\n      mload(0x40)\n      tag_102\n      swap3\n      swap2\n      swap1\n      tag_91\n      jump\t// in\n    tag_102:\n      mload(0x40)\n      dup1\n      swap2\n      sub\n      swap1\n      log1\n        /* \"contracts/RSPGame.sol\":5534:5987  if (compareStrings(vote1, vote2)) {... */\n    tag_94:\n        /* \"contracts/RSPGame.sol\":5039:5987  if (isWinner(vote1, vote2) || (block.timestamp >=... */\n    tag_92:\n        /* \"contracts/RSPGame.sol\":4734:5993  {... */\n      pop\n      pop\n      pop\n        /* \"contracts/RSPGame.sol\":4687:5993  function withdraw() public payable canWithdraw {... */\n      jump\t// out\n        /* \"contracts/RSPGame.sol\":3870:4508  function reveal(string calldata _vote, string calldata _salt) public hasOpponent validVote(_vote, _salt) {... */\n    tag_23:\n        /* \"contracts/RSPGame.sol\":7212:7213  0 */\n      0x00\n        /* \"contracts/RSPGame.sol\":7172:7214  players[msg.sender].opponent != address(0) */\n      0xffffffffffffffffffffffffffffffffffffffff\n      and\n        /* \"contracts/RSPGame.sol\":7172:7179  players */\n      0x00\n        /* \"contracts/RSPGame.sol\":7172:7191  players[msg.sender] */\n      dup1\n        /* \"contracts/RSPGame.sol\":7180:7190  msg.sender */\n      caller\n        /* \"contracts/RSPGame.sol\":7172:7191  players[msg.sender] */\n      0xffffffffffffffffffffffffffffffffffffffff\n      and\n      0xffffffffffffffffffffffffffffffffffffffff\n      and\n      dup2\n      mstore\n      0x20\n      add\n      swap1\n      dup2\n      mstore\n      0x20\n      add\n      0x00\n      keccak256\n        /* \"contracts/RSPGame.sol\":7172:7200  players[msg.sender].opponent */\n      0x02\n      add\n      0x01\n      swap1\n      sload\n      swap1\n      0x0100\n      exp\n      swap1\n      div\n      0xffffffffffffffffffffffffffffffffffffffff\n      and\n        /* \"contracts/RSPGame.sol\":7172:7214  players[msg.sender].opponent != address(0) */\n      0xffffffffffffffffffffffffffffffffffffffff\n      and\n      sub\n        /* \"contracts/RSPGame.sol\":7164:7242  require(players[msg.sender].opponent != address(0), \"Waiting for an opponent\") */\n      tag_104\n      jumpi\n      mload(0x40)\n      0x08c379a000000000000000000000000000000000000000000000000000000000\n      dup2\n      mstore\n      0x04\n      add\n      tag_105\n      swap1\n      tag_106\n      jump\t// in\n    tag_105:\n      mload(0x40)\n      dup1\n      swap2\n      sub\n      swap1\n      revert\n    tag_104:\n        /* \"contracts/RSPGame.sol\":3961:3966  _vote */\n      dup4\n      dup4\n        /* \"contracts/RSPGame.sol\":8021:8297  modifier validVote(string memory _vote, string memory _salt) {... */\n      dup1\n      dup1\n      0x1f\n      add\n      0x20\n      dup1\n      swap2\n      div\n      mul\n      0x20\n      add\n      mload(0x40)\n      swap1\n      dup2\n      add\n      0x40\n      mstore\n      dup1\n      swap4\n      swap3\n      swap2\n      swap1\n      dup2\n      dup2\n      mstore\n      0x20\n      add\n      dup4\n      dup4\n      dup1\n      dup3\n      dup5\n      calldatacopy\n      0x00\n      dup2\n      dup5\n      add\n      mstore\n      not(0x1f)\n      0x1f\n      dup3\n      add\n      and\n      swap1\n      pop\n      dup1\n      dup4\n      add\n      swap3\n      pop\n      pop\n      pop\n      pop\n      pop\n      pop\n      pop\n        /* \"contracts/RSPGame.sol\":3968:3973  _salt */\n      dup3\n      dup3\n        /* \"contracts/RSPGame.sol\":8021:8297  modifier validVote(string memory _vote, string memory _salt) {... */\n      dup1\n      dup1\n      0x1f\n      add\n      0x20\n      dup1\n      swap2\n      div\n      mul\n      0x20\n      add\n      mload(0x40)\n      swap1\n      dup2\n      add\n      0x40\n      mstore\n      dup1\n      swap4\n      swap3\n      swap2\n      swap1\n      dup2\n      dup2\n      mstore\n      0x20\n      add\n      dup4\n      dup4\n      dup1\n      dup3\n      dup5\n      calldatacopy\n      0x00\n      dup2\n      dup5\n      add\n      mstore\n      not(0x1f)\n      0x1f\n      dup3\n      add\n      and\n      swap1\n      pop\n      dup1\n      dup4\n      add\n      swap3\n      pop\n      pop\n      pop\n      pop\n      pop\n      pop\n      pop\n        /* \"contracts/RSPGame.sol\":8146:8158  bytes32 hash */\n      0x00\n        /* \"contracts/RSPGame.sol\":8188:8193  _vote */\n      dup3\n        /* \"contracts/RSPGame.sol\":8195:8200  _salt */\n      dup3\n        /* \"contracts/RSPGame.sol\":8171:8201  abi.encodePacked(_vote, _salt) */\n      add(0x20, mload(0x40))\n      tag_108\n      swap3\n      swap2\n      swap1\n      tag_109\n      jump\t// in\n    tag_108:\n      mload(0x40)\n      0x20\n      dup2\n      dup4\n      sub\n      sub\n      dup2\n      mstore\n      swap1\n      0x40\n      mstore\n        /* \"contracts/RSPGame.sol\":8161:8202  keccak256(abi.encodePacked(_vote, _salt)) */\n      dup1\n      mload\n      swap1\n      0x20\n      add\n      keccak256\n        /* \"contracts/RSPGame.sol\":8146:8202  bytes32 hash = keccak256(abi.encodePacked(_vote, _salt)) */\n      swap1\n      pop\n        /* \"contracts/RSPGame.sol\":8254:8258  hash */\n      dup1\n        /* \"contracts/RSPGame.sol\":8220:8227  players */\n      0x00\n        /* \"contracts/RSPGame.sol\":8220:8239  players[msg.sender] */\n      dup1\n        /* \"contracts/RSPGame.sol\":8228:8238  msg.sender */\n      caller\n        /* \"contracts/RSPGame.sol\":8220:8239  players[msg.sender] */\n      0xffffffffffffffffffffffffffffffffffffffff\n      and\n      0xffffffffffffffffffffffffffffffffffffffff\n      and\n      dup2\n      mstore\n      0x20\n      add\n      swap1\n      dup2\n      mstore\n      0x20\n      add\n      0x00\n      keccak256\n        /* \"contracts/RSPGame.sol\":8220:8250  players[msg.sender].hashedVote */\n      0x01\n      add\n      sload\n        /* \"contracts/RSPGame.sol\":8220:8258  players[msg.sender].hashedVote == hash */\n      eq\n        /* \"contracts/RSPGame.sol\":8212:8279  require(players[msg.sender].hashedVote == hash, \"Not a valid vote\") */\n      tag_110\n      jumpi\n      mload(0x40)\n      0x08c379a000000000000000000000000000000000000000000000000000000000\n      dup2\n      mstore\n      0x04\n      add\n      tag_111\n      swap1\n      tag_112\n      jump\t// in\n    tag_111:\n      mload(0x40)\n      dup1\n      swap2\n      sub\n      swap1\n      revert\n    tag_110:\n        /* \"contracts/RSPGame.sol\":3986:4003  bytes memory bStr */\n      0x00\n        /* \"contracts/RSPGame.sol\":4012:4017  _vote */\n      dup8\n      dup8\n        /* \"contracts/RSPGame.sol\":3986:4018  bytes memory bStr = bytes(_vote) */\n      dup1\n      dup1\n      0x1f\n      add\n      0x20\n      dup1\n      swap2\n      div\n      mul\n      0x20\n      add\n      mload(0x40)\n      swap1\n      dup2\n      add\n      0x40\n      mstore\n      dup1\n      swap4\n      swap3\n      swap2\n      swap1\n      dup2\n      dup2\n      mstore\n      0x20\n      add\n      dup4\n      dup4\n      dup1\n      dup3\n      dup5\n      calldatacopy\n      0x00\n      dup2\n      dup5\n      add\n      mstore\n      not(0x1f)\n      0x1f\n      dup3\n      add\n      and\n      swap1\n      pop\n      dup1\n      dup4\n      add\n      swap3\n      pop\n      pop\n      pop\n      pop\n      pop\n      pop\n      pop\n      swap1\n      pop\n        /* \"contracts/RSPGame.sol\":4120:4124  0x61 */\n      0x61\n        /* \"contracts/RSPGame.sol\":4109:4124  bStr[0] >= 0x61 */\n      0xf8\n      shl\n        /* \"contracts/RSPGame.sol\":4109:4113  bStr */\n      dup2\n        /* \"contracts/RSPGame.sol\":4114:4115  0 */\n      0x00\n        /* \"contracts/RSPGame.sol\":4109:4116  bStr[0] */\n      dup2\n      mload\n      dup2\n      lt\n      tag_114\n      jumpi\n      tag_115\n      tag_116\n      jump\t// in\n    tag_115:\n    tag_114:\n      0x20\n      add\n      add\n      mload\n      0xf8\n      shr\n      0xf8\n      shl\n        /* \"contracts/RSPGame.sol\":4109:4124  bStr[0] >= 0x61 */\n      not(0xffffffffffffffffffffffffffffffffffffffffffffffffffffffffffffff)\n      and\n      lt\n      iszero\n        /* \"contracts/RSPGame.sol\":4109:4143  bStr[0] >= 0x61 && bStr[0] <= 0x7A */\n      dup1\n      iszero\n      tag_117\n      jumpi\n      pop\n        /* \"contracts/RSPGame.sol\":4139:4143  0x7A */\n      0x7a\n        /* \"contracts/RSPGame.sol\":4128:4143  bStr[0] <= 0x7A */\n      0xf8\n      shl\n        /* \"contracts/RSPGame.sol\":4128:4132  bStr */\n      dup2\n        /* \"contracts/RSPGame.sol\":4133:4134  0 */\n      0x00\n        /* \"contracts/RSPGame.sol\":4128:4135  bStr[0] */\n      dup2\n      mload\n      dup2\n      lt\n      tag_118\n      jumpi\n      tag_119\n      tag_116\n      jump\t// in\n    tag_119:\n    tag_118:\n      0x20\n      add\n      add\n      mload\n      0xf8\n      shr\n      0xf8\n      shl\n        /* \"contracts/RSPGame.sol\":4128:4143  bStr[0] <= 0x7A */\n      not(0xffffffffffffffffffffffffffffffffffffffffffffffffffffffffffffff)\n      and\n      gt\n      iszero\n        /* \"contracts/RSPGame.sol\":4109:4143  bStr[0] >= 0x61 && bStr[0] <= 0x7A */\n    tag_117:\n        /* \"contracts/RSPGame.sol\":4105:4261  if (bStr[0] >= 0x61 && bStr[0] <= 0x7A) {... */\n      iszero\n      tag_120\n      jumpi\n        /* \"contracts/RSPGame.sol\":4247:4249  32 */\n      0x20\n        /* \"contracts/RSPGame.sol\":4236:4240  bStr */\n      dup2\n        /* \"contracts/RSPGame.sol\":4241:4242  0 */\n      0x00\n        /* \"contracts/RSPGame.sol\":4236:4243  bStr[0] */\n      dup2\n      mload\n      dup2\n      lt\n      tag_121\n      jumpi\n      tag_122\n      tag_116\n      jump\t// in\n    tag_122:\n    tag_121:\n      0x20\n      add\n      add\n      mload\n      0xf8\n      shr\n      0xf8\n      shl\n        /* \"contracts/RSPGame.sol\":4230:4244  uint8(bStr[0]) */\n      0xf8\n      shr\n        /* \"contracts/RSPGame.sol\":4230:4249  uint8(bStr[0]) - 32 */\n      tag_123\n      swap2\n      swap1\n      tag_124\n      jump\t// in\n    tag_123:\n        /* \"contracts/RSPGame.sol\":4223:4250  bytes1(uint8(bStr[0]) - 32) */\n      0xf8\n      shl\n        /* \"contracts/RSPGame.sol\":4213:4217  bStr */\n      dup2\n        /* \"contracts/RSPGame.sol\":4218:4219  0 */\n      0x00\n        /* \"contracts/RSPGame.sol\":4213:4220  bStr[0] */\n      dup2\n      mload\n      dup2\n      lt\n      tag_125\n      jumpi\n      tag_126\n      tag_116\n      jump\t// in\n    tag_126:\n    tag_125:\n      0x20\n      add\n      add\n        /* \"contracts/RSPGame.sol\":4213:4250  bStr[0] = bytes1(uint8(bStr[0]) - 32) */\n      swap1\n      not(0xffffffffffffffffffffffffffffffffffffffffffffffffffffffffffffff)\n      and\n      swap1\n      dup2\n      0x00\n      byte\n      swap1\n      mstore8\n      pop\n        /* \"contracts/RSPGame.sol\":4105:4261  if (bStr[0] >= 0x61 && bStr[0] <= 0x7A) {... */\n    tag_120:\n        /* \"contracts/RSPGame.sol\":4340:4344  true */\n      0x01\n        /* \"contracts/RSPGame.sol\":4309:4316  players */\n      0x00\n        /* \"contracts/RSPGame.sol\":4309:4328  players[msg.sender] */\n      dup1\n        /* \"contracts/RSPGame.sol\":4317:4327  msg.sender */\n      caller\n        /* \"contracts/RSPGame.sol\":4309:4328  players[msg.sender] */\n      0xffffffffffffffffffffffffffffffffffffffff\n      and\n      0xffffffffffffffffffffffffffffffffffffffff\n      and\n      dup2\n      mstore\n      0x20\n      add\n      swap1\n      dup2\n      mstore\n      0x20\n      add\n      0x00\n      keccak256\n        /* \"contracts/RSPGame.sol\":4309:4337  players[msg.sender].revealed */\n      0x02\n      add\n      0x00\n        /* \"contracts/RSPGame.sol\":4309:4344  players[msg.sender].revealed = true */\n      0x0100\n      exp\n      dup2\n      sload\n      dup2\n      0xff\n      mul\n      not\n      and\n      swap1\n      dup4\n      iszero\n      iszero\n      mul\n      or\n      swap1\n      sstore\n      pop\n        /* \"contracts/RSPGame.sol\":4388:4392  bStr */\n      dup1\n        /* \"contracts/RSPGame.sol\":4354:4361  players */\n      0x00\n        /* \"contracts/RSPGame.sol\":4354:4373  players[msg.sender] */\n      dup1\n        /* \"contracts/RSPGame.sol\":4362:4372  msg.sender */\n      caller\n        /* \"contracts/RSPGame.sol\":4354:4373  players[msg.sender] */\n      0xffffffffffffffffffffffffffffffffffffffff\n      and\n      0xffffffffffffffffffffffffffffffffffffffff\n      and\n      dup2\n      mstore\n      0x20\n      add\n      swap1\n      dup2\n      mstore\n      0x20\n      add\n      0x00\n      keccak256\n        /* \"contracts/RSPGame.sol\":4354:4378  players[msg.sender].vote */\n      0x00\n      add\n        /* \"contracts/RSPGame.sol\":4354:4393  players[msg.sender].vote = string(bStr) */\n      swap1\n      dup2\n      tag_127\n      swap2\n      swap1\n      tag_128\n      jump\t// in\n    tag_127:\n      pop\n        /* \"contracts/RSPGame.sol\":4463:4501  RevealedVote(msg.sender, string(bStr)) */\n      0x4abf1a182c97c99cbf9798006458c948c47df72ed150ba8a3c04389c3ef93776\n        /* \"contracts/RSPGame.sol\":4476:4486  msg.sender */\n      caller\n        /* \"contracts/RSPGame.sol\":4495:4499  bStr */\n      dup3\n        /* \"contracts/RSPGame.sol\":4463:4501  RevealedVote(msg.sender, string(bStr)) */\n      mload(0x40)\n      tag_129\n      swap3\n      swap2\n      swap1\n      tag_130\n      jump\t// in\n    tag_129:\n      mload(0x40)\n      dup1\n      swap2\n      sub\n      swap1\n      log1\n        /* \"contracts/RSPGame.sol\":3975:4508  {... */\n      pop\n        /* \"contracts/RSPGame.sol\":8082:8297  {... */\n      pop\n        /* \"contracts/RSPGame.sol\":7252:7253  _ */\n      pop\n      pop\n        /* \"contracts/RSPGame.sol\":3870:4508  function reveal(string calldata _vote, string calldata _salt) public hasOpponent validVote(_vote, _salt) {... */\n      pop\n      pop\n      pop\n      pop\n      jump\t// out\n        /* \"contracts/RSPGame.sol\":8910:9579  function isWinner(string memory _vote1, string memory _vote2) public pure validChoice(_vote1) returns(bool) {... */\n    tag_28:\n        /* \"contracts/RSPGame.sol\":9012:9016  bool */\n      0x00\n        /* \"contracts/RSPGame.sol\":8996:9002  _vote1 */\n      dup3\n        /* \"contracts/RSPGame.sol\":8528:8554  compareStrings(_vote, \"R\") */\n      tag_132\n        /* \"contracts/RSPGame.sol\":8543:8548  _vote */\n      dup2\n        /* \"contracts/RSPGame.sol\":8528:8554  compareStrings(_vote, \"R\") */\n      mload(0x40)\n      dup1\n      0x40\n      add\n      0x40\n      mstore\n      dup1\n      0x01\n      dup2\n      mstore\n      0x20\n      add\n      0x5200000000000000000000000000000000000000000000000000000000000000\n      dup2\n      mstore\n      pop\n        /* \"contracts/RSPGame.sol\":8528:8542  compareStrings */\n      tag_38\n        /* \"contracts/RSPGame.sol\":8528:8554  compareStrings(_vote, \"R\") */\n      jump\t// in\n    tag_132:\n        /* \"contracts/RSPGame.sol\":8528:8584  compareStrings(_vote, \"R\") || compareStrings(_vote, \"P\") */\n      dup1\n      tag_133\n      jumpi\n      pop\n        /* \"contracts/RSPGame.sol\":8558:8584  compareStrings(_vote, \"P\") */\n      tag_134\n        /* \"contracts/RSPGame.sol\":8573:8578  _vote */\n      dup2\n        /* \"contracts/RSPGame.sol\":8558:8584  compareStrings(_vote, \"P\") */\n      mload(0x40)\n      dup1\n      0x40\n      add\n      0x40\n      mstore\n      dup1\n      0x01\n      dup2\n      mstore\n      0x20\n      add\n      0x5000000000000000000000000000000000000000000000000000000000000000\n      dup2\n      mstore\n      pop\n        /* \"contracts/RSPGame.sol\":8558:8572  compareStrings */\n      tag_38\n        /* \"contracts/RSPGame.sol\":8558:8584  compareStrings(_vote, \"P\") */\n      jump\t// in\n    tag_134:\n        /* \"contracts/RSPGame.sol\":8528:8584  compareStrings(_vote, \"R\") || compareStrings(_vote, \"P\") */\n    tag_133:\n        /* \"contracts/RSPGame.sol\":8528:8614  compareStrings(_vote, \"R\") || compareStrings(_vote, \"P\") || compareStrings(_vote, \"S\") */\n      dup1\n      tag_135\n      jumpi\n      pop\n        /* \"contracts/RSPGame.sol\":8588:8614  compareStrings(_vote, \"S\") */\n      tag_136\n        /* \"contracts/RSPGame.sol\":8603:8608  _vote */\n      dup2\n        /* \"contracts/RSPGame.sol\":8588:8614  compareStrings(_vote, \"S\") */\n      mload(0x40)\n      dup1\n      0x40\n      add\n      0x40\n      mstore\n      dup1\n      0x01\n      dup2\n      mstore\n      0x20\n      add\n      0x5300000000000000000000000000000000000000000000000000000000000000\n      dup2\n      mstore\n      pop\n        /* \"contracts/RSPGame.sol\":8588:8602  compareStrings */\n      tag_38\n        /* \"contracts/RSPGame.sol\":8588:8614  compareStrings(_vote, \"S\") */\n      jump\t// in\n    tag_136:\n        /* \"contracts/RSPGame.sol\":8528:8614  compareStrings(_vote, \"R\") || compareStrings(_vote, \"P\") || compareStrings(_vote, \"S\") */\n    tag_135:\n        /* \"contracts/RSPGame.sol\":8520:8669  require(compareStrings(_vote, \"R\") || compareStrings(_vote, \"P\") || compareStrings(_vote, \"S\"),... */\n      tag_137\n      jumpi\n      mload(0x40)\n      0x08c379a000000000000000000000000000000000000000000000000000000000\n      dup2\n      mstore\n      0x04\n      add\n      tag_138\n      swap1\n      tag_139\n      jump\t// in\n    tag_138:\n      mload(0x40)\n      dup1\n      swap2\n      sub\n      swap1\n      revert\n    tag_137:\n        /* \"contracts/RSPGame.sol\":9079:9109  compareStrings(_vote1, _vote2) */\n      tag_141\n        /* \"contracts/RSPGame.sol\":9094:9100  _vote1 */\n      dup5\n        /* \"contracts/RSPGame.sol\":9102:9108  _vote2 */\n      dup5\n        /* \"contracts/RSPGame.sol\":9079:9093  compareStrings */\n      tag_38\n        /* \"contracts/RSPGame.sol\":9079:9109  compareStrings(_vote1, _vote2) */\n      jump\t// in\n    tag_141:\n        /* \"contracts/RSPGame.sol\":9079:9139  compareStrings(_vote1, _vote2) || compareStrings(_vote2, \"\") */\n      dup1\n      tag_142\n      jumpi\n      pop\n        /* \"contracts/RSPGame.sol\":9113:9139  compareStrings(_vote2, \"\") */\n      tag_143\n        /* \"contracts/RSPGame.sol\":9128:9134  _vote2 */\n      dup4\n        /* \"contracts/RSPGame.sol\":9113:9139  compareStrings(_vote2, \"\") */\n      mload(0x40)\n      dup1\n      0x20\n      add\n      0x40\n      mstore\n      dup1\n      0x00\n      dup2\n      mstore\n      pop\n        /* \"contracts/RSPGame.sol\":9113:9127  compareStrings */\n      tag_38\n        /* \"contracts/RSPGame.sol\":9113:9139  compareStrings(_vote2, \"\") */\n      jump\t// in\n    tag_143:\n        /* \"contracts/RSPGame.sol\":9079:9139  compareStrings(_vote1, _vote2) || compareStrings(_vote2, \"\") */\n    tag_142:\n        /* \"contracts/RSPGame.sol\":9075:9572  if (compareStrings(_vote1, _vote2) || compareStrings(_vote2, \"\")) return false;... */\n      iszero\n      tag_144\n      jumpi\n        /* \"contracts/RSPGame.sol\":9148:9153  false */\n      0x00\n        /* \"contracts/RSPGame.sol\":9141:9153  return false */\n      swap2\n      pop\n      jump(tag_140)\n        /* \"contracts/RSPGame.sol\":9075:9572  if (compareStrings(_vote1, _vote2) || compareStrings(_vote2, \"\")) return false;... */\n    tag_144:\n        /* \"contracts/RSPGame.sol\":9200:9227  compareStrings(_vote1, \"R\") */\n      tag_146\n        /* \"contracts/RSPGame.sol\":9215:9221  _vote1 */\n      dup5\n        /* \"contracts/RSPGame.sol\":9200:9227  compareStrings(_vote1, \"R\") */\n      mload(0x40)\n      dup1\n      0x40\n      add\n      0x40\n      mstore\n      dup1\n      0x01\n      dup2\n      mstore\n      0x20\n      add\n      0x5200000000000000000000000000000000000000000000000000000000000000\n      dup2\n      mstore\n      pop\n        /* \"contracts/RSPGame.sol\":9200:9214  compareStrings */\n      tag_38\n        /* \"contracts/RSPGame.sol\":9200:9227  compareStrings(_vote1, \"R\") */\n      jump\t// in\n    tag_146:\n        /* \"contracts/RSPGame.sol\":9200:9258  compareStrings(_vote1, \"R\") && compareStrings(_vote2, \"P\") */\n      dup1\n      iszero\n      tag_147\n      jumpi\n      pop\n        /* \"contracts/RSPGame.sol\":9231:9258  compareStrings(_vote2, \"P\") */\n      tag_148\n        /* \"contracts/RSPGame.sol\":9246:9252  _vote2 */\n      dup4\n        /* \"contracts/RSPGame.sol\":9231:9258  compareStrings(_vote2, \"P\") */\n      mload(0x40)\n      dup1\n      0x40\n      add\n      0x40\n      mstore\n      dup1\n      0x01\n      dup2\n      mstore\n      0x20\n      add\n      0x5000000000000000000000000000000000000000000000000000000000000000\n      dup2\n      mstore\n      pop\n        /* \"contracts/RSPGame.sol\":9231:9245  compareStrings */\n      tag_38\n        /* \"contracts/RSPGame.sol\":9231:9258  compareStrings(_vote2, \"P\") */\n      jump\t// in\n    tag_148:\n        /* \"contracts/RSPGame.sol\":9200:9258  compareStrings(_vote1, \"R\") && compareStrings(_vote2, \"P\") */\n    tag_147:\n        /* \"contracts/RSPGame.sol\":9196:9572  if (compareStrings(_vote1, \"R\") && compareStrings(_vote2, \"P\")) return false;... */\n      iszero\n      tag_149\n      jumpi\n        /* \"contracts/RSPGame.sol\":9267:9272  false */\n      0x00\n        /* \"contracts/RSPGame.sol\":9260:9272  return false */\n      swap2\n      pop\n      jump(tag_140)\n        /* \"contracts/RSPGame.sol\":9196:9572  if (compareStrings(_vote1, \"R\") && compareStrings(_vote2, \"P\")) return false;... */\n    tag_149:\n        /* \"contracts/RSPGame.sol\":9322:9349  compareStrings(_vote1, \"P\") */\n      tag_151\n        /* \"contracts/RSPGame.sol\":9337:9343  _vote1 */\n      dup5\n        /* \"contracts/RSPGame.sol\":9322:9349  compareStrings(_vote1, \"P\") */\n      mload(0x40)\n      dup1\n      0x40\n      add\n      0x40\n      mstore\n      dup1\n      0x01\n      dup2\n      mstore\n      0x20\n      add\n      0x5000000000000000000000000000000000000000000000000000000000000000\n      dup2\n      mstore\n      pop\n        /* \"contracts/RSPGame.sol\":9322:9336  compareStrings */\n      tag_38\n        /* \"contracts/RSPGame.sol\":9322:9349  compareStrings(_vote1, \"P\") */\n      jump\t// in\n    tag_151:\n        /* \"contracts/RSPGame.sol\":9322:9380  compareStrings(_vote1, \"P\") && compareStrings(_vote2, \"S\") */\n      dup1\n      iszero\n      tag_152\n      jumpi\n      pop\n        /* \"contracts/RSPGame.sol\":9353:9380  compareStrings(_vote2, \"S\") */\n      tag_153\n        /* \"contracts/RSPGame.sol\":9368:9374  _vote2 */\n      dup4\n        /* \"contracts/RSPGame.sol\":9353:9380  compareStrings(_vote2, \"S\") */\n      mload(0x40)\n      dup1\n      0x40\n      add\n      0x40\n      mstore\n      dup1\n      0x01\n      dup2\n      mstore\n      0x20\n      add\n      0x5300000000000000000000000000000000000000000000000000000000000000\n      dup2\n      mstore\n      pop\n        /* \"contracts/RSPGame.sol\":9353:9367  compareStrings */\n      tag_38\n        /* \"contracts/RSPGame.sol\":9353:9380  compareStrings(_vote2, \"S\") */\n      jump\t// in\n    tag_153:\n        /* \"contracts/RSPGame.sol\":9322:9380  compareStrings(_vote1, \"P\") && compareStrings(_vote2, \"S\") */\n    tag_152:\n        /* \"contracts/RSPGame.sol\":9318:9572  if (compareStrings(_vote1, \"P\") && compareStrings(_vote2, \"S\")) return false;... */\n      iszero\n      tag_154\n      jumpi\n        /* \"contracts/RSPGame.sol\":9389:9394  false */\n      0x00\n        /* \"contracts/RSPGame.sol\":9382:9394  return false */\n      swap2\n      pop\n      jump(tag_140)\n        /* \"contracts/RSPGame.sol\":9318:9572  if (compareStrings(_vote1, \"P\") && compareStrings(_vote2, \"S\")) return false;... */\n    tag_154:\n        /* \"contracts/RSPGame.sol\":9443:9470  compareStrings(_vote1, \"S\") */\n      tag_156\n        /* \"contracts/RSPGame.sol\":9458:9464  _vote1 */\n      dup5\n        /* \"contracts/RSPGame.sol\":9443:9470  compareStrings(_vote1, \"S\") */\n      mload(0x40)\n      dup1\n      0x40\n      add\n      0x40\n      mstore\n      dup1\n      0x01\n      dup2\n      mstore\n      0x20\n      add\n      0x5300000000000000000000000000000000000000000000000000000000000000\n      dup2\n      mstore\n      pop\n        /* \"contracts/RSPGame.sol\":9443:9457  compareStrings */\n      tag_38\n        /* \"contracts/RSPGame.sol\":9443:9470  compareStrings(_vote1, \"S\") */\n      jump\t// in\n    tag_156:\n        /* \"contracts/RSPGame.sol\":9443:9501  compareStrings(_vote1, \"S\") && compareStrings(_vote2, \"R\") */\n      dup1\n      iszero\n      tag_157\n      jumpi\n      pop\n        /* \"contracts/RSPGame.sol\":9474:9501  compareStrings(_vote2, \"R\") */\n      tag_158\n        /* \"contracts/RSPGame.sol\":9489:9495  _vote2 */\n      dup4\n        /* \"contracts/RSPGame.sol\":9474:9501  compareStrings(_vote2, \"R\") */\n      mload(0x40)\n      dup1\n      0x40\n      add\n      0x40\n      mstore\n      dup1\n      0x01\n      dup2\n      mstore\n      0x20\n      add\n      0x5200000000000000000000000000000000000000000000000000000000000000\n      dup2\n      mstore\n      pop\n        /* \"contracts/RSPGame.sol\":9474:9488  compareStrings */\n      tag_38\n        /* \"contracts/RSPGame.sol\":9474:9501  compareStrings(_vote2, \"R\") */\n      jump\t// in\n    tag_158:\n        /* \"contracts/RSPGame.sol\":9443:9501  compareStrings(_vote1, \"S\") && compareStrings(_vote2, \"R\") */\n    tag_157:\n        /* \"contracts/RSPGame.sol\":9439:9572  if (compareStrings(_vote1, \"S\") && compareStrings(_vote2, \"R\")) return false;... */\n      iszero\n      tag_159\n      jumpi\n        /* \"contracts/RSPGame.sol\":9510:9515  false */\n      0x00\n        /* \"contracts/RSPGame.sol\":9503:9515  return false */\n      swap2\n      pop\n      jump(tag_140)\n        /* \"contracts/RSPGame.sol\":9439:9572  if (compareStrings(_vote1, \"S\") && compareStrings(_vote2, \"R\")) return false;... */\n    tag_159:\n        /* \"contracts/RSPGame.sol\":9568:9572  true */\n      0x01\n        /* \"contracts/RSPGame.sol\":9561:9572  return true */\n      swap2\n      pop\n        /* \"contracts/RSPGame.sol\":8679:8680  _ */\n    tag_140:\n        /* \"contracts/RSPGame.sol\":8910:9579  function isWinner(string memory _vote1, string memory _vote2) public pure validChoice(_vote1) returns(bool) {... */\n      pop\n      swap3\n      swap2\n      pop\n      pop\n      jump\t// out\n        /* \"contracts/RSPGame.sol\":1611:1639  uint public revealTime = 480 */\n    tag_33:\n      sload(0x03)\n      dup2\n      jump\t// out\n        /* \"contracts/RSPGame.sol\":6194:6425  function compareStrings(string memory a, string memory b) public pure returns (bool) {... */\n    tag_38:\n        /* \"contracts/RSPGame.sol\":6273:6277  bool */\n      0x00\n        /* \"contracts/RSPGame.sol\":6413:6414  b */\n      dup2\n        /* \"contracts/RSPGame.sol\":6395:6416  abi.encodePacked((b)) */\n      add(0x20, mload(0x40))\n      tag_162\n      swap2\n      swap1\n      tag_163\n      jump\t// in\n    tag_162:\n      mload(0x40)\n      0x20\n      dup2\n      dup4\n      sub\n      sub\n      dup2\n      mstore\n      swap1\n      0x40\n      mstore\n        /* \"contracts/RSPGame.sol\":6385:6417  keccak256(abi.encodePacked((b))) */\n      dup1\n      mload\n      swap1\n      0x20\n      add\n      keccak256\n        /* \"contracts/RSPGame.sol\":6377:6378  a */\n      dup4\n        /* \"contracts/RSPGame.sol\":6359:6380  abi.encodePacked((a)) */\n      add(0x20, mload(0x40))\n      tag_164\n      swap2\n      swap1\n      tag_163\n      jump\t// in\n    tag_164:\n      mload(0x40)\n      0x20\n      dup2\n      dup4\n      sub\n      sub\n      dup2\n      mstore\n      swap1\n      0x40\n      mstore\n        /* \"contracts/RSPGame.sol\":6349:6381  keccak256(abi.encodePacked((a))) */\n      dup1\n      mload\n      swap1\n      0x20\n      add\n      keccak256\n        /* \"contracts/RSPGame.sol\":6349:6417  keccak256(abi.encodePacked((a))) == keccak256(abi.encodePacked((b))) */\n      eq\n        /* \"contracts/RSPGame.sol\":6341:6418  return (keccak256(abi.encodePacked((a))) == keccak256(abi.encodePacked((b)))) */\n      swap1\n      pop\n        /* \"contracts/RSPGame.sol\":6194:6425  function compareStrings(string memory a, string memory b) public pure returns (bool) {... */\n      swap3\n      swap2\n      pop\n      pop\n      jump\t// out\n        /* \"contracts/RSPGame.sol\":2051:3485  function play(bytes32 _hashedVote) public payable isNewPlayer costs(stake) {... */\n    tag_43:\n        /* \"contracts/RSPGame.sol\":6628:6629  0 */\n      0x00\n        /* \"contracts/RSPGame.sol\":6594:6629  players[msg.sender].hashedVote == 0 */\n      dup1\n      shl\n        /* \"contracts/RSPGame.sol\":6594:6601  players */\n      0x00\n        /* \"contracts/RSPGame.sol\":6594:6613  players[msg.sender] */\n      dup1\n        /* \"contracts/RSPGame.sol\":6602:6612  msg.sender */\n      caller\n        /* \"contracts/RSPGame.sol\":6594:6613  players[msg.sender] */\n      0xffffffffffffffffffffffffffffffffffffffff\n      and\n      0xffffffffffffffffffffffffffffffffffffffff\n      and\n      dup2\n      mstore\n      0x20\n      add\n      swap1\n      dup2\n      mstore\n      0x20\n      add\n      0x00\n      keccak256\n        /* \"contracts/RSPGame.sol\":6594:6624  players[msg.sender].hashedVote */\n      0x01\n      add\n      sload\n        /* \"contracts/RSPGame.sol\":6594:6629  players[msg.sender].hashedVote == 0 */\n      eq\n        /* \"contracts/RSPGame.sol\":6586:6657  require(players[msg.sender].hashedVote == 0, \"You are already playing\") */\n      tag_166\n      jumpi\n      mload(0x40)\n      0x08c379a000000000000000000000000000000000000000000000000000000000\n      dup2\n      mstore\n      0x04\n      add\n      tag_167\n      swap1\n      tag_168\n      jump\t// in\n    tag_167:\n      mload(0x40)\n      dup1\n      swap2\n      sub\n      swap1\n      revert\n    tag_166:\n        /* \"contracts/RSPGame.sol\":2119:2124  stake */\n      sload(0x02)\n        /* \"contracts/RSPGame.sol\":6946:6951  stake */\n      sload(0x02)\n        /* \"contracts/RSPGame.sol\":6933:6942  msg.value */\n      callvalue\n        /* \"contracts/RSPGame.sol\":6933:6951  msg.value >= stake */\n      lt\n      iszero\n        /* \"contracts/RSPGame.sol\":6925:6981  require(msg.value >= stake, \"The stake must be 1 Ether\") */\n      tag_170\n      jumpi\n      mload(0x40)\n      0x08c379a000000000000000000000000000000000000000000000000000000000\n      dup2\n      mstore\n      0x04\n      add\n      tag_171\n      swap1\n      tag_172\n      jump\t// in\n    tag_171:\n      mload(0x40)\n      dup1\n      swap2\n      sub\n      swap1\n      revert\n    tag_170:\n        /* \"contracts/RSPGame.sol\":2192:2357  Player({... */\n      mload(0x40)\n      dup1\n      0xa0\n      add\n      0x40\n      mstore\n      dup1\n      mload(0x40)\n      dup1\n      0x20\n      add\n      0x40\n      mstore\n      dup1\n      0x00\n      dup2\n      mstore\n      pop\n      dup2\n      mstore\n      0x20\n      add\n        /* \"contracts/RSPGame.sol\":2225:2236  _hashedVote */\n      dup4\n        /* \"contracts/RSPGame.sol\":2192:2357  Player({... */\n      dup2\n      mstore\n      0x20\n      add\n        /* \"contracts/RSPGame.sol\":2282:2287  false */\n      0x00\n        /* \"contracts/RSPGame.sol\":2192:2357  Player({... */\n      iszero\n      iszero\n      dup2\n      mstore\n      0x20\n      add\n        /* \"contracts/RSPGame.sol\":2319:2320  0 */\n      0x00\n        /* \"contracts/RSPGame.sol\":2192:2357  Player({... */\n      0xffffffffffffffffffffffffffffffffffffffff\n      and\n      dup2\n      mstore\n      0x20\n      add\n        /* \"contracts/RSPGame.sol\":2345:2346  0 */\n      0x00\n        /* \"contracts/RSPGame.sol\":2192:2357  Player({... */\n      dup2\n      mstore\n      pop\n        /* \"contracts/RSPGame.sol\":2170:2177  players */\n      0x00\n        /* \"contracts/RSPGame.sol\":2170:2189  players[msg.sender] */\n      dup1\n        /* \"contracts/RSPGame.sol\":2178:2188  msg.sender */\n      caller\n        /* \"contracts/RSPGame.sol\":2170:2189  players[msg.sender] */\n      0xffffffffffffffffffffffffffffffffffffffff\n      and\n      0xffffffffffffffffffffffffffffffffffffffff\n      and\n      dup2\n      mstore\n      0x20\n      add\n      swap1\n      dup2\n      mstore\n      0x20\n      add\n      0x00\n      keccak256\n        /* \"contracts/RSPGame.sol\":2170:2357  players[msg.sender] = Player({... */\n      0x00\n      dup3\n      add\n      mload\n      dup2\n      0x00\n      add\n      swap1\n      dup2\n      tag_174\n      swap2\n      swap1\n      tag_128\n      jump\t// in\n    tag_174:\n      pop\n      0x20\n      dup3\n      add\n      mload\n      dup2\n      0x01\n      add\n      sstore\n      0x40\n      dup3\n      add\n      mload\n      dup2\n      0x02\n      add\n      exp(0x0100, 0x00)\n      dup2\n      sload\n      dup2\n      0xff\n      mul\n      not\n      and\n      swap1\n      dup4\n      iszero\n      iszero\n      mul\n      or\n      swap1\n      sstore\n      pop\n      0x60\n      dup3\n      add\n      mload\n      dup2\n      0x02\n      add\n      exp(0x0100, 0x01)\n      dup2\n      sload\n      dup2\n      0xffffffffffffffffffffffffffffffffffffffff\n      mul\n      not\n      and\n      swap1\n      dup4\n      0xffffffffffffffffffffffffffffffffffffffff\n      and\n      mul\n      or\n      swap1\n      sstore\n      pop\n      0x80\n      dup3\n      add\n      mload\n      dup2\n      0x03\n      add\n      sstore\n      swap1\n      pop\n      pop\n        /* \"contracts/RSPGame.sol\":2368:2384  uint queueLength */\n      0x00\n        /* \"contracts/RSPGame.sol\":2387:2398  playerQueue */\n      0x01\n        /* \"contracts/RSPGame.sol\":2387:2405  playerQueue.length */\n      dup1\n      sload\n      swap1\n      pop\n        /* \"contracts/RSPGame.sol\":2368:2405  uint queueLength = playerQueue.length */\n      swap1\n      pop\n        /* \"contracts/RSPGame.sol\":2476:2477  0 */\n      0x00\n        /* \"contracts/RSPGame.sol\":2461:2472  queueLength */\n      dup2\n        /* \"contracts/RSPGame.sol\":2461:2477  queueLength == 0 */\n      sub\n        /* \"contracts/RSPGame.sol\":2457:3266  if (queueLength == 0) {... */\n      tag_175\n      jumpi\n        /* \"contracts/RSPGame.sol\":2555:2566  playerQueue */\n      0x01\n        /* \"contracts/RSPGame.sol\":2572:2582  msg.sender */\n      caller\n        /* \"contracts/RSPGame.sol\":2555:2583  playerQueue.push(msg.sender) */\n      swap1\n      dup1\n      0x01\n      dup2\n      sload\n      add\n      dup1\n      dup3\n      sstore\n      dup1\n      swap2\n      pop\n      pop\n      0x01\n      swap1\n      sub\n      swap1\n      0x00\n      mstore\n      keccak256(0x00, 0x20)\n      add\n      0x00\n      swap1\n      swap2\n      swap1\n      swap2\n      swap1\n      swap2\n      0x0100\n      exp\n      dup2\n      sload\n      dup2\n      0xffffffffffffffffffffffffffffffffffffffff\n      mul\n      not\n      and\n      swap1\n      dup4\n      0xffffffffffffffffffffffffffffffffffffffff\n      and\n      mul\n      or\n      swap1\n      sstore\n      pop\n        /* \"contracts/RSPGame.sol\":2457:3266  if (queueLength == 0) {... */\n      jump(tag_177)\n    tag_175:\n        /* \"contracts/RSPGame.sol\":2714:2730  address opponent */\n      0x00\n        /* \"contracts/RSPGame.sol\":2733:2744  playerQueue */\n      0x01\n        /* \"contracts/RSPGame.sol\":2759:2760  1 */\n      dup1\n        /* \"contracts/RSPGame.sol\":2745:2756  queueLength */\n      dup4\n        /* \"contracts/RSPGame.sol\":2745:2760  queueLength - 1 */\n      tag_178\n      swap2\n      swap1\n      tag_179\n      jump\t// in\n    tag_178:\n        /* \"contracts/RSPGame.sol\":2733:2761  playerQueue[queueLength - 1] */\n      dup2\n      sload\n      dup2\n      lt\n      tag_180\n      jumpi\n      tag_181\n      tag_116\n      jump\t// in\n    tag_181:\n    tag_180:\n      swap1\n      0x00\n      mstore\n      keccak256(0x00, 0x20)\n      add\n      0x00\n      swap1\n      sload\n      swap1\n      0x0100\n      exp\n      swap1\n      div\n      0xffffffffffffffffffffffffffffffffffffffff\n      and\n        /* \"contracts/RSPGame.sol\":2714:2761  address opponent = playerQueue[queueLength - 1] */\n      swap1\n      pop\n        /* \"contracts/RSPGame.sol\":2806:2814  opponent */\n      dup1\n        /* \"contracts/RSPGame.sol\":2775:2782  players */\n      0x00\n        /* \"contracts/RSPGame.sol\":2775:2794  players[msg.sender] */\n      dup1\n        /* \"contracts/RSPGame.sol\":2783:2793  msg.sender */\n      caller\n        /* \"contracts/RSPGame.sol\":2775:2794  players[msg.sender] */\n      0xffffffffffffffffffffffffffffffffffffffff\n      and\n      0xffffffffffffffffffffffffffffffffffffffff\n      and\n      dup2\n      mstore\n      0x20\n      add\n      swap1\n      dup2\n      mstore\n      0x20\n      add\n      0x00\n      keccak256\n        /* \"contracts/RSPGame.sol\":2775:2803  players[msg.sender].opponent */\n      0x02\n      add\n      0x01\n        /* \"contracts/RSPGame.sol\":2775:2814  players[msg.sender].opponent = opponent */\n      0x0100\n      exp\n      dup2\n      sload\n      dup2\n      0xffffffffffffffffffffffffffffffffffffffff\n      mul\n      not\n      and\n      swap1\n      dup4\n      0xffffffffffffffffffffffffffffffffffffffff\n      and\n      mul\n      or\n      swap1\n      sstore\n      pop\n        /* \"contracts/RSPGame.sol\":2857:2867  msg.sender */\n      caller\n        /* \"contracts/RSPGame.sol\":2828:2835  players */\n      0x00\n        /* \"contracts/RSPGame.sol\":2828:2845  players[opponent] */\n      dup1\n        /* \"contracts/RSPGame.sol\":2836:2844  opponent */\n      dup4\n        /* \"contracts/RSPGame.sol\":2828:2845  players[opponent] */\n      0xffffffffffffffffffffffffffffffffffffffff\n      and\n      0xffffffffffffffffffffffffffffffffffffffff\n      and\n      dup2\n      mstore\n      0x20\n      add\n      swap1\n      dup2\n      mstore\n      0x20\n      add\n      0x00\n      keccak256\n        /* \"contracts/RSPGame.sol\":2828:2854  players[opponent].opponent */\n      0x02\n      add\n      0x01\n        /* \"contracts/RSPGame.sol\":2828:2867  players[opponent].opponent = msg.sender */\n      0x0100\n      exp\n      dup2\n      sload\n      dup2\n      0xffffffffffffffffffffffffffffffffffffffff\n      mul\n      not\n      and\n      swap1\n      dup4\n      0xffffffffffffffffffffffffffffffffffffffff\n      and\n      mul\n      or\n      swap1\n      sstore\n      pop\n        /* \"contracts/RSPGame.sol\":2935:2948  uint deadline */\n      0x00\n        /* \"contracts/RSPGame.sol\":2969:2979  revealTime */\n      sload(0x03)\n        /* \"contracts/RSPGame.sol\":2951:2966  block.timestamp */\n      timestamp\n        /* \"contracts/RSPGame.sol\":2951:2979  block.timestamp + revealTime */\n      tag_183\n      swap2\n      swap1\n      tag_184\n      jump\t// in\n    tag_183:\n        /* \"contracts/RSPGame.sol\":2935:2979  uint deadline = block.timestamp + revealTime */\n      swap1\n      pop\n        /* \"contracts/RSPGame.sol\":3024:3032  deadline */\n      dup1\n        /* \"contracts/RSPGame.sol\":2993:3000  players */\n      0x00\n        /* \"contracts/RSPGame.sol\":2993:3012  players[msg.sender] */\n      dup1\n        /* \"contracts/RSPGame.sol\":3001:3011  msg.sender */\n      caller\n        /* \"contracts/RSPGame.sol\":2993:3012  players[msg.sender] */\n      0xffffffffffffffffffffffffffffffffffffffff\n      and\n      0xffffffffffffffffffffffffffffffffffffffff\n      and\n      dup2\n      mstore\n      0x20\n      add\n      swap1\n      dup2\n      mstore\n      0x20\n      add\n      0x00\n      keccak256\n        /* \"contracts/RSPGame.sol\":2993:3021  players[msg.sender].deadline */\n      0x03\n      add\n        /* \"contracts/RSPGame.sol\":2993:3032  players[msg.sender].deadline = deadline */\n      dup2\n      swap1\n      sstore\n      pop\n        /* \"contracts/RSPGame.sol\":3075:3083  deadline */\n      dup1\n        /* \"contracts/RSPGame.sol\":3046:3053  players */\n      0x00\n        /* \"contracts/RSPGame.sol\":3046:3063  players[opponent] */\n      dup1\n        /* \"contracts/RSPGame.sol\":3054:3062  opponent */\n      dup5\n        /* \"contracts/RSPGame.sol\":3046:3063  players[opponent] */\n      0xffffffffffffffffffffffffffffffffffffffff\n      and\n      0xffffffffffffffffffffffffffffffffffffffff\n      and\n      dup2\n      mstore\n      0x20\n      add\n      swap1\n      dup2\n      mstore\n      0x20\n      add\n      0x00\n      keccak256\n        /* \"contracts/RSPGame.sol\":3046:3072  players[opponent].deadline */\n      0x03\n      add\n        /* \"contracts/RSPGame.sol\":3046:3083  players[opponent].deadline = deadline */\n      dup2\n      swap1\n      sstore\n      pop\n        /* \"contracts/RSPGame.sol\":3178:3189  playerQueue */\n      0x01\n        /* \"contracts/RSPGame.sol\":3178:3195  playerQueue.pop() */\n      dup1\n      sload\n      dup1\n      tag_185\n      jumpi\n      tag_186\n      tag_187\n      jump\t// in\n    tag_186:\n    tag_185:\n      0x01\n      swap1\n      sub\n      dup2\n      dup2\n      swap1\n      0x00\n      mstore\n      keccak256(0x00, 0x20)\n      add\n      exp(0x0100, 0x00)\n      dup2\n      sload\n      swap1\n      0xffffffffffffffffffffffffffffffffffffffff\n      mul\n      not\n      and\n      swap1\n      sstore\n      swap1\n      sstore\n        /* \"contracts/RSPGame.sol\":3214:3255  GameStart(opponent, msg.sender, deadline) */\n      0xf7750bebc6a1d050dec98239cfc17dbb80b7469bdbf2a73da0c8023a4f46f772\n        /* \"contracts/RSPGame.sol\":3224:3232  opponent */\n      dup3\n        /* \"contracts/RSPGame.sol\":3234:3244  msg.sender */\n      caller\n        /* \"contracts/RSPGame.sol\":3246:3254  deadline */\n      dup4\n        /* \"contracts/RSPGame.sol\":3214:3255  GameStart(opponent, msg.sender, deadline) */\n      mload(0x40)\n      tag_189\n      swap4\n      swap3\n      swap2\n      swap1\n      tag_190\n      jump\t// in\n    tag_189:\n      mload(0x40)\n      dup1\n      swap2\n      sub\n      swap1\n      log1\n        /* \"contracts/RSPGame.sol\":2601:3266  {... */\n      pop\n      pop\n        /* \"contracts/RSPGame.sol\":2457:3266  if (queueLength == 0) {... */\n    tag_177:\n        /* \"contracts/RSPGame.sol\":3341:3351  msg.sender */\n      caller\n        /* \"contracts/RSPGame.sol\":3333:3361  payable(msg.sender).transfer */\n      0xffffffffffffffffffffffffffffffffffffffff\n      and\n        /* \"contracts/RSPGame.sol\":3333:3380  payable(msg.sender).transfer(msg.value - stake) */\n      0x08fc\n        /* \"contracts/RSPGame.sol\":3374:3379  stake */\n      sload(0x02)\n        /* \"contracts/RSPGame.sol\":3362:3371  msg.value */\n      callvalue\n        /* \"contracts/RSPGame.sol\":3362:3379  msg.value - stake */\n      tag_191\n      swap2\n      swap1\n      tag_179\n      jump\t// in\n    tag_191:\n        /* \"contracts/RSPGame.sol\":3333:3380  payable(msg.sender).transfer(msg.value - stake) */\n      swap1\n      dup2\n      iszero\n      mul\n      swap1\n      mload(0x40)\n      0x00\n      mload(0x40)\n      dup1\n      dup4\n      sub\n      dup2\n      dup6\n      dup9\n      dup9\n      call\n      swap4\n      pop\n      pop\n      pop\n      pop\n      iszero\n      dup1\n      iszero\n      tag_193\n      jumpi\n      returndatasize\n      0x00\n      dup1\n      returndatacopy\n      revert(0x00, returndatasize)\n    tag_193:\n      pop\n        /* \"contracts/RSPGame.sol\":3443:3478  HiddenVote(msg.sender, _hashedVote) */\n      0x673312c85cba8b334416b1c6e845170bbdff704baf138f1866ab5e8bf3440776\n        /* \"contracts/RSPGame.sol\":3454:3464  msg.sender */\n      caller\n        /* \"contracts/RSPGame.sol\":3466:3477  _hashedVote */\n      dup5\n        /* \"contracts/RSPGame.sol\":3443:3478  HiddenVote(msg.sender, _hashedVote) */\n      mload(0x40)\n      tag_194\n      swap3\n      swap2\n      swap1\n      tag_195\n      jump\t// in\n    tag_194:\n      mload(0x40)\n      dup1\n      swap2\n      sub\n      swap1\n      log1\n        /* \"contracts/RSPGame.sol\":2126:3485  {... */\n      pop\n        /* \"contracts/RSPGame.sol\":6667:6668  _ */\n      pop\n        /* \"contracts/RSPGame.sol\":2051:3485  function play(bytes32 _hashedVote) public payable isNewPlayer costs(stake) {... */\n      pop\n      jump\t// out\n        /* \"contracts/RSPGame.sol\":1427:1468  mapping(address => Player) public players */\n    tag_48:\n      mstore(0x20, 0x00)\n      dup1\n      0x00\n      mstore\n      keccak256(0x00, 0x40)\n      0x00\n      swap2\n      pop\n      swap1\n      pop\n      dup1\n      0x00\n      add\n      dup1\n      sload\n      tag_196\n      swap1\n      tag_68\n      jump\t// in\n    tag_196:\n      dup1\n      0x1f\n      add\n      0x20\n      dup1\n      swap2\n      div\n      mul\n      0x20\n      add\n      mload(0x40)\n      swap1\n      dup2\n      add\n      0x40\n      mstore\n      dup1\n      swap3\n      swap2\n      swap1\n      dup2\n      dup2\n      mstore\n      0x20\n      add\n      dup3\n      dup1\n      sload\n      tag_197\n      swap1\n      tag_68\n      jump\t// in\n    tag_197:\n      dup1\n      iszero\n      tag_198\n      jumpi\n      dup1\n      0x1f\n      lt\n      tag_199\n      jumpi\n      0x0100\n      dup1\n      dup4\n      sload\n      div\n      mul\n      dup4\n      mstore\n      swap2\n      0x20\n      add\n      swap2\n      jump(tag_198)\n    tag_199:\n      dup3\n      add\n      swap2\n      swap1\n      0x00\n      mstore\n      keccak256(0x00, 0x20)\n      swap1\n    tag_200:\n      dup2\n      sload\n      dup2\n      mstore\n      swap1\n      0x01\n      add\n      swap1\n      0x20\n      add\n      dup1\n      dup4\n      gt\n      tag_200\n      jumpi\n      dup3\n      swap1\n      sub\n      0x1f\n      and\n      dup3\n      add\n      swap2\n    tag_198:\n      pop\n      pop\n      pop\n      pop\n      pop\n      swap1\n      dup1\n      0x01\n      add\n      sload\n      swap1\n      dup1\n      0x02\n      add\n      0x00\n      swap1\n      sload\n      swap1\n      0x0100\n      exp\n      swap1\n      div\n      0xff\n      and\n      swap1\n      dup1\n      0x02\n      add\n      0x01\n      swap1\n      sload\n      swap1\n      0x0100\n      exp\n      swap1\n      div\n      0xffffffffffffffffffffffffffffffffffffffff\n      and\n      swap1\n      dup1\n      0x03\n      add\n      sload\n      swap1\n      pop\n      dup6\n      jump\t// out\n        /* \"contracts/RSPGame.sol\":1475:1503  address[] public playerQueue */\n    tag_55:\n      0x01\n      dup2\n      dup2\n      sload\n      dup2\n      lt\n      tag_201\n      jumpi\n      0x00\n      dup1\n      revert\n    tag_201:\n      swap1\n      0x00\n      mstore\n      keccak256(0x00, 0x20)\n      add\n      0x00\n      swap2\n      pop\n      sload\n      swap1\n      0x0100\n      exp\n      swap1\n      div\n      0xffffffffffffffffffffffffffffffffffffffff\n      and\n      dup2\n      jump\t// out\n    tag_87:\n      pop\n      dup1\n      sload\n      tag_203\n      swap1\n      tag_68\n      jump\t// in\n    tag_203:\n      0x00\n      dup3\n      sstore\n      dup1\n      0x1f\n      lt\n      tag_205\n      jumpi\n      pop\n      jump(tag_204)\n    tag_205:\n      0x1f\n      add\n      0x20\n      swap1\n      div\n      swap1\n      0x00\n      mstore\n      keccak256(0x00, 0x20)\n      swap1\n      dup2\n      add\n      swap1\n      tag_206\n      swap2\n      swap1\n      tag_207\n      jump\t// in\n    tag_206:\n    tag_204:\n      pop\n      jump\t// out\n    tag_207:\n    tag_208:\n      dup1\n      dup3\n      gt\n      iszero\n      tag_209\n      jumpi\n      0x00\n      dup2\n      0x00\n      swap1\n      sstore\n      pop\n      0x01\n      add\n      jump(tag_208)\n    tag_209:\n      pop\n      swap1\n      jump\t// out\n        /* \"#utility.yul\":7:84   */\n    tag_210:\n        /* \"#utility.yul\":44:51   */\n      0x00\n        /* \"#utility.yul\":73:78   */\n      dup2\n        /* \"#utility.yul\":62:78   */\n      swap1\n      pop\n        /* \"#utility.yul\":7:84   */\n      swap2\n      swap1\n      pop\n      jump\t// out\n        /* \"#utility.yul\":90:208   */\n    tag_211:\n        /* \"#utility.yul\":177:201   */\n      tag_282\n        /* \"#utility.yul\":195:200   */\n      dup2\n        /* \"#utility.yul\":177:201   */\n      tag_210\n      jump\t// in\n    tag_282:\n        /* \"#utility.yul\":172:175   */\n      dup3\n        /* \"#utility.yul\":165:202   */\n      mstore\n        /* \"#utility.yul\":90:208   */\n      pop\n      pop\n      jump\t// out\n        /* \"#utility.yul\":214:436   */\n    tag_16:\n        /* \"#utility.yul\":307:311   */\n      0x00\n        /* \"#utility.yul\":345:347   */\n      0x20\n        /* \"#utility.yul\":334:343   */\n      dup3\n        /* \"#utility.yul\":330:348   */\n      add\n        /* \"#utility.yul\":322:348   */\n      swap1\n      pop\n        /* \"#utility.yul\":358:429   */\n      tag_284\n        /* \"#utility.yul\":426:427   */\n      0x00\n        /* \"#utility.yul\":415:424   */\n      dup4\n        /* \"#utility.yul\":411:428   */\n      add\n        /* \"#utility.yul\":402:408   */\n      dup5\n        /* \"#utility.yul\":358:429   */\n      tag_211\n      jump\t// in\n    tag_284:\n        /* \"#utility.yul\":214:436   */\n      swap3\n      swap2\n      pop\n      pop\n      jump\t// out\n        /* \"#utility.yul\":442:517   */\n    tag_212:\n        /* \"#utility.yul\":475:481   */\n      0x00\n        /* \"#utility.yul\":508:510   */\n      0x40\n        /* \"#utility.yul\":502:511   */\n      mload\n        /* \"#utility.yul\":492:511   */\n      swap1\n      pop\n        /* \"#utility.yul\":442:517   */\n      swap1\n      jump\t// out\n        /* \"#utility.yul\":523:640   */\n    tag_213:\n        /* \"#utility.yul\":632:633   */\n      0x00\n        /* \"#utility.yul\":629:630   */\n      dup1\n        /* \"#utility.yul\":622:634   */\n      revert\n        /* \"#utility.yul\":646:763   */\n    tag_214:\n        /* \"#utility.yul\":755:756   */\n      0x00\n        /* \"#utility.yul\":752:753   */\n      dup1\n        /* \"#utility.yul\":745:757   */\n      revert\n        /* \"#utility.yul\":769:886   */\n    tag_215:\n        /* \"#utility.yul\":878:879   */\n      0x00\n        /* \"#utility.yul\":875:876   */\n      dup1\n        /* \"#utility.yul\":868:880   */\n      revert\n        /* \"#utility.yul\":892:1009   */\n    tag_216:\n        /* \"#utility.yul\":1001:1002   */\n      0x00\n        /* \"#utility.yul\":998:999   */\n      dup1\n        /* \"#utility.yul\":991:1003   */\n      revert\n        /* \"#utility.yul\":1015:1132   */\n    tag_217:\n        /* \"#utility.yul\":1124:1125   */\n      0x00\n        /* \"#utility.yul\":1121:1122   */\n      dup1\n        /* \"#utility.yul\":1114:1126   */\n      revert\n        /* \"#utility.yul\":1152:1705   */\n    tag_218:\n        /* \"#utility.yul\":1210:1218   */\n      0x00\n        /* \"#utility.yul\":1220:1226   */\n      dup1\n        /* \"#utility.yul\":1270:1273   */\n      dup4\n        /* \"#utility.yul\":1263:1267   */\n      0x1f\n        /* \"#utility.yul\":1255:1261   */\n      dup5\n        /* \"#utility.yul\":1251:1268   */\n      add\n        /* \"#utility.yul\":1247:1274   */\n      slt\n        /* \"#utility.yul\":1237:1359   */\n      tag_292\n      jumpi\n        /* \"#utility.yul\":1278:1357   */\n      tag_293\n      tag_215\n      jump\t// in\n    tag_293:\n        /* \"#utility.yul\":1237:1359   */\n    tag_292:\n        /* \"#utility.yul\":1391:1397   */\n      dup3\n        /* \"#utility.yul\":1378:1398   */\n      calldataload\n        /* \"#utility.yul\":1368:1398   */\n      swap1\n      pop\n        /* \"#utility.yul\":1421:1439   */\n      0xffffffffffffffff\n        /* \"#utility.yul\":1413:1419   */\n      dup2\n        /* \"#utility.yul\":1410:1440   */\n      gt\n        /* \"#utility.yul\":1407:1524   */\n      iszero\n      tag_294\n      jumpi\n        /* \"#utility.yul\":1443:1522   */\n      tag_295\n      tag_216\n      jump\t// in\n    tag_295:\n        /* \"#utility.yul\":1407:1524   */\n    tag_294:\n        /* \"#utility.yul\":1557:1561   */\n      0x20\n        /* \"#utility.yul\":1549:1555   */\n      dup4\n        /* \"#utility.yul\":1545:1562   */\n      add\n        /* \"#utility.yul\":1533:1562   */\n      swap2\n      pop\n        /* \"#utility.yul\":1611:1614   */\n      dup4\n        /* \"#utility.yul\":1603:1607   */\n      0x01\n        /* \"#utility.yul\":1595:1601   */\n      dup3\n        /* \"#utility.yul\":1591:1608   */\n      mul\n        /* \"#utility.yul\":1581:1589   */\n      dup4\n        /* \"#utility.yul\":1577:1609   */\n      add\n        /* \"#utility.yul\":1574:1615   */\n      gt\n        /* \"#utility.yul\":1571:1699   */\n      iszero\n      tag_296\n      jumpi\n        /* \"#utility.yul\":1618:1697   */\n      tag_297\n      tag_217\n      jump\t// in\n    tag_297:\n        /* \"#utility.yul\":1571:1699   */\n    tag_296:\n        /* \"#utility.yul\":1152:1705   */\n      swap3\n      pop\n      swap3\n      swap1\n      pop\n      jump\t// out\n        /* \"#utility.yul\":1711:2585   */\n    tag_22:\n        /* \"#utility.yul\":1803:1809   */\n      0x00\n        /* \"#utility.yul\":1811:1817   */\n      dup1\n        /* \"#utility.yul\":1819:1825   */\n      0x00\n        /* \"#utility.yul\":1827:1833   */\n      dup1\n        /* \"#utility.yul\":1876:1878   */\n      0x40\n        /* \"#utility.yul\":1864:1873   */\n      dup6\n        /* \"#utility.yul\":1855:1862   */\n      dup8\n        /* \"#utility.yul\":1851:1874   */\n      sub\n        /* \"#utility.yul\":1847:1879   */\n      slt\n        /* \"#utility.yul\":1844:1963   */\n      iszero\n      tag_299\n      jumpi\n        /* \"#utility.yul\":1882:1961   */\n      tag_300\n      tag_213\n      jump\t// in\n    tag_300:\n        /* \"#utility.yul\":1844:1963   */\n    tag_299:\n        /* \"#utility.yul\":2030:2031   */\n      0x00\n        /* \"#utility.yul\":2019:2028   */\n      dup6\n        /* \"#utility.yul\":2015:2032   */\n      add\n        /* \"#utility.yul\":2002:2033   */\n      calldataload\n        /* \"#utility.yul\":2060:2078   */\n      0xffffffffffffffff\n        /* \"#utility.yul\":2052:2058   */\n      dup2\n        /* \"#utility.yul\":2049:2079   */\n      gt\n        /* \"#utility.yul\":2046:2163   */\n      iszero\n      tag_301\n      jumpi\n        /* \"#utility.yul\":2082:2161   */\n      tag_302\n      tag_214\n      jump\t// in\n    tag_302:\n        /* \"#utility.yul\":2046:2163   */\n    tag_301:\n        /* \"#utility.yul\":2195:2260   */\n      tag_303\n        /* \"#utility.yul\":2252:2259   */\n      dup8\n        /* \"#utility.yul\":2243:2249   */\n      dup3\n        /* \"#utility.yul\":2232:2241   */\n      dup9\n        /* \"#utility.yul\":2228:2250   */\n      add\n        /* \"#utility.yul\":2195:2260   */\n      tag_218\n      jump\t// in\n    tag_303:\n        /* \"#utility.yul\":2177:2260   */\n      swap5\n      pop\n      swap5\n      pop\n        /* \"#utility.yul\":1973:2270   */\n      pop\n        /* \"#utility.yul\":2337:2339   */\n      0x20\n        /* \"#utility.yul\":2326:2335   */\n      dup6\n        /* \"#utility.yul\":2322:2340   */\n      add\n        /* \"#utility.yul\":2309:2341   */\n      calldataload\n        /* \"#utility.yul\":2368:2386   */\n      0xffffffffffffffff\n        /* \"#utility.yul\":2360:2366   */\n      dup2\n        /* \"#utility.yul\":2357:2387   */\n      gt\n        /* \"#utility.yul\":2354:2471   */\n      iszero\n      tag_304\n      jumpi\n        /* \"#utility.yul\":2390:2469   */\n      tag_305\n      tag_214\n      jump\t// in\n    tag_305:\n        /* \"#utility.yul\":2354:2471   */\n    tag_304:\n        /* \"#utility.yul\":2503:2568   */\n      tag_306\n        /* \"#utility.yul\":2560:2567   */\n      dup8\n        /* \"#utility.yul\":2551:2557   */\n      dup3\n        /* \"#utility.yul\":2540:2549   */\n      dup9\n        /* \"#utility.yul\":2536:2558   */\n      add\n        /* \"#utility.yul\":2503:2568   */\n      tag_218\n      jump\t// in\n    tag_306:\n        /* \"#utility.yul\":2485:2568   */\n      swap3\n      pop\n      swap3\n      pop\n        /* \"#utility.yul\":2280:2578   */\n      pop\n        /* \"#utility.yul\":1711:2585   */\n      swap3\n      swap6\n      swap2\n      swap5\n      pop\n      swap3\n      pop\n      jump\t// out\n        /* \"#utility.yul\":2591:2708   */\n    tag_219:\n        /* \"#utility.yul\":2700:2701   */\n      0x00\n        /* \"#utility.yul\":2697:2698   */\n      dup1\n        /* \"#utility.yul\":2690:2702   */\n      revert\n        /* \"#utility.yul\":2714:2816   */\n    tag_220:\n        /* \"#utility.yul\":2755:2761   */\n      0x00\n        /* \"#utility.yul\":2806:2808   */\n      0x1f\n        /* \"#utility.yul\":2802:2809   */\n      not\n        /* \"#utility.yul\":2797:2799   */\n      0x1f\n        /* \"#utility.yul\":2790:2795   */\n      dup4\n        /* \"#utility.yul\":2786:2800   */\n      add\n        /* \"#utility.yul\":2782:2810   */\n      and\n        /* \"#utility.yul\":2772:2810   */\n      swap1\n      pop\n        /* \"#utility.yul\":2714:2816   */\n      swap2\n      swap1\n      pop\n      jump\t// out\n        /* \"#utility.yul\":2822:3002   */\n    tag_221:\n        /* \"#utility.yul\":2870:2947   */\n      0x4e487b7100000000000000000000000000000000000000000000000000000000\n        /* \"#utility.yul\":2867:2868   */\n      0x00\n        /* \"#utility.yul\":2860:2948   */\n      mstore\n        /* \"#utility.yul\":2967:2971   */\n      0x41\n        /* \"#utility.yul\":2964:2965   */\n      0x04\n        /* \"#utility.yul\":2957:2972   */\n      mstore\n        /* \"#utility.yul\":2991:2995   */\n      0x24\n        /* \"#utility.yul\":2988:2989   */\n      0x00\n        /* \"#utility.yul\":2981:2996   */\n      revert\n        /* \"#utility.yul\":3008:3289   */\n    tag_222:\n        /* \"#utility.yul\":3091:3118   */\n      tag_311\n        /* \"#utility.yul\":3113:3117   */\n      dup3\n        /* \"#utility.yul\":3091:3118   */\n      tag_220\n      jump\t// in\n    tag_311:\n        /* \"#utility.yul\":3083:3089   */\n      dup2\n        /* \"#utility.yul\":3079:3119   */\n      add\n        /* \"#utility.yul\":3221:3227   */\n      dup2\n        /* \"#utility.yul\":3209:3219   */\n      dup2\n        /* \"#utility.yul\":3206:3228   */\n      lt\n        /* \"#utility.yul\":3185:3203   */\n      0xffffffffffffffff\n        /* \"#utility.yul\":3173:3183   */\n      dup3\n        /* \"#utility.yul\":3170:3204   */\n      gt\n        /* \"#utility.yul\":3167:3229   */\n      or\n        /* \"#utility.yul\":3164:3252   */\n      iszero\n      tag_312\n      jumpi\n        /* \"#utility.yul\":3232:3250   */\n      tag_313\n      tag_221\n      jump\t// in\n    tag_313:\n        /* \"#utility.yul\":3164:3252   */\n    tag_312:\n        /* \"#utility.yul\":3272:3282   */\n      dup1\n        /* \"#utility.yul\":3268:3270   */\n      0x40\n        /* \"#utility.yul\":3261:3283   */\n      mstore\n        /* \"#utility.yul\":3051:3289   */\n      pop\n        /* \"#utility.yul\":3008:3289   */\n      pop\n      pop\n      jump\t// out\n        /* \"#utility.yul\":3295:3424   */\n    tag_223:\n        /* \"#utility.yul\":3329:3335   */\n      0x00\n        /* \"#utility.yul\":3356:3376   */\n      tag_315\n      tag_212\n      jump\t// in\n    tag_315:\n        /* \"#utility.yul\":3346:3376   */\n      swap1\n      pop\n        /* \"#utility.yul\":3385:3418   */\n      tag_316\n        /* \"#utility.yul\":3413:3417   */\n      dup3\n        /* \"#utility.yul\":3405:3411   */\n      dup3\n        /* \"#utility.yul\":3385:3418   */\n      tag_222\n      jump\t// in\n    tag_316:\n        /* \"#utility.yul\":3295:3424   */\n      swap2\n      swap1\n      pop\n      jump\t// out\n        /* \"#utility.yul\":3430:3738   */\n    tag_224:\n        /* \"#utility.yul\":3492:3496   */\n      0x00\n        /* \"#utility.yul\":3582:3600   */\n      0xffffffffffffffff\n        /* \"#utility.yul\":3574:3580   */\n      dup3\n        /* \"#utility.yul\":3571:3601   */\n      gt\n        /* \"#utility.yul\":3568:3624   */\n      iszero\n      tag_318\n      jumpi\n        /* \"#utility.yul\":3604:3622   */\n      tag_319\n      tag_221\n      jump\t// in\n    tag_319:\n        /* \"#utility.yul\":3568:3624   */\n    tag_318:\n        /* \"#utility.yul\":3642:3671   */\n      tag_320\n        /* \"#utility.yul\":3664:3670   */\n      dup3\n        /* \"#utility.yul\":3642:3671   */\n      tag_220\n      jump\t// in\n    tag_320:\n        /* \"#utility.yul\":3634:3671   */\n      swap1\n      pop\n        /* \"#utility.yul\":3726:3730   */\n      0x20\n        /* \"#utility.yul\":3720:3724   */\n      dup2\n        /* \"#utility.yul\":3716:3731   */\n      add\n        /* \"#utility.yul\":3708:3731   */\n      swap1\n      pop\n        /* \"#utility.yul\":3430:3738   */\n      swap2\n      swap1\n      pop\n      jump\t// out\n        /* \"#utility.yul\":3744:3892   */\n    tag_225:\n        /* \"#utility.yul\":3842:3848   */\n      dup3\n        /* \"#utility.yul\":3837:3840   */\n      dup2\n        /* \"#utility.yul\":3832:3835   */\n      dup4\n        /* \"#utility.yul\":3819:3849   */\n      calldatacopy\n        /* \"#utility.yul\":3883:3884   */\n      0x00\n        /* \"#utility.yul\":3874:3880   */\n      dup4\n        /* \"#utility.yul\":3869:3872   */\n      dup4\n        /* \"#utility.yul\":3865:3881   */\n      add\n        /* \"#utility.yul\":3858:3885   */\n      mstore\n        /* \"#utility.yul\":3744:3892   */\n      pop\n      pop\n      pop\n      jump\t// out\n        /* \"#utility.yul\":3898:4323   */\n    tag_226:\n        /* \"#utility.yul\":3976:3981   */\n      0x00\n        /* \"#utility.yul\":4001:4067   */\n      tag_323\n        /* \"#utility.yul\":4017:4066   */\n      tag_324\n        /* \"#utility.yul\":4059:4065   */\n      dup5\n        /* \"#utility.yul\":4017:4066   */\n      tag_224\n      jump\t// in\n    tag_324:\n        /* \"#utility.yul\":4001:4067   */\n      tag_223\n      jump\t// in\n    tag_323:\n        /* \"#utility.yul\":3992:4067   */\n      swap1\n      pop\n        /* \"#utility.yul\":4090:4096   */\n      dup3\n        /* \"#utility.yul\":4083:4088   */\n      dup2\n        /* \"#utility.yul\":4076:4097   */\n      mstore\n        /* \"#utility.yul\":4128:4132   */\n      0x20\n        /* \"#utility.yul\":4121:4126   */\n      dup2\n        /* \"#utility.yul\":4117:4133   */\n      add\n        /* \"#utility.yul\":4166:4169   */\n      dup5\n        /* \"#utility.yul\":4157:4163   */\n      dup5\n        /* \"#utility.yul\":4152:4155   */\n      dup5\n        /* \"#utility.yul\":4148:4164   */\n      add\n        /* \"#utility.yul\":4145:4170   */\n      gt\n        /* \"#utility.yul\":4142:4254   */\n      iszero\n      tag_325\n      jumpi\n        /* \"#utility.yul\":4173:4252   */\n      tag_326\n      tag_219\n      jump\t// in\n    tag_326:\n        /* \"#utility.yul\":4142:4254   */\n    tag_325:\n        /* \"#utility.yul\":4263:4317   */\n      tag_327\n        /* \"#utility.yul\":4310:4316   */\n      dup5\n        /* \"#utility.yul\":4305:4308   */\n      dup3\n        /* \"#utility.yul\":4300:4303   */\n      dup6\n        /* \"#utility.yul\":4263:4317   */\n      tag_225\n      jump\t// in\n    tag_327:\n        /* \"#utility.yul\":3982:4323   */\n      pop\n        /* \"#utility.yul\":3898:4323   */\n      swap4\n      swap3\n      pop\n      pop\n      pop\n      jump\t// out\n        /* \"#utility.yul\":4343:4683   */\n    tag_227:\n        /* \"#utility.yul\":4399:4404   */\n      0x00\n        /* \"#utility.yul\":4448:4451   */\n      dup3\n        /* \"#utility.yul\":4441:4445   */\n      0x1f\n        /* \"#utility.yul\":4433:4439   */\n      dup4\n        /* \"#utility.yul\":4429:4446   */\n      add\n        /* \"#utility.yul\":4425:4452   */\n      slt\n        /* \"#utility.yul\":4415:4537   */\n      tag_329\n      jumpi\n        /* \"#utility.yul\":4456:4535   */\n      tag_330\n      tag_215\n      jump\t// in\n    tag_330:\n        /* \"#utility.yul\":4415:4537   */\n    tag_329:\n        /* \"#utility.yul\":4573:4579   */\n      dup2\n        /* \"#utility.yul\":4560:4580   */\n      calldataload\n        /* \"#utility.yul\":4598:4677   */\n      tag_331\n        /* \"#utility.yul\":4673:4676   */\n      dup5\n        /* \"#utility.yul\":4665:4671   */\n      dup3\n        /* \"#utility.yul\":4658:4662   */\n      0x20\n        /* \"#utility.yul\":4650:4656   */\n      dup7\n        /* \"#utility.yul\":4646:4663   */\n      add\n        /* \"#utility.yul\":4598:4677   */\n      tag_226\n      jump\t// in\n    tag_331:\n        /* \"#utility.yul\":4589:4677   */\n      swap2\n      pop\n        /* \"#utility.yul\":4405:4683   */\n      pop\n        /* \"#utility.yul\":4343:4683   */\n      swap3\n      swap2\n      pop\n      pop\n      jump\t// out\n        /* \"#utility.yul\":4689:5523   */\n    tag_27:\n        /* \"#utility.yul\":4777:4783   */\n      0x00\n        /* \"#utility.yul\":4785:4791   */\n      dup1\n        /* \"#utility.yul\":4834:4836   */\n      0x40\n        /* \"#utility.yul\":4822:4831   */\n      dup4\n        /* \"#utility.yul\":4813:4820   */\n      dup6\n        /* \"#utility.yul\":4809:4832   */\n      sub\n        /* \"#utility.yul\":4805:4837   */\n      slt\n        /* \"#utility.yul\":4802:4921   */\n      iszero\n      tag_333\n      jumpi\n        /* \"#utility.yul\":4840:4919   */\n      tag_334\n      tag_213\n      jump\t// in\n    tag_334:\n        /* \"#utility.yul\":4802:4921   */\n    tag_333:\n        /* \"#utility.yul\":4988:4989   */\n      0x00\n        /* \"#utility.yul\":4977:4986   */\n      dup4\n        /* \"#utility.yul\":4973:4990   */\n      add\n        /* \"#utility.yul\":4960:4991   */\n      calldataload\n        /* \"#utility.yul\":5018:5036   */\n      0xffffffffffffffff\n        /* \"#utility.yul\":5010:5016   */\n      dup2\n        /* \"#utility.yul\":5007:5037   */\n      gt\n        /* \"#utility.yul\":5004:5121   */\n      iszero\n      tag_335\n      jumpi\n        /* \"#utility.yul\":5040:5119   */\n      tag_336\n      tag_214\n      jump\t// in\n    tag_336:\n        /* \"#utility.yul\":5004:5121   */\n    tag_335:\n        /* \"#utility.yul\":5145:5208   */\n      tag_337\n        /* \"#utility.yul\":5200:5207   */\n      dup6\n        /* \"#utility.yul\":5191:5197   */\n      dup3\n        /* \"#utility.yul\":5180:5189   */\n      dup7\n        /* \"#utility.yul\":5176:5198   */\n      add\n        /* \"#utility.yul\":5145:5208   */\n      tag_227\n      jump\t// in\n    tag_337:\n        /* \"#utility.yul\":5135:5208   */\n      swap3\n      pop\n        /* \"#utility.yul\":4931:5218   */\n      pop\n        /* \"#utility.yul\":5285:5287   */\n      0x20\n        /* \"#utility.yul\":5274:5283   */\n      dup4\n        /* \"#utility.yul\":5270:5288   */\n      add\n        /* \"#utility.yul\":5257:5289   */\n      calldataload\n        /* \"#utility.yul\":5316:5334   */\n      0xffffffffffffffff\n        /* \"#utility.yul\":5308:5314   */\n      dup2\n        /* \"#utility.yul\":5305:5335   */\n      gt\n        /* \"#utility.yul\":5302:5419   */\n      iszero\n      tag_338\n      jumpi\n        /* \"#utility.yul\":5338:5417   */\n      tag_339\n      tag_214\n      jump\t// in\n    tag_339:\n        /* \"#utility.yul\":5302:5419   */\n    tag_338:\n        /* \"#utility.yul\":5443:5506   */\n      tag_340\n        /* \"#utility.yul\":5498:5505   */\n      dup6\n        /* \"#utility.yul\":5489:5495   */\n      dup3\n        /* \"#utility.yul\":5478:5487   */\n      dup7\n        /* \"#utility.yul\":5474:5496   */\n      add\n        /* \"#utility.yul\":5443:5506   */\n      tag_227\n      jump\t// in\n    tag_340:\n        /* \"#utility.yul\":5433:5506   */\n      swap2\n      pop\n        /* \"#utility.yul\":5228:5516   */\n      pop\n        /* \"#utility.yul\":4689:5523   */\n      swap3\n      pop\n      swap3\n      swap1\n      pop\n      jump\t// out\n        /* \"#utility.yul\":5529:5619   */\n    tag_228:\n        /* \"#utility.yul\":5563:5570   */\n      0x00\n        /* \"#utility.yul\":5606:5611   */\n      dup2\n        /* \"#utility.yul\":5599:5612   */\n      iszero\n        /* \"#utility.yul\":5592:5613   */\n      iszero\n        /* \"#utility.yul\":5581:5613   */\n      swap1\n      pop\n        /* \"#utility.yul\":5529:5619   */\n      swap2\n      swap1\n      pop\n      jump\t// out\n        /* \"#utility.yul\":5625:5734   */\n    tag_229:\n        /* \"#utility.yul\":5706:5727   */\n      tag_343\n        /* \"#utility.yul\":5721:5726   */\n      dup2\n        /* \"#utility.yul\":5706:5727   */\n      tag_228\n      jump\t// in\n    tag_343:\n        /* \"#utility.yul\":5701:5704   */\n      dup3\n        /* \"#utility.yul\":5694:5728   */\n      mstore\n        /* \"#utility.yul\":5625:5734   */\n      pop\n      pop\n      jump\t// out\n        /* \"#utility.yul\":5740:5950   */\n    tag_30:\n        /* \"#utility.yul\":5827:5831   */\n      0x00\n        /* \"#utility.yul\":5865:5867   */\n      0x20\n        /* \"#utility.yul\":5854:5863   */\n      dup3\n        /* \"#utility.yul\":5850:5868   */\n      add\n        /* \"#utility.yul\":5842:5868   */\n      swap1\n      pop\n        /* \"#utility.yul\":5878:5943   */\n      tag_345\n        /* \"#utility.yul\":5940:5941   */\n      0x00\n        /* \"#utility.yul\":5929:5938   */\n      dup4\n        /* \"#utility.yul\":5925:5942   */\n      add\n        /* \"#utility.yul\":5916:5922   */\n      dup5\n        /* \"#utility.yul\":5878:5943   */\n      tag_229\n      jump\t// in\n    tag_345:\n        /* \"#utility.yul\":5740:5950   */\n      swap3\n      swap2\n      pop\n      pop\n      jump\t// out\n        /* \"#utility.yul\":5956:6033   */\n    tag_230:\n        /* \"#utility.yul\":5993:6000   */\n      0x00\n        /* \"#utility.yul\":6022:6027   */\n      dup2\n        /* \"#utility.yul\":6011:6027   */\n      swap1\n      pop\n        /* \"#utility.yul\":5956:6033   */\n      swap2\n      swap1\n      pop\n      jump\t// out\n        /* \"#utility.yul\":6039:6161   */\n    tag_231:\n        /* \"#utility.yul\":6112:6136   */\n      tag_348\n        /* \"#utility.yul\":6130:6135   */\n      dup2\n        /* \"#utility.yul\":6112:6136   */\n      tag_230\n      jump\t// in\n    tag_348:\n        /* \"#utility.yul\":6105:6110   */\n      dup2\n        /* \"#utility.yul\":6102:6137   */\n      eq\n        /* \"#utility.yul\":6092:6155   */\n      tag_349\n      jumpi\n        /* \"#utility.yul\":6151:6152   */\n      0x00\n        /* \"#utility.yul\":6148:6149   */\n      dup1\n        /* \"#utility.yul\":6141:6153   */\n      revert\n        /* \"#utility.yul\":6092:6155   */\n    tag_349:\n        /* \"#utility.yul\":6039:6161   */\n      pop\n      jump\t// out\n        /* \"#utility.yul\":6167:6306   */\n    tag_232:\n        /* \"#utility.yul\":6213:6218   */\n      0x00\n        /* \"#utility.yul\":6251:6257   */\n      dup2\n        /* \"#utility.yul\":6238:6258   */\n      calldataload\n        /* \"#utility.yul\":6229:6258   */\n      swap1\n      pop\n        /* \"#utility.yul\":6267:6300   */\n      tag_351\n        /* \"#utility.yul\":6294:6299   */\n      dup2\n        /* \"#utility.yul\":6267:6300   */\n      tag_231\n      jump\t// in\n    tag_351:\n        /* \"#utility.yul\":6167:6306   */\n      swap3\n      swap2\n      pop\n      pop\n      jump\t// out\n        /* \"#utility.yul\":6312:6641   */\n    tag_42:\n        /* \"#utility.yul\":6371:6377   */\n      0x00\n        /* \"#utility.yul\":6420:6422   */\n      0x20\n        /* \"#utility.yul\":6408:6417   */\n      dup3\n        /* \"#utility.yul\":6399:6406   */\n      dup5\n        /* \"#utility.yul\":6395:6418   */\n      sub\n        /* \"#utility.yul\":6391:6423   */\n      slt\n        /* \"#utility.yul\":6388:6507   */\n      iszero\n      tag_353\n      jumpi\n        /* \"#utility.yul\":6426:6505   */\n      tag_354\n      tag_213\n      jump\t// in\n    tag_354:\n        /* \"#utility.yul\":6388:6507   */\n    tag_353:\n        /* \"#utility.yul\":6546:6547   */\n      0x00\n        /* \"#utility.yul\":6571:6624   */\n      tag_355\n        /* \"#utility.yul\":6616:6623   */\n      dup5\n        /* \"#utility.yul\":6607:6613   */\n      dup3\n        /* \"#utility.yul\":6596:6605   */\n      dup6\n        /* \"#utility.yul\":6592:6614   */\n      add\n        /* \"#utility.yul\":6571:6624   */\n      tag_232\n      jump\t// in\n    tag_355:\n        /* \"#utility.yul\":6561:6624   */\n      swap2\n      pop\n        /* \"#utility.yul\":6517:6634   */\n      pop\n        /* \"#utility.yul\":6312:6641   */\n      swap3\n      swap2\n      pop\n      pop\n      jump\t// out\n        /* \"#utility.yul\":6647:6773   */\n    tag_233:\n        /* \"#utility.yul\":6684:6691   */\n      0x00\n        /* \"#utility.yul\":6724:6766   */\n      0xffffffffffffffffffffffffffffffffffffffff\n        /* \"#utility.yul\":6717:6722   */\n      dup3\n        /* \"#utility.yul\":6713:6767   */\n      and\n        /* \"#utility.yul\":6702:6767   */\n      swap1\n      pop\n        /* \"#utility.yul\":6647:6773   */\n      swap2\n      swap1\n      pop\n      jump\t// out\n        /* \"#utility.yul\":6779:6875   */\n    tag_234:\n        /* \"#utility.yul\":6816:6823   */\n      0x00\n        /* \"#utility.yul\":6845:6869   */\n      tag_358\n        /* \"#utility.yul\":6863:6868   */\n      dup3\n        /* \"#utility.yul\":6845:6869   */\n      tag_233\n      jump\t// in\n    tag_358:\n        /* \"#utility.yul\":6834:6869   */\n      swap1\n      pop\n        /* \"#utility.yul\":6779:6875   */\n      swap2\n      swap1\n      pop\n      jump\t// out\n        /* \"#utility.yul\":6881:7003   */\n    tag_235:\n        /* \"#utility.yul\":6954:6978   */\n      tag_360\n        /* \"#utility.yul\":6972:6977   */\n      dup2\n        /* \"#utility.yul\":6954:6978   */\n      tag_234\n      jump\t// in\n    tag_360:\n        /* \"#utility.yul\":6947:6952   */\n      dup2\n        /* \"#utility.yul\":6944:6979   */\n      eq\n        /* \"#utility.yul\":6934:6997   */\n      tag_361\n      jumpi\n        /* \"#utility.yul\":6993:6994   */\n      0x00\n        /* \"#utility.yul\":6990:6991   */\n      dup1\n        /* \"#utility.yul\":6983:6995   */\n      revert\n        /* \"#utility.yul\":6934:6997   */\n    tag_361:\n        /* \"#utility.yul\":6881:7003   */\n      pop\n      jump\t// out\n        /* \"#utility.yul\":7009:7148   */\n    tag_236:\n        /* \"#utility.yul\":7055:7060   */\n      0x00\n        /* \"#utility.yul\":7093:7099   */\n      dup2\n        /* \"#utility.yul\":7080:7100   */\n      calldataload\n        /* \"#utility.yul\":7071:7100   */\n      swap1\n      pop\n        /* \"#utility.yul\":7109:7142   */\n      tag_363\n        /* \"#utility.yul\":7136:7141   */\n      dup2\n        /* \"#utility.yul\":7109:7142   */\n      tag_235\n      jump\t// in\n    tag_363:\n        /* \"#utility.yul\":7009:7148   */\n      swap3\n      swap2\n      pop\n      pop\n      jump\t// out\n        /* \"#utility.yul\":7154:7483   */\n    tag_47:\n        /* \"#utility.yul\":7213:7219   */\n      0x00\n        /* \"#utility.yul\":7262:7264   */\n      0x20\n        /* \"#utility.yul\":7250:7259   */\n      dup3\n        /* \"#utility.yul\":7241:7248   */\n      dup5\n        /* \"#utility.yul\":7237:7260   */\n      sub\n        /* \"#utility.yul\":7233:7265   */\n      slt\n        /* \"#utility.yul\":7230:7349   */\n      iszero\n      tag_365\n      jumpi\n        /* \"#utility.yul\":7268:7347   */\n      tag_366\n      tag_213\n      jump\t// in\n    tag_366:\n        /* \"#utility.yul\":7230:7349   */\n    tag_365:\n        /* \"#utility.yul\":7388:7389   */\n      0x00\n        /* \"#utility.yul\":7413:7466   */\n      tag_367\n        /* \"#utility.yul\":7458:7465   */\n      dup5\n        /* \"#utility.yul\":7449:7455   */\n      dup3\n        /* \"#utility.yul\":7438:7447   */\n      dup6\n        /* \"#utility.yul\":7434:7456   */\n      add\n        /* \"#utility.yul\":7413:7466   */\n      tag_236\n      jump\t// in\n    tag_367:\n        /* \"#utility.yul\":7403:7466   */\n      swap2\n      pop\n        /* \"#utility.yul\":7359:7476   */\n      pop\n        /* \"#utility.yul\":7154:7483   */\n      swap3\n      swap2\n      pop\n      pop\n      jump\t// out\n        /* \"#utility.yul\":7489:7588   */\n    tag_237:\n        /* \"#utility.yul\":7541:7547   */\n      0x00\n        /* \"#utility.yul\":7575:7580   */\n      dup2\n        /* \"#utility.yul\":7569:7581   */\n      mload\n        /* \"#utility.yul\":7559:7581   */\n      swap1\n      pop\n        /* \"#utility.yul\":7489:7588   */\n      swap2\n      swap1\n      pop\n      jump\t// out\n        /* \"#utility.yul\":7594:7763   */\n    tag_238:\n        /* \"#utility.yul\":7678:7689   */\n      0x00\n        /* \"#utility.yul\":7712:7718   */\n      dup3\n        /* \"#utility.yul\":7707:7710   */\n      dup3\n        /* \"#utility.yul\":7700:7719   */\n      mstore\n        /* \"#utility.yul\":7752:7756   */\n      0x20\n        /* \"#utility.yul\":7747:7750   */\n      dup3\n        /* \"#utility.yul\":7743:7757   */\n      add\n        /* \"#utility.yul\":7728:7757   */\n      swap1\n      pop\n        /* \"#utility.yul\":7594:7763   */\n      swap3\n      swap2\n      pop\n      pop\n      jump\t// out\n        /* \"#utility.yul\":7769:7908   */\n    tag_239:\n        /* \"#utility.yul\":7858:7864   */\n      dup3\n        /* \"#utility.yul\":7853:7856   */\n      dup2\n        /* \"#utility.yul\":7848:7851   */\n      dup4\n        /* \"#utility.yul\":7842:7865   */\n      mcopy\n        /* \"#utility.yul\":7899:7900   */\n      0x00\n        /* \"#utility.yul\":7890:7896   */\n      dup4\n        /* \"#utility.yul\":7885:7888   */\n      dup4\n        /* \"#utility.yul\":7881:7897   */\n      add\n        /* \"#utility.yul\":7874:7901   */\n      mstore\n        /* \"#utility.yul\":7769:7908   */\n      pop\n      pop\n      pop\n      jump\t// out\n        /* \"#utility.yul\":7914:8291   */\n    tag_240:\n        /* \"#utility.yul\":8002:8005   */\n      0x00\n        /* \"#utility.yul\":8030:8069   */\n      tag_372\n        /* \"#utility.yul\":8063:8068   */\n      dup3\n        /* \"#utility.yul\":8030:8069   */\n      tag_237\n      jump\t// in\n    tag_372:\n        /* \"#utility.yul\":8085:8156   */\n      tag_373\n        /* \"#utility.yul\":8149:8155   */\n      dup2\n        /* \"#utility.yul\":8144:8147   */\n      dup6\n        /* \"#utility.yul\":8085:8156   */\n      tag_238\n      jump\t// in\n    tag_373:\n        /* \"#utility.yul\":8078:8156   */\n      swap4\n      pop\n        /* \"#utility.yul\":8165:8230   */\n      tag_374\n        /* \"#utility.yul\":8223:8229   */\n      dup2\n        /* \"#utility.yul\":8218:8221   */\n      dup6\n        /* \"#utility.yul\":8211:8215   */\n      0x20\n        /* \"#utility.yul\":8204:8209   */\n      dup7\n        /* \"#utility.yul\":8200:8216   */\n      add\n        /* \"#utility.yul\":8165:8230   */\n      tag_239\n      jump\t// in\n    tag_374:\n        /* \"#utility.yul\":8255:8284   */\n      tag_375\n        /* \"#utility.yul\":8277:8283   */\n      dup2\n        /* \"#utility.yul\":8255:8284   */\n      tag_220\n      jump\t// in\n    tag_375:\n        /* \"#utility.yul\":8250:8253   */\n      dup5\n        /* \"#utility.yul\":8246:8285   */\n      add\n        /* \"#utility.yul\":8239:8285   */\n      swap2\n      pop\n        /* \"#utility.yul\":8006:8291   */\n      pop\n        /* \"#utility.yul\":7914:8291   */\n      swap3\n      swap2\n      pop\n      pop\n      jump\t// out\n        /* \"#utility.yul\":8297:8415   */\n    tag_241:\n        /* \"#utility.yul\":8384:8408   */\n      tag_377\n        /* \"#utility.yul\":8402:8407   */\n      dup2\n        /* \"#utility.yul\":8384:8408   */\n      tag_230\n      jump\t// in\n    tag_377:\n        /* \"#utility.yul\":8379:8382   */\n      dup3\n        /* \"#utility.yul\":8372:8409   */\n      mstore\n        /* \"#utility.yul\":8297:8415   */\n      pop\n      pop\n      jump\t// out\n        /* \"#utility.yul\":8421:8539   */\n    tag_242:\n        /* \"#utility.yul\":8508:8532   */\n      tag_379\n        /* \"#utility.yul\":8526:8531   */\n      dup2\n        /* \"#utility.yul\":8508:8532   */\n      tag_234\n      jump\t// in\n    tag_379:\n        /* \"#utility.yul\":8503:8506   */\n      dup3\n        /* \"#utility.yul\":8496:8533   */\n      mstore\n        /* \"#utility.yul\":8421:8539   */\n      pop\n      pop\n      jump\t// out\n        /* \"#utility.yul\":8545:9288   */\n    tag_50:\n        /* \"#utility.yul\":8764:8768   */\n      0x00\n        /* \"#utility.yul\":8802:8805   */\n      0xa0\n        /* \"#utility.yul\":8791:8800   */\n      dup3\n        /* \"#utility.yul\":8787:8806   */\n      add\n        /* \"#utility.yul\":8779:8806   */\n      swap1\n      pop\n        /* \"#utility.yul\":8852:8861   */\n      dup2\n        /* \"#utility.yul\":8846:8850   */\n      dup2\n        /* \"#utility.yul\":8842:8862   */\n      sub\n        /* \"#utility.yul\":8838:8839   */\n      0x00\n        /* \"#utility.yul\":8827:8836   */\n      dup4\n        /* \"#utility.yul\":8823:8840   */\n      add\n        /* \"#utility.yul\":8816:8863   */\n      mstore\n        /* \"#utility.yul\":8880:8958   */\n      tag_381\n        /* \"#utility.yul\":8953:8957   */\n      dup2\n        /* \"#utility.yul\":8944:8950   */\n      dup9\n        /* \"#utility.yul\":8880:8958   */\n      tag_240\n      jump\t// in\n    tag_381:\n        /* \"#utility.yul\":8872:8958   */\n      swap1\n      pop\n        /* \"#utility.yul\":8968:9040   */\n      tag_382\n        /* \"#utility.yul\":9036:9038   */\n      0x20\n        /* \"#utility.yul\":9025:9034   */\n      dup4\n        /* \"#utility.yul\":9021:9039   */\n      add\n        /* \"#utility.yul\":9012:9018   */\n      dup8\n        /* \"#utility.yul\":8968:9040   */\n      tag_241\n      jump\t// in\n    tag_382:\n        /* \"#utility.yul\":9050:9116   */\n      tag_383\n        /* \"#utility.yul\":9112:9114   */\n      0x40\n        /* \"#utility.yul\":9101:9110   */\n      dup4\n        /* \"#utility.yul\":9097:9115   */\n      add\n        /* \"#utility.yul\":9088:9094   */\n      dup7\n        /* \"#utility.yul\":9050:9116   */\n      tag_229\n      jump\t// in\n    tag_383:\n        /* \"#utility.yul\":9126:9198   */\n      tag_384\n        /* \"#utility.yul\":9194:9196   */\n      0x60\n        /* \"#utility.yul\":9183:9192   */\n      dup4\n        /* \"#utility.yul\":9179:9197   */\n      add\n        /* \"#utility.yul\":9170:9176   */\n      dup6\n        /* \"#utility.yul\":9126:9198   */\n      tag_242\n      jump\t// in\n    tag_384:\n        /* \"#utility.yul\":9208:9281   */\n      tag_385\n        /* \"#utility.yul\":9276:9279   */\n      0x80\n        /* \"#utility.yul\":9265:9274   */\n      dup4\n        /* \"#utility.yul\":9261:9280   */\n      add\n        /* \"#utility.yul\":9252:9258   */\n      dup5\n        /* \"#utility.yul\":9208:9281   */\n      tag_211\n      jump\t// in\n    tag_385:\n        /* \"#utility.yul\":8545:9288   */\n      swap7\n      swap6\n      pop\n      pop\n      pop\n      pop\n      pop\n      pop\n      jump\t// out\n        /* \"#utility.yul\":9294:9416   */\n    tag_243:\n        /* \"#utility.yul\":9367:9391   */\n      tag_387\n        /* \"#utility.yul\":9385:9390   */\n      dup2\n        /* \"#utility.yul\":9367:9391   */\n      tag_210\n      jump\t// in\n    tag_387:\n        /* \"#utility.yul\":9360:9365   */\n      dup2\n        /* \"#utility.yul\":9357:9392   */\n      eq\n        /* \"#utility.yul\":9347:9410   */\n      tag_388\n      jumpi\n        /* \"#utility.yul\":9406:9407   */\n      0x00\n        /* \"#utility.yul\":9403:9404   */\n      dup1\n        /* \"#utility.yul\":9396:9408   */\n      revert\n        /* \"#utility.yul\":9347:9410   */\n    tag_388:\n        /* \"#utility.yul\":9294:9416   */\n      pop\n      jump\t// out\n        /* \"#utility.yul\":9422:9561   */\n    tag_244:\n        /* \"#utility.yul\":9468:9473   */\n      0x00\n        /* \"#utility.yul\":9506:9512   */\n      dup2\n        /* \"#utility.yul\":9493:9513   */\n      calldataload\n        /* \"#utility.yul\":9484:9513   */\n      swap1\n      pop\n        /* \"#utility.yul\":9522:9555   */\n      tag_390\n        /* \"#utility.yul\":9549:9554   */\n      dup2\n        /* \"#utility.yul\":9522:9555   */\n      tag_243\n      jump\t// in\n    tag_390:\n        /* \"#utility.yul\":9422:9561   */\n      swap3\n      swap2\n      pop\n      pop\n      jump\t// out\n        /* \"#utility.yul\":9567:9896   */\n    tag_54:\n        /* \"#utility.yul\":9626:9632   */\n      0x00\n        /* \"#utility.yul\":9675:9677   */\n      0x20\n        /* \"#utility.yul\":9663:9672   */\n      dup3\n        /* \"#utility.yul\":9654:9661   */\n      dup5\n        /* \"#utility.yul\":9650:9673   */\n      sub\n        /* \"#utility.yul\":9646:9678   */\n      slt\n        /* \"#utility.yul\":9643:9762   */\n      iszero\n      tag_392\n      jumpi\n        /* \"#utility.yul\":9681:9760   */\n      tag_393\n      tag_213\n      jump\t// in\n    tag_393:\n        /* \"#utility.yul\":9643:9762   */\n    tag_392:\n        /* \"#utility.yul\":9801:9802   */\n      0x00\n        /* \"#utility.yul\":9826:9879   */\n      tag_394\n        /* \"#utility.yul\":9871:9878   */\n      dup5\n        /* \"#utility.yul\":9862:9868   */\n      dup3\n        /* \"#utility.yul\":9851:9860   */\n      dup6\n        /* \"#utility.yul\":9847:9869   */\n      add\n        /* \"#utility.yul\":9826:9879   */\n      tag_244\n      jump\t// in\n    tag_394:\n        /* \"#utility.yul\":9816:9879   */\n      swap2\n      pop\n        /* \"#utility.yul\":9772:9889   */\n      pop\n        /* \"#utility.yul\":9567:9896   */\n      swap3\n      swap2\n      pop\n      pop\n      jump\t// out\n        /* \"#utility.yul\":9902:10124   */\n    tag_57:\n        /* \"#utility.yul\":9995:9999   */\n      0x00\n        /* \"#utility.yul\":10033:10035   */\n      0x20\n        /* \"#utility.yul\":10022:10031   */\n      dup3\n        /* \"#utility.yul\":10018:10036   */\n      add\n        /* \"#utility.yul\":10010:10036   */\n      swap1\n      pop\n        /* \"#utility.yul\":10046:10117   */\n      tag_396\n        /* \"#utility.yul\":10114:10115   */\n      0x00\n        /* \"#utility.yul\":10103:10112   */\n      dup4\n        /* \"#utility.yul\":10099:10116   */\n      add\n        /* \"#utility.yul\":10090:10096   */\n      dup5\n        /* \"#utility.yul\":10046:10117   */\n      tag_242\n      jump\t// in\n    tag_396:\n        /* \"#utility.yul\":9902:10124   */\n      swap3\n      swap2\n      pop\n      pop\n      jump\t// out\n        /* \"#utility.yul\":10130:10360   */\n    tag_245:\n        /* \"#utility.yul\":10270:10304   */\n      0x596f75206d7573742072657665616c20796f757220766f7465206265666f7265\n        /* \"#utility.yul\":10266:10267   */\n      0x00\n        /* \"#utility.yul\":10258:10264   */\n      dup3\n        /* \"#utility.yul\":10254:10268   */\n      add\n        /* \"#utility.yul\":10247:10305   */\n      mstore\n        /* \"#utility.yul\":10339:10352   */\n      0x207769746864726177616c000000000000000000000000000000000000000000\n        /* \"#utility.yul\":10334:10336   */\n      0x20\n        /* \"#utility.yul\":10326:10332   */\n      dup3\n        /* \"#utility.yul\":10322:10337   */\n      add\n        /* \"#utility.yul\":10315:10353   */\n      mstore\n        /* \"#utility.yul\":10130:10360   */\n      pop\n      jump\t// out\n        /* \"#utility.yul\":10366:10732   */\n    tag_246:\n        /* \"#utility.yul\":10508:10511   */\n      0x00\n        /* \"#utility.yul\":10529:10596   */\n      tag_399\n        /* \"#utility.yul\":10593:10595   */\n      0x2b\n        /* \"#utility.yul\":10588:10591   */\n      dup4\n        /* \"#utility.yul\":10529:10596   */\n      tag_238\n      jump\t// in\n    tag_399:\n        /* \"#utility.yul\":10522:10596   */\n      swap2\n      pop\n        /* \"#utility.yul\":10605:10698   */\n      tag_400\n        /* \"#utility.yul\":10694:10697   */\n      dup3\n        /* \"#utility.yul\":10605:10698   */\n      tag_245\n      jump\t// in\n    tag_400:\n        /* \"#utility.yul\":10723:10725   */\n      0x40\n        /* \"#utility.yul\":10718:10721   */\n      dup3\n        /* \"#utility.yul\":10714:10726   */\n      add\n        /* \"#utility.yul\":10707:10726   */\n      swap1\n      pop\n        /* \"#utility.yul\":10366:10732   */\n      swap2\n      swap1\n      pop\n      jump\t// out\n        /* \"#utility.yul\":10738:11157   */\n    tag_61:\n        /* \"#utility.yul\":10904:10908   */\n      0x00\n        /* \"#utility.yul\":10942:10944   */\n      0x20\n        /* \"#utility.yul\":10931:10940   */\n      dup3\n        /* \"#utility.yul\":10927:10945   */\n      add\n        /* \"#utility.yul\":10919:10945   */\n      swap1\n      pop\n        /* \"#utility.yul\":10991:11000   */\n      dup2\n        /* \"#utility.yul\":10985:10989   */\n      dup2\n        /* \"#utility.yul\":10981:11001   */\n      sub\n        /* \"#utility.yul\":10977:10978   */\n      0x00\n        /* \"#utility.yul\":10966:10975   */\n      dup4\n        /* \"#utility.yul\":10962:10979   */\n      add\n        /* \"#utility.yul\":10955:11002   */\n      mstore\n        /* \"#utility.yul\":11019:11150   */\n      tag_402\n        /* \"#utility.yul\":11145:11149   */\n      dup2\n        /* \"#utility.yul\":11019:11150   */\n      tag_246\n      jump\t// in\n    tag_402:\n        /* \"#utility.yul\":11011:11150   */\n      swap1\n      pop\n        /* \"#utility.yul\":10738:11157   */\n      swap2\n      swap1\n      pop\n      jump\t// out\n        /* \"#utility.yul\":11163:11392   */\n    tag_247:\n        /* \"#utility.yul\":11303:11337   */\n      0x57616974696e6720666f72206f70706f6e656e7420746f2072657665616c206f\n        /* \"#utility.yul\":11299:11300   */\n      0x00\n        /* \"#utility.yul\":11291:11297   */\n      dup3\n        /* \"#utility.yul\":11287:11301   */\n      add\n        /* \"#utility.yul\":11280:11338   */\n      mstore\n        /* \"#utility.yul\":11372:11384   */\n      0x7220646561646c696e6500000000000000000000000000000000000000000000\n        /* \"#utility.yul\":11367:11369   */\n      0x20\n        /* \"#utility.yul\":11359:11365   */\n      dup3\n        /* \"#utility.yul\":11355:11370   */\n      add\n        /* \"#utility.yul\":11348:11385   */\n      mstore\n        /* \"#utility.yul\":11163:11392   */\n      pop\n      jump\t// out\n        /* \"#utility.yul\":11398:11764   */\n    tag_248:\n        /* \"#utility.yul\":11540:11543   */\n      0x00\n        /* \"#utility.yul\":11561:11628   */\n      tag_405\n        /* \"#utility.yul\":11625:11627   */\n      0x2a\n        /* \"#utility.yul\":11620:11623   */\n      dup4\n        /* \"#utility.yul\":11561:11628   */\n      tag_238\n      jump\t// in\n    tag_405:\n        /* \"#utility.yul\":11554:11628   */\n      swap2\n      pop\n        /* \"#utility.yul\":11637:11730   */\n      tag_406\n        /* \"#utility.yul\":11726:11729   */\n      dup3\n        /* \"#utility.yul\":11637:11730   */\n      tag_247\n      jump\t// in\n    tag_406:\n        /* \"#utility.yul\":11755:11757   */\n      0x40\n        /* \"#utility.yul\":11750:11753   */\n      dup3\n        /* \"#utility.yul\":11746:11758   */\n      add\n        /* \"#utility.yul\":11739:11758   */\n      swap1\n      pop\n        /* \"#utility.yul\":11398:11764   */\n      swap2\n      swap1\n      pop\n      jump\t// out\n        /* \"#utility.yul\":11770:12189   */\n    tag_65:\n        /* \"#utility.yul\":11936:11940   */\n      0x00\n        /* \"#utility.yul\":11974:11976   */\n      0x20\n        /* \"#utility.yul\":11963:11972   */\n      dup3\n        /* \"#utility.yul\":11959:11977   */\n      add\n        /* \"#utility.yul\":11951:11977   */\n      swap1\n      pop\n        /* \"#utility.yul\":12023:12032   */\n      dup2\n        /* \"#utility.yul\":12017:12021   */\n      dup2\n        /* \"#utility.yul\":12013:12033   */\n      sub\n        /* \"#utility.yul\":12009:12010   */\n      0x00\n        /* \"#utility.yul\":11998:12007   */\n      dup4\n        /* \"#utility.yul\":11994:12011   */\n      add\n        /* \"#utility.yul\":11987:12034   */\n      mstore\n        /* \"#utility.yul\":12051:12182   */\n      tag_408\n        /* \"#utility.yul\":12177:12181   */\n      dup2\n        /* \"#utility.yul\":12051:12182   */\n      tag_248\n      jump\t// in\n    tag_408:\n        /* \"#utility.yul\":12043:12182   */\n      swap1\n      pop\n        /* \"#utility.yul\":11770:12189   */\n      swap2\n      swap1\n      pop\n      jump\t// out\n        /* \"#utility.yul\":12195:12375   */\n    tag_249:\n        /* \"#utility.yul\":12243:12320   */\n      0x4e487b7100000000000000000000000000000000000000000000000000000000\n        /* \"#utility.yul\":12240:12241   */\n      0x00\n        /* \"#utility.yul\":12233:12321   */\n      mstore\n        /* \"#utility.yul\":12340:12344   */\n      0x22\n        /* \"#utility.yul\":12337:12338   */\n      0x04\n        /* \"#utility.yul\":12330:12345   */\n      mstore\n        /* \"#utility.yul\":12364:12368   */\n      0x24\n        /* \"#utility.yul\":12361:12362   */\n      0x00\n        /* \"#utility.yul\":12354:12369   */\n      revert\n        /* \"#utility.yul\":12381:12701   */\n    tag_68:\n        /* \"#utility.yul\":12425:12431   */\n      0x00\n        /* \"#utility.yul\":12462:12463   */\n      0x02\n        /* \"#utility.yul\":12456:12460   */\n      dup3\n        /* \"#utility.yul\":12452:12464   */\n      div\n        /* \"#utility.yul\":12442:12464   */\n      swap1\n      pop\n        /* \"#utility.yul\":12509:12510   */\n      0x01\n        /* \"#utility.yul\":12503:12507   */\n      dup3\n        /* \"#utility.yul\":12499:12511   */\n      and\n        /* \"#utility.yul\":12530:12548   */\n      dup1\n        /* \"#utility.yul\":12520:12601   */\n      tag_411\n      jumpi\n        /* \"#utility.yul\":12586:12590   */\n      0x7f\n        /* \"#utility.yul\":12578:12584   */\n      dup3\n        /* \"#utility.yul\":12574:12591   */\n      and\n        /* \"#utility.yul\":12564:12591   */\n      swap2\n      pop\n        /* \"#utility.yul\":12520:12601   */\n    tag_411:\n        /* \"#utility.yul\":12648:12650   */\n      0x20\n        /* \"#utility.yul\":12640:12646   */\n      dup3\n        /* \"#utility.yul\":12637:12651   */\n      lt\n        /* \"#utility.yul\":12617:12635   */\n      dup2\n        /* \"#utility.yul\":12614:12652   */\n      sub\n        /* \"#utility.yul\":12611:12695   */\n      tag_412\n      jumpi\n        /* \"#utility.yul\":12667:12685   */\n      tag_413\n      tag_249\n      jump\t// in\n    tag_413:\n        /* \"#utility.yul\":12611:12695   */\n    tag_412:\n        /* \"#utility.yul\":12432:12701   */\n      pop\n        /* \"#utility.yul\":12381:12701   */\n      swap2\n      swap1\n      pop\n      jump\t// out\n        /* \"#utility.yul\":12707:12887   */\n    tag_250:\n        /* \"#utility.yul\":12755:12832   */\n      0x4e487b7100000000000000000000000000000000000000000000000000000000\n        /* \"#utility.yul\":12752:12753   */\n      0x00\n        /* \"#utility.yul\":12745:12833   */\n      mstore\n        /* \"#utility.yul\":12852:12856   */\n      0x11\n        /* \"#utility.yul\":12849:12850   */\n      0x04\n        /* \"#utility.yul\":12842:12857   */\n      mstore\n        /* \"#utility.yul\":12876:12880   */\n      0x24\n        /* \"#utility.yul\":12873:12874   */\n      0x00\n        /* \"#utility.yul\":12866:12881   */\n      revert\n        /* \"#utility.yul\":12893:13303   */\n    tag_83:\n        /* \"#utility.yul\":12933:12940   */\n      0x00\n        /* \"#utility.yul\":12956:12976   */\n      tag_416\n        /* \"#utility.yul\":12974:12975   */\n      dup3\n        /* \"#utility.yul\":12956:12976   */\n      tag_210\n      jump\t// in\n    tag_416:\n        /* \"#utility.yul\":12951:12976   */\n      swap2\n      pop\n        /* \"#utility.yul\":12990:13010   */\n      tag_417\n        /* \"#utility.yul\":13008:13009   */\n      dup4\n        /* \"#utility.yul\":12990:13010   */\n      tag_210\n      jump\t// in\n    tag_417:\n        /* \"#utility.yul\":12985:13010   */\n      swap3\n      pop\n        /* \"#utility.yul\":13045:13046   */\n      dup3\n        /* \"#utility.yul\":13042:13043   */\n      dup3\n        /* \"#utility.yul\":13038:13047   */\n      mul\n        /* \"#utility.yul\":13067:13097   */\n      tag_418\n        /* \"#utility.yul\":13085:13096   */\n      dup2\n        /* \"#utility.yul\":13067:13097   */\n      tag_210\n      jump\t// in\n    tag_418:\n        /* \"#utility.yul\":13056:13097   */\n      swap2\n      pop\n        /* \"#utility.yul\":13246:13247   */\n      dup3\n        /* \"#utility.yul\":13237:13244   */\n      dup3\n        /* \"#utility.yul\":13233:13248   */\n      div\n        /* \"#utility.yul\":13230:13231   */\n      dup5\n        /* \"#utility.yul\":13227:13249   */\n      eq\n        /* \"#utility.yul\":13207:13208   */\n      dup4\n        /* \"#utility.yul\":13200:13209   */\n      iszero\n        /* \"#utility.yul\":13180:13263   */\n      or\n        /* \"#utility.yul\":13157:13296   */\n      tag_419\n      jumpi\n        /* \"#utility.yul\":13276:13294   */\n      tag_420\n      tag_250\n      jump\t// in\n    tag_420:\n        /* \"#utility.yul\":13157:13296   */\n    tag_419:\n        /* \"#utility.yul\":12941:13303   */\n      pop\n        /* \"#utility.yul\":12893:13303   */\n      swap3\n      swap2\n      pop\n      pop\n      jump\t// out\n        /* \"#utility.yul\":13309:13641   */\n    tag_91:\n        /* \"#utility.yul\":13430:13434   */\n      0x00\n        /* \"#utility.yul\":13468:13470   */\n      0x40\n        /* \"#utility.yul\":13457:13466   */\n      dup3\n        /* \"#utility.yul\":13453:13471   */\n      add\n        /* \"#utility.yul\":13445:13471   */\n      swap1\n      pop\n        /* \"#utility.yul\":13481:13552   */\n      tag_422\n        /* \"#utility.yul\":13549:13550   */\n      0x00\n        /* \"#utility.yul\":13538:13547   */\n      dup4\n        /* \"#utility.yul\":13534:13551   */\n      add\n        /* \"#utility.yul\":13525:13531   */\n      dup6\n        /* \"#utility.yul\":13481:13552   */\n      tag_242\n      jump\t// in\n    tag_422:\n        /* \"#utility.yul\":13562:13634   */\n      tag_423\n        /* \"#utility.yul\":13630:13632   */\n      0x20\n        /* \"#utility.yul\":13619:13628   */\n      dup4\n        /* \"#utility.yul\":13615:13633   */\n      add\n        /* \"#utility.yul\":13606:13612   */\n      dup5\n        /* \"#utility.yul\":13562:13634   */\n      tag_211\n      jump\t// in\n    tag_423:\n        /* \"#utility.yul\":13309:13641   */\n      swap4\n      swap3\n      pop\n      pop\n      pop\n      jump\t// out\n        /* \"#utility.yul\":13647:13820   */\n    tag_251:\n        /* \"#utility.yul\":13787:13812   */\n      0x57616974696e6720666f7220616e206f70706f6e656e74000000000000000000\n        /* \"#utility.yul\":13783:13784   */\n      0x00\n        /* \"#utility.yul\":13775:13781   */\n      dup3\n        /* \"#utility.yul\":13771:13785   */\n      add\n        /* \"#utility.yul\":13764:13813   */\n      mstore\n        /* \"#utility.yul\":13647:13820   */\n      pop\n      jump\t// out\n        /* \"#utility.yul\":13826:14192   */\n    tag_252:\n        /* \"#utility.yul\":13968:13971   */\n      0x00\n        /* \"#utility.yul\":13989:14056   */\n      tag_426\n        /* \"#utility.yul\":14053:14055   */\n      0x17\n        /* \"#utility.yul\":14048:14051   */\n      dup4\n        /* \"#utility.yul\":13989:14056   */\n      tag_238\n      jump\t// in\n    tag_426:\n        /* \"#utility.yul\":13982:14056   */\n      swap2\n      pop\n        /* \"#utility.yul\":14065:14158   */\n      tag_427\n        /* \"#utility.yul\":14154:14157   */\n      dup3\n        /* \"#utility.yul\":14065:14158   */\n      tag_251\n      jump\t// in\n    tag_427:\n        /* \"#utility.yul\":14183:14185   */\n      0x20\n        /* \"#utility.yul\":14178:14181   */\n      dup3\n        /* \"#utility.yul\":14174:14186   */\n      add\n        /* \"#utility.yul\":14167:14186   */\n      swap1\n      pop\n        /* \"#utility.yul\":13826:14192   */\n      swap2\n      swap1\n      pop\n      jump\t// out\n        /* \"#utility.yul\":14198:14617   */\n    tag_106:\n        /* \"#utility.yul\":14364:14368   */\n      0x00\n        /* \"#utility.yul\":14402:14404   */\n      0x20\n        /* \"#utility.yul\":14391:14400   */\n      dup3\n        /* \"#utility.yul\":14387:14405   */\n      add\n        /* \"#utility.yul\":14379:14405   */\n      swap1\n      pop\n        /* \"#utility.yul\":14451:14460   */\n      dup2\n        /* \"#utility.yul\":14445:14449   */\n      dup2\n        /* \"#utility.yul\":14441:14461   */\n      sub\n        /* \"#utility.yul\":14437:14438   */\n      0x00\n        /* \"#utility.yul\":14426:14435   */\n      dup4\n        /* \"#utility.yul\":14422:14439   */\n      add\n        /* \"#utility.yul\":14415:14462   */\n      mstore\n        /* \"#utility.yul\":14479:14610   */\n      tag_429\n        /* \"#utility.yul\":14605:14609   */\n      dup2\n        /* \"#utility.yul\":14479:14610   */\n      tag_252\n      jump\t// in\n    tag_429:\n        /* \"#utility.yul\":14471:14610   */\n      swap1\n      pop\n        /* \"#utility.yul\":14198:14617   */\n      swap2\n      swap1\n      pop\n      jump\t// out\n        /* \"#utility.yul\":14623:14771   */\n    tag_253:\n        /* \"#utility.yul\":14725:14736   */\n      0x00\n        /* \"#utility.yul\":14762:14765   */\n      dup2\n        /* \"#utility.yul\":14747:14765   */\n      swap1\n      pop\n        /* \"#utility.yul\":14623:14771   */\n      swap3\n      swap2\n      pop\n      pop\n      jump\t// out\n        /* \"#utility.yul\":14777:15167   */\n    tag_254:\n        /* \"#utility.yul\":14883:14886   */\n      0x00\n        /* \"#utility.yul\":14911:14950   */\n      tag_432\n        /* \"#utility.yul\":14944:14949   */\n      dup3\n        /* \"#utility.yul\":14911:14950   */\n      tag_237\n      jump\t// in\n    tag_432:\n        /* \"#utility.yul\":14966:15055   */\n      tag_433\n        /* \"#utility.yul\":15048:15054   */\n      dup2\n        /* \"#utility.yul\":15043:15046   */\n      dup6\n        /* \"#utility.yul\":14966:15055   */\n      tag_253\n      jump\t// in\n    tag_433:\n        /* \"#utility.yul\":14959:15055   */\n      swap4\n      pop\n        /* \"#utility.yul\":15064:15129   */\n      tag_434\n        /* \"#utility.yul\":15122:15128   */\n      dup2\n        /* \"#utility.yul\":15117:15120   */\n      dup6\n        /* \"#utility.yul\":15110:15114   */\n      0x20\n        /* \"#utility.yul\":15103:15108   */\n      dup7\n        /* \"#utility.yul\":15099:15115   */\n      add\n        /* \"#utility.yul\":15064:15129   */\n      tag_239\n      jump\t// in\n    tag_434:\n        /* \"#utility.yul\":15154:15160   */\n      dup1\n        /* \"#utility.yul\":15149:15152   */\n      dup5\n        /* \"#utility.yul\":15145:15161   */\n      add\n        /* \"#utility.yul\":15138:15161   */\n      swap2\n      pop\n        /* \"#utility.yul\":14887:15167   */\n      pop\n        /* \"#utility.yul\":14777:15167   */\n      swap3\n      swap2\n      pop\n      pop\n      jump\t// out\n        /* \"#utility.yul\":15173:15608   */\n    tag_109:\n        /* \"#utility.yul\":15353:15356   */\n      0x00\n        /* \"#utility.yul\":15375:15470   */\n      tag_436\n        /* \"#utility.yul\":15466:15469   */\n      dup3\n        /* \"#utility.yul\":15457:15463   */\n      dup6\n        /* \"#utility.yul\":15375:15470   */\n      tag_254\n      jump\t// in\n    tag_436:\n        /* \"#utility.yul\":15368:15470   */\n      swap2\n      pop\n        /* \"#utility.yul\":15487:15582   */\n      tag_437\n        /* \"#utility.yul\":15578:15581   */\n      dup3\n        /* \"#utility.yul\":15569:15575   */\n      dup5\n        /* \"#utility.yul\":15487:15582   */\n      tag_254\n      jump\t// in\n    tag_437:\n        /* \"#utility.yul\":15480:15582   */\n      swap2\n      pop\n        /* \"#utility.yul\":15599:15602   */\n      dup2\n        /* \"#utility.yul\":15592:15602   */\n      swap1\n      pop\n        /* \"#utility.yul\":15173:15608   */\n      swap4\n      swap3\n      pop\n      pop\n      pop\n      jump\t// out\n        /* \"#utility.yul\":15614:15780   */\n    tag_255:\n        /* \"#utility.yul\":15754:15772   */\n      0x4e6f7420612076616c696420766f746500000000000000000000000000000000\n        /* \"#utility.yul\":15750:15751   */\n      0x00\n        /* \"#utility.yul\":15742:15748   */\n      dup3\n        /* \"#utility.yul\":15738:15752   */\n      add\n        /* \"#utility.yul\":15731:15773   */\n      mstore\n        /* \"#utility.yul\":15614:15780   */\n      pop\n      jump\t// out\n        /* \"#utility.yul\":15786:16152   */\n    tag_256:\n        /* \"#utility.yul\":15928:15931   */\n      0x00\n        /* \"#utility.yul\":15949:16016   */\n      tag_440\n        /* \"#utility.yul\":16013:16015   */\n      0x10\n        /* \"#utility.yul\":16008:16011   */\n      dup4\n        /* \"#utility.yul\":15949:16016   */\n      tag_238\n      jump\t// in\n    tag_440:\n        /* \"#utility.yul\":15942:16016   */\n      swap2\n      pop\n        /* \"#utility.yul\":16025:16118   */\n      tag_441\n        /* \"#utility.yul\":16114:16117   */\n      dup3\n        /* \"#utility.yul\":16025:16118   */\n      tag_255\n      jump\t// in\n    tag_441:\n        /* \"#utility.yul\":16143:16145   */\n      0x20\n        /* \"#utility.yul\":16138:16141   */\n      dup3\n        /* \"#utility.yul\":16134:16146   */\n      add\n        /* \"#utility.yul\":16127:16146   */\n      swap1\n      pop\n        /* \"#utility.yul\":15786:16152   */\n      swap2\n      swap1\n      pop\n      jump\t// out\n        /* \"#utility.yul\":16158:16577   */\n    tag_112:\n        /* \"#utility.yul\":16324:16328   */\n      0x00\n        /* \"#utility.yul\":16362:16364   */\n      0x20\n        /* \"#utility.yul\":16351:16360   */\n      dup3\n        /* \"#utility.yul\":16347:16365   */\n      add\n        /* \"#utility.yul\":16339:16365   */\n      swap1\n      pop\n        /* \"#utility.yul\":16411:16420   */\n      dup2\n        /* \"#utility.yul\":16405:16409   */\n      dup2\n        /* \"#utility.yul\":16401:16421   */\n      sub\n        /* \"#utility.yul\":16397:16398   */\n      0x00\n        /* \"#utility.yul\":16386:16395   */\n      dup4\n        /* \"#utility.yul\":16382:16399   */\n      add\n        /* \"#utility.yul\":16375:16422   */\n      mstore\n        /* \"#utility.yul\":16439:16570   */\n      tag_443\n        /* \"#utility.yul\":16565:16569   */\n      dup2\n        /* \"#utility.yul\":16439:16570   */\n      tag_256\n      jump\t// in\n    tag_443:\n        /* \"#utility.yul\":16431:16570   */\n      swap1\n      pop\n        /* \"#utility.yul\":16158:16577   */\n      swap2\n      swap1\n      pop\n      jump\t// out\n        /* \"#utility.yul\":16583:16763   */\n    tag_116:\n        /* \"#utility.yul\":16631:16708   */\n      0x4e487b7100000000000000000000000000000000000000000000000000000000\n        /* \"#utility.yul\":16628:16629   */\n      0x00\n        /* \"#utility.yul\":16621:16709   */\n      mstore\n        /* \"#utility.yul\":16728:16732   */\n      0x32\n        /* \"#utility.yul\":16725:16726   */\n      0x04\n        /* \"#utility.yul\":16718:16733   */\n      mstore\n        /* \"#utility.yul\":16752:16756   */\n      0x24\n        /* \"#utility.yul\":16749:16750   */\n      0x00\n        /* \"#utility.yul\":16742:16757   */\n      revert\n        /* \"#utility.yul\":16769:16855   */\n    tag_257:\n        /* \"#utility.yul\":16804:16811   */\n      0x00\n        /* \"#utility.yul\":16844:16848   */\n      0xff\n        /* \"#utility.yul\":16837:16842   */\n      dup3\n        /* \"#utility.yul\":16833:16849   */\n      and\n        /* \"#utility.yul\":16822:16849   */\n      swap1\n      pop\n        /* \"#utility.yul\":16769:16855   */\n      swap2\n      swap1\n      pop\n      jump\t// out\n        /* \"#utility.yul\":16861:17052   */\n    tag_124:\n        /* \"#utility.yul\":16899:16903   */\n      0x00\n        /* \"#utility.yul\":16919:16937   */\n      tag_447\n        /* \"#utility.yul\":16935:16936   */\n      dup3\n        /* \"#utility.yul\":16919:16937   */\n      tag_257\n      jump\t// in\n    tag_447:\n        /* \"#utility.yul\":16914:16937   */\n      swap2\n      pop\n        /* \"#utility.yul\":16951:16969   */\n      tag_448\n        /* \"#utility.yul\":16967:16968   */\n      dup4\n        /* \"#utility.yul\":16951:16969   */\n      tag_257\n      jump\t// in\n    tag_448:\n        /* \"#utility.yul\":16946:16969   */\n      swap3\n      pop\n        /* \"#utility.yul\":16993:16994   */\n      dup3\n        /* \"#utility.yul\":16990:16991   */\n      dup3\n        /* \"#utility.yul\":16986:16995   */\n      sub\n        /* \"#utility.yul\":16978:16995   */\n      swap1\n      pop\n        /* \"#utility.yul\":17017:17021   */\n      0xff\n        /* \"#utility.yul\":17011:17015   */\n      dup2\n        /* \"#utility.yul\":17008:17022   */\n      gt\n        /* \"#utility.yul\":17005:17045   */\n      iszero\n      tag_449\n      jumpi\n        /* \"#utility.yul\":17025:17043   */\n      tag_450\n      tag_250\n      jump\t// in\n    tag_450:\n        /* \"#utility.yul\":17005:17045   */\n    tag_449:\n        /* \"#utility.yul\":16861:17052   */\n      swap3\n      swap2\n      pop\n      pop\n      jump\t// out\n        /* \"#utility.yul\":17058:17199   */\n    tag_258:\n        /* \"#utility.yul\":17107:17111   */\n      0x00\n        /* \"#utility.yul\":17130:17133   */\n      dup2\n        /* \"#utility.yul\":17122:17133   */\n      swap1\n      pop\n        /* \"#utility.yul\":17153:17156   */\n      dup2\n        /* \"#utility.yul\":17150:17151   */\n      0x00\n        /* \"#utility.yul\":17143:17157   */\n      mstore\n        /* \"#utility.yul\":17187:17191   */\n      0x20\n        /* \"#utility.yul\":17184:17185   */\n      0x00\n        /* \"#utility.yul\":17174:17192   */\n      keccak256\n        /* \"#utility.yul\":17166:17192   */\n      swap1\n      pop\n        /* \"#utility.yul\":17058:17199   */\n      swap2\n      swap1\n      pop\n      jump\t// out\n        /* \"#utility.yul\":17205:17298   */\n    tag_259:\n        /* \"#utility.yul\":17242:17248   */\n      0x00\n        /* \"#utility.yul\":17289:17291   */\n      0x20\n        /* \"#utility.yul\":17284:17286   */\n      0x1f\n        /* \"#utility.yul\":17277:17282   */\n      dup4\n        /* \"#utility.yul\":17273:17287   */\n      add\n        /* \"#utility.yul\":17269:17292   */\n      div\n        /* \"#utility.yul\":17259:17292   */\n      swap1\n      pop\n        /* \"#utility.yul\":17205:17298   */\n      swap2\n      swap1\n      pop\n      jump\t// out\n        /* \"#utility.yul\":17304:17411   */\n    tag_260:\n        /* \"#utility.yul\":17348:17356   */\n      0x00\n        /* \"#utility.yul\":17398:17403   */\n      dup3\n        /* \"#utility.yul\":17392:17396   */\n      dup3\n        /* \"#utility.yul\":17388:17404   */\n      shl\n        /* \"#utility.yul\":17367:17404   */\n      swap1\n      pop\n        /* \"#utility.yul\":17304:17411   */\n      swap3\n      swap2\n      pop\n      pop\n      jump\t// out\n        /* \"#utility.yul\":17417:17810   */\n    tag_261:\n        /* \"#utility.yul\":17486:17492   */\n      0x00\n        /* \"#utility.yul\":17536:17537   */\n      0x08\n        /* \"#utility.yul\":17524:17534   */\n      dup4\n        /* \"#utility.yul\":17520:17538   */\n      mul\n        /* \"#utility.yul\":17559:17656   */\n      tag_455\n        /* \"#utility.yul\":17589:17655   */\n      0xffffffffffffffffffffffffffffffffffffffffffffffffffffffffffffffff\n        /* \"#utility.yul\":17578:17587   */\n      dup3\n        /* \"#utility.yul\":17559:17656   */\n      tag_260\n      jump\t// in\n    tag_455:\n        /* \"#utility.yul\":17677:17716   */\n      tag_456\n        /* \"#utility.yul\":17707:17715   */\n      dup7\n        /* \"#utility.yul\":17696:17705   */\n      dup4\n        /* \"#utility.yul\":17677:17716   */\n      tag_260\n      jump\t// in\n    tag_456:\n        /* \"#utility.yul\":17665:17716   */\n      swap6\n      pop\n        /* \"#utility.yul\":17749:17753   */\n      dup1\n        /* \"#utility.yul\":17745:17754   */\n      not\n        /* \"#utility.yul\":17738:17743   */\n      dup5\n        /* \"#utility.yul\":17734:17755   */\n      and\n        /* \"#utility.yul\":17725:17755   */\n      swap4\n      pop\n        /* \"#utility.yul\":17798:17802   */\n      dup1\n        /* \"#utility.yul\":17788:17796   */\n      dup7\n        /* \"#utility.yul\":17784:17803   */\n      and\n        /* \"#utility.yul\":17777:17782   */\n      dup5\n        /* \"#utility.yul\":17774:17804   */\n      or\n        /* \"#utility.yul\":17764:17804   */\n      swap3\n      pop\n        /* \"#utility.yul\":17493:17810   */\n      pop\n      pop\n        /* \"#utility.yul\":17417:17810   */\n      swap4\n      swap3\n      pop\n      pop\n      pop\n      jump\t// out\n        /* \"#utility.yul\":17816:17876   */\n    tag_262:\n        /* \"#utility.yul\":17844:17847   */\n      0x00\n        /* \"#utility.yul\":17865:17870   */\n      dup2\n        /* \"#utility.yul\":17858:17870   */\n      swap1\n      pop\n        /* \"#utility.yul\":17816:17876   */\n      swap2\n      swap1\n      pop\n      jump\t// out\n        /* \"#utility.yul\":17882:18024   */\n    tag_263:\n        /* \"#utility.yul\":17932:17941   */\n      0x00\n        /* \"#utility.yul\":17965:18018   */\n      tag_459\n        /* \"#utility.yul\":17983:18017   */\n      tag_460\n        /* \"#utility.yul\":17992:18016   */\n      tag_461\n        /* \"#utility.yul\":18010:18015   */\n      dup5\n        /* \"#utility.yul\":17992:18016   */\n      tag_210\n      jump\t// in\n    tag_461:\n        /* \"#utility.yul\":17983:18017   */\n      tag_262\n      jump\t// in\n    tag_460:\n        /* \"#utility.yul\":17965:18018   */\n      tag_210\n      jump\t// in\n    tag_459:\n        /* \"#utility.yul\":17952:18018   */\n      swap1\n      pop\n        /* \"#utility.yul\":17882:18024   */\n      swap2\n      swap1\n      pop\n      jump\t// out\n        /* \"#utility.yul\":18030:18105   */\n    tag_264:\n        /* \"#utility.yul\":18073:18076   */\n      0x00\n        /* \"#utility.yul\":18094:18099   */\n      dup2\n        /* \"#utility.yul\":18087:18099   */\n      swap1\n      pop\n        /* \"#utility.yul\":18030:18105   */\n      swap2\n      swap1\n      pop\n      jump\t// out\n        /* \"#utility.yul\":18111:18380   */\n    tag_265:\n        /* \"#utility.yul\":18221:18260   */\n      tag_464\n        /* \"#utility.yul\":18252:18259   */\n      dup4\n        /* \"#utility.yul\":18221:18260   */\n      tag_263\n      jump\t// in\n    tag_464:\n        /* \"#utility.yul\":18282:18373   */\n      tag_465\n        /* \"#utility.yul\":18331:18372   */\n      tag_466\n        /* \"#utility.yul\":18355:18371   */\n      dup3\n        /* \"#utility.yul\":18331:18372   */\n      tag_264\n      jump\t// in\n    tag_466:\n        /* \"#utility.yul\":18323:18329   */\n      dup5\n        /* \"#utility.yul\":18316:18320   */\n      dup5\n        /* \"#utility.yul\":18310:18321   */\n      sload\n        /* \"#utility.yul\":18282:18373   */\n      tag_261\n      jump\t// in\n    tag_465:\n        /* \"#utility.yul\":18276:18280   */\n      dup3\n        /* \"#utility.yul\":18269:18374   */\n      sstore\n        /* \"#utility.yul\":18187:18380   */\n      pop\n        /* \"#utility.yul\":18111:18380   */\n      pop\n      pop\n      pop\n      jump\t// out\n        /* \"#utility.yul\":18386:18459   */\n    tag_266:\n        /* \"#utility.yul\":18431:18434   */\n      0x00\n        /* \"#utility.yul\":18386:18459   */\n      swap1\n      jump\t// out\n        /* \"#utility.yul\":18465:18654   */\n    tag_267:\n        /* \"#utility.yul\":18542:18574   */\n      tag_469\n      tag_266\n      jump\t// in\n    tag_469:\n        /* \"#utility.yul\":18583:18648   */\n      tag_470\n        /* \"#utility.yul\":18641:18647   */\n      dup2\n        /* \"#utility.yul\":18633:18639   */\n      dup5\n        /* \"#utility.yul\":18627:18631   */\n      dup5\n        /* \"#utility.yul\":18583:18648   */\n      tag_265\n      jump\t// in\n    tag_470:\n        /* \"#utility.yul\":18518:18654   */\n      pop\n        /* \"#utility.yul\":18465:18654   */\n      pop\n      pop\n      jump\t// out\n        /* \"#utility.yul\":18660:18846   */\n    tag_268:\n        /* \"#utility.yul\":18720:18840   */\n    tag_472:\n        /* \"#utility.yul\":18737:18740   */\n      dup2\n        /* \"#utility.yul\":18730:18735   */\n      dup2\n        /* \"#utility.yul\":18727:18741   */\n      lt\n        /* \"#utility.yul\":18720:18840   */\n      iszero\n      tag_474\n      jumpi\n        /* \"#utility.yul\":18791:18830   */\n      tag_475\n        /* \"#utility.yul\":18828:18829   */\n      0x00\n        /* \"#utility.yul\":18821:18826   */\n      dup3\n        /* \"#utility.yul\":18791:18830   */\n      tag_267\n      jump\t// in\n    tag_475:\n        /* \"#utility.yul\":18764:18765   */\n      0x01\n        /* \"#utility.yul\":18757:18762   */\n      dup2\n        /* \"#utility.yul\":18753:18766   */\n      add\n        /* \"#utility.yul\":18744:18766   */\n      swap1\n      pop\n        /* \"#utility.yul\":18720:18840   */\n      jump(tag_472)\n    tag_474:\n        /* \"#utility.yul\":18660:18846   */\n      pop\n      pop\n      jump\t// out\n        /* \"#utility.yul\":18852:19395   */\n    tag_269:\n        /* \"#utility.yul\":18953:18955   */\n      0x1f\n        /* \"#utility.yul\":18948:18951   */\n      dup3\n        /* \"#utility.yul\":18945:18956   */\n      gt\n        /* \"#utility.yul\":18942:19388   */\n      iszero\n      tag_477\n      jumpi\n        /* \"#utility.yul\":18987:19025   */\n      tag_478\n        /* \"#utility.yul\":19019:19024   */\n      dup2\n        /* \"#utility.yul\":18987:19025   */\n      tag_258\n      jump\t// in\n    tag_478:\n        /* \"#utility.yul\":19071:19100   */\n      tag_479\n        /* \"#utility.yul\":19089:19099   */\n      dup5\n        /* \"#utility.yul\":19071:19100   */\n      tag_259\n      jump\t// in\n    tag_479:\n        /* \"#utility.yul\":19061:19069   */\n      dup2\n        /* \"#utility.yul\":19057:19101   */\n      add\n        /* \"#utility.yul\":19254:19256   */\n      0x20\n        /* \"#utility.yul\":19242:19252   */\n      dup6\n        /* \"#utility.yul\":19239:19257   */\n      lt\n        /* \"#utility.yul\":19236:19285   */\n      iszero\n      tag_480\n      jumpi\n        /* \"#utility.yul\":19275:19283   */\n      dup2\n        /* \"#utility.yul\":19260:19283   */\n      swap1\n      pop\n        /* \"#utility.yul\":19236:19285   */\n    tag_480:\n        /* \"#utility.yul\":19298:19378   */\n      tag_481\n        /* \"#utility.yul\":19354:19376   */\n      tag_482\n        /* \"#utility.yul\":19372:19375   */\n      dup6\n        /* \"#utility.yul\":19354:19376   */\n      tag_259\n      jump\t// in\n    tag_482:\n        /* \"#utility.yul\":19344:19352   */\n      dup4\n        /* \"#utility.yul\":19340:19377   */\n      add\n        /* \"#utility.yul\":19327:19338   */\n      dup3\n        /* \"#utility.yul\":19298:19378   */\n      tag_268\n      jump\t// in\n    tag_481:\n        /* \"#utility.yul\":18957:19388   */\n      pop\n      pop\n        /* \"#utility.yul\":18942:19388   */\n    tag_477:\n        /* \"#utility.yul\":18852:19395   */\n      pop\n      pop\n      pop\n      jump\t// out\n        /* \"#utility.yul\":19401:19518   */\n    tag_270:\n        /* \"#utility.yul\":19455:19463   */\n      0x00\n        /* \"#utility.yul\":19505:19510   */\n      dup3\n        /* \"#utility.yul\":19499:19503   */\n      dup3\n        /* \"#utility.yul\":19495:19511   */\n      shr\n        /* \"#utility.yul\":19474:19511   */\n      swap1\n      pop\n        /* \"#utility.yul\":19401:19518   */\n      swap3\n      swap2\n      pop\n      pop\n      jump\t// out\n        /* \"#utility.yul\":19524:19693   */\n    tag_271:\n        /* \"#utility.yul\":19568:19574   */\n      0x00\n        /* \"#utility.yul\":19601:19652   */\n      tag_485\n        /* \"#utility.yul\":19649:19650   */\n      0x00\n        /* \"#utility.yul\":19645:19651   */\n      not\n        /* \"#utility.yul\":19637:19642   */\n      dup5\n        /* \"#utility.yul\":19634:19635   */\n      0x08\n        /* \"#utility.yul\":19630:19643   */\n      mul\n        /* \"#utility.yul\":19601:19652   */\n      tag_270\n      jump\t// in\n    tag_485:\n        /* \"#utility.yul\":19597:19653   */\n      not\n        /* \"#utility.yul\":19682:19686   */\n      dup1\n        /* \"#utility.yul\":19676:19680   */\n      dup4\n        /* \"#utility.yul\":19672:19687   */\n      and\n        /* \"#utility.yul\":19662:19687   */\n      swap2\n      pop\n        /* \"#utility.yul\":19575:19693   */\n      pop\n        /* \"#utility.yul\":19524:19693   */\n      swap3\n      swap2\n      pop\n      pop\n      jump\t// out\n        /* \"#utility.yul\":19698:19993   */\n    tag_272:\n        /* \"#utility.yul\":19774:19778   */\n      0x00\n        /* \"#utility.yul\":19920:19949   */\n      tag_487\n        /* \"#utility.yul\":19945:19948   */\n      dup4\n        /* \"#utility.yul\":19939:19943   */\n      dup4\n        /* \"#utility.yul\":19920:19949   */\n      tag_271\n      jump\t// in\n    tag_487:\n        /* \"#utility.yul\":19912:19949   */\n      swap2\n      pop\n        /* \"#utility.yul\":19982:19985   */\n      dup3\n        /* \"#utility.yul\":19979:19980   */\n      0x02\n        /* \"#utility.yul\":19975:19986   */\n      mul\n        /* \"#utility.yul\":19969:19973   */\n      dup3\n        /* \"#utility.yul\":19966:19987   */\n      or\n        /* \"#utility.yul\":19958:19987   */\n      swap1\n      pop\n        /* \"#utility.yul\":19698:19993   */\n      swap3\n      swap2\n      pop\n      pop\n      jump\t// out\n        /* \"#utility.yul\":19998:21393   */\n    tag_128:\n        /* \"#utility.yul\":20115:20152   */\n      tag_489\n        /* \"#utility.yul\":20148:20151   */\n      dup3\n        /* \"#utility.yul\":20115:20152   */\n      tag_237\n      jump\t// in\n    tag_489:\n        /* \"#utility.yul\":20217:20235   */\n      0xffffffffffffffff\n        /* \"#utility.yul\":20209:20215   */\n      dup2\n        /* \"#utility.yul\":20206:20236   */\n      gt\n        /* \"#utility.yul\":20203:20259   */\n      iszero\n      tag_490\n      jumpi\n        /* \"#utility.yul\":20239:20257   */\n      tag_491\n      tag_221\n      jump\t// in\n    tag_491:\n        /* \"#utility.yul\":20203:20259   */\n    tag_490:\n        /* \"#utility.yul\":20283:20321   */\n      tag_492\n        /* \"#utility.yul\":20315:20319   */\n      dup3\n        /* \"#utility.yul\":20309:20320   */\n      sload\n        /* \"#utility.yul\":20283:20321   */\n      tag_68\n      jump\t// in\n    tag_492:\n        /* \"#utility.yul\":20368:20435   */\n      tag_493\n        /* \"#utility.yul\":20428:20434   */\n      dup3\n        /* \"#utility.yul\":20420:20426   */\n      dup3\n        /* \"#utility.yul\":20414:20418   */\n      dup6\n        /* \"#utility.yul\":20368:20435   */\n      tag_269\n      jump\t// in\n    tag_493:\n        /* \"#utility.yul\":20462:20463   */\n      0x00\n        /* \"#utility.yul\":20486:20490   */\n      0x20\n        /* \"#utility.yul\":20473:20490   */\n      swap1\n      pop\n        /* \"#utility.yul\":20518:20520   */\n      0x1f\n        /* \"#utility.yul\":20510:20516   */\n      dup4\n        /* \"#utility.yul\":20507:20521   */\n      gt\n        /* \"#utility.yul\":20535:20536   */\n      0x01\n        /* \"#utility.yul\":20530:21148   */\n      dup2\n      eq\n      tag_495\n      jumpi\n        /* \"#utility.yul\":21192:21193   */\n      0x00\n        /* \"#utility.yul\":21209:21215   */\n      dup5\n        /* \"#utility.yul\":21206:21283   */\n      iszero\n      tag_496\n      jumpi\n        /* \"#utility.yul\":21258:21267   */\n      dup3\n        /* \"#utility.yul\":21253:21256   */\n      dup8\n        /* \"#utility.yul\":21249:21268   */\n      add\n        /* \"#utility.yul\":21243:21269   */\n      mload\n        /* \"#utility.yul\":21234:21269   */\n      swap1\n      pop\n        /* \"#utility.yul\":21206:21283   */\n    tag_496:\n        /* \"#utility.yul\":21309:21376   */\n      tag_497\n        /* \"#utility.yul\":21369:21375   */\n      dup6\n        /* \"#utility.yul\":21362:21367   */\n      dup3\n        /* \"#utility.yul\":21309:21376   */\n      tag_272\n      jump\t// in\n    tag_497:\n        /* \"#utility.yul\":21303:21307   */\n      dup7\n        /* \"#utility.yul\":21296:21377   */\n      sstore\n        /* \"#utility.yul\":21165:21387   */\n      pop\n        /* \"#utility.yul\":20500:21387   */\n      jump(tag_494)\n        /* \"#utility.yul\":20530:21148   */\n    tag_495:\n        /* \"#utility.yul\":20582:20586   */\n      0x1f\n        /* \"#utility.yul\":20578:20587   */\n      not\n        /* \"#utility.yul\":20570:20576   */\n      dup5\n        /* \"#utility.yul\":20566:20588   */\n      and\n        /* \"#utility.yul\":20616:20653   */\n      tag_498\n        /* \"#utility.yul\":20648:20652   */\n      dup7\n        /* \"#utility.yul\":20616:20653   */\n      tag_258\n      jump\t// in\n    tag_498:\n        /* \"#utility.yul\":20675:20676   */\n      0x00\n        /* \"#utility.yul\":20689:20897   */\n    tag_499:\n        /* \"#utility.yul\":20703:20710   */\n      dup3\n        /* \"#utility.yul\":20700:20701   */\n      dup2\n        /* \"#utility.yul\":20697:20711   */\n      lt\n        /* \"#utility.yul\":20689:20897   */\n      iszero\n      tag_501\n      jumpi\n        /* \"#utility.yul\":20782:20791   */\n      dup5\n        /* \"#utility.yul\":20777:20780   */\n      dup10\n        /* \"#utility.yul\":20773:20792   */\n      add\n        /* \"#utility.yul\":20767:20793   */\n      mload\n        /* \"#utility.yul\":20759:20765   */\n      dup3\n        /* \"#utility.yul\":20752:20794   */\n      sstore\n        /* \"#utility.yul\":20833:20834   */\n      0x01\n        /* \"#utility.yul\":20825:20831   */\n      dup3\n        /* \"#utility.yul\":20821:20835   */\n      add\n        /* \"#utility.yul\":20811:20835   */\n      swap2\n      pop\n        /* \"#utility.yul\":20880:20882   */\n      0x20\n        /* \"#utility.yul\":20869:20878   */\n      dup6\n        /* \"#utility.yul\":20865:20883   */\n      add\n        /* \"#utility.yul\":20852:20883   */\n      swap5\n      pop\n        /* \"#utility.yul\":20726:20730   */\n      0x20\n        /* \"#utility.yul\":20723:20724   */\n      dup2\n        /* \"#utility.yul\":20719:20731   */\n      add\n        /* \"#utility.yul\":20714:20731   */\n      swap1\n      pop\n        /* \"#utility.yul\":20689:20897   */\n      jump(tag_499)\n    tag_501:\n        /* \"#utility.yul\":20925:20931   */\n      dup7\n        /* \"#utility.yul\":20916:20923   */\n      dup4\n        /* \"#utility.yul\":20913:20932   */\n      lt\n        /* \"#utility.yul\":20910:21089   */\n      iszero\n      tag_502\n      jumpi\n        /* \"#utility.yul\":20983:20992   */\n      dup5\n        /* \"#utility.yul\":20978:20981   */\n      dup10\n        /* \"#utility.yul\":20974:20993   */\n      add\n        /* \"#utility.yul\":20968:20994   */\n      mload\n        /* \"#utility.yul\":21026:21074   */\n      tag_503\n        /* \"#utility.yul\":21068:21072   */\n      0x1f\n        /* \"#utility.yul\":21060:21066   */\n      dup10\n        /* \"#utility.yul\":21056:21073   */\n      and\n        /* \"#utility.yul\":21045:21054   */\n      dup3\n        /* \"#utility.yul\":21026:21074   */\n      tag_271\n      jump\t// in\n    tag_503:\n        /* \"#utility.yul\":21018:21024   */\n      dup4\n        /* \"#utility.yul\":21011:21075   */\n      sstore\n        /* \"#utility.yul\":20933:21089   */\n      pop\n        /* \"#utility.yul\":20910:21089   */\n    tag_502:\n        /* \"#utility.yul\":21135:21136   */\n      0x01\n        /* \"#utility.yul\":21131:21132   */\n      0x02\n        /* \"#utility.yul\":21123:21129   */\n      dup9\n        /* \"#utility.yul\":21119:21133   */\n      mul\n        /* \"#utility.yul\":21115:21137   */\n      add\n        /* \"#utility.yul\":21109:21113   */\n      dup9\n        /* \"#utility.yul\":21102:21138   */\n      sstore\n        /* \"#utility.yul\":20537:21148   */\n      pop\n      pop\n      pop\n        /* \"#utility.yul\":20500:21387   */\n    tag_494:\n      pop\n        /* \"#utility.yul\":20090:21393   */\n      pop\n      pop\n      pop\n        /* \"#utility.yul\":19998:21393   */\n      pop\n      pop\n      jump\t// out\n        /* \"#utility.yul\":21399:21822   */\n    tag_130:\n        /* \"#utility.yul\":21540:21544   */\n      0x00\n        /* \"#utility.yul\":21578:21580   */\n      0x40\n        /* \"#utility.yul\":21567:21576   */\n      dup3\n        /* \"#utility.yul\":21563:21581   */\n      add\n        /* \"#utility.yul\":21555:21581   */\n      swap1\n      pop\n        /* \"#utility.yul\":21591:21662   */\n      tag_505\n        /* \"#utility.yul\":21659:21660   */\n      0x00\n        /* \"#utility.yul\":21648:21657   */\n      dup4\n        /* \"#utility.yul\":21644:21661   */\n      add\n        /* \"#utility.yul\":21635:21641   */\n      dup6\n        /* \"#utility.yul\":21591:21662   */\n      tag_242\n      jump\t// in\n    tag_505:\n        /* \"#utility.yul\":21709:21718   */\n      dup2\n        /* \"#utility.yul\":21703:21707   */\n      dup2\n        /* \"#utility.yul\":21699:21719   */\n      sub\n        /* \"#utility.yul\":21694:21696   */\n      0x20\n        /* \"#utility.yul\":21683:21692   */\n      dup4\n        /* \"#utility.yul\":21679:21697   */\n      add\n        /* \"#utility.yul\":21672:21720   */\n      mstore\n        /* \"#utility.yul\":21737:21815   */\n      tag_506\n        /* \"#utility.yul\":21810:21814   */\n      dup2\n        /* \"#utility.yul\":21801:21807   */\n      dup5\n        /* \"#utility.yul\":21737:21815   */\n      tag_240\n      jump\t// in\n    tag_506:\n        /* \"#utility.yul\":21729:21815   */\n      swap1\n      pop\n        /* \"#utility.yul\":21399:21822   */\n      swap4\n      swap3\n      pop\n      pop\n      pop\n      jump\t// out\n        /* \"#utility.yul\":21828:22057   */\n    tag_273:\n        /* \"#utility.yul\":21968:22002   */\n      0x596f7520646964206e6f742063686f6f736520726f636b2c207061706572206f\n        /* \"#utility.yul\":21964:21965   */\n      0x00\n        /* \"#utility.yul\":21956:21962   */\n      dup3\n        /* \"#utility.yul\":21952:21966   */\n      add\n        /* \"#utility.yul\":21945:22003   */\n      mstore\n        /* \"#utility.yul\":22037:22049   */\n      0x722073636973736f727300000000000000000000000000000000000000000000\n        /* \"#utility.yul\":22032:22034   */\n      0x20\n        /* \"#utility.yul\":22024:22030   */\n      dup3\n        /* \"#utility.yul\":22020:22035   */\n      add\n        /* \"#utility.yul\":22013:22050   */\n      mstore\n        /* \"#utility.yul\":21828:22057   */\n      pop\n      jump\t// out\n        /* \"#utility.yul\":22063:22429   */\n    tag_274:\n        /* \"#utility.yul\":22205:22208   */\n      0x00\n        /* \"#utility.yul\":22226:22293   */\n      tag_509\n        /* \"#utility.yul\":22290:22292   */\n      0x2a\n        /* \"#utility.yul\":22285:22288   */\n      dup4\n        /* \"#utility.yul\":22226:22293   */\n      tag_238\n      jump\t// in\n    tag_509:\n        /* \"#utility.yul\":22219:22293   */\n      swap2\n      pop\n        /* \"#utility.yul\":22302:22395   */\n      tag_510\n        /* \"#utility.yul\":22391:22394   */\n      dup3\n        /* \"#utility.yul\":22302:22395   */\n      tag_273\n      jump\t// in\n    tag_510:\n        /* \"#utility.yul\":22420:22422   */\n      0x40\n        /* \"#utility.yul\":22415:22418   */\n      dup3\n        /* \"#utility.yul\":22411:22423   */\n      add\n        /* \"#utility.yul\":22404:22423   */\n      swap1\n      pop\n        /* \"#utility.yul\":22063:22429   */\n      swap2\n      swap1\n      pop\n      jump\t// out\n        /* \"#utility.yul\":22435:22854   */\n    tag_139:\n        /* \"#utility.yul\":22601:22605   */\n      0x00\n        /* \"#utility.yul\":22639:22641   */\n      0x20\n        /* \"#utility.yul\":22628:22637   */\n      dup3\n        /* \"#utility.yul\":22624:22642   */\n      add\n        /* \"#utility.yul\":22616:22642   */\n      swap1\n      pop\n        /* \"#utility.yul\":22688:22697   */\n      dup2\n        /* \"#utility.yul\":22682:22686   */\n      dup2\n        /* \"#utility.yul\":22678:22698   */\n      sub\n        /* \"#utility.yul\":22674:22675   */\n      0x00\n        /* \"#utility.yul\":22663:22672   */\n      dup4\n        /* \"#utility.yul\":22659:22676   */\n      add\n        /* \"#utility.yul\":22652:22699   */\n      mstore\n        /* \"#utility.yul\":22716:22847   */\n      tag_512\n        /* \"#utility.yul\":22842:22846   */\n      dup2\n        /* \"#utility.yul\":22716:22847   */\n      tag_274\n      jump\t// in\n    tag_512:\n        /* \"#utility.yul\":22708:22847   */\n      swap1\n      pop\n        /* \"#utility.yul\":22435:22854   */\n      swap2\n      swap1\n      pop\n      jump\t// out\n        /* \"#utility.yul\":22860:23135   */\n    tag_163:\n        /* \"#utility.yul\":22992:22995   */\n      0x00\n        /* \"#utility.yul\":23014:23109   */\n      tag_514\n        /* \"#utility.yul\":23105:23108   */\n      dup3\n        /* \"#utility.yul\":23096:23102   */\n      dup5\n        /* \"#utility.yul\":23014:23109   */\n      tag_254\n      jump\t// in\n    tag_514:\n        /* \"#utility.yul\":23007:23109   */\n      swap2\n      pop\n        /* \"#utility.yul\":23126:23129   */\n      dup2\n        /* \"#utility.yul\":23119:23129   */\n      swap1\n      pop\n        /* \"#utility.yul\":22860:23135   */\n      swap3\n      swap2\n      pop\n      pop\n      jump\t// out\n        /* \"#utility.yul\":23141:23314   */\n    tag_275:\n        /* \"#utility.yul\":23281:23306   */\n      0x596f752061726520616c726561647920706c6179696e67000000000000000000\n        /* \"#utility.yul\":23277:23278   */\n      0x00\n        /* \"#utility.yul\":23269:23275   */\n      dup3\n        /* \"#utility.yul\":23265:23279   */\n      add\n        /* \"#utility.yul\":23258:23307   */\n      mstore\n        /* \"#utility.yul\":23141:23314   */\n      pop\n      jump\t// out\n        /* \"#utility.yul\":23320:23686   */\n    tag_276:\n        /* \"#utility.yul\":23462:23465   */\n      0x00\n        /* \"#utility.yul\":23483:23550   */\n      tag_517\n        /* \"#utility.yul\":23547:23549   */\n      0x17\n        /* \"#utility.yul\":23542:23545   */\n      dup4\n        /* \"#utility.yul\":23483:23550   */\n      tag_238\n      jump\t// in\n    tag_517:\n        /* \"#utility.yul\":23476:23550   */\n      swap2\n      pop\n        /* \"#utility.yul\":23559:23652   */\n      tag_518\n        /* \"#utility.yul\":23648:23651   */\n      dup3\n        /* \"#utility.yul\":23559:23652   */\n      tag_275\n      jump\t// in\n    tag_518:\n        /* \"#utility.yul\":23677:23679   */\n      0x20\n        /* \"#utility.yul\":23672:23675   */\n      dup3\n        /* \"#utility.yul\":23668:23680   */\n      add\n        /* \"#utility.yul\":23661:23680   */\n      swap1\n      pop\n        /* \"#utility.yul\":23320:23686   */\n      swap2\n      swap1\n      pop\n      jump\t// out\n        /* \"#utility.yul\":23692:24111   */\n    tag_168:\n        /* \"#utility.yul\":23858:23862   */\n      0x00\n        /* \"#utility.yul\":23896:23898   */\n      0x20\n        /* \"#utility.yul\":23885:23894   */\n      dup3\n        /* \"#utility.yul\":23881:23899   */\n      add\n        /* \"#utility.yul\":23873:23899   */\n      swap1\n      pop\n        /* \"#utility.yul\":23945:23954   */\n      dup2\n        /* \"#utility.yul\":23939:23943   */\n      dup2\n        /* \"#utility.yul\":23935:23955   */\n      sub\n        /* \"#utility.yul\":23931:23932   */\n      0x00\n        /* \"#utility.yul\":23920:23929   */\n      dup4\n        /* \"#utility.yul\":23916:23933   */\n      add\n        /* \"#utility.yul\":23909:23956   */\n      mstore\n        /* \"#utility.yul\":23973:24104   */\n      tag_520\n        /* \"#utility.yul\":24099:24103   */\n      dup2\n        /* \"#utility.yul\":23973:24104   */\n      tag_276\n      jump\t// in\n    tag_520:\n        /* \"#utility.yul\":23965:24104   */\n      swap1\n      pop\n        /* \"#utility.yul\":23692:24111   */\n      swap2\n      swap1\n      pop\n      jump\t// out\n        /* \"#utility.yul\":24117:24292   */\n    tag_277:\n        /* \"#utility.yul\":24257:24284   */\n      0x546865207374616b65206d757374206265203120457468657200000000000000\n        /* \"#utility.yul\":24253:24254   */\n      0x00\n        /* \"#utility.yul\":24245:24251   */\n      dup3\n        /* \"#utility.yul\":24241:24255   */\n      add\n        /* \"#utility.yul\":24234:24285   */\n      mstore\n        /* \"#utility.yul\":24117:24292   */\n      pop\n      jump\t// out\n        /* \"#utility.yul\":24298:24664   */\n    tag_278:\n        /* \"#utility.yul\":24440:24443   */\n      0x00\n        /* \"#utility.yul\":24461:24528   */\n      tag_523\n        /* \"#utility.yul\":24525:24527   */\n      0x19\n        /* \"#utility.yul\":24520:24523   */\n      dup4\n        /* \"#utility.yul\":24461:24528   */\n      tag_238\n      jump\t// in\n    tag_523:\n        /* \"#utility.yul\":24454:24528   */\n      swap2\n      pop\n        /* \"#utility.yul\":24537:24630   */\n      tag_524\n        /* \"#utility.yul\":24626:24629   */\n      dup3\n        /* \"#utility.yul\":24537:24630   */\n      tag_277\n      jump\t// in\n    tag_524:\n        /* \"#utility.yul\":24655:24657   */\n      0x20\n        /* \"#utility.yul\":24650:24653   */\n      dup3\n        /* \"#utility.yul\":24646:24658   */\n      add\n        /* \"#utility.yul\":24639:24658   */\n      swap1\n      pop\n        /* \"#utility.yul\":24298:24664   */\n      swap2\n      swap1\n      pop\n      jump\t// out\n        /* \"#utility.yul\":24670:25089   */\n    tag_172:\n        /* \"#utility.yul\":24836:24840   */\n      0x00\n        /* \"#utility.yul\":24874:24876   */\n      0x20\n        /* \"#utility.yul\":24863:24872   */\n      dup3\n        /* \"#utility.yul\":24859:24877   */\n      add\n        /* \"#utility.yul\":24851:24877   */\n      swap1\n      pop\n        /* \"#utility.yul\":24923:24932   */\n      dup2\n        /* \"#utility.yul\":24917:24921   */\n      dup2\n        /* \"#utility.yul\":24913:24933   */\n      sub\n        /* \"#utility.yul\":24909:24910   */\n      0x00\n        /* \"#utility.yul\":24898:24907   */\n      dup4\n        /* \"#utility.yul\":24894:24911   */\n      add\n        /* \"#utility.yul\":24887:24934   */\n      mstore\n        /* \"#utility.yul\":24951:25082   */\n      tag_526\n        /* \"#utility.yul\":25077:25081   */\n      dup2\n        /* \"#utility.yul\":24951:25082   */\n      tag_278\n      jump\t// in\n    tag_526:\n        /* \"#utility.yul\":24943:25082   */\n      swap1\n      pop\n        /* \"#utility.yul\":24670:25089   */\n      swap2\n      swap1\n      pop\n      jump\t// out\n        /* \"#utility.yul\":25095:25289   */\n    tag_179:\n        /* \"#utility.yul\":25135:25139   */\n      0x00\n        /* \"#utility.yul\":25155:25175   */\n      tag_528\n        /* \"#utility.yul\":25173:25174   */\n      dup3\n        /* \"#utility.yul\":25155:25175   */\n      tag_210\n      jump\t// in\n    tag_528:\n        /* \"#utility.yul\":25150:25175   */\n      swap2\n      pop\n        /* \"#utility.yul\":25189:25209   */\n      tag_529\n        /* \"#utility.yul\":25207:25208   */\n      dup4\n        /* \"#utility.yul\":25189:25209   */\n      tag_210\n      jump\t// in\n    tag_529:\n        /* \"#utility.yul\":25184:25209   */\n      swap3\n      pop\n        /* \"#utility.yul\":25233:25234   */\n      dup3\n        /* \"#utility.yul\":25230:25231   */\n      dup3\n        /* \"#utility.yul\":25226:25235   */\n      sub\n        /* \"#utility.yul\":25218:25235   */\n      swap1\n      pop\n        /* \"#utility.yul\":25257:25258   */\n      dup2\n        /* \"#utility.yul\":25251:25255   */\n      dup2\n        /* \"#utility.yul\":25248:25259   */\n      gt\n        /* \"#utility.yul\":25245:25282   */\n      iszero\n      tag_530\n      jumpi\n        /* \"#utility.yul\":25262:25280   */\n      tag_531\n      tag_250\n      jump\t// in\n    tag_531:\n        /* \"#utility.yul\":25245:25282   */\n    tag_530:\n        /* \"#utility.yul\":25095:25289   */\n      swap3\n      swap2\n      pop\n      pop\n      jump\t// out\n        /* \"#utility.yul\":25295:25486   */\n    tag_184:\n        /* \"#utility.yul\":25335:25338   */\n      0x00\n        /* \"#utility.yul\":25354:25374   */\n      tag_533\n        /* \"#utility.yul\":25372:25373   */\n      dup3\n        /* \"#utility.yul\":25354:25374   */\n      tag_210\n      jump\t// in\n    tag_533:\n        /* \"#utility.yul\":25349:25374   */\n      swap2\n      pop\n        /* \"#utility.yul\":25388:25408   */\n      tag_534\n        /* \"#utility.yul\":25406:25407   */\n      dup4\n        /* \"#utility.yul\":25388:25408   */\n      tag_210\n      jump\t// in\n    tag_534:\n        /* \"#utility.yul\":25383:25408   */\n      swap3\n      pop\n        /* \"#utility.yul\":25431:25432   */\n      dup3\n        /* \"#utility.yul\":25428:25429   */\n      dup3\n        /* \"#utility.yul\":25424:25433   */\n      add\n        /* \"#utility.yul\":25417:25433   */\n      swap1\n      pop\n        /* \"#utility.yul\":25452:25455   */\n      dup1\n        /* \"#utility.yul\":25449:25450   */\n      dup3\n        /* \"#utility.yul\":25446:25456   */\n      gt\n        /* \"#utility.yul\":25443:25479   */\n      iszero\n      tag_535\n      jumpi\n        /* \"#utility.yul\":25459:25477   */\n      tag_536\n      tag_250\n      jump\t// in\n    tag_536:\n        /* \"#utility.yul\":25443:25479   */\n    tag_535:\n        /* \"#utility.yul\":25295:25486   */\n      swap3\n      swap2\n      pop\n      pop\n      jump\t// out\n        /* \"#utility.yul\":25492:25672   */\n    tag_187:\n        /* \"#utility.yul\":25540:25617   */\n      0x4e487b7100000000000000000000000000000000000000000000000000000000\n        /* \"#utility.yul\":25537:25538   */\n      0x00\n        /* \"#utility.yul\":25530:25618   */\n      mstore\n        /* \"#utility.yul\":25637:25641   */\n      0x31\n        /* \"#utility.yul\":25634:25635   */\n      0x04\n        /* \"#utility.yul\":25627:25642   */\n      mstore\n        /* \"#utility.yul\":25661:25665   */\n      0x24\n        /* \"#utility.yul\":25658:25659   */\n      0x00\n        /* \"#utility.yul\":25651:25666   */\n      revert\n        /* \"#utility.yul\":25678:26120   */\n    tag_190:\n        /* \"#utility.yul\":25827:25831   */\n      0x00\n        /* \"#utility.yul\":25865:25867   */\n      0x60\n        /* \"#utility.yul\":25854:25863   */\n      dup3\n        /* \"#utility.yul\":25850:25868   */\n      add\n        /* \"#utility.yul\":25842:25868   */\n      swap1\n      pop\n        /* \"#utility.yul\":25878:25949   */\n      tag_539\n        /* \"#utility.yul\":25946:25947   */\n      0x00\n        /* \"#utility.yul\":25935:25944   */\n      dup4\n        /* \"#utility.yul\":25931:25948   */\n      add\n        /* \"#utility.yul\":25922:25928   */\n      dup7\n        /* \"#utility.yul\":25878:25949   */\n      tag_242\n      jump\t// in\n    tag_539:\n        /* \"#utility.yul\":25959:26031   */\n      tag_540\n        /* \"#utility.yul\":26027:26029   */\n      0x20\n        /* \"#utility.yul\":26016:26025   */\n      dup4\n        /* \"#utility.yul\":26012:26030   */\n      add\n        /* \"#utility.yul\":26003:26009   */\n      dup6\n        /* \"#utility.yul\":25959:26031   */\n      tag_242\n      jump\t// in\n    tag_540:\n        /* \"#utility.yul\":26041:26113   */\n      tag_541\n        /* \"#utility.yul\":26109:26111   */\n      0x40\n        /* \"#utility.yul\":26098:26107   */\n      dup4\n        /* \"#utility.yul\":26094:26112   */\n      add\n        /* \"#utility.yul\":26085:26091   */\n      dup5\n        /* \"#utility.yul\":26041:26113   */\n      tag_211\n      jump\t// in\n    tag_541:\n        /* \"#utility.yul\":25678:26120   */\n      swap5\n      swap4\n      pop\n      pop\n      pop\n      pop\n      jump\t// out\n        /* \"#utility.yul\":26126:26458   */\n    tag_195:\n        /* \"#utility.yul\":26247:26251   */\n      0x00\n        /* \"#utility.yul\":26285:26287   */\n      0x40\n        /* \"#utility.yul\":26274:26283   */\n      dup3\n        /* \"#utility.yul\":26270:26288   */\n      add\n        /* \"#utility.yul\":26262:26288   */\n      swap1\n      pop\n        /* \"#utility.yul\":26298:26369   */\n      tag_543\n        /* \"#utility.yul\":26366:26367   */\n      0x00\n        /* \"#utility.yul\":26355:26364   */\n      dup4\n        /* \"#utility.yul\":26351:26368   */\n      add\n        /* \"#utility.yul\":26342:26348   */\n      dup6\n        /* \"#utility.yul\":26298:26369   */\n      tag_242\n      jump\t// in\n    tag_543:\n        /* \"#utility.yul\":26379:26451   */\n      tag_544\n        /* \"#utility.yul\":26447:26449   */\n      0x20\n        /* \"#utility.yul\":26436:26445   */\n      dup4\n        /* \"#utility.yul\":26432:26450   */\n      add\n        /* \"#utility.yul\":26423:26429   */\n      dup5\n        /* \"#utility.yul\":26379:26451   */\n      tag_241\n      jump\t// in\n    tag_544:\n        /* \"#utility.yul\":26126:26458   */\n      swap4\n      swap3\n      pop\n      pop\n      pop\n      jump\t// out\n\n    auxdata: 0xa2646970667358221220657e7400da66d75fb77cd6fe5b9edff43532d2e5bf280b8d420d100b080de84164736f6c634300081a0033\n}\n",
				"bytecode": {
					"linkReferences": {},
					"object": "6080604052670de0b6b3a76400006002556101e06003553480156020575f80fd5b506126f28061002e5f395ff3fe608060405260043610610085575f3560e01c8063ba829d7111610058578063ba829d7114610121578063bed34bba1461014b578063c7a1865b14610187578063e2eb41ff146101a3578063e71a0706146101e357610085565b80633a4b66f1146100895780633ccfd60b146100b35780635ba1b2c7146100bd578063943e0a04146100e5575b5f80fd5b348015610094575f80fd5b5061009d61021f565b6040516100aa9190611906565b60405180910390f35b6100bb610225565b005b3480156100c8575f80fd5b506100e360048036038101906100de9190611991565b610a8d565b005b3480156100f0575f80fd5b5061010b60048036038101906101069190611b47565b610ec9565b6040516101189190611bd7565b60405180910390f35b34801561012c575f80fd5b506101356111d0565b6040516101429190611906565b60405180910390f35b348015610156575f80fd5b50610171600480360381019061016c9190611b47565b6111d6565b60405161017e9190611bd7565b60405180910390f35b6101a1600480360381019061019c9190611c23565b61122e565b005b3480156101ae575f80fd5b506101c960048036038101906101c49190611ca8565b611778565b6040516101da959493929190611d51565b60405180910390f35b3480156101ee575f80fd5b5061020960048036038101906102049190611dd3565b61185b565b6040516102169190611dfe565b60405180910390f35b60025481565b5f803373ffffffffffffffffffffffffffffffffffffffff1673ffffffffffffffffffffffffffffffffffffffff1681526020019081526020015f206002015f9054906101000a900460ff166102b0576040517f08c379a00000000000000000000000000000000000000000000000000000000081526004016102a790611e87565b60405180910390fd5b5f803373ffffffffffffffffffffffffffffffffffffffff1673ffffffffffffffffffffffffffffffffffffffff1681526020019081526020015f2060030154421015806103a557505f80805f3373ffffffffffffffffffffffffffffffffffffffff1673ffffffffffffffffffffffffffffffffffffffff1681526020019081526020015f2060020160019054906101000a900473ffffffffffffffffffffffffffffffffffffffff1673ffffffffffffffffffffffffffffffffffffffff1673ffffffffffffffffffffffffffffffffffffffff1681526020019081526020015f206002015f9054906101000a900460ff165b6103e4576040517f08c379a00000000000000000000000000000000000000000000000000000000081526004016103db90611f15565b60405180910390fd5b5f805f3373ffffffffffffffffffffffffffffffffffffffff1673ffffffffffffffffffffffffffffffffffffffff1681526020019081526020015f2060020160019054906101000a900473ffffffffffffffffffffffffffffffffffffffff1690505f805f3373ffffffffffffffffffffffffffffffffffffffff1673ffffffffffffffffffffffffffffffffffffffff1681526020019081526020015f205f01805461049190611f60565b80601f01602080910402602001604051908101604052809291908181526020018280546104bd90611f60565b80156105085780601f106104df57610100808354040283529160200191610508565b820191905f5260205f20905b8154815290600101906020018083116104eb57829003601f168201915b505050505090505f805f8473ffffffffffffffffffffffffffffffffffffffff1673ffffffffffffffffffffffffffffffffffffffff1681526020019081526020015f205f01805461055990611f60565b80601f016020809104026020016040519081016040528092919081815260200182805461058590611f60565b80156105d05780601f106105a7576101008083540402835291602001916105d0565b820191905f5260205f20905b8154815290600101906020018083116105b357829003601f168201915b505050505090506105e18282610ec9565b8061068057505f803373ffffffffffffffffffffffffffffffffffffffff1673ffffffffffffffffffffffffffffffffffffffff1681526020019081526020015f2060030154421015801561067f57505f808473ffffffffffffffffffffffffffffffffffffffff1673ffffffffffffffffffffffffffffffffffffffff1681526020019081526020015f206002015f9054906101000a900460ff16155b5b1561084b573373ffffffffffffffffffffffffffffffffffffffff166108fc600280546106ad9190611fbd565b90811502906040515f60405180830381858888f193505050501580156106d5573d5f803e3d5ffd5b505f803373ffffffffffffffffffffffffffffffffffffffff1673ffffffffffffffffffffffffffffffffffffffff1681526020019081526020015f205f8082015f6107219190611896565b600182015f9055600282015f6101000a81549060ff02191690556002820160016101000a81549073ffffffffffffffffffffffffffffffffffffffff0219169055600382015f905550505f808473ffffffffffffffffffffffffffffffffffffffff1673ffffffffffffffffffffffffffffffffffffffff1681526020019081526020015f205f8082015f6107b69190611896565b600182015f9055600282015f6101000a81549060ff02191690556002820160016101000a81549073ffffffffffffffffffffffffffffffffffffffff0219169055600382015f905550507f884edad9ce6fa2440d8a54cc123490eb96d2768479d49ff9c7366125a942436433600280546108309190611fbd565b60405161083e929190611ffe565b60405180910390a1610a88565b61085582826111d6565b15610a87573373ffffffffffffffffffffffffffffffffffffffff166108fc60025490811502906040515f60405180830381858888f1935050505015801561089f573d5f803e3d5ffd5b508273ffffffffffffffffffffffffffffffffffffffff166108fc60025490811502906040515f60405180830381858888f193505050501580156108e5573d5f803e3d5ffd5b505f803373ffffffffffffffffffffffffffffffffffffffff1673ffffffffffffffffffffffffffffffffffffffff1681526020019081526020015f205f8082015f6109319190611896565b600182015f9055600282015f6101000a81549060ff02191690556002820160016101000a81549073ffffffffffffffffffffffffffffffffffffffff0219169055600382015f905550505f808473ffffffffffffffffffffffffffffffffffffffff1673ffffffffffffffffffffffffffffffffffffffff1681526020019081526020015f205f8082015f6109c69190611896565b600182015f9055600282015f6101000a81549060ff02191690556002820160016101000a81549073ffffffffffffffffffffffffffffffffffffffff0219169055600382015f905550507f884edad9ce6fa2440d8a54cc123490eb96d2768479d49ff9c7366125a942436433600254604051610a43929190611ffe565b60405180910390a17f884edad9ce6fa2440d8a54cc123490eb96d2768479d49ff9c7366125a942436483600254604051610a7e929190611ffe565b60405180910390a15b5b505050565b5f73ffffffffffffffffffffffffffffffffffffffff165f803373ffffffffffffffffffffffffffffffffffffffff1673ffffffffffffffffffffffffffffffffffffffff1681526020019081526020015f2060020160019054906101000a900473ffffffffffffffffffffffffffffffffffffffff1673ffffffffffffffffffffffffffffffffffffffff1603610b5a576040517f08c379a0000000000000000000000000000000000000000000000000000000008152600401610b519061206f565b60405180910390fd5b83838080601f0160208091040260200160405190810160405280939291908181526020018383808284375f81840152601f19601f8201169050808301925050505050505082828080601f0160208091040260200160405190810160405280939291908181526020018383808284375f81840152601f19601f820116905080830192505050505050505f8282604051602001610bf69291906120c7565b604051602081830303815290604052805190602001209050805f803373ffffffffffffffffffffffffffffffffffffffff1673ffffffffffffffffffffffffffffffffffffffff1681526020019081526020015f206001015414610c8f576040517f08c379a0000000000000000000000000000000000000000000000000000000008152600401610c8690612134565b60405180910390fd5b5f87878080601f0160208091040260200160405190810160405280939291908181526020018383808284375f81840152601f19601f820116905080830192505050505050509050606160f81b815f81518110610cee57610ced612152565b5b602001015160f81c60f81b7effffffffffffffffffffffffffffffffffffffffffffffffffffffffffffff191610158015610d6c5750607a60f81b815f81518110610d3c57610d3b612152565b5b602001015160f81c60f81b7effffffffffffffffffffffffffffffffffffffffffffffffffffffffffffff191611155b15610de3576020815f81518110610d8657610d85612152565b5b602001015160f81c60f81b60f81c610d9e919061218b565b60f81b815f81518110610db457610db3612152565b5b60200101907effffffffffffffffffffffffffffffffffffffffffffffffffffffffffffff191690815f1a9053505b60015f803373ffffffffffffffffffffffffffffffffffffffff1673ffffffffffffffffffffffffffffffffffffffff1681526020019081526020015f206002015f6101000a81548160ff021916908315150217905550805f803373ffffffffffffffffffffffffffffffffffffffff1673ffffffffffffffffffffffffffffffffffffffff1681526020019081526020015f205f019081610e85919061235c565b507f4abf1a182c97c99cbf9798006458c948c47df72ed150ba8a3c04389c3ef937763382604051610eb792919061242b565b60405180910390a15050505050505050565b5f82610f0a816040518060400160405280600181526020017f52000000000000000000000000000000000000000000000000000000000000008152506111d6565b80610f505750610f4f816040518060400160405280600181526020017f50000000000000000000000000000000000000000000000000000000000000008152506111d6565b5b80610f965750610f95816040518060400160405280600181526020017f53000000000000000000000000000000000000000000000000000000000000008152506111d6565b5b610fd5576040517f08c379a0000000000000000000000000000000000000000000000000000000008152600401610fcc906124c9565b60405180910390fd5b610fdf84846111d6565b80610ffe5750610ffd8360405180602001604052805f8152506111d6565b5b1561100b575f91506111c9565b61104a846040518060400160405280600181526020017f52000000000000000000000000000000000000000000000000000000000000008152506111d6565b80156110915750611090836040518060400160405280600181526020017f50000000000000000000000000000000000000000000000000000000000000008152506111d6565b5b1561109e575f91506111c9565b6110dd846040518060400160405280600181526020017f50000000000000000000000000000000000000000000000000000000000000008152506111d6565b80156111245750611123836040518060400160405280600181526020017f53000000000000000000000000000000000000000000000000000000000000008152506111d6565b5b15611131575f91506111c9565b611170846040518060400160405280600181526020017f53000000000000000000000000000000000000000000000000000000000000008152506111d6565b80156111b757506111b6836040518060400160405280600181526020017f52000000000000000000000000000000000000000000000000000000000000008152506111d6565b5b156111c4575f91506111c9565b600191505b5092915050565b60035481565b5f816040516020016111e891906124e7565b604051602081830303815290604052805190602001208360405160200161120f91906124e7565b6040516020818303038152906040528051906020012014905092915050565b5f801b5f803373ffffffffffffffffffffffffffffffffffffffff1673ffffffffffffffffffffffffffffffffffffffff1681526020019081526020015f2060010154146112b1576040517f08c379a00000000000000000000000000000000000000000000000000000000081526004016112a890612547565b60405180910390fd5b6002546002543410156112f9576040517f08c379a00000000000000000000000000000000000000000000000000000000081526004016112f0906125af565b60405180910390fd5b6040518060a0016040528060405180602001604052805f81525081526020018381526020015f151581526020015f73ffffffffffffffffffffffffffffffffffffffff1681526020015f8152505f803373ffffffffffffffffffffffffffffffffffffffff1673ffffffffffffffffffffffffffffffffffffffff1681526020019081526020015f205f820151815f019081611395919061235c565b50602082015181600101556040820151816002015f6101000a81548160ff02191690831515021790555060608201518160020160016101000a81548173ffffffffffffffffffffffffffffffffffffffff021916908373ffffffffffffffffffffffffffffffffffffffff160217905550608082015181600301559050505f60018054905090505f810361148857600133908060018154018082558091505060019003905f5260205f20015f9091909190916101000a81548173ffffffffffffffffffffffffffffffffffffffff021916908373ffffffffffffffffffffffffffffffffffffffff1602179055506116e9565b5f6001808361149791906125cd565b815481106114a8576114a7612152565b5b905f5260205f20015f9054906101000a900473ffffffffffffffffffffffffffffffffffffffff169050805f803373ffffffffffffffffffffffffffffffffffffffff1673ffffffffffffffffffffffffffffffffffffffff1681526020019081526020015f2060020160016101000a81548173ffffffffffffffffffffffffffffffffffffffff021916908373ffffffffffffffffffffffffffffffffffffffff160217905550335f808373ffffffffffffffffffffffffffffffffffffffff1673ffffffffffffffffffffffffffffffffffffffff1681526020019081526020015f2060020160016101000a81548173ffffffffffffffffffffffffffffffffffffffff021916908373ffffffffffffffffffffffffffffffffffffffff1602179055505f600354426115dd9190612600565b9050805f803373ffffffffffffffffffffffffffffffffffffffff1673ffffffffffffffffffffffffffffffffffffffff1681526020019081526020015f2060030181905550805f808473ffffffffffffffffffffffffffffffffffffffff1673ffffffffffffffffffffffffffffffffffffffff1681526020019081526020015f2060030181905550600180548061167957611678612633565b5b600190038181905f5260205f20015f6101000a81549073ffffffffffffffffffffffffffffffffffffffff021916905590557ff7750bebc6a1d050dec98239cfc17dbb80b7469bdbf2a73da0c8023a4f46f7728233836040516116de93929190612660565b60405180910390a150505b3373ffffffffffffffffffffffffffffffffffffffff166108fc6002543461171191906125cd565b90811502906040515f60405180830381858888f19350505050158015611739573d5f803e3d5ffd5b507f673312c85cba8b334416b1c6e845170bbdff704baf138f1866ab5e8bf3440776338460405161176b929190612695565b60405180910390a1505050565b5f602052805f5260405f205f91509050805f01805461179690611f60565b80601f01602080910402602001604051908101604052809291908181526020018280546117c290611f60565b801561180d5780601f106117e45761010080835404028352916020019161180d565b820191905f5260205f20905b8154815290600101906020018083116117f057829003601f168201915b505050505090806001015490806002015f9054906101000a900460ff16908060020160019054906101000a900473ffffffffffffffffffffffffffffffffffffffff16908060030154905085565b6001818154811061186a575f80fd5b905f5260205f20015f915054906101000a900473ffffffffffffffffffffffffffffffffffffffff1681565b5080546118a290611f60565b5f825580601f106118b357506118d0565b601f0160209004905f5260205f20908101906118cf91906118d3565b5b50565b5b808211156118ea575f815f9055506001016118d4565b5090565b5f819050919050565b611900816118ee565b82525050565b5f6020820190506119195f8301846118f7565b92915050565b5f604051905090565b5f80fd5b5f80fd5b5f80fd5b5f80fd5b5f80fd5b5f8083601f84011261195157611950611930565b5b8235905067ffffffffffffffff81111561196e5761196d611934565b5b60208301915083600182028301111561198a57611989611938565b5b9250929050565b5f805f80604085870312156119a9576119a8611928565b5b5f85013567ffffffffffffffff8111156119c6576119c561192c565b5b6119d28782880161193c565b9450945050602085013567ffffffffffffffff8111156119f5576119f461192c565b5b611a018782880161193c565b925092505092959194509250565b5f80fd5b5f601f19601f8301169050919050565b7f4e487b71000000000000000000000000000000000000000000000000000000005f52604160045260245ffd5b611a5982611a13565b810181811067ffffffffffffffff82111715611a7857611a77611a23565b5b80604052505050565b5f611a8a61191f565b9050611a968282611a50565b919050565b5f67ffffffffffffffff821115611ab557611ab4611a23565b5b611abe82611a13565b9050602081019050919050565b828183375f83830152505050565b5f611aeb611ae684611a9b565b611a81565b905082815260208101848484011115611b0757611b06611a0f565b5b611b12848285611acb565b509392505050565b5f82601f830112611b2e57611b2d611930565b5b8135611b3e848260208601611ad9565b91505092915050565b5f8060408385031215611b5d57611b5c611928565b5b5f83013567ffffffffffffffff811115611b7a57611b7961192c565b5b611b8685828601611b1a565b925050602083013567ffffffffffffffff811115611ba757611ba661192c565b5b611bb385828601611b1a565b9150509250929050565b5f8115159050919050565b611bd181611bbd565b82525050565b5f602082019050611bea5f830184611bc8565b92915050565b5f819050919050565b611c0281611bf0565b8114611c0c575f80fd5b50565b5f81359050611c1d81611bf9565b92915050565b5f60208284031215611c3857611c37611928565b5b5f611c4584828501611c0f565b91505092915050565b5f73ffffffffffffffffffffffffffffffffffffffff82169050919050565b5f611c7782611c4e565b9050919050565b611c8781611c6d565b8114611c91575f80fd5b50565b5f81359050611ca281611c7e565b92915050565b5f60208284031215611cbd57611cbc611928565b5b5f611cca84828501611c94565b91505092915050565b5f81519050919050565b5f82825260208201905092915050565b8281835e5f83830152505050565b5f611d0582611cd3565b611d0f8185611cdd565b9350611d1f818560208601611ced565b611d2881611a13565b840191505092915050565b611d3c81611bf0565b82525050565b611d4b81611c6d565b82525050565b5f60a0820190508181035f830152611d698188611cfb565b9050611d786020830187611d33565b611d856040830186611bc8565b611d926060830185611d42565b611d9f60808301846118f7565b9695505050505050565b611db2816118ee565b8114611dbc575f80fd5b50565b5f81359050611dcd81611da9565b92915050565b5f60208284031215611de857611de7611928565b5b5f611df584828501611dbf565b91505092915050565b5f602082019050611e115f830184611d42565b92915050565b7f596f75206d7573742072657665616c20796f757220766f7465206265666f72655f8201527f207769746864726177616c000000000000000000000000000000000000000000602082015250565b5f611e71602b83611cdd565b9150611e7c82611e17565b604082019050919050565b5f6020820190508181035f830152611e9e81611e65565b9050919050565b7f57616974696e6720666f72206f70706f6e656e7420746f2072657665616c206f5f8201527f7220646561646c696e6500000000000000000000000000000000000000000000602082015250565b5f611eff602a83611cdd565b9150611f0a82611ea5565b604082019050919050565b5f6020820190508181035f830152611f2c81611ef3565b9050919050565b7f4e487b71000000000000000000000000000000000000000000000000000000005f52602260045260245ffd5b5f6002820490506001821680611f7757607f821691505b602082108103611f8a57611f89611f33565b5b50919050565b7f4e487b71000000000000000000000000000000000000000000000000000000005f52601160045260245ffd5b5f611fc7826118ee565b9150611fd2836118ee565b9250828202611fe0816118ee565b91508282048414831517611ff757611ff6611f90565b5b5092915050565b5f6040820190506120115f830185611d42565b61201e60208301846118f7565b9392505050565b7f57616974696e6720666f7220616e206f70706f6e656e740000000000000000005f82015250565b5f612059601783611cdd565b915061206482612025565b602082019050919050565b5f6020820190508181035f8301526120868161204d565b9050919050565b5f81905092915050565b5f6120a182611cd3565b6120ab818561208d565b93506120bb818560208601611ced565b80840191505092915050565b5f6120d28285612097565b91506120de8284612097565b91508190509392505050565b7f4e6f7420612076616c696420766f7465000000000000000000000000000000005f82015250565b5f61211e601083611cdd565b9150612129826120ea565b602082019050919050565b5f6020820190508181035f83015261214b81612112565b9050919050565b7f4e487b71000000000000000000000000000000000000000000000000000000005f52603260045260245ffd5b5f60ff82169050919050565b5f6121958261217f565b91506121a08361217f565b9250828203905060ff8111156121b9576121b8611f90565b5b92915050565b5f819050815f5260205f209050919050565b5f6020601f8301049050919050565b5f82821b905092915050565b5f6008830261221b7fffffffffffffffffffffffffffffffffffffffffffffffffffffffffffffffff826121e0565b61222586836121e0565b95508019841693508086168417925050509392505050565b5f819050919050565b5f61226061225b612256846118ee565b61223d565b6118ee565b9050919050565b5f819050919050565b61227983612246565b61228d61228582612267565b8484546121ec565b825550505050565b5f90565b6122a1612295565b6122ac818484612270565b505050565b5b818110156122cf576122c45f82612299565b6001810190506122b2565b5050565b601f821115612314576122e5816121bf565b6122ee846121d1565b810160208510156122fd578190505b612311612309856121d1565b8301826122b1565b50505b505050565b5f82821c905092915050565b5f6123345f1984600802612319565b1980831691505092915050565b5f61234c8383612325565b9150826002028217905092915050565b61236582611cd3565b67ffffffffffffffff81111561237e5761237d611a23565b5b6123888254611f60565b6123938282856122d3565b5f60209050601f8311600181146123c4575f84156123b2578287015190505b6123bc8582612341565b865550612423565b601f1984166123d2866121bf565b5f5b828110156123f9578489015182556001820191506020850194506020810190506123d4565b868310156124165784890151612412601f891682612325565b8355505b6001600288020188555050505b505050505050565b5f60408201905061243e5f830185611d42565b81810360208301526124508184611cfb565b90509392505050565b7f596f7520646964206e6f742063686f6f736520726f636b2c207061706572206f5f8201527f722073636973736f727300000000000000000000000000000000000000000000602082015250565b5f6124b3602a83611cdd565b91506124be82612459565b604082019050919050565b5f6020820190508181035f8301526124e0816124a7565b9050919050565b5f6124f28284612097565b915081905092915050565b7f596f752061726520616c726561647920706c6179696e670000000000000000005f82015250565b5f612531601783611cdd565b915061253c826124fd565b602082019050919050565b5f6020820190508181035f83015261255e81612525565b9050919050565b7f546865207374616b65206d7573742062652031204574686572000000000000005f82015250565b5f612599601983611cdd565b91506125a482612565565b602082019050919050565b5f6020820190508181035f8301526125c68161258d565b9050919050565b5f6125d7826118ee565b91506125e2836118ee565b92508282039050818111156125fa576125f9611f90565b5b92915050565b5f61260a826118ee565b9150612615836118ee565b925082820190508082111561262d5761262c611f90565b5b92915050565b7f4e487b71000000000000000000000000000000000000000000000000000000005f52603160045260245ffd5b5f6060820190506126735f830186611d42565b6126806020830185611d42565b61268d60408301846118f7565b949350505050565b5f6040820190506126a85f830185611d42565b6126b56020830184611d33565b939250505056fea2646970667358221220657e7400da66d75fb77cd6fe5b9edff43532d2e5bf280b8d420d100b080de84164736f6c634300081a0033",
					"opcodes": "PUSH1 0x80 PUSH1 0x40 MSTORE PUSH8 0xDE0B6B3A7640000 PUSH1 0x2 SSTORE PUSH2 0x1E0 PUSH1 0x3 SSTORE CALLVALUE DUP1 ISZERO PUSH1 0x20 JUMPI PUSH0 DUP1 REVERT JUMPDEST POP PUSH2 0x26F2 DUP1 PUSH2 0x2E PUSH0 CODECOPY PUSH0 RETURN INVALID PUSH1 0x80 PUSH1 0x40 MSTORE PUSH1 0x4 CALLDATASIZE LT PUSH2 0x85 JUMPI PUSH0 CALLDATALOAD PUSH1 0xE0 SHR DUP1 PUSH4 0xBA829D71 GT PUSH2 0x58 JUMPI DUP1 PUSH4 0xBA829D71 EQ PUSH2 0x121 JUMPI DUP1 PUSH4 0xBED34BBA EQ PUSH2 0x14B JUMPI DUP1 PUSH4 0xC7A1865B EQ PUSH2 0x187 JUMPI DUP1 PUSH4 0xE2EB41FF EQ PUSH2 0x1A3 JUMPI DUP1 PUSH4 0xE71A0706 EQ PUSH2 0x1E3 JUMPI PUSH2 0x85 JUMP JUMPDEST DUP1 PUSH4 0x3A4B66F1 EQ PUSH2 0x89 JUMPI DUP1 PUSH4 0x3CCFD60B EQ PUSH2 0xB3 JUMPI DUP1 PUSH4 0x5BA1B2C7 EQ PUSH2 0xBD JUMPI DUP1 PUSH4 0x943E0A04 EQ PUSH2 0xE5 JUMPI JUMPDEST PUSH0 DUP1 REVERT JUMPDEST CALLVALUE DUP1 ISZERO PUSH2 0x94 JUMPI PUSH0 DUP1 REVERT JUMPDEST POP PUSH2 0x9D PUSH2 0x21F JUMP JUMPDEST PUSH1 0x40 MLOAD PUSH2 0xAA SWAP2 SWAP1 PUSH2 0x1906 JUMP JUMPDEST PUSH1 0x40 MLOAD DUP1 SWAP2 SUB SWAP1 RETURN JUMPDEST PUSH2 0xBB PUSH2 0x225 JUMP JUMPDEST STOP JUMPDEST CALLVALUE DUP1 ISZERO PUSH2 0xC8 JUMPI PUSH0 DUP1 REVERT JUMPDEST POP PUSH2 0xE3 PUSH1 0x4 DUP1 CALLDATASIZE SUB DUP2 ADD SWAP1 PUSH2 0xDE SWAP2 SWAP1 PUSH2 0x1991 JUMP JUMPDEST PUSH2 0xA8D JUMP JUMPDEST STOP JUMPDEST CALLVALUE DUP1 ISZERO PUSH2 0xF0 JUMPI PUSH0 DUP1 REVERT JUMPDEST POP PUSH2 0x10B PUSH1 0x4 DUP1 CALLDATASIZE SUB DUP2 ADD SWAP1 PUSH2 0x106 SWAP2 SWAP1 PUSH2 0x1B47 JUMP JUMPDEST PUSH2 0xEC9 JUMP JUMPDEST PUSH1 0x40 MLOAD PUSH2 0x118 SWAP2 SWAP1 PUSH2 0x1BD7 JUMP JUMPDEST PUSH1 0x40 MLOAD DUP1 SWAP2 SUB SWAP1 RETURN JUMPDEST CALLVALUE DUP1 ISZERO PUSH2 0x12C JUMPI PUSH0 DUP1 REVERT JUMPDEST POP PUSH2 0x135 PUSH2 0x11D0 JUMP JUMPDEST PUSH1 0x40 MLOAD PUSH2 0x142 SWAP2 SWAP1 PUSH2 0x1906 JUMP JUMPDEST PUSH1 0x40 MLOAD DUP1 SWAP2 SUB SWAP1 RETURN JUMPDEST CALLVALUE DUP1 ISZERO PUSH2 0x156 JUMPI PUSH0 DUP1 REVERT JUMPDEST POP PUSH2 0x171 PUSH1 0x4 DUP1 CALLDATASIZE SUB DUP2 ADD SWAP1 PUSH2 0x16C SWAP2 SWAP1 PUSH2 0x1B47 JUMP JUMPDEST PUSH2 0x11D6 JUMP JUMPDEST PUSH1 0x40 MLOAD PUSH2 0x17E SWAP2 SWAP1 PUSH2 0x1BD7 JUMP JUMPDEST PUSH1 0x40 MLOAD DUP1 SWAP2 SUB SWAP1 RETURN JUMPDEST PUSH2 0x1A1 PUSH1 0x4 DUP1 CALLDATASIZE SUB DUP2 ADD SWAP1 PUSH2 0x19C SWAP2 SWAP1 PUSH2 0x1C23 JUMP JUMPDEST PUSH2 0x122E JUMP JUMPDEST STOP JUMPDEST CALLVALUE DUP1 ISZERO PUSH2 0x1AE JUMPI PUSH0 DUP1 REVERT JUMPDEST POP PUSH2 0x1C9 PUSH1 0x4 DUP1 CALLDATASIZE SUB DUP2 ADD SWAP1 PUSH2 0x1C4 SWAP2 SWAP1 PUSH2 0x1CA8 JUMP JUMPDEST PUSH2 0x1778 JUMP JUMPDEST PUSH1 0x40 MLOAD PUSH2 0x1DA SWAP6 SWAP5 SWAP4 SWAP3 SWAP2 SWAP1 PUSH2 0x1D51 JUMP JUMPDEST PUSH1 0x40 MLOAD DUP1 SWAP2 SUB SWAP1 RETURN JUMPDEST CALLVALUE DUP1 ISZERO PUSH2 0x1EE JUMPI PUSH0 DUP1 REVERT JUMPDEST POP PUSH2 0x209 PUSH1 0x4 DUP1 CALLDATASIZE SUB DUP2 ADD SWAP1 PUSH2 0x204 SWAP2 SWAP1 PUSH2 0x1DD3 JUMP JUMPDEST PUSH2 0x185B JUMP JUMPDEST PUSH1 0x40 MLOAD PUSH2 0x216 SWAP2 SWAP1 PUSH2 0x1DFE JUMP JUMPDEST PUSH1 0x40 MLOAD DUP1 SWAP2 SUB SWAP1 RETURN JUMPDEST PUSH1 0x2 SLOAD DUP2 JUMP JUMPDEST PUSH0 DUP1 CALLER PUSH20 0xFFFFFFFFFFFFFFFFFFFFFFFFFFFFFFFFFFFFFFFF AND PUSH20 0xFFFFFFFFFFFFFFFFFFFFFFFFFFFFFFFFFFFFFFFF AND DUP2 MSTORE PUSH1 0x20 ADD SWAP1 DUP2 MSTORE PUSH1 0x20 ADD PUSH0 KECCAK256 PUSH1 0x2 ADD PUSH0 SWAP1 SLOAD SWAP1 PUSH2 0x100 EXP SWAP1 DIV PUSH1 0xFF AND PUSH2 0x2B0 JUMPI PUSH1 0x40 MLOAD PUSH32 0x8C379A000000000000000000000000000000000000000000000000000000000 DUP2 MSTORE PUSH1 0x4 ADD PUSH2 0x2A7 SWAP1 PUSH2 0x1E87 JUMP JUMPDEST PUSH1 0x40 MLOAD DUP1 SWAP2 SUB SWAP1 REVERT JUMPDEST PUSH0 DUP1 CALLER PUSH20 0xFFFFFFFFFFFFFFFFFFFFFFFFFFFFFFFFFFFFFFFF AND PUSH20 0xFFFFFFFFFFFFFFFFFFFFFFFFFFFFFFFFFFFFFFFF AND DUP2 MSTORE PUSH1 0x20 ADD SWAP1 DUP2 MSTORE PUSH1 0x20 ADD PUSH0 KECCAK256 PUSH1 0x3 ADD SLOAD TIMESTAMP LT ISZERO DUP1 PUSH2 0x3A5 JUMPI POP PUSH0 DUP1 DUP1 PUSH0 CALLER PUSH20 0xFFFFFFFFFFFFFFFFFFFFFFFFFFFFFFFFFFFFFFFF AND PUSH20 0xFFFFFFFFFFFFFFFFFFFFFFFFFFFFFFFFFFFFFFFF AND DUP2 MSTORE PUSH1 0x20 ADD SWAP1 DUP2 MSTORE PUSH1 0x20 ADD PUSH0 KECCAK256 PUSH1 0x2 ADD PUSH1 0x1 SWAP1 SLOAD SWAP1 PUSH2 0x100 EXP SWAP1 DIV PUSH20 0xFFFFFFFFFFFFFFFFFFFFFFFFFFFFFFFFFFFFFFFF AND PUSH20 0xFFFFFFFFFFFFFFFFFFFFFFFFFFFFFFFFFFFFFFFF AND PUSH20 0xFFFFFFFFFFFFFFFFFFFFFFFFFFFFFFFFFFFFFFFF AND DUP2 MSTORE PUSH1 0x20 ADD SWAP1 DUP2 MSTORE PUSH1 0x20 ADD PUSH0 KECCAK256 PUSH1 0x2 ADD PUSH0 SWAP1 SLOAD SWAP1 PUSH2 0x100 EXP SWAP1 DIV PUSH1 0xFF AND JUMPDEST PUSH2 0x3E4 JUMPI PUSH1 0x40 MLOAD PUSH32 0x8C379A000000000000000000000000000000000000000000000000000000000 DUP2 MSTORE PUSH1 0x4 ADD PUSH2 0x3DB SWAP1 PUSH2 0x1F15 JUMP JUMPDEST PUSH1 0x40 MLOAD DUP1 SWAP2 SUB SWAP1 REVERT JUMPDEST PUSH0 DUP1 PUSH0 CALLER PUSH20 0xFFFFFFFFFFFFFFFFFFFFFFFFFFFFFFFFFFFFFFFF AND PUSH20 0xFFFFFFFFFFFFFFFFFFFFFFFFFFFFFFFFFFFFFFFF AND DUP2 MSTORE PUSH1 0x20 ADD SWAP1 DUP2 MSTORE PUSH1 0x20 ADD PUSH0 KECCAK256 PUSH1 0x2 ADD PUSH1 0x1 SWAP1 SLOAD SWAP1 PUSH2 0x100 EXP SWAP1 DIV PUSH20 0xFFFFFFFFFFFFFFFFFFFFFFFFFFFFFFFFFFFFFFFF AND SWAP1 POP PUSH0 DUP1 PUSH0 CALLER PUSH20 0xFFFFFFFFFFFFFFFFFFFFFFFFFFFFFFFFFFFFFFFF AND PUSH20 0xFFFFFFFFFFFFFFFFFFFFFFFFFFFFFFFFFFFFFFFF AND DUP2 MSTORE PUSH1 0x20 ADD SWAP1 DUP2 MSTORE PUSH1 0x20 ADD PUSH0 KECCAK256 PUSH0 ADD DUP1 SLOAD PUSH2 0x491 SWAP1 PUSH2 0x1F60 JUMP JUMPDEST DUP1 PUSH1 0x1F ADD PUSH1 0x20 DUP1 SWAP2 DIV MUL PUSH1 0x20 ADD PUSH1 0x40 MLOAD SWAP1 DUP2 ADD PUSH1 0x40 MSTORE DUP1 SWAP3 SWAP2 SWAP1 DUP2 DUP2 MSTORE PUSH1 0x20 ADD DUP3 DUP1 SLOAD PUSH2 0x4BD SWAP1 PUSH2 0x1F60 JUMP JUMPDEST DUP1 ISZERO PUSH2 0x508 JUMPI DUP1 PUSH1 0x1F LT PUSH2 0x4DF JUMPI PUSH2 0x100 DUP1 DUP4 SLOAD DIV MUL DUP4 MSTORE SWAP2 PUSH1 0x20 ADD SWAP2 PUSH2 0x508 JUMP JUMPDEST DUP3 ADD SWAP2 SWAP1 PUSH0 MSTORE PUSH1 0x20 PUSH0 KECCAK256 SWAP1 JUMPDEST DUP2 SLOAD DUP2 MSTORE SWAP1 PUSH1 0x1 ADD SWAP1 PUSH1 0x20 ADD DUP1 DUP4 GT PUSH2 0x4EB JUMPI DUP3 SWAP1 SUB PUSH1 0x1F AND DUP3 ADD SWAP2 JUMPDEST POP POP POP POP POP SWAP1 POP PUSH0 DUP1 PUSH0 DUP5 PUSH20 0xFFFFFFFFFFFFFFFFFFFFFFFFFFFFFFFFFFFFFFFF AND PUSH20 0xFFFFFFFFFFFFFFFFFFFFFFFFFFFFFFFFFFFFFFFF AND DUP2 MSTORE PUSH1 0x20 ADD SWAP1 DUP2 MSTORE PUSH1 0x20 ADD PUSH0 KECCAK256 PUSH0 ADD DUP1 SLOAD PUSH2 0x559 SWAP1 PUSH2 0x1F60 JUMP JUMPDEST DUP1 PUSH1 0x1F ADD PUSH1 0x20 DUP1 SWAP2 DIV MUL PUSH1 0x20 ADD PUSH1 0x40 MLOAD SWAP1 DUP2 ADD PUSH1 0x40 MSTORE DUP1 SWAP3 SWAP2 SWAP1 DUP2 DUP2 MSTORE PUSH1 0x20 ADD DUP3 DUP1 SLOAD PUSH2 0x585 SWAP1 PUSH2 0x1F60 JUMP JUMPDEST DUP1 ISZERO PUSH2 0x5D0 JUMPI DUP1 PUSH1 0x1F LT PUSH2 0x5A7 JUMPI PUSH2 0x100 DUP1 DUP4 SLOAD DIV MUL DUP4 MSTORE SWAP2 PUSH1 0x20 ADD SWAP2 PUSH2 0x5D0 JUMP JUMPDEST DUP3 ADD SWAP2 SWAP1 PUSH0 MSTORE PUSH1 0x20 PUSH0 KECCAK256 SWAP1 JUMPDEST DUP2 SLOAD DUP2 MSTORE SWAP1 PUSH1 0x1 ADD SWAP1 PUSH1 0x20 ADD DUP1 DUP4 GT PUSH2 0x5B3 JUMPI DUP3 SWAP1 SUB PUSH1 0x1F AND DUP3 ADD SWAP2 JUMPDEST POP POP POP POP POP SWAP1 POP PUSH2 0x5E1 DUP3 DUP3 PUSH2 0xEC9 JUMP JUMPDEST DUP1 PUSH2 0x680 JUMPI POP PUSH0 DUP1 CALLER PUSH20 0xFFFFFFFFFFFFFFFFFFFFFFFFFFFFFFFFFFFFFFFF AND PUSH20 0xFFFFFFFFFFFFFFFFFFFFFFFFFFFFFFFFFFFFFFFF AND DUP2 MSTORE PUSH1 0x20 ADD SWAP1 DUP2 MSTORE PUSH1 0x20 ADD PUSH0 KECCAK256 PUSH1 0x3 ADD SLOAD TIMESTAMP LT ISZERO DUP1 ISZERO PUSH2 0x67F JUMPI POP PUSH0 DUP1 DUP5 PUSH20 0xFFFFFFFFFFFFFFFFFFFFFFFFFFFFFFFFFFFFFFFF AND PUSH20 0xFFFFFFFFFFFFFFFFFFFFFFFFFFFFFFFFFFFFFFFF AND DUP2 MSTORE PUSH1 0x20 ADD SWAP1 DUP2 MSTORE PUSH1 0x20 ADD PUSH0 KECCAK256 PUSH1 0x2 ADD PUSH0 SWAP1 SLOAD SWAP1 PUSH2 0x100 EXP SWAP1 DIV PUSH1 0xFF AND ISZERO JUMPDEST JUMPDEST ISZERO PUSH2 0x84B JUMPI CALLER PUSH20 0xFFFFFFFFFFFFFFFFFFFFFFFFFFFFFFFFFFFFFFFF AND PUSH2 0x8FC PUSH1 0x2 DUP1 SLOAD PUSH2 0x6AD SWAP2 SWAP1 PUSH2 0x1FBD JUMP JUMPDEST SWAP1 DUP2 ISZERO MUL SWAP1 PUSH1 0x40 MLOAD PUSH0 PUSH1 0x40 MLOAD DUP1 DUP4 SUB DUP2 DUP6 DUP9 DUP9 CALL SWAP4 POP POP POP POP ISZERO DUP1 ISZERO PUSH2 0x6D5 JUMPI RETURNDATASIZE PUSH0 DUP1 RETURNDATACOPY RETURNDATASIZE PUSH0 REVERT JUMPDEST POP PUSH0 DUP1 CALLER PUSH20 0xFFFFFFFFFFFFFFFFFFFFFFFFFFFFFFFFFFFFFFFF AND PUSH20 0xFFFFFFFFFFFFFFFFFFFFFFFFFFFFFFFFFFFFFFFF AND DUP2 MSTORE PUSH1 0x20 ADD SWAP1 DUP2 MSTORE PUSH1 0x20 ADD PUSH0 KECCAK256 PUSH0 DUP1 DUP3 ADD PUSH0 PUSH2 0x721 SWAP2 SWAP1 PUSH2 0x1896 JUMP JUMPDEST PUSH1 0x1 DUP3 ADD PUSH0 SWAP1 SSTORE PUSH1 0x2 DUP3 ADD PUSH0 PUSH2 0x100 EXP DUP2 SLOAD SWAP1 PUSH1 0xFF MUL NOT AND SWAP1 SSTORE PUSH1 0x2 DUP3 ADD PUSH1 0x1 PUSH2 0x100 EXP DUP2 SLOAD SWAP1 PUSH20 0xFFFFFFFFFFFFFFFFFFFFFFFFFFFFFFFFFFFFFFFF MUL NOT AND SWAP1 SSTORE PUSH1 0x3 DUP3 ADD PUSH0 SWAP1 SSTORE POP POP PUSH0 DUP1 DUP5 PUSH20 0xFFFFFFFFFFFFFFFFFFFFFFFFFFFFFFFFFFFFFFFF AND PUSH20 0xFFFFFFFFFFFFFFFFFFFFFFFFFFFFFFFFFFFFFFFF AND DUP2 MSTORE PUSH1 0x20 ADD SWAP1 DUP2 MSTORE PUSH1 0x20 ADD PUSH0 KECCAK256 PUSH0 DUP1 DUP3 ADD PUSH0 PUSH2 0x7B6 SWAP2 SWAP1 PUSH2 0x1896 JUMP JUMPDEST PUSH1 0x1 DUP3 ADD PUSH0 SWAP1 SSTORE PUSH1 0x2 DUP3 ADD PUSH0 PUSH2 0x100 EXP DUP2 SLOAD SWAP1 PUSH1 0xFF MUL NOT AND SWAP1 SSTORE PUSH1 0x2 DUP3 ADD PUSH1 0x1 PUSH2 0x100 EXP DUP2 SLOAD SWAP1 PUSH20 0xFFFFFFFFFFFFFFFFFFFFFFFFFFFFFFFFFFFFFFFF MUL NOT AND SWAP1 SSTORE PUSH1 0x3 DUP3 ADD PUSH0 SWAP1 SSTORE POP POP PUSH32 0x884EDAD9CE6FA2440D8A54CC123490EB96D2768479D49FF9C7366125A9424364 CALLER PUSH1 0x2 DUP1 SLOAD PUSH2 0x830 SWAP2 SWAP1 PUSH2 0x1FBD JUMP JUMPDEST PUSH1 0x40 MLOAD PUSH2 0x83E SWAP3 SWAP2 SWAP1 PUSH2 0x1FFE JUMP JUMPDEST PUSH1 0x40 MLOAD DUP1 SWAP2 SUB SWAP1 LOG1 PUSH2 0xA88 JUMP JUMPDEST PUSH2 0x855 DUP3 DUP3 PUSH2 0x11D6 JUMP JUMPDEST ISZERO PUSH2 0xA87 JUMPI CALLER PUSH20 0xFFFFFFFFFFFFFFFFFFFFFFFFFFFFFFFFFFFFFFFF AND PUSH2 0x8FC PUSH1 0x2 SLOAD SWAP1 DUP2 ISZERO MUL SWAP1 PUSH1 0x40 MLOAD PUSH0 PUSH1 0x40 MLOAD DUP1 DUP4 SUB DUP2 DUP6 DUP9 DUP9 CALL SWAP4 POP POP POP POP ISZERO DUP1 ISZERO PUSH2 0x89F JUMPI RETURNDATASIZE PUSH0 DUP1 RETURNDATACOPY RETURNDATASIZE PUSH0 REVERT JUMPDEST POP DUP3 PUSH20 0xFFFFFFFFFFFFFFFFFFFFFFFFFFFFFFFFFFFFFFFF AND PUSH2 0x8FC PUSH1 0x2 SLOAD SWAP1 DUP2 ISZERO MUL SWAP1 PUSH1 0x40 MLOAD PUSH0 PUSH1 0x40 MLOAD DUP1 DUP4 SUB DUP2 DUP6 DUP9 DUP9 CALL SWAP4 POP POP POP POP ISZERO DUP1 ISZERO PUSH2 0x8E5 JUMPI RETURNDATASIZE PUSH0 DUP1 RETURNDATACOPY RETURNDATASIZE PUSH0 REVERT JUMPDEST POP PUSH0 DUP1 CALLER PUSH20 0xFFFFFFFFFFFFFFFFFFFFFFFFFFFFFFFFFFFFFFFF AND PUSH20 0xFFFFFFFFFFFFFFFFFFFFFFFFFFFFFFFFFFFFFFFF AND DUP2 MSTORE PUSH1 0x20 ADD SWAP1 DUP2 MSTORE PUSH1 0x20 ADD PUSH0 KECCAK256 PUSH0 DUP1 DUP3 ADD PUSH0 PUSH2 0x931 SWAP2 SWAP1 PUSH2 0x1896 JUMP JUMPDEST PUSH1 0x1 DUP3 ADD PUSH0 SWAP1 SSTORE PUSH1 0x2 DUP3 ADD PUSH0 PUSH2 0x100 EXP DUP2 SLOAD SWAP1 PUSH1 0xFF MUL NOT AND SWAP1 SSTORE PUSH1 0x2 DUP3 ADD PUSH1 0x1 PUSH2 0x100 EXP DUP2 SLOAD SWAP1 PUSH20 0xFFFFFFFFFFFFFFFFFFFFFFFFFFFFFFFFFFFFFFFF MUL NOT AND SWAP1 SSTORE PUSH1 0x3 DUP3 ADD PUSH0 SWAP1 SSTORE POP POP PUSH0 DUP1 DUP5 PUSH20 0xFFFFFFFFFFFFFFFFFFFFFFFFFFFFFFFFFFFFFFFF AND PUSH20 0xFFFFFFFFFFFFFFFFFFFFFFFFFFFFFFFFFFFFFFFF AND DUP2 MSTORE PUSH1 0x20 ADD SWAP1 DUP2 MSTORE PUSH1 0x20 ADD PUSH0 KECCAK256 PUSH0 DUP1 DUP3 ADD PUSH0 PUSH2 0x9C6 SWAP2 SWAP1 PUSH2 0x1896 JUMP JUMPDEST PUSH1 0x1 DUP3 ADD PUSH0 SWAP1 SSTORE PUSH1 0x2 DUP3 ADD PUSH0 PUSH2 0x100 EXP DUP2 SLOAD SWAP1 PUSH1 0xFF MUL NOT AND SWAP1 SSTORE PUSH1 0x2 DUP3 ADD PUSH1 0x1 PUSH2 0x100 EXP DUP2 SLOAD SWAP1 PUSH20 0xFFFFFFFFFFFFFFFFFFFFFFFFFFFFFFFFFFFFFFFF MUL NOT AND SWAP1 SSTORE PUSH1 0x3 DUP3 ADD PUSH0 SWAP1 SSTORE POP POP PUSH32 0x884EDAD9CE6FA2440D8A54CC123490EB96D2768479D49FF9C7366125A9424364 CALLER PUSH1 0x2 SLOAD PUSH1 0x40 MLOAD PUSH2 0xA43 SWAP3 SWAP2 SWAP1 PUSH2 0x1FFE JUMP JUMPDEST PUSH1 0x40 MLOAD DUP1 SWAP2 SUB SWAP1 LOG1 PUSH32 0x884EDAD9CE6FA2440D8A54CC123490EB96D2768479D49FF9C7366125A9424364 DUP4 PUSH1 0x2 SLOAD PUSH1 0x40 MLOAD PUSH2 0xA7E SWAP3 SWAP2 SWAP1 PUSH2 0x1FFE JUMP JUMPDEST PUSH1 0x40 MLOAD DUP1 SWAP2 SUB SWAP1 LOG1 JUMPDEST JUMPDEST POP POP POP JUMP JUMPDEST PUSH0 PUSH20 0xFFFFFFFFFFFFFFFFFFFFFFFFFFFFFFFFFFFFFFFF AND PUSH0 DUP1 CALLER PUSH20 0xFFFFFFFFFFFFFFFFFFFFFFFFFFFFFFFFFFFFFFFF AND PUSH20 0xFFFFFFFFFFFFFFFFFFFFFFFFFFFFFFFFFFFFFFFF AND DUP2 MSTORE PUSH1 0x20 ADD SWAP1 DUP2 MSTORE PUSH1 0x20 ADD PUSH0 KECCAK256 PUSH1 0x2 ADD PUSH1 0x1 SWAP1 SLOAD SWAP1 PUSH2 0x100 EXP SWAP1 DIV PUSH20 0xFFFFFFFFFFFFFFFFFFFFFFFFFFFFFFFFFFFFFFFF AND PUSH20 0xFFFFFFFFFFFFFFFFFFFFFFFFFFFFFFFFFFFFFFFF AND SUB PUSH2 0xB5A JUMPI PUSH1 0x40 MLOAD PUSH32 0x8C379A000000000000000000000000000000000000000000000000000000000 DUP2 MSTORE PUSH1 0x4 ADD PUSH2 0xB51 SWAP1 PUSH2 0x206F JUMP JUMPDEST PUSH1 0x40 MLOAD DUP1 SWAP2 SUB SWAP1 REVERT JUMPDEST DUP4 DUP4 DUP1 DUP1 PUSH1 0x1F ADD PUSH1 0x20 DUP1 SWAP2 DIV MUL PUSH1 0x20 ADD PUSH1 0x40 MLOAD SWAP1 DUP2 ADD PUSH1 0x40 MSTORE DUP1 SWAP4 SWAP3 SWAP2 SWAP1 DUP2 DUP2 MSTORE PUSH1 0x20 ADD DUP4 DUP4 DUP1 DUP3 DUP5 CALLDATACOPY PUSH0 DUP2 DUP5 ADD MSTORE PUSH1 0x1F NOT PUSH1 0x1F DUP3 ADD AND SWAP1 POP DUP1 DUP4 ADD SWAP3 POP POP POP POP POP POP POP DUP3 DUP3 DUP1 DUP1 PUSH1 0x1F ADD PUSH1 0x20 DUP1 SWAP2 DIV MUL PUSH1 0x20 ADD PUSH1 0x40 MLOAD SWAP1 DUP2 ADD PUSH1 0x40 MSTORE DUP1 SWAP4 SWAP3 SWAP2 SWAP1 DUP2 DUP2 MSTORE PUSH1 0x20 ADD DUP4 DUP4 DUP1 DUP3 DUP5 CALLDATACOPY PUSH0 DUP2 DUP5 ADD MSTORE PUSH1 0x1F NOT PUSH1 0x1F DUP3 ADD AND SWAP1 POP DUP1 DUP4 ADD SWAP3 POP POP POP POP POP POP POP PUSH0 DUP3 DUP3 PUSH1 0x40 MLOAD PUSH1 0x20 ADD PUSH2 0xBF6 SWAP3 SWAP2 SWAP1 PUSH2 0x20C7 JUMP JUMPDEST PUSH1 0x40 MLOAD PUSH1 0x20 DUP2 DUP4 SUB SUB DUP2 MSTORE SWAP1 PUSH1 0x40 MSTORE DUP1 MLOAD SWAP1 PUSH1 0x20 ADD KECCAK256 SWAP1 POP DUP1 PUSH0 DUP1 CALLER PUSH20 0xFFFFFFFFFFFFFFFFFFFFFFFFFFFFFFFFFFFFFFFF AND PUSH20 0xFFFFFFFFFFFFFFFFFFFFFFFFFFFFFFFFFFFFFFFF AND DUP2 MSTORE PUSH1 0x20 ADD SWAP1 DUP2 MSTORE PUSH1 0x20 ADD PUSH0 KECCAK256 PUSH1 0x1 ADD SLOAD EQ PUSH2 0xC8F JUMPI PUSH1 0x40 MLOAD PUSH32 0x8C379A000000000000000000000000000000000000000000000000000000000 DUP2 MSTORE PUSH1 0x4 ADD PUSH2 0xC86 SWAP1 PUSH2 0x2134 JUMP JUMPDEST PUSH1 0x40 MLOAD DUP1 SWAP2 SUB SWAP1 REVERT JUMPDEST PUSH0 DUP8 DUP8 DUP1 DUP1 PUSH1 0x1F ADD PUSH1 0x20 DUP1 SWAP2 DIV MUL PUSH1 0x20 ADD PUSH1 0x40 MLOAD SWAP1 DUP2 ADD PUSH1 0x40 MSTORE DUP1 SWAP4 SWAP3 SWAP2 SWAP1 DUP2 DUP2 MSTORE PUSH1 0x20 ADD DUP4 DUP4 DUP1 DUP3 DUP5 CALLDATACOPY PUSH0 DUP2 DUP5 ADD MSTORE PUSH1 0x1F NOT PUSH1 0x1F DUP3 ADD AND SWAP1 POP DUP1 DUP4 ADD SWAP3 POP POP POP POP POP POP POP SWAP1 POP PUSH1 0x61 PUSH1 0xF8 SHL DUP2 PUSH0 DUP2 MLOAD DUP2 LT PUSH2 0xCEE JUMPI PUSH2 0xCED PUSH2 0x2152 JUMP JUMPDEST JUMPDEST PUSH1 0x20 ADD ADD MLOAD PUSH1 0xF8 SHR PUSH1 0xF8 SHL PUSH31 0xFFFFFFFFFFFFFFFFFFFFFFFFFFFFFFFFFFFFFFFFFFFFFFFFFFFFFFFFFFFFFF NOT AND LT ISZERO DUP1 ISZERO PUSH2 0xD6C JUMPI POP PUSH1 0x7A PUSH1 0xF8 SHL DUP2 PUSH0 DUP2 MLOAD DUP2 LT PUSH2 0xD3C JUMPI PUSH2 0xD3B PUSH2 0x2152 JUMP JUMPDEST JUMPDEST PUSH1 0x20 ADD ADD MLOAD PUSH1 0xF8 SHR PUSH1 0xF8 SHL PUSH31 0xFFFFFFFFFFFFFFFFFFFFFFFFFFFFFFFFFFFFFFFFFFFFFFFFFFFFFFFFFFFFFF NOT AND GT ISZERO JUMPDEST ISZERO PUSH2 0xDE3 JUMPI PUSH1 0x20 DUP2 PUSH0 DUP2 MLOAD DUP2 LT PUSH2 0xD86 JUMPI PUSH2 0xD85 PUSH2 0x2152 JUMP JUMPDEST JUMPDEST PUSH1 0x20 ADD ADD MLOAD PUSH1 0xF8 SHR PUSH1 0xF8 SHL PUSH1 0xF8 SHR PUSH2 0xD9E SWAP2 SWAP1 PUSH2 0x218B JUMP JUMPDEST PUSH1 0xF8 SHL DUP2 PUSH0 DUP2 MLOAD DUP2 LT PUSH2 0xDB4 JUMPI PUSH2 0xDB3 PUSH2 0x2152 JUMP JUMPDEST JUMPDEST PUSH1 0x20 ADD ADD SWAP1 PUSH31 0xFFFFFFFFFFFFFFFFFFFFFFFFFFFFFFFFFFFFFFFFFFFFFFFFFFFFFFFFFFFFFF NOT AND SWAP1 DUP2 PUSH0 BYTE SWAP1 MSTORE8 POP JUMPDEST PUSH1 0x1 PUSH0 DUP1 CALLER PUSH20 0xFFFFFFFFFFFFFFFFFFFFFFFFFFFFFFFFFFFFFFFF AND PUSH20 0xFFFFFFFFFFFFFFFFFFFFFFFFFFFFFFFFFFFFFFFF AND DUP2 MSTORE PUSH1 0x20 ADD SWAP1 DUP2 MSTORE PUSH1 0x20 ADD PUSH0 KECCAK256 PUSH1 0x2 ADD PUSH0 PUSH2 0x100 EXP DUP2 SLOAD DUP2 PUSH1 0xFF MUL NOT AND SWAP1 DUP4 ISZERO ISZERO MUL OR SWAP1 SSTORE POP DUP1 PUSH0 DUP1 CALLER PUSH20 0xFFFFFFFFFFFFFFFFFFFFFFFFFFFFFFFFFFFFFFFF AND PUSH20 0xFFFFFFFFFFFFFFFFFFFFFFFFFFFFFFFFFFFFFFFF AND DUP2 MSTORE PUSH1 0x20 ADD SWAP1 DUP2 MSTORE PUSH1 0x20 ADD PUSH0 KECCAK256 PUSH0 ADD SWAP1 DUP2 PUSH2 0xE85 SWAP2 SWAP1 PUSH2 0x235C JUMP JUMPDEST POP PUSH32 0x4ABF1A182C97C99CBF9798006458C948C47DF72ED150BA8A3C04389C3EF93776 CALLER DUP3 PUSH1 0x40 MLOAD PUSH2 0xEB7 SWAP3 SWAP2 SWAP1 PUSH2 0x242B JUMP JUMPDEST PUSH1 0x40 MLOAD DUP1 SWAP2 SUB SWAP1 LOG1 POP POP POP POP POP POP POP POP JUMP JUMPDEST PUSH0 DUP3 PUSH2 0xF0A DUP2 PUSH1 0x40 MLOAD DUP1 PUSH1 0x40 ADD PUSH1 0x40 MSTORE DUP1 PUSH1 0x1 DUP2 MSTORE PUSH1 0x20 ADD PUSH32 0x5200000000000000000000000000000000000000000000000000000000000000 DUP2 MSTORE POP PUSH2 0x11D6 JUMP JUMPDEST DUP1 PUSH2 0xF50 JUMPI POP PUSH2 0xF4F DUP2 PUSH1 0x40 MLOAD DUP1 PUSH1 0x40 ADD PUSH1 0x40 MSTORE DUP1 PUSH1 0x1 DUP2 MSTORE PUSH1 0x20 ADD PUSH32 0x5000000000000000000000000000000000000000000000000000000000000000 DUP2 MSTORE POP PUSH2 0x11D6 JUMP JUMPDEST JUMPDEST DUP1 PUSH2 0xF96 JUMPI POP PUSH2 0xF95 DUP2 PUSH1 0x40 MLOAD DUP1 PUSH1 0x40 ADD PUSH1 0x40 MSTORE DUP1 PUSH1 0x1 DUP2 MSTORE PUSH1 0x20 ADD PUSH32 0x5300000000000000000000000000000000000000000000000000000000000000 DUP2 MSTORE POP PUSH2 0x11D6 JUMP JUMPDEST JUMPDEST PUSH2 0xFD5 JUMPI PUSH1 0x40 MLOAD PUSH32 0x8C379A000000000000000000000000000000000000000000000000000000000 DUP2 MSTORE PUSH1 0x4 ADD PUSH2 0xFCC SWAP1 PUSH2 0x24C9 JUMP JUMPDEST PUSH1 0x40 MLOAD DUP1 SWAP2 SUB SWAP1 REVERT JUMPDEST PUSH2 0xFDF DUP5 DUP5 PUSH2 0x11D6 JUMP JUMPDEST DUP1 PUSH2 0xFFE JUMPI POP PUSH2 0xFFD DUP4 PUSH1 0x40 MLOAD DUP1 PUSH1 0x20 ADD PUSH1 0x40 MSTORE DUP1 PUSH0 DUP2 MSTORE POP PUSH2 0x11D6 JUMP JUMPDEST JUMPDEST ISZERO PUSH2 0x100B JUMPI PUSH0 SWAP2 POP PUSH2 0x11C9 JUMP JUMPDEST PUSH2 0x104A DUP5 PUSH1 0x40 MLOAD DUP1 PUSH1 0x40 ADD PUSH1 0x40 MSTORE DUP1 PUSH1 0x1 DUP2 MSTORE PUSH1 0x20 ADD PUSH32 0x5200000000000000000000000000000000000000000000000000000000000000 DUP2 MSTORE POP PUSH2 0x11D6 JUMP JUMPDEST DUP1 ISZERO PUSH2 0x1091 JUMPI POP PUSH2 0x1090 DUP4 PUSH1 0x40 MLOAD DUP1 PUSH1 0x40 ADD PUSH1 0x40 MSTORE DUP1 PUSH1 0x1 DUP2 MSTORE PUSH1 0x20 ADD PUSH32 0x5000000000000000000000000000000000000000000000000000000000000000 DUP2 MSTORE POP PUSH2 0x11D6 JUMP JUMPDEST JUMPDEST ISZERO PUSH2 0x109E JUMPI PUSH0 SWAP2 POP PUSH2 0x11C9 JUMP JUMPDEST PUSH2 0x10DD DUP5 PUSH1 0x40 MLOAD DUP1 PUSH1 0x40 ADD PUSH1 0x40 MSTORE DUP1 PUSH1 0x1 DUP2 MSTORE PUSH1 0x20 ADD PUSH32 0x5000000000000000000000000000000000000000000000000000000000000000 DUP2 MSTORE POP PUSH2 0x11D6 JUMP JUMPDEST DUP1 ISZERO PUSH2 0x1124 JUMPI POP PUSH2 0x1123 DUP4 PUSH1 0x40 MLOAD DUP1 PUSH1 0x40 ADD PUSH1 0x40 MSTORE DUP1 PUSH1 0x1 DUP2 MSTORE PUSH1 0x20 ADD PUSH32 0x5300000000000000000000000000000000000000000000000000000000000000 DUP2 MSTORE POP PUSH2 0x11D6 JUMP JUMPDEST JUMPDEST ISZERO PUSH2 0x1131 JUMPI PUSH0 SWAP2 POP PUSH2 0x11C9 JUMP JUMPDEST PUSH2 0x1170 DUP5 PUSH1 0x40 MLOAD DUP1 PUSH1 0x40 ADD PUSH1 0x40 MSTORE DUP1 PUSH1 0x1 DUP2 MSTORE PUSH1 0x20 ADD PUSH32 0x5300000000000000000000000000000000000000000000000000000000000000 DUP2 MSTORE POP PUSH2 0x11D6 JUMP JUMPDEST DUP1 ISZERO PUSH2 0x11B7 JUMPI POP PUSH2 0x11B6 DUP4 PUSH1 0x40 MLOAD DUP1 PUSH1 0x40 ADD PUSH1 0x40 MSTORE DUP1 PUSH1 0x1 DUP2 MSTORE PUSH1 0x20 ADD PUSH32 0x5200000000000000000000000000000000000000000000000000000000000000 DUP2 MSTORE POP PUSH2 0x11D6 JUMP JUMPDEST JUMPDEST ISZERO PUSH2 0x11C4 JUMPI PUSH0 SWAP2 POP PUSH2 0x11C9 JUMP JUMPDEST PUSH1 0x1 SWAP2 POP JUMPDEST POP SWAP3 SWAP2 POP POP JUMP JUMPDEST PUSH1 0x3 SLOAD DUP2 JUMP JUMPDEST PUSH0 DUP2 PUSH1 0x40 MLOAD PUSH1 0x20 ADD PUSH2 0x11E8 SWAP2 SWAP1 PUSH2 0x24E7 JUMP JUMPDEST PUSH1 0x40 MLOAD PUSH1 0x20 DUP2 DUP4 SUB SUB DUP2 MSTORE SWAP1 PUSH1 0x40 MSTORE DUP1 MLOAD SWAP1 PUSH1 0x20 ADD KECCAK256 DUP4 PUSH1 0x40 MLOAD PUSH1 0x20 ADD PUSH2 0x120F SWAP2 SWAP1 PUSH2 0x24E7 JUMP JUMPDEST PUSH1 0x40 MLOAD PUSH1 0x20 DUP2 DUP4 SUB SUB DUP2 MSTORE SWAP1 PUSH1 0x40 MSTORE DUP1 MLOAD SWAP1 PUSH1 0x20 ADD KECCAK256 EQ SWAP1 POP SWAP3 SWAP2 POP POP JUMP JUMPDEST PUSH0 DUP1 SHL PUSH0 DUP1 CALLER PUSH20 0xFFFFFFFFFFFFFFFFFFFFFFFFFFFFFFFFFFFFFFFF AND PUSH20 0xFFFFFFFFFFFFFFFFFFFFFFFFFFFFFFFFFFFFFFFF AND DUP2 MSTORE PUSH1 0x20 ADD SWAP1 DUP2 MSTORE PUSH1 0x20 ADD PUSH0 KECCAK256 PUSH1 0x1 ADD SLOAD EQ PUSH2 0x12B1 JUMPI PUSH1 0x40 MLOAD PUSH32 0x8C379A000000000000000000000000000000000000000000000000000000000 DUP2 MSTORE PUSH1 0x4 ADD PUSH2 0x12A8 SWAP1 PUSH2 0x2547 JUMP JUMPDEST PUSH1 0x40 MLOAD DUP1 SWAP2 SUB SWAP1 REVERT JUMPDEST PUSH1 0x2 SLOAD PUSH1 0x2 SLOAD CALLVALUE LT ISZERO PUSH2 0x12F9 JUMPI PUSH1 0x40 MLOAD PUSH32 0x8C379A000000000000000000000000000000000000000000000000000000000 DUP2 MSTORE PUSH1 0x4 ADD PUSH2 0x12F0 SWAP1 PUSH2 0x25AF JUMP JUMPDEST PUSH1 0x40 MLOAD DUP1 SWAP2 SUB SWAP1 REVERT JUMPDEST PUSH1 0x40 MLOAD DUP1 PUSH1 0xA0 ADD PUSH1 0x40 MSTORE DUP1 PUSH1 0x40 MLOAD DUP1 PUSH1 0x20 ADD PUSH1 0x40 MSTORE DUP1 PUSH0 DUP2 MSTORE POP DUP2 MSTORE PUSH1 0x20 ADD DUP4 DUP2 MSTORE PUSH1 0x20 ADD PUSH0 ISZERO ISZERO DUP2 MSTORE PUSH1 0x20 ADD PUSH0 PUSH20 0xFFFFFFFFFFFFFFFFFFFFFFFFFFFFFFFFFFFFFFFF AND DUP2 MSTORE PUSH1 0x20 ADD PUSH0 DUP2 MSTORE POP PUSH0 DUP1 CALLER PUSH20 0xFFFFFFFFFFFFFFFFFFFFFFFFFFFFFFFFFFFFFFFF AND PUSH20 0xFFFFFFFFFFFFFFFFFFFFFFFFFFFFFFFFFFFFFFFF AND DUP2 MSTORE PUSH1 0x20 ADD SWAP1 DUP2 MSTORE PUSH1 0x20 ADD PUSH0 KECCAK256 PUSH0 DUP3 ADD MLOAD DUP2 PUSH0 ADD SWAP1 DUP2 PUSH2 0x1395 SWAP2 SWAP1 PUSH2 0x235C JUMP JUMPDEST POP PUSH1 0x20 DUP3 ADD MLOAD DUP2 PUSH1 0x1 ADD SSTORE PUSH1 0x40 DUP3 ADD MLOAD DUP2 PUSH1 0x2 ADD PUSH0 PUSH2 0x100 EXP DUP2 SLOAD DUP2 PUSH1 0xFF MUL NOT AND SWAP1 DUP4 ISZERO ISZERO MUL OR SWAP1 SSTORE POP PUSH1 0x60 DUP3 ADD MLOAD DUP2 PUSH1 0x2 ADD PUSH1 0x1 PUSH2 0x100 EXP DUP2 SLOAD DUP2 PUSH20 0xFFFFFFFFFFFFFFFFFFFFFFFFFFFFFFFFFFFFFFFF MUL NOT AND SWAP1 DUP4 PUSH20 0xFFFFFFFFFFFFFFFFFFFFFFFFFFFFFFFFFFFFFFFF AND MUL OR SWAP1 SSTORE POP PUSH1 0x80 DUP3 ADD MLOAD DUP2 PUSH1 0x3 ADD SSTORE SWAP1 POP POP PUSH0 PUSH1 0x1 DUP1 SLOAD SWAP1 POP SWAP1 POP PUSH0 DUP2 SUB PUSH2 0x1488 JUMPI PUSH1 0x1 CALLER SWAP1 DUP1 PUSH1 0x1 DUP2 SLOAD ADD DUP1 DUP3 SSTORE DUP1 SWAP2 POP POP PUSH1 0x1 SWAP1 SUB SWAP1 PUSH0 MSTORE PUSH1 0x20 PUSH0 KECCAK256 ADD PUSH0 SWAP1 SWAP2 SWAP1 SWAP2 SWAP1 SWAP2 PUSH2 0x100 EXP DUP2 SLOAD DUP2 PUSH20 0xFFFFFFFFFFFFFFFFFFFFFFFFFFFFFFFFFFFFFFFF MUL NOT AND SWAP1 DUP4 PUSH20 0xFFFFFFFFFFFFFFFFFFFFFFFFFFFFFFFFFFFFFFFF AND MUL OR SWAP1 SSTORE POP PUSH2 0x16E9 JUMP JUMPDEST PUSH0 PUSH1 0x1 DUP1 DUP4 PUSH2 0x1497 SWAP2 SWAP1 PUSH2 0x25CD JUMP JUMPDEST DUP2 SLOAD DUP2 LT PUSH2 0x14A8 JUMPI PUSH2 0x14A7 PUSH2 0x2152 JUMP JUMPDEST JUMPDEST SWAP1 PUSH0 MSTORE PUSH1 0x20 PUSH0 KECCAK256 ADD PUSH0 SWAP1 SLOAD SWAP1 PUSH2 0x100 EXP SWAP1 DIV PUSH20 0xFFFFFFFFFFFFFFFFFFFFFFFFFFFFFFFFFFFFFFFF AND SWAP1 POP DUP1 PUSH0 DUP1 CALLER PUSH20 0xFFFFFFFFFFFFFFFFFFFFFFFFFFFFFFFFFFFFFFFF AND PUSH20 0xFFFFFFFFFFFFFFFFFFFFFFFFFFFFFFFFFFFFFFFF AND DUP2 MSTORE PUSH1 0x20 ADD SWAP1 DUP2 MSTORE PUSH1 0x20 ADD PUSH0 KECCAK256 PUSH1 0x2 ADD PUSH1 0x1 PUSH2 0x100 EXP DUP2 SLOAD DUP2 PUSH20 0xFFFFFFFFFFFFFFFFFFFFFFFFFFFFFFFFFFFFFFFF MUL NOT AND SWAP1 DUP4 PUSH20 0xFFFFFFFFFFFFFFFFFFFFFFFFFFFFFFFFFFFFFFFF AND MUL OR SWAP1 SSTORE POP CALLER PUSH0 DUP1 DUP4 PUSH20 0xFFFFFFFFFFFFFFFFFFFFFFFFFFFFFFFFFFFFFFFF AND PUSH20 0xFFFFFFFFFFFFFFFFFFFFFFFFFFFFFFFFFFFFFFFF AND DUP2 MSTORE PUSH1 0x20 ADD SWAP1 DUP2 MSTORE PUSH1 0x20 ADD PUSH0 KECCAK256 PUSH1 0x2 ADD PUSH1 0x1 PUSH2 0x100 EXP DUP2 SLOAD DUP2 PUSH20 0xFFFFFFFFFFFFFFFFFFFFFFFFFFFFFFFFFFFFFFFF MUL NOT AND SWAP1 DUP4 PUSH20 0xFFFFFFFFFFFFFFFFFFFFFFFFFFFFFFFFFFFFFFFF AND MUL OR SWAP1 SSTORE POP PUSH0 PUSH1 0x3 SLOAD TIMESTAMP PUSH2 0x15DD SWAP2 SWAP1 PUSH2 0x2600 JUMP JUMPDEST SWAP1 POP DUP1 PUSH0 DUP1 CALLER PUSH20 0xFFFFFFFFFFFFFFFFFFFFFFFFFFFFFFFFFFFFFFFF AND PUSH20 0xFFFFFFFFFFFFFFFFFFFFFFFFFFFFFFFFFFFFFFFF AND DUP2 MSTORE PUSH1 0x20 ADD SWAP1 DUP2 MSTORE PUSH1 0x20 ADD PUSH0 KECCAK256 PUSH1 0x3 ADD DUP2 SWAP1 SSTORE POP DUP1 PUSH0 DUP1 DUP5 PUSH20 0xFFFFFFFFFFFFFFFFFFFFFFFFFFFFFFFFFFFFFFFF AND PUSH20 0xFFFFFFFFFFFFFFFFFFFFFFFFFFFFFFFFFFFFFFFF AND DUP2 MSTORE PUSH1 0x20 ADD SWAP1 DUP2 MSTORE PUSH1 0x20 ADD PUSH0 KECCAK256 PUSH1 0x3 ADD DUP2 SWAP1 SSTORE POP PUSH1 0x1 DUP1 SLOAD DUP1 PUSH2 0x1679 JUMPI PUSH2 0x1678 PUSH2 0x2633 JUMP JUMPDEST JUMPDEST PUSH1 0x1 SWAP1 SUB DUP2 DUP2 SWAP1 PUSH0 MSTORE PUSH1 0x20 PUSH0 KECCAK256 ADD PUSH0 PUSH2 0x100 EXP DUP2 SLOAD SWAP1 PUSH20 0xFFFFFFFFFFFFFFFFFFFFFFFFFFFFFFFFFFFFFFFF MUL NOT AND SWAP1 SSTORE SWAP1 SSTORE PUSH32 0xF7750BEBC6A1D050DEC98239CFC17DBB80B7469BDBF2A73DA0C8023A4F46F772 DUP3 CALLER DUP4 PUSH1 0x40 MLOAD PUSH2 0x16DE SWAP4 SWAP3 SWAP2 SWAP1 PUSH2 0x2660 JUMP JUMPDEST PUSH1 0x40 MLOAD DUP1 SWAP2 SUB SWAP1 LOG1 POP POP JUMPDEST CALLER PUSH20 0xFFFFFFFFFFFFFFFFFFFFFFFFFFFFFFFFFFFFFFFF AND PUSH2 0x8FC PUSH1 0x2 SLOAD CALLVALUE PUSH2 0x1711 SWAP2 SWAP1 PUSH2 0x25CD JUMP JUMPDEST SWAP1 DUP2 ISZERO MUL SWAP1 PUSH1 0x40 MLOAD PUSH0 PUSH1 0x40 MLOAD DUP1 DUP4 SUB DUP2 DUP6 DUP9 DUP9 CALL SWAP4 POP POP POP POP ISZERO DUP1 ISZERO PUSH2 0x1739 JUMPI RETURNDATASIZE PUSH0 DUP1 RETURNDATACOPY RETURNDATASIZE PUSH0 REVERT JUMPDEST POP PUSH32 0x673312C85CBA8B334416B1C6E845170BBDFF704BAF138F1866AB5E8BF3440776 CALLER DUP5 PUSH1 0x40 MLOAD PUSH2 0x176B SWAP3 SWAP2 SWAP1 PUSH2 0x2695 JUMP JUMPDEST PUSH1 0x40 MLOAD DUP1 SWAP2 SUB SWAP1 LOG1 POP POP POP JUMP JUMPDEST PUSH0 PUSH1 0x20 MSTORE DUP1 PUSH0 MSTORE PUSH1 0x40 PUSH0 KECCAK256 PUSH0 SWAP2 POP SWAP1 POP DUP1 PUSH0 ADD DUP1 SLOAD PUSH2 0x1796 SWAP1 PUSH2 0x1F60 JUMP JUMPDEST DUP1 PUSH1 0x1F ADD PUSH1 0x20 DUP1 SWAP2 DIV MUL PUSH1 0x20 ADD PUSH1 0x40 MLOAD SWAP1 DUP2 ADD PUSH1 0x40 MSTORE DUP1 SWAP3 SWAP2 SWAP1 DUP2 DUP2 MSTORE PUSH1 0x20 ADD DUP3 DUP1 SLOAD PUSH2 0x17C2 SWAP1 PUSH2 0x1F60 JUMP JUMPDEST DUP1 ISZERO PUSH2 0x180D JUMPI DUP1 PUSH1 0x1F LT PUSH2 0x17E4 JUMPI PUSH2 0x100 DUP1 DUP4 SLOAD DIV MUL DUP4 MSTORE SWAP2 PUSH1 0x20 ADD SWAP2 PUSH2 0x180D JUMP JUMPDEST DUP3 ADD SWAP2 SWAP1 PUSH0 MSTORE PUSH1 0x20 PUSH0 KECCAK256 SWAP1 JUMPDEST DUP2 SLOAD DUP2 MSTORE SWAP1 PUSH1 0x1 ADD SWAP1 PUSH1 0x20 ADD DUP1 DUP4 GT PUSH2 0x17F0 JUMPI DUP3 SWAP1 SUB PUSH1 0x1F AND DUP3 ADD SWAP2 JUMPDEST POP POP POP POP POP SWAP1 DUP1 PUSH1 0x1 ADD SLOAD SWAP1 DUP1 PUSH1 0x2 ADD PUSH0 SWAP1 SLOAD SWAP1 PUSH2 0x100 EXP SWAP1 DIV PUSH1 0xFF AND SWAP1 DUP1 PUSH1 0x2 ADD PUSH1 0x1 SWAP1 SLOAD SWAP1 PUSH2 0x100 EXP SWAP1 DIV PUSH20 0xFFFFFFFFFFFFFFFFFFFFFFFFFFFFFFFFFFFFFFFF AND SWAP1 DUP1 PUSH1 0x3 ADD SLOAD SWAP1 POP DUP6 JUMP JUMPDEST PUSH1 0x1 DUP2 DUP2 SLOAD DUP2 LT PUSH2 0x186A JUMPI PUSH0 DUP1 REVERT JUMPDEST SWAP1 PUSH0 MSTORE PUSH1 0x20 PUSH0 KECCAK256 ADD PUSH0 SWAP2 POP SLOAD SWAP1 PUSH2 0x100 EXP SWAP1 DIV PUSH20 0xFFFFFFFFFFFFFFFFFFFFFFFFFFFFFFFFFFFFFFFF AND DUP2 JUMP JUMPDEST POP DUP1 SLOAD PUSH2 0x18A2 SWAP1 PUSH2 0x1F60 JUMP JUMPDEST PUSH0 DUP3 SSTORE DUP1 PUSH1 0x1F LT PUSH2 0x18B3 JUMPI POP PUSH2 0x18D0 JUMP JUMPDEST PUSH1 0x1F ADD PUSH1 0x20 SWAP1 DIV SWAP1 PUSH0 MSTORE PUSH1 0x20 PUSH0 KECCAK256 SWAP1 DUP2 ADD SWAP1 PUSH2 0x18CF SWAP2 SWAP1 PUSH2 0x18D3 JUMP JUMPDEST JUMPDEST POP JUMP JUMPDEST JUMPDEST DUP1 DUP3 GT ISZERO PUSH2 0x18EA JUMPI PUSH0 DUP2 PUSH0 SWAP1 SSTORE POP PUSH1 0x1 ADD PUSH2 0x18D4 JUMP JUMPDEST POP SWAP1 JUMP JUMPDEST PUSH0 DUP2 SWAP1 POP SWAP2 SWAP1 POP JUMP JUMPDEST PUSH2 0x1900 DUP2 PUSH2 0x18EE JUMP JUMPDEST DUP3 MSTORE POP POP JUMP JUMPDEST PUSH0 PUSH1 0x20 DUP3 ADD SWAP1 POP PUSH2 0x1919 PUSH0 DUP4 ADD DUP5 PUSH2 0x18F7 JUMP JUMPDEST SWAP3 SWAP2 POP POP JUMP JUMPDEST PUSH0 PUSH1 0x40 MLOAD SWAP1 POP SWAP1 JUMP JUMPDEST PUSH0 DUP1 REVERT JUMPDEST PUSH0 DUP1 REVERT JUMPDEST PUSH0 DUP1 REVERT JUMPDEST PUSH0 DUP1 REVERT JUMPDEST PUSH0 DUP1 REVERT JUMPDEST PUSH0 DUP1 DUP4 PUSH1 0x1F DUP5 ADD SLT PUSH2 0x1951 JUMPI PUSH2 0x1950 PUSH2 0x1930 JUMP JUMPDEST JUMPDEST DUP3 CALLDATALOAD SWAP1 POP PUSH8 0xFFFFFFFFFFFFFFFF DUP2 GT ISZERO PUSH2 0x196E JUMPI PUSH2 0x196D PUSH2 0x1934 JUMP JUMPDEST JUMPDEST PUSH1 0x20 DUP4 ADD SWAP2 POP DUP4 PUSH1 0x1 DUP3 MUL DUP4 ADD GT ISZERO PUSH2 0x198A JUMPI PUSH2 0x1989 PUSH2 0x1938 JUMP JUMPDEST JUMPDEST SWAP3 POP SWAP3 SWAP1 POP JUMP JUMPDEST PUSH0 DUP1 PUSH0 DUP1 PUSH1 0x40 DUP6 DUP8 SUB SLT ISZERO PUSH2 0x19A9 JUMPI PUSH2 0x19A8 PUSH2 0x1928 JUMP JUMPDEST JUMPDEST PUSH0 DUP6 ADD CALLDATALOAD PUSH8 0xFFFFFFFFFFFFFFFF DUP2 GT ISZERO PUSH2 0x19C6 JUMPI PUSH2 0x19C5 PUSH2 0x192C JUMP JUMPDEST JUMPDEST PUSH2 0x19D2 DUP8 DUP3 DUP9 ADD PUSH2 0x193C JUMP JUMPDEST SWAP5 POP SWAP5 POP POP PUSH1 0x20 DUP6 ADD CALLDATALOAD PUSH8 0xFFFFFFFFFFFFFFFF DUP2 GT ISZERO PUSH2 0x19F5 JUMPI PUSH2 0x19F4 PUSH2 0x192C JUMP JUMPDEST JUMPDEST PUSH2 0x1A01 DUP8 DUP3 DUP9 ADD PUSH2 0x193C JUMP JUMPDEST SWAP3 POP SWAP3 POP POP SWAP3 SWAP6 SWAP2 SWAP5 POP SWAP3 POP JUMP JUMPDEST PUSH0 DUP1 REVERT JUMPDEST PUSH0 PUSH1 0x1F NOT PUSH1 0x1F DUP4 ADD AND SWAP1 POP SWAP2 SWAP1 POP JUMP JUMPDEST PUSH32 0x4E487B7100000000000000000000000000000000000000000000000000000000 PUSH0 MSTORE PUSH1 0x41 PUSH1 0x4 MSTORE PUSH1 0x24 PUSH0 REVERT JUMPDEST PUSH2 0x1A59 DUP3 PUSH2 0x1A13 JUMP JUMPDEST DUP2 ADD DUP2 DUP2 LT PUSH8 0xFFFFFFFFFFFFFFFF DUP3 GT OR ISZERO PUSH2 0x1A78 JUMPI PUSH2 0x1A77 PUSH2 0x1A23 JUMP JUMPDEST JUMPDEST DUP1 PUSH1 0x40 MSTORE POP POP POP JUMP JUMPDEST PUSH0 PUSH2 0x1A8A PUSH2 0x191F JUMP JUMPDEST SWAP1 POP PUSH2 0x1A96 DUP3 DUP3 PUSH2 0x1A50 JUMP JUMPDEST SWAP2 SWAP1 POP JUMP JUMPDEST PUSH0 PUSH8 0xFFFFFFFFFFFFFFFF DUP3 GT ISZERO PUSH2 0x1AB5 JUMPI PUSH2 0x1AB4 PUSH2 0x1A23 JUMP JUMPDEST JUMPDEST PUSH2 0x1ABE DUP3 PUSH2 0x1A13 JUMP JUMPDEST SWAP1 POP PUSH1 0x20 DUP2 ADD SWAP1 POP SWAP2 SWAP1 POP JUMP JUMPDEST DUP3 DUP2 DUP4 CALLDATACOPY PUSH0 DUP4 DUP4 ADD MSTORE POP POP POP JUMP JUMPDEST PUSH0 PUSH2 0x1AEB PUSH2 0x1AE6 DUP5 PUSH2 0x1A9B JUMP JUMPDEST PUSH2 0x1A81 JUMP JUMPDEST SWAP1 POP DUP3 DUP2 MSTORE PUSH1 0x20 DUP2 ADD DUP5 DUP5 DUP5 ADD GT ISZERO PUSH2 0x1B07 JUMPI PUSH2 0x1B06 PUSH2 0x1A0F JUMP JUMPDEST JUMPDEST PUSH2 0x1B12 DUP5 DUP3 DUP6 PUSH2 0x1ACB JUMP JUMPDEST POP SWAP4 SWAP3 POP POP POP JUMP JUMPDEST PUSH0 DUP3 PUSH1 0x1F DUP4 ADD SLT PUSH2 0x1B2E JUMPI PUSH2 0x1B2D PUSH2 0x1930 JUMP JUMPDEST JUMPDEST DUP2 CALLDATALOAD PUSH2 0x1B3E DUP5 DUP3 PUSH1 0x20 DUP7 ADD PUSH2 0x1AD9 JUMP JUMPDEST SWAP2 POP POP SWAP3 SWAP2 POP POP JUMP JUMPDEST PUSH0 DUP1 PUSH1 0x40 DUP4 DUP6 SUB SLT ISZERO PUSH2 0x1B5D JUMPI PUSH2 0x1B5C PUSH2 0x1928 JUMP JUMPDEST JUMPDEST PUSH0 DUP4 ADD CALLDATALOAD PUSH8 0xFFFFFFFFFFFFFFFF DUP2 GT ISZERO PUSH2 0x1B7A JUMPI PUSH2 0x1B79 PUSH2 0x192C JUMP JUMPDEST JUMPDEST PUSH2 0x1B86 DUP6 DUP3 DUP7 ADD PUSH2 0x1B1A JUMP JUMPDEST SWAP3 POP POP PUSH1 0x20 DUP4 ADD CALLDATALOAD PUSH8 0xFFFFFFFFFFFFFFFF DUP2 GT ISZERO PUSH2 0x1BA7 JUMPI PUSH2 0x1BA6 PUSH2 0x192C JUMP JUMPDEST JUMPDEST PUSH2 0x1BB3 DUP6 DUP3 DUP7 ADD PUSH2 0x1B1A JUMP JUMPDEST SWAP2 POP POP SWAP3 POP SWAP3 SWAP1 POP JUMP JUMPDEST PUSH0 DUP2 ISZERO ISZERO SWAP1 POP SWAP2 SWAP1 POP JUMP JUMPDEST PUSH2 0x1BD1 DUP2 PUSH2 0x1BBD JUMP JUMPDEST DUP3 MSTORE POP POP JUMP JUMPDEST PUSH0 PUSH1 0x20 DUP3 ADD SWAP1 POP PUSH2 0x1BEA PUSH0 DUP4 ADD DUP5 PUSH2 0x1BC8 JUMP JUMPDEST SWAP3 SWAP2 POP POP JUMP JUMPDEST PUSH0 DUP2 SWAP1 POP SWAP2 SWAP1 POP JUMP JUMPDEST PUSH2 0x1C02 DUP2 PUSH2 0x1BF0 JUMP JUMPDEST DUP2 EQ PUSH2 0x1C0C JUMPI PUSH0 DUP1 REVERT JUMPDEST POP JUMP JUMPDEST PUSH0 DUP2 CALLDATALOAD SWAP1 POP PUSH2 0x1C1D DUP2 PUSH2 0x1BF9 JUMP JUMPDEST SWAP3 SWAP2 POP POP JUMP JUMPDEST PUSH0 PUSH1 0x20 DUP3 DUP5 SUB SLT ISZERO PUSH2 0x1C38 JUMPI PUSH2 0x1C37 PUSH2 0x1928 JUMP JUMPDEST JUMPDEST PUSH0 PUSH2 0x1C45 DUP5 DUP3 DUP6 ADD PUSH2 0x1C0F JUMP JUMPDEST SWAP2 POP POP SWAP3 SWAP2 POP POP JUMP JUMPDEST PUSH0 PUSH20 0xFFFFFFFFFFFFFFFFFFFFFFFFFFFFFFFFFFFFFFFF DUP3 AND SWAP1 POP SWAP2 SWAP1 POP JUMP JUMPDEST PUSH0 PUSH2 0x1C77 DUP3 PUSH2 0x1C4E JUMP JUMPDEST SWAP1 POP SWAP2 SWAP1 POP JUMP JUMPDEST PUSH2 0x1C87 DUP2 PUSH2 0x1C6D JUMP JUMPDEST DUP2 EQ PUSH2 0x1C91 JUMPI PUSH0 DUP1 REVERT JUMPDEST POP JUMP JUMPDEST PUSH0 DUP2 CALLDATALOAD SWAP1 POP PUSH2 0x1CA2 DUP2 PUSH2 0x1C7E JUMP JUMPDEST SWAP3 SWAP2 POP POP JUMP JUMPDEST PUSH0 PUSH1 0x20 DUP3 DUP5 SUB SLT ISZERO PUSH2 0x1CBD JUMPI PUSH2 0x1CBC PUSH2 0x1928 JUMP JUMPDEST JUMPDEST PUSH0 PUSH2 0x1CCA DUP5 DUP3 DUP6 ADD PUSH2 0x1C94 JUMP JUMPDEST SWAP2 POP POP SWAP3 SWAP2 POP POP JUMP JUMPDEST PUSH0 DUP2 MLOAD SWAP1 POP SWAP2 SWAP1 POP JUMP JUMPDEST PUSH0 DUP3 DUP3 MSTORE PUSH1 0x20 DUP3 ADD SWAP1 POP SWAP3 SWAP2 POP POP JUMP JUMPDEST DUP3 DUP2 DUP4 MCOPY PUSH0 DUP4 DUP4 ADD MSTORE POP POP POP JUMP JUMPDEST PUSH0 PUSH2 0x1D05 DUP3 PUSH2 0x1CD3 JUMP JUMPDEST PUSH2 0x1D0F DUP2 DUP6 PUSH2 0x1CDD JUMP JUMPDEST SWAP4 POP PUSH2 0x1D1F DUP2 DUP6 PUSH1 0x20 DUP7 ADD PUSH2 0x1CED JUMP JUMPDEST PUSH2 0x1D28 DUP2 PUSH2 0x1A13 JUMP JUMPDEST DUP5 ADD SWAP2 POP POP SWAP3 SWAP2 POP POP JUMP JUMPDEST PUSH2 0x1D3C DUP2 PUSH2 0x1BF0 JUMP JUMPDEST DUP3 MSTORE POP POP JUMP JUMPDEST PUSH2 0x1D4B DUP2 PUSH2 0x1C6D JUMP JUMPDEST DUP3 MSTORE POP POP JUMP JUMPDEST PUSH0 PUSH1 0xA0 DUP3 ADD SWAP1 POP DUP2 DUP2 SUB PUSH0 DUP4 ADD MSTORE PUSH2 0x1D69 DUP2 DUP9 PUSH2 0x1CFB JUMP JUMPDEST SWAP1 POP PUSH2 0x1D78 PUSH1 0x20 DUP4 ADD DUP8 PUSH2 0x1D33 JUMP JUMPDEST PUSH2 0x1D85 PUSH1 0x40 DUP4 ADD DUP7 PUSH2 0x1BC8 JUMP JUMPDEST PUSH2 0x1D92 PUSH1 0x60 DUP4 ADD DUP6 PUSH2 0x1D42 JUMP JUMPDEST PUSH2 0x1D9F PUSH1 0x80 DUP4 ADD DUP5 PUSH2 0x18F7 JUMP JUMPDEST SWAP7 SWAP6 POP POP POP POP POP POP JUMP JUMPDEST PUSH2 0x1DB2 DUP2 PUSH2 0x18EE JUMP JUMPDEST DUP2 EQ PUSH2 0x1DBC JUMPI PUSH0 DUP1 REVERT JUMPDEST POP JUMP JUMPDEST PUSH0 DUP2 CALLDATALOAD SWAP1 POP PUSH2 0x1DCD DUP2 PUSH2 0x1DA9 JUMP JUMPDEST SWAP3 SWAP2 POP POP JUMP JUMPDEST PUSH0 PUSH1 0x20 DUP3 DUP5 SUB SLT ISZERO PUSH2 0x1DE8 JUMPI PUSH2 0x1DE7 PUSH2 0x1928 JUMP JUMPDEST JUMPDEST PUSH0 PUSH2 0x1DF5 DUP5 DUP3 DUP6 ADD PUSH2 0x1DBF JUMP JUMPDEST SWAP2 POP POP SWAP3 SWAP2 POP POP JUMP JUMPDEST PUSH0 PUSH1 0x20 DUP3 ADD SWAP1 POP PUSH2 0x1E11 PUSH0 DUP4 ADD DUP5 PUSH2 0x1D42 JUMP JUMPDEST SWAP3 SWAP2 POP POP JUMP JUMPDEST PUSH32 0x596F75206D7573742072657665616C20796F757220766F7465206265666F7265 PUSH0 DUP3 ADD MSTORE PUSH32 0x207769746864726177616C000000000000000000000000000000000000000000 PUSH1 0x20 DUP3 ADD MSTORE POP JUMP JUMPDEST PUSH0 PUSH2 0x1E71 PUSH1 0x2B DUP4 PUSH2 0x1CDD JUMP JUMPDEST SWAP2 POP PUSH2 0x1E7C DUP3 PUSH2 0x1E17 JUMP JUMPDEST PUSH1 0x40 DUP3 ADD SWAP1 POP SWAP2 SWAP1 POP JUMP JUMPDEST PUSH0 PUSH1 0x20 DUP3 ADD SWAP1 POP DUP2 DUP2 SUB PUSH0 DUP4 ADD MSTORE PUSH2 0x1E9E DUP2 PUSH2 0x1E65 JUMP JUMPDEST SWAP1 POP SWAP2 SWAP1 POP JUMP JUMPDEST PUSH32 0x57616974696E6720666F72206F70706F6E656E7420746F2072657665616C206F PUSH0 DUP3 ADD MSTORE PUSH32 0x7220646561646C696E6500000000000000000000000000000000000000000000 PUSH1 0x20 DUP3 ADD MSTORE POP JUMP JUMPDEST PUSH0 PUSH2 0x1EFF PUSH1 0x2A DUP4 PUSH2 0x1CDD JUMP JUMPDEST SWAP2 POP PUSH2 0x1F0A DUP3 PUSH2 0x1EA5 JUMP JUMPDEST PUSH1 0x40 DUP3 ADD SWAP1 POP SWAP2 SWAP1 POP JUMP JUMPDEST PUSH0 PUSH1 0x20 DUP3 ADD SWAP1 POP DUP2 DUP2 SUB PUSH0 DUP4 ADD MSTORE PUSH2 0x1F2C DUP2 PUSH2 0x1EF3 JUMP JUMPDEST SWAP1 POP SWAP2 SWAP1 POP JUMP JUMPDEST PUSH32 0x4E487B7100000000000000000000000000000000000000000000000000000000 PUSH0 MSTORE PUSH1 0x22 PUSH1 0x4 MSTORE PUSH1 0x24 PUSH0 REVERT JUMPDEST PUSH0 PUSH1 0x2 DUP3 DIV SWAP1 POP PUSH1 0x1 DUP3 AND DUP1 PUSH2 0x1F77 JUMPI PUSH1 0x7F DUP3 AND SWAP2 POP JUMPDEST PUSH1 0x20 DUP3 LT DUP2 SUB PUSH2 0x1F8A JUMPI PUSH2 0x1F89 PUSH2 0x1F33 JUMP JUMPDEST JUMPDEST POP SWAP2 SWAP1 POP JUMP JUMPDEST PUSH32 0x4E487B7100000000000000000000000000000000000000000000000000000000 PUSH0 MSTORE PUSH1 0x11 PUSH1 0x4 MSTORE PUSH1 0x24 PUSH0 REVERT JUMPDEST PUSH0 PUSH2 0x1FC7 DUP3 PUSH2 0x18EE JUMP JUMPDEST SWAP2 POP PUSH2 0x1FD2 DUP4 PUSH2 0x18EE JUMP JUMPDEST SWAP3 POP DUP3 DUP3 MUL PUSH2 0x1FE0 DUP2 PUSH2 0x18EE JUMP JUMPDEST SWAP2 POP DUP3 DUP3 DIV DUP5 EQ DUP4 ISZERO OR PUSH2 0x1FF7 JUMPI PUSH2 0x1FF6 PUSH2 0x1F90 JUMP JUMPDEST JUMPDEST POP SWAP3 SWAP2 POP POP JUMP JUMPDEST PUSH0 PUSH1 0x40 DUP3 ADD SWAP1 POP PUSH2 0x2011 PUSH0 DUP4 ADD DUP6 PUSH2 0x1D42 JUMP JUMPDEST PUSH2 0x201E PUSH1 0x20 DUP4 ADD DUP5 PUSH2 0x18F7 JUMP JUMPDEST SWAP4 SWAP3 POP POP POP JUMP JUMPDEST PUSH32 0x57616974696E6720666F7220616E206F70706F6E656E74000000000000000000 PUSH0 DUP3 ADD MSTORE POP JUMP JUMPDEST PUSH0 PUSH2 0x2059 PUSH1 0x17 DUP4 PUSH2 0x1CDD JUMP JUMPDEST SWAP2 POP PUSH2 0x2064 DUP3 PUSH2 0x2025 JUMP JUMPDEST PUSH1 0x20 DUP3 ADD SWAP1 POP SWAP2 SWAP1 POP JUMP JUMPDEST PUSH0 PUSH1 0x20 DUP3 ADD SWAP1 POP DUP2 DUP2 SUB PUSH0 DUP4 ADD MSTORE PUSH2 0x2086 DUP2 PUSH2 0x204D JUMP JUMPDEST SWAP1 POP SWAP2 SWAP1 POP JUMP JUMPDEST PUSH0 DUP2 SWAP1 POP SWAP3 SWAP2 POP POP JUMP JUMPDEST PUSH0 PUSH2 0x20A1 DUP3 PUSH2 0x1CD3 JUMP JUMPDEST PUSH2 0x20AB DUP2 DUP6 PUSH2 0x208D JUMP JUMPDEST SWAP4 POP PUSH2 0x20BB DUP2 DUP6 PUSH1 0x20 DUP7 ADD PUSH2 0x1CED JUMP JUMPDEST DUP1 DUP5 ADD SWAP2 POP POP SWAP3 SWAP2 POP POP JUMP JUMPDEST PUSH0 PUSH2 0x20D2 DUP3 DUP6 PUSH2 0x2097 JUMP JUMPDEST SWAP2 POP PUSH2 0x20DE DUP3 DUP5 PUSH2 0x2097 JUMP JUMPDEST SWAP2 POP DUP2 SWAP1 POP SWAP4 SWAP3 POP POP POP JUMP JUMPDEST PUSH32 0x4E6F7420612076616C696420766F746500000000000000000000000000000000 PUSH0 DUP3 ADD MSTORE POP JUMP JUMPDEST PUSH0 PUSH2 0x211E PUSH1 0x10 DUP4 PUSH2 0x1CDD JUMP JUMPDEST SWAP2 POP PUSH2 0x2129 DUP3 PUSH2 0x20EA JUMP JUMPDEST PUSH1 0x20 DUP3 ADD SWAP1 POP SWAP2 SWAP1 POP JUMP JUMPDEST PUSH0 PUSH1 0x20 DUP3 ADD SWAP1 POP DUP2 DUP2 SUB PUSH0 DUP4 ADD MSTORE PUSH2 0x214B DUP2 PUSH2 0x2112 JUMP JUMPDEST SWAP1 POP SWAP2 SWAP1 POP JUMP JUMPDEST PUSH32 0x4E487B7100000000000000000000000000000000000000000000000000000000 PUSH0 MSTORE PUSH1 0x32 PUSH1 0x4 MSTORE PUSH1 0x24 PUSH0 REVERT JUMPDEST PUSH0 PUSH1 0xFF DUP3 AND SWAP1 POP SWAP2 SWAP1 POP JUMP JUMPDEST PUSH0 PUSH2 0x2195 DUP3 PUSH2 0x217F JUMP JUMPDEST SWAP2 POP PUSH2 0x21A0 DUP4 PUSH2 0x217F JUMP JUMPDEST SWAP3 POP DUP3 DUP3 SUB SWAP1 POP PUSH1 0xFF DUP2 GT ISZERO PUSH2 0x21B9 JUMPI PUSH2 0x21B8 PUSH2 0x1F90 JUMP JUMPDEST JUMPDEST SWAP3 SWAP2 POP POP JUMP JUMPDEST PUSH0 DUP2 SWAP1 POP DUP2 PUSH0 MSTORE PUSH1 0x20 PUSH0 KECCAK256 SWAP1 POP SWAP2 SWAP1 POP JUMP JUMPDEST PUSH0 PUSH1 0x20 PUSH1 0x1F DUP4 ADD DIV SWAP1 POP SWAP2 SWAP1 POP JUMP JUMPDEST PUSH0 DUP3 DUP3 SHL SWAP1 POP SWAP3 SWAP2 POP POP JUMP JUMPDEST PUSH0 PUSH1 0x8 DUP4 MUL PUSH2 0x221B PUSH32 0xFFFFFFFFFFFFFFFFFFFFFFFFFFFFFFFFFFFFFFFFFFFFFFFFFFFFFFFFFFFFFFFF DUP3 PUSH2 0x21E0 JUMP JUMPDEST PUSH2 0x2225 DUP7 DUP4 PUSH2 0x21E0 JUMP JUMPDEST SWAP6 POP DUP1 NOT DUP5 AND SWAP4 POP DUP1 DUP7 AND DUP5 OR SWAP3 POP POP POP SWAP4 SWAP3 POP POP POP JUMP JUMPDEST PUSH0 DUP2 SWAP1 POP SWAP2 SWAP1 POP JUMP JUMPDEST PUSH0 PUSH2 0x2260 PUSH2 0x225B PUSH2 0x2256 DUP5 PUSH2 0x18EE JUMP JUMPDEST PUSH2 0x223D JUMP JUMPDEST PUSH2 0x18EE JUMP JUMPDEST SWAP1 POP SWAP2 SWAP1 POP JUMP JUMPDEST PUSH0 DUP2 SWAP1 POP SWAP2 SWAP1 POP JUMP JUMPDEST PUSH2 0x2279 DUP4 PUSH2 0x2246 JUMP JUMPDEST PUSH2 0x228D PUSH2 0x2285 DUP3 PUSH2 0x2267 JUMP JUMPDEST DUP5 DUP5 SLOAD PUSH2 0x21EC JUMP JUMPDEST DUP3 SSTORE POP POP POP POP JUMP JUMPDEST PUSH0 SWAP1 JUMP JUMPDEST PUSH2 0x22A1 PUSH2 0x2295 JUMP JUMPDEST PUSH2 0x22AC DUP2 DUP5 DUP5 PUSH2 0x2270 JUMP JUMPDEST POP POP POP JUMP JUMPDEST JUMPDEST DUP2 DUP2 LT ISZERO PUSH2 0x22CF JUMPI PUSH2 0x22C4 PUSH0 DUP3 PUSH2 0x2299 JUMP JUMPDEST PUSH1 0x1 DUP2 ADD SWAP1 POP PUSH2 0x22B2 JUMP JUMPDEST POP POP JUMP JUMPDEST PUSH1 0x1F DUP3 GT ISZERO PUSH2 0x2314 JUMPI PUSH2 0x22E5 DUP2 PUSH2 0x21BF JUMP JUMPDEST PUSH2 0x22EE DUP5 PUSH2 0x21D1 JUMP JUMPDEST DUP2 ADD PUSH1 0x20 DUP6 LT ISZERO PUSH2 0x22FD JUMPI DUP2 SWAP1 POP JUMPDEST PUSH2 0x2311 PUSH2 0x2309 DUP6 PUSH2 0x21D1 JUMP JUMPDEST DUP4 ADD DUP3 PUSH2 0x22B1 JUMP JUMPDEST POP POP JUMPDEST POP POP POP JUMP JUMPDEST PUSH0 DUP3 DUP3 SHR SWAP1 POP SWAP3 SWAP2 POP POP JUMP JUMPDEST PUSH0 PUSH2 0x2334 PUSH0 NOT DUP5 PUSH1 0x8 MUL PUSH2 0x2319 JUMP JUMPDEST NOT DUP1 DUP4 AND SWAP2 POP POP SWAP3 SWAP2 POP POP JUMP JUMPDEST PUSH0 PUSH2 0x234C DUP4 DUP4 PUSH2 0x2325 JUMP JUMPDEST SWAP2 POP DUP3 PUSH1 0x2 MUL DUP3 OR SWAP1 POP SWAP3 SWAP2 POP POP JUMP JUMPDEST PUSH2 0x2365 DUP3 PUSH2 0x1CD3 JUMP JUMPDEST PUSH8 0xFFFFFFFFFFFFFFFF DUP2 GT ISZERO PUSH2 0x237E JUMPI PUSH2 0x237D PUSH2 0x1A23 JUMP JUMPDEST JUMPDEST PUSH2 0x2388 DUP3 SLOAD PUSH2 0x1F60 JUMP JUMPDEST PUSH2 0x2393 DUP3 DUP3 DUP6 PUSH2 0x22D3 JUMP JUMPDEST PUSH0 PUSH1 0x20 SWAP1 POP PUSH1 0x1F DUP4 GT PUSH1 0x1 DUP2 EQ PUSH2 0x23C4 JUMPI PUSH0 DUP5 ISZERO PUSH2 0x23B2 JUMPI DUP3 DUP8 ADD MLOAD SWAP1 POP JUMPDEST PUSH2 0x23BC DUP6 DUP3 PUSH2 0x2341 JUMP JUMPDEST DUP7 SSTORE POP PUSH2 0x2423 JUMP JUMPDEST PUSH1 0x1F NOT DUP5 AND PUSH2 0x23D2 DUP7 PUSH2 0x21BF JUMP JUMPDEST PUSH0 JUMPDEST DUP3 DUP2 LT ISZERO PUSH2 0x23F9 JUMPI DUP5 DUP10 ADD MLOAD DUP3 SSTORE PUSH1 0x1 DUP3 ADD SWAP2 POP PUSH1 0x20 DUP6 ADD SWAP5 POP PUSH1 0x20 DUP2 ADD SWAP1 POP PUSH2 0x23D4 JUMP JUMPDEST DUP7 DUP4 LT ISZERO PUSH2 0x2416 JUMPI DUP5 DUP10 ADD MLOAD PUSH2 0x2412 PUSH1 0x1F DUP10 AND DUP3 PUSH2 0x2325 JUMP JUMPDEST DUP4 SSTORE POP JUMPDEST PUSH1 0x1 PUSH1 0x2 DUP9 MUL ADD DUP9 SSTORE POP POP POP JUMPDEST POP POP POP POP POP POP JUMP JUMPDEST PUSH0 PUSH1 0x40 DUP3 ADD SWAP1 POP PUSH2 0x243E PUSH0 DUP4 ADD DUP6 PUSH2 0x1D42 JUMP JUMPDEST DUP2 DUP2 SUB PUSH1 0x20 DUP4 ADD MSTORE PUSH2 0x2450 DUP2 DUP5 PUSH2 0x1CFB JUMP JUMPDEST SWAP1 POP SWAP4 SWAP3 POP POP POP JUMP JUMPDEST PUSH32 0x596F7520646964206E6F742063686F6F736520726F636B2C207061706572206F PUSH0 DUP3 ADD MSTORE PUSH32 0x722073636973736F727300000000000000000000000000000000000000000000 PUSH1 0x20 DUP3 ADD MSTORE POP JUMP JUMPDEST PUSH0 PUSH2 0x24B3 PUSH1 0x2A DUP4 PUSH2 0x1CDD JUMP JUMPDEST SWAP2 POP PUSH2 0x24BE DUP3 PUSH2 0x2459 JUMP JUMPDEST PUSH1 0x40 DUP3 ADD SWAP1 POP SWAP2 SWAP1 POP JUMP JUMPDEST PUSH0 PUSH1 0x20 DUP3 ADD SWAP1 POP DUP2 DUP2 SUB PUSH0 DUP4 ADD MSTORE PUSH2 0x24E0 DUP2 PUSH2 0x24A7 JUMP JUMPDEST SWAP1 POP SWAP2 SWAP1 POP JUMP JUMPDEST PUSH0 PUSH2 0x24F2 DUP3 DUP5 PUSH2 0x2097 JUMP JUMPDEST SWAP2 POP DUP2 SWAP1 POP SWAP3 SWAP2 POP POP JUMP JUMPDEST PUSH32 0x596F752061726520616C726561647920706C6179696E67000000000000000000 PUSH0 DUP3 ADD MSTORE POP JUMP JUMPDEST PUSH0 PUSH2 0x2531 PUSH1 0x17 DUP4 PUSH2 0x1CDD JUMP JUMPDEST SWAP2 POP PUSH2 0x253C DUP3 PUSH2 0x24FD JUMP JUMPDEST PUSH1 0x20 DUP3 ADD SWAP1 POP SWAP2 SWAP1 POP JUMP JUMPDEST PUSH0 PUSH1 0x20 DUP3 ADD SWAP1 POP DUP2 DUP2 SUB PUSH0 DUP4 ADD MSTORE PUSH2 0x255E DUP2 PUSH2 0x2525 JUMP JUMPDEST SWAP1 POP SWAP2 SWAP1 POP JUMP JUMPDEST PUSH32 0x546865207374616B65206D757374206265203120457468657200000000000000 PUSH0 DUP3 ADD MSTORE POP JUMP JUMPDEST PUSH0 PUSH2 0x2599 PUSH1 0x19 DUP4 PUSH2 0x1CDD JUMP JUMPDEST SWAP2 POP PUSH2 0x25A4 DUP3 PUSH2 0x2565 JUMP JUMPDEST PUSH1 0x20 DUP3 ADD SWAP1 POP SWAP2 SWAP1 POP JUMP JUMPDEST PUSH0 PUSH1 0x20 DUP3 ADD SWAP1 POP DUP2 DUP2 SUB PUSH0 DUP4 ADD MSTORE PUSH2 0x25C6 DUP2 PUSH2 0x258D JUMP JUMPDEST SWAP1 POP SWAP2 SWAP1 POP JUMP JUMPDEST PUSH0 PUSH2 0x25D7 DUP3 PUSH2 0x18EE JUMP JUMPDEST SWAP2 POP PUSH2 0x25E2 DUP4 PUSH2 0x18EE JUMP JUMPDEST SWAP3 POP DUP3 DUP3 SUB SWAP1 POP DUP2 DUP2 GT ISZERO PUSH2 0x25FA JUMPI PUSH2 0x25F9 PUSH2 0x1F90 JUMP JUMPDEST JUMPDEST SWAP3 SWAP2 POP POP JUMP JUMPDEST PUSH0 PUSH2 0x260A DUP3 PUSH2 0x18EE JUMP JUMPDEST SWAP2 POP PUSH2 0x2615 DUP4 PUSH2 0x18EE JUMP JUMPDEST SWAP3 POP DUP3 DUP3 ADD SWAP1 POP DUP1 DUP3 GT ISZERO PUSH2 0x262D JUMPI PUSH2 0x262C PUSH2 0x1F90 JUMP JUMPDEST JUMPDEST SWAP3 SWAP2 POP POP JUMP JUMPDEST PUSH32 0x4E487B7100000000000000000000000000000000000000000000000000000000 PUSH0 MSTORE PUSH1 0x31 PUSH1 0x4 MSTORE PUSH1 0x24 PUSH0 REVERT JUMPDEST PUSH0 PUSH1 0x60 DUP3 ADD SWAP1 POP PUSH2 0x2673 PUSH0 DUP4 ADD DUP7 PUSH2 0x1D42 JUMP JUMPDEST PUSH2 0x2680 PUSH1 0x20 DUP4 ADD DUP6 PUSH2 0x1D42 JUMP JUMPDEST PUSH2 0x268D PUSH1 0x40 DUP4 ADD DUP5 PUSH2 0x18F7 JUMP JUMPDEST SWAP5 SWAP4 POP POP POP POP JUMP JUMPDEST PUSH0 PUSH1 0x40 DUP3 ADD SWAP1 POP PUSH2 0x26A8 PUSH0 DUP4 ADD DUP6 PUSH2 0x1D42 JUMP JUMPDEST PUSH2 0x26B5 PUSH1 0x20 DUP4 ADD DUP5 PUSH2 0x1D33 JUMP JUMPDEST SWAP4 SWAP3 POP POP POP JUMP INVALID LOG2 PUSH5 0x6970667358 0x22 SLT KECCAK256 PUSH6 0x7E7400DA66D7 PUSH0 0xB7 PUSH29 0xD6FE5B9EDFF43532D2E5BF280B8D420D100B080DE84164736F6C634300 ADDMOD BYTE STOP CALLER "
				},
				"gasEstimates": {
					"creation": {
						"codeDepositCost": "1994000",
						"executionCost": "46323",
						"totalCost": "2040323"
					},
					"external": {
						"compareStrings(string,string)": "infinite",
						"isWinner(string,string)": "infinite",
						"play(bytes32)": "infinite",
						"playerQueue(uint256)": "5032",
						"players(address)": "infinite",
						"reveal(string,string)": "infinite",
						"revealTime()": "2425",
						"stake()": "2426",
						"withdraw()": "infinite"
					}
				},
				"methodIdentifiers": {
					"compareStrings(string,string)": "bed34bba",
					"isWinner(string,string)": "943e0a04",
					"play(bytes32)": "c7a1865b",
					"playerQueue(uint256)": "e71a0706",
					"players(address)": "e2eb41ff",
					"reveal(string,string)": "5ba1b2c7",
					"revealTime()": "ba829d71",
					"stake()": "3a4b66f1",
					"withdraw()": "3ccfd60b"
				}
			},
			"storageLayout": {
				"storage": [
					{
						"astId": 44,
						"contract": "contracts/RSPGame.sol:RPSGame",
						"label": "players",
						"offset": 0,
						"slot": "0",
						"type": "t_mapping(t_address,t_struct(Player)13_storage)"
					},
					{
						"astId": 47,
						"contract": "contracts/RSPGame.sol:RPSGame",
						"label": "playerQueue",
						"offset": 0,
						"slot": "1",
						"type": "t_array(t_address)dyn_storage"
					},
					{
						"astId": 50,
						"contract": "contracts/RSPGame.sol:RPSGame",
						"label": "stake",
						"offset": 0,
						"slot": "2",
						"type": "t_uint256"
					},
					{
						"astId": 53,
						"contract": "contracts/RSPGame.sol:RPSGame",
						"label": "revealTime",
						"offset": 0,
						"slot": "3",
						"type": "t_uint256"
					}
				],
				"types": {
					"t_address": {
						"encoding": "inplace",
						"label": "address",
						"numberOfBytes": "20"
					},
					"t_array(t_address)dyn_storage": {
						"base": "t_address",
						"encoding": "dynamic_array",
						"label": "address[]",
						"numberOfBytes": "32"
					},
					"t_bool": {
						"encoding": "inplace",
						"label": "bool",
						"numberOfBytes": "1"
					},
					"t_bytes32": {
						"encoding": "inplace",
						"label": "bytes32",
						"numberOfBytes": "32"
					},
					"t_mapping(t_address,t_struct(Player)13_storage)": {
						"encoding": "mapping",
						"key": "t_address",
						"label": "mapping(address => struct RPSGame.Player)",
						"numberOfBytes": "32",
						"value": "t_struct(Player)13_storage"
					},
					"t_string_storage": {
						"encoding": "bytes",
						"label": "string",
						"numberOfBytes": "32"
					},
					"t_struct(Player)13_storage": {
						"encoding": "inplace",
						"label": "struct RPSGame.Player",
						"members": [
							{
								"astId": 4,
								"contract": "contracts/RSPGame.sol:RPSGame",
								"label": "vote",
								"offset": 0,
								"slot": "0",
								"type": "t_string_storage"
							},
							{
								"astId": 6,
								"contract": "contracts/RSPGame.sol:RPSGame",
								"label": "hashedVote",
								"offset": 0,
								"slot": "1",
								"type": "t_bytes32"
							},
							{
								"astId": 8,
								"contract": "contracts/RSPGame.sol:RPSGame",
								"label": "revealed",
								"offset": 0,
								"slot": "2",
								"type": "t_bool"
							},
							{
								"astId": 10,
								"contract": "contracts/RSPGame.sol:RPSGame",
								"label": "opponent",
								"offset": 1,
								"slot": "2",
								"type": "t_address"
							},
							{
								"astId": 12,
								"contract": "contracts/RSPGame.sol:RPSGame",
								"label": "deadline",
								"offset": 0,
								"slot": "3",
								"type": "t_uint256"
							}
						],
						"numberOfBytes": "128"
					},
					"t_uint256": {
						"encoding": "inplace",
						"label": "uint256",
						"numberOfBytes": "32"
					}
				}
			},
			"userdoc": {
				"kind": "user",
				"methods": {
					"play(bytes32)": {
						"notice": "The vote must be a valid character ('R', 'P', 'S')         and be concatenated with salt. The hashing         algorithm to be used is keccak256.The player must deposit a stake of 1 Ether to join."
					},
					"reveal(string,string)": {
						"notice": "To reveal the vote, the player must use         the same vote and salt used to create the hash."
					},
					"withdraw()": {
						"notice": "You can only withdraw on victory, tie, or timeout of the deadline."
					}
				},
				"notice": "This contract allows players to participate in a Rock-Paper-Scissors game with a stake.         Players submit their hashed votes and later reveal them to determine the winner.         The gas fee for two player finishing a normal game where no unusual protocol violations .        happen is: 428 555 gas.",
				"version": 1
			}
		}
	}
}